:020000040800F2
:10000000C825002045010008095C0008693D00087A
:10001000455B0008350E0008698D000800000000EF
:10002000000000000000000000000000E562000881
:1000300051120008000000007D61000831690008CD
:100040006D9900085D6100085F0100085F0100080C
:100050005F010008596200085F0100085F010008A5
:100060005F0100085F0100085F010008D51100086A
:100070005F0100085F0100085F0100085F010008E0
:100080005F0100085F0100085F0100085F010008D0
:100090005F0100085F0100085F0100085F010008C0
:1000A0005F0100085F0100085F0100085F010008B0
:1000B000696D00085F0100085F0100085F0100082A
:1000C0005F0100085F0100085F0100085F01000890
:1000D0005F010008F17200085F0100085F0100087D
:1000E0005F0100085F0100085F0100085F01000870
:1000F0005F0100085F0100085F0100085F01000860
:100100005F0100085F0100085F0100085F0100084F
:100110005F0100085F0100085F0100085F0100083F
:100120005F0100085F0100085F010008111200086C
:10013000DFF80CD000F0F6FB004800479599000866
:10014000C82500200648804706480047FEE7FEE72E
:10015000FEE7FEE7FEE7FEE7FEE7FEE7FEE7FEE777
:10016000096D000831010008F0B480EA0102D40FE3
:100170004200B2EB410F02D20246084611464A0045
:1001800042D0C30DDDB2C1F3C752AD1A202D35DA0E
:10019000C1F3160141F4000204B15242C5F1200638
:1001A00002FA06F12A411044B3EBD05F23D0C4B168
:1001B000012DA0EBC35009DCF0BC4FF0004202EA75
:1001C000C352DBB200F5000000F07EBA400000F13F
:1001D000807000EBC350A0F1807040EAD1704900FC
:1001E00009E0490841EAC071A0EBC35000F50000E6
:1001F000400800EBC350F0BC00F05DBA6142012240
:1002000002EB4101001BF6E7F0BC704781F00041B2
:10021000AAE780F00040A7E780EA010210B502F0EB
:100220000043400022D04A001FD0010E01EB1261B2
:10023000C0F35600C2F3560240F4000042F400023C
:10024000A0FB022000047F39140400D0401C50EAB7
:10025000124001D44000491EC2B20C0604EBD0107B
:10026000401C4008802A02D003E0002010BD20F08E
:100270000100002900DA0020184310BD30B480EAE4
:10028000010202F0004530F0004221F0004013D09E
:1002900090B1C30DD40DC2F31601C0F31600E41AD9
:1002A00041F4000140F400027D34914201D3641C0A
:1002B00000E04900002C02DA30BC002070474FF407
:1002C00000000023914201D3891A034340084FEAFA
:1002D0004101F7D151B1914202D14FF0004105E007
:1002E00002D24FF0010101E06FF0010103EBC450B5
:1002F000284430BC00F0DFB92DE9FE4F804681EA8A
:100300000300C00F0C46009021F0004123F000458F
:10031000B8EB0200A94105D24046214690461C4652
:100320000B46024623F00040104347D0270DC7F389
:100330000A00C3F30A510290401A019040286BDA78
:10034000C3F3130040F4801B0098924620B10023B1
:10035000D2EB030A63EB0B0B01985946C0F1400244
:10036000504600F077F906460D4650465946019A28
:1003700000F08FF910EB08006141002487EA115268
:1003800084EAE7731A4340D0009A62B3019A012AC3
:100390004FEA075215DC001B61EB02014FF00042EF
:1003A00002EA0752CDE90042001C41F580113246B5
:1003B0002B4600F0C6F903B0BDE8F08F4046214659
:1003C000F9E7001B61EB0201001C41F580130018E6
:1003D0005B412018A2F5001747EB030140EAD570F6
:1003E000B6196D4111E06D084FEA360645EAC07551
:1003F0004FEA0752001B61EB0201001C41F580111E
:1004000049084FEA30000019514132462B4603B0EB
:10041000BDE8F04F00F086B90098012240000023AB
:10042000D0EB020263EBE073009821464FEAE074E0
:10043000B8EB000061EB0401E9E783F000435BE700
:1004400081F0004158E72DE9F04D81EA030404F002
:10045000004B21F0004514464FF0000A23F0004104
:1004600050EA050220D054EA01021DD0C5F30A5714
:100470000246C5F31303C1F31300C1F30A5640F457
:10048000801543F48013A7EB0608101BD64608F22C
:10049000FD3873EB050002D308F1010801E0921862
:1004A0005B41B8F1000F03DA00200146BDE8F08D92
:1004B00000204FF48011064684460EE0171B73EBB4
:1004C000050705D3121B63EB050306434CEA010C39
:1004D00049084FEA300092185B4150EA0107EDD11C
:1004E00052EA030012D082EA040083EA05010843BD
:1004F00005D0101BAB4106D20122002306E00022EA
:100500004FF0004302E06FF0010253101AEB0600B7
:100510004CEB085110EB0A0041EB0B01BDE8F04D2C
:1005200000F000B9C10F80EAE0700844CA079623C2
:10053000002100F0C9B896230022114600F0C4B88B
:1005400020F00040C10DC0F3160040F400007F29E8
:1005500001DA00207047962903DCC1F19601C840FA
:10056000704796398840704700F0004230F00040F4
:100570000AD0C10D01F56071C0F3160042EA0151C5
:10058000C20840071143704700200146704701F040
:10059000004330B421F0004150EA010206D00A0DB8
:1005A000A2F56072C1F31301002A02DC30BC002006
:1005B0007047440F44EAC104C100E01830BC00EBAE
:1005C000C25000F078B830B50B460146002020221A
:1005D000012409E021FA02F59D4205D303FA02F550
:1005E000491B04FA02F52844151EA2F10102F1DCB0
:1005F00030BD2DE9F05F0546002092469B468846B7
:100600000646814640241BE028464146474622468E
:1006100000F02FF853465A46C01A914110D31146A4
:100620001846224600F016F82D1A67EB01084F46CF
:1006300022460120002100F00DF817EB00094E4181
:10064000201EA4F10104DFDC484631462A46434619
:10065000BDE8F09F202A04DB203A00FA02F10020D6
:1006600070479140C2F1200320FA03F319439040F0
:100670007047202A04DB203A21FA02F0002170475B
:1006800021FA02F3D040C2F12002914008431946FA
:100690007047202A06DBCB17203A41FA02F043EAE2
:1006A000E07306E041FA02F3D040C2F1200291402B
:1006B0000843194670470029A8BF7047401C4900ED
:1006C00008BF20F00100704710B4B0FA80FC00FAB7
:1006D0000CF050EA010404BF10BC704749B1CCF1E2
:1006E000200421FA04F411FA0CF118BF012121436E
:1006F0000843A3EB0C01CB1D4FEA00614FEA102029
:1007000042BF002010BC704700EBC35010440029CA
:10071000A4BF10BC7047401C490008BF20F0010076
:1007200010BC704710B5141E73F1000408DA401CA9
:1007300041F1000192185B411A4301D120F0010000
:1007400010BD2DE9F04D92469B4611B1B1FA81F2F0
:1007500002E0B0FA80F220329046FFF77BFF0446B9
:100760000F4640EA0A0041EA0B0153465A46084345
:1007700013D0114653EA010019D0C8F14002504687
:10078000FFF777FF05460E46504659464246FFF7AB
:1007900061FF084305D0012004E020463946BDE84A
:1007A000F08D0020054346EAE0762C4337430A9853
:1007B0006305E40AA0EB08000022FD0A44EA47545E
:1007C0000A3002D500200146E9E701051019694108
:1007D000DDE9084500196941BDE8F04DA2E72DE9C2
:1007E000FE4F81EA030404F0004421F0004100942C
:1007F0004FF0000B23F0004350EA01045ED052EAB0
:1008000003045BD0C3F30A54C1F30A552C44A4F289
:10081000F3340194A0FB0254C1F3130141F480119D
:10082000C3F3130343F4801301FB024400FB034EA4
:10083000840A970A44EA815447EA8357A4FB07686D
:1008400002958D0A05FB07854FEA932C04FB0C5497
:100850002705029D4FEA065847EA1637B5EB08050B
:100860006EEB070C870E920E47EA811742EA83125D
:10087000A7FB0201B6EB0B0164EB00042B0D43EA6E
:100880000C335E1844EB1C50DA465146E7FB02017C
:10089000C5F313044FEA0B3343EA14534FEA04320F
:1008A000019C43EA0603A4F10C040294009CCDE9E8
:1008B00000B4FFF746FF03B0BDE8F08F002001460B
:1008C000F9E7C1F30A52C1F3130140F2FF3341F4D7
:1008D00080119A4202DA00200146704740F2334309
:1008E0009A42A2F2334202DC5242FFF7C2BEFFF745
:1008F000B1BE000030B5041E71F1000404DB4FF0FE
:100900000044404264EB0101141E73F1000405DB56
:100910001C464FF00043524263EB0403994208BF68
:10092000904230BD064C074D06E0E06840F0010300
:1009300094E8070098471034AC42F6D3FFF7FCFB6D
:1009400018A8000838A8000870B58C1810F8015BCA
:1009500015F0070301D110F8013B2A1106D110F858
:10096000012B03E010F8016B01F8016B5B1EF9D15C
:100970002B0705D40023521E0DD401F8013BFAE7E2
:1009800010F8013BCB1A921C03E013F8015B01F84D
:10099000015B521EF9D5A142D8D3002070BD0000E2
:1009A00080B582B0014601900198009100F044F8B2
:1009B00002B080BD80B582B00146019001980091DF
:1009C000FFF7EEFF02B080BD80B582B00020C4F218
:1009D00002000121019003F071FE019803F032FE44
:1009E000019803F043FE019803F054FE42F20040E8
:1009F000C4F2010003F086FC002002B080BD0000BC
:100A000080B582B040F20040C4F20200052101909E
:100A100003F054FE019803F01FFE019803F030FE2E
:100A2000019803F041FE43F60040C4F2010003F0D8
:100A300069FC002002B080BD80B584B00146029000
:100A4000029842F20042C4F20102904201910DD19B
:100A5000FFE740F22C10C2F200000068017801317B
:100A60000170FFF7B1FF8DF80F0024E0029842F605
:100A70000001C4F20101884204D1FFE700208DF893
:100A80000F0018E0029843F60041C4F201018842C9
:100A90000DD1FFE740F23410C2F200000068017887
:100AA00001310170FFF7ACFF8DF80F0003E000206B
:100AB0008DF80F00FFE79DF80F0004B080BD000027
:100AC000B0B588B09C4696460C4605460790069100
:100AD00005928DF8133007980699059A9DF8133002
:100AE000CDF80CC0CDF808E00194009500F026F98F
:100AF00008B0B0BDB0B588B09C4696460C460546D9
:100B00000790069105928DF8133007980699059A7B
:100B10009DF81330CDF80CC0CDF808E00194009595
:100B2000FFF7CEFF08B0B0BD80B588B00146079092
:100B3000079803220270079841F20002C4F20102F2
:100B40004260079841F210028260079840680028CE
:100B5000019106D0FFE707984068012101F01EFAD5
:100B6000FFE7002006900590049003900290012179
:100B70000391049105900691079880680290079868
:100B8000406800280ED0FFE70798406802A903F0EC
:100B900045FE0799D1F804E089680090704603F09B
:100BA000FBFEFFE707980021C160079840F600426E
:100BB000C4F201020261079844F2400343610798BE
:100BC0008261079848F28002C261079880F820107D
:100BD000079880F82110079881620798A022428424
:100BE00007984162079800F013F808B080BD000034
:100BF00082B0014601900020009102B070470000D1
:100C000082B0014601900020009102B070470000C0
:100C100083B001460190019800780028009107D127
:100C2000FFE70198102141800198082141707CE084
:100C300001980078012807D1FFE701982021418021
:100C40000198082141706FE001980078022807D1CF
:100C5000FFE701982021418001981021417062E056
:100C600001980078032807D1FFE7019840214180CF
:100C700001981021417055E001980078042807D1AF
:100C8000FFE701988021418001981021417048E0E0
:100C900001980078052807D1FFE70198802141805D
:100CA0000198202141703BE001980078062808D186
:100CB000FFE701984FF48071418001982021417035
:100CC0002DE001980078072808D1FFE701984FF43C
:100CD000807141800198402141701FE001980078A7
:100CE000082808D1FFE701984FF40071418001986E
:100CF0004021417011E001980078092808D1FFE7F0
:100D000001984FF40071418001988021417003E007
:100D100001208DF80B000CE0FFE7FFE7FFE7FFE79E
:100D2000FFE7FFE7FFE7FFE7FFE700208DF80B0095
:100D3000FFE79DF80B0003B070470000B0B58CB022
:100D40009C4696460C4605460A90099108928DF8F5
:100D50001F3000208DF81E000A980028CDF818C01A
:100D6000CDF814E0049403950ED0FFE70A9840F202
:100D70003011C2F200010968884205D1FFE70A98E4
:100D8000FFF7D2FE02901FE00A98002809D0FFE783
:100D90000A98002805D1FFE70A98FFF729FF01907C
:100DA00011E00A98002809D0FFE70A98002805D129
:100DB000FFE70A98FFF724FF009003E001208DF879
:100DC0002F0032E0FFE7FFE79DF81F0000280CD05E
:100DD000FFE70A980C3003F029F88DF81E000A98F6
:100DE0004FF0010E80F820E00BE00A980C300999D2
:100DF00003F024F88DF81E000A98002180F82010D6
:100E0000FFE70898002804D0FFE708980A99C8620D
:100E100006E00A9841F2FD21C0F60001C162FFE739
:100E20009DF81E008DF82F00FFE79DF82F000CB0F5
:100E3000B0BD0000FFE7FEE780B584B00A46034678
:100E400003900291039802990192009300F084F8B4
:100E500004B080BD80B584B00A4603460390029179
:100E6000039802990192009300F0A6F804B080BDA7
:100E700080B586B013468C4686468DF817000491DF
:100E800003929DF817000499039A0293CDF804C0C9
:100E9000CDF800E000F0D4F806B080BD80B584B095
:100EA0000A46034603900291039802990192009327
:100EB00000F010F904B080BD80B500F047F980BDA6
:100EC00080B500F049F980BD80B584B00A4603467C
:100ED000039002910398029901920093FFF7ACFFEF
:100EE00004B080BD80B584B00A46034603900291E9
:100EF0000398029901920093FFF7ACFF04B080BD04
:100F000080B586B013468C4686468DF8170004914E
:100F100003929DF817000499039A0293CDF804C038
:100F2000CDF800E0FFF7A4FF06B080BD80B584B027
:100F30000A46034603900291039802990192009396
:100F4000FFF7ACFF04B080BD80B5FFF7B5FF80BDF3
:100F500080B5FFF7B5FF80BD86B00A460346059011
:100F600004910020ADF80C00029001920093FFE77D
:100F70000298049988421BD2FFE79DF80D0005995D
:100F8000029A895C48408DF80F00BDF80C009DF86E
:100F90000F104AF25E32C0F6000232F8111081EAF8
:100FA0000020ADF80C00FFE7029801300290DFE767
:100FB000BDF80C0006B0704780B584B00A46034601
:100FC00003900291039802990192009300F002F8B5
:100FD00004B080BD80B588B00A46034607900691EC
:100FE00000200590049003920293019000F020F8F5
:100FF00001980590FFE705980699884210D2FFE70F
:1010000007980599405C0490049943F20000C4F2EB
:10101000020003F0E3FAFFE7059801300590EAE7E4
:1010200043F20000C4F2020003F0E4FA08B080BD0D
:1010300080B543F20000C4F2020003F0EDFA80BD77
:1010400080B589B013468C4686468DF823000791FB
:10105000069200208DF8160004900393CDF808C086
:10106000CDF804E0FFE70498069988422DD2FFE707
:101070009DF816000799049A895C48408DF817007E
:101080009DF8230001460728009104D0FFE700984F
:1010900031280AD013E09DF817004AF25E51C0F6DD
:1010A0000001085C8DF816000AE09DF817004AF26E
:1010B0005E61C0F60001085C8DF8160000E0FFE7F5
:1010C000FFE7049801300490CDE79DF8160009B0C1
:1010D00080BD000086B00A460346059004910020BA
:1010E00003908DF80B00039001920093FFE70398A3
:1010F000049988420DD2FFE705980399405C9DF85A
:101100000B1008448DF80B00FFE7039801300390A3
:10111000EDE79DF80B00C0F580708DF80B009DF891
:101120000B0006B07047000080B582B043F20000AB
:10113000C4F2020003F032FA40F2040EC2F2000ED2
:1011400001218EF80010019002B080BD40F2040031
:10115000C2F200000078704780B5FFF7E5FF40203D
:1011600003F0DCF840F20400C2F200004FF0000E81
:1011700080F800E080BD000080B500F00DF880BD73
:1011800080B500F017F880BD80B5FFF7F5FF80BD92
:1011900080B5FFF7F5FF80BD80B503F0F7FD0028AF
:1011A00007D0FFE703F0E0FD03F084FD03F064FDEA
:1011B000FFE780BD80B503F0F1FD002809D0FFE70F
:1011C00003F06EFD03F062FD08F0E2FB04F0AAFFFD
:1011D000FFE780BD80B582B00020C4F2020003F0BA
:1011E00085FA002811D0FFE70020C4F20200012197
:1011F00003F090FA002808D0FFE742F20040C4F262
:101200000100FFF7D7FB0190FFE702B080BD0000AF
:1012100080B582B040F20040C4F2020003F070FAE0
:10122000002812D0FFE740F20040C4F2020005217E
:1012300003F070FA002808D0FFE743F60040C4F23C
:101240000100FFF7B7FB0190FFE702B080BD00008F
:101250007047000080B582B001460190019800916E
:1012600000F060F802B080BD80B582B00146019008
:101270000198009100F064F802B080BD80B582B0A2
:10128000014601900198009100F01EF802B080BD67
:1012900080B584B00146039003980028029110D0D5
:1012A000FFE7FFE70398411E0391002808D0FFE7FE
:1012B0004FF47A7000F008F802F0B6FF0190F1E701
:1012C000FFE704B080BD000080B584B00146039004
:1012D00003980028029105D0FFE7039805F064FA0F
:1012E0000190FFE704B080BD80B582B00146019057
:1012F00001980091FFF7AEFF02B080BD80B582B0CB
:101300000146019001980091FFF7AEFF02B080BD49
:1013100080B582B00146019001980091FFF7AEFFC1
:1013200002B080BD82B0014601900091FFE70198B4
:10133000411E0191002801D0FFE7F8E702B0704795
:1013400080B584B0014603900398002802910FD025
:10135000FFE705F005FA002805D1FFE7039805F03F
:1013600003FA019003E00398FFF792FFFFE7FFE71E
:1013700004B080BD80B500F005F880BD80B5FFF7F2
:10138000F9FF80BD80B540F2C021C2F200014FF6E6
:101390000000C0F607004FF4806200F0A7FD80BD9A
:1013A00080B500F03FFA80BD80B5FFF7F9FF80BD42
:1013B000B0B588B09C4696460C4605460790069107
:1013C0008DF817208DF8163007989DF81710405C9F
:1013D00001460328CDF810C0CDF80CE00294019529
:1013E000009100F25B810099DFE811F004005B00DE
:1013F000AE0003019DF8160006999DF8172011F81C
:101400003230184301F832009DF8160006999DF815
:10141000172001EBC2014A7822EA000048709DF8CB
:10142000160006999DF8172001EBC2018A7822EA7E
:10143000000088709DF8160006999DF8172001EBB2
:10144000C201CA7822EA0000C8709DF81600069909
:101450009DF8172001EBC2010A79104308719DF82D
:10146000160006999DF8172001EBC2014A7922EA7D
:10147000000048719DF8160006999DF8172001EBB1
:10148000C2018A7922EA000088719DF81600069947
:101490009DF8172001EBC201CA7922EA0000C87149
:1014A000FDE09DF8160006999DF8172011F83230DE
:1014B000184301F832009DF8160006999DF8172090
:1014C00001EBC2014A78104348709DF81600069956
:1014D0009DF8172001EBC2018A78104388709DF8AF
:1014E000160006999DF8172001EBC201CA7822EA7E
:1014F0000000C8709DF8160006999DF8172001EBB2
:10150000C2010A79104308719DF8160006999DF8EA
:10151000172001EBC2014A79104348719DF816006B
:1015200006999DF8172001EBC2018A791043887152
:101530009DF8160006999DF8172001EBC201CA79A3
:1015400022EA0000C871AAE09DF8160006999DF8ED
:10155000172011F83230184301F832009DF81600B8
:1015600006999DF8172001EBC2014A7822EA000093
:1015700048709DF8160006999DF8172001EBC201EE
:101580008A7822EA000088709DF8160006999DF876
:10159000172001EBC201CA7822EA0000C8709DF84A
:1015A000160006999DF8172001EBC2010A79104335
:1015B00008719DF8160006999DF8172001EBC201ED
:1015C0004A79104348719DF8160006999DF8172036
:1015D00001EBC2018A79104388719DF816000699C3
:1015E0009DF8172001EBC201CA7922EA0000C871F8
:1015F00055E09DF8160006999DF8172011F8323035
:10160000184301F832009DF8160006999DF817203E
:1016100001EBC2014A78104348709DF81600069904
:101620009DF8172001EBC2018A78104388709DF85D
:10163000160006999DF8172001EBC201CA7822EA2C
:101640000000C8709DF8160006999DF8172001EB60
:10165000C2010A79104308719DF8160006999DF899
:10166000172001EBC2014A7922EA000048719DF877
:10167000160006999DF8172001EBC2018A7922EA2B
:10168000000088719DF8160006999DF8172001EB5F
:10169000C201CA7922EA0000C87100E0FFE708B081
:1016A000B0BD0000B0B588B09C4696460C460546D5
:1016B000079006918DF817208DF8163000208DF8D0
:1016C0001500CDF810C0CDF80CE002940195FFE7AD
:1016D0009DF815009DF8171088420FDAFFE707986C
:1016E00006999DF815209DF81630FFF761FEFFE77B
:1016F0009DF8150001308DF81500E9E79DF81600FA
:1017000006999DF8172011F83230184301F832007D
:101710009DF81700C0008DF81500FFE79DF8150033
:101720007F2814DCFFE79DF8160006999DF8172026
:1017300001EBC2019DF815208B5C23EA0000885460
:10174000FFE79DF8150001308DF81500E6E708B0B9
:10175000B0BD000080B590B040F60000C4F20100BA
:1017600001210A90099100F019FC0A98099900F0EA
:1017700015FC0A98099900F011FC0A98099900F0E3
:101780000DFC00200F900E900D900C900B9009997D
:101790000C914FF0020ECDF834E00E900F9040F215
:1017A00001100B900DF12C0E0A9A0890104671460C
:1017B000CDF81CE003F032F80A9906900846089923
:1017C00003F0A4F840F202200B900A990590084615
:1017D000079903F023F80A9904900846059903F045
:1017E00095F840F204400B900A9903900846079937
:1017F00003F014F80A9902900846039903F086F85A
:1018000040F608000B900A9901900846079903F0EA
:1018100005F80A9900900846019903F077F810B08E
:1018200080BD000080B54FF0804003F0A5FE002889
:1018300007D0FFE700F030F94FF0804003F090FB55
:10184000FFE780BD10B585B013468C4686460490F0
:101850008DF80F108DF80E209DF80E0004999DF85C
:101860000F2011F8324024EA000001F832009DF800
:101870000E0004999DF80F2001EBC2014A78104335
:1018800048709DF80E0004999DF80F2001EBC201ED
:101890008A7822EA000088709DF80E0004999DF86D
:1018A0000F2001EBC201CA781043C8709DF80E00EA
:1018B00004999DF80F2001EBC2010A7922EA000089
:1018C00008719DF80E0004999DF80F2001EBC201EC
:1018D0004A79104348719DF80E0004999DF80F2035
:1018E00001EBC2018A7922EA000088719DF80E009E
:1018F00004999DF80F2001EBC201CA791043C87109
:101900000293CDF804C0CDF800E005B010BD000092
:1019100010B585B013468C46864604908DF80F109E
:101920008DF80E209DF80E0004999DF80F2011F8F7
:10193000324024EA000001F832009DF80E000499BC
:101940009DF80F2001EBC2014A7822EA000048709E
:101950009DF80E0004999DF80F2001EBC2018A78D2
:10196000104388709DF80E0004999DF80F2001EB3C
:10197000C201CA781043C8709DF80E0004999DF802
:101980000F2001EBC2010A7922EA000008719DF8DC
:101990000E0004999DF80F2001EBC2014A7922EA5A
:1019A000000048719DF80E0004999DF80F2001EB8E
:1019B000C2018A79104388719DF80E0004999DF840
:1019C0000F2001EBC201CA791043C8710293CDF810
:1019D00004C0CDF800E005B010BD0000B0B588B07F
:1019E0009C4696460C4605468DF81F0006918DF8DC
:1019F00017208DF8163000208DF815008DF8150091
:101A0000CDF810C0CDF80CE002940195FFE79DF8E9
:101A100015009DF8171088421CDAFFE79DF81F009B
:101A2000012808D1FFE706989DF815109DF81620AB
:101A3000FFF708FF07E006989DF815109DF816209F
:101A4000FFF766FFFFE7FFE79DF8150001308DF80F
:101A50001500DCE79DF81700C0008DF81500FFE7C2
:101A60009DF815007F2814DCFFE79DF81600069905
:101A70009DF8172001EBC2019DF815208B5C23EA2D
:101A800000008854FFE79DF8150001308DF815001F
:101A9000E6E708B0B0BD000040F60C00C4F201005B
:101AA00001684FF6F072114040F64042C2F2000267
:101AB000138803F1010CA2F800C040F6C02CC2F25A
:101AC000000C1CF8033003F00F0319440160108868
:101AD000B0F5C07F07DBFFE740F64040C2F20000F0
:101AE00000210180FFE7704780B58CB04FF0804047
:101AF0000121069005F05CF900200B900A900990F6
:101B00000890079006990590084603F03DFA40F2C8
:101B1000F311099140F20001C2F2000109684DF68B
:101B2000836EC4F21B3EA1FB0E1E4FF0FF3202EB90
:101B30009E42ADF81C20059A0A9208928DF82C203E
:101B40000DF11C0E069B049018460391714603F09C
:101B500069FC06990290084603F0ACFA06980599CC
:101B600003F02AFD0698059903F080FD069803F01E
:101B7000D1FA04F081F90599059A04F0B5F81C2111
:101B800001900846019A0091114604F019FA009854
:101B900004F03EF8069803F0F9FA069803F0DEFA2E
:101BA0000CB080BD80B500F005F880BD80B5FFF7B2
:101BB000F9FF80BD80B58AB000208DF8270008901D
:101BC000FFF7C8FDFFF790FF41F2B010C2F200002E
:101BD00040F6C02EC2F2000EC0F800E008988DF862
:101BE0002700FFE79DF8270002284ADCFFE79DF861
:101BF000270040F20E01C2F20001162200FB021083
:101C00004078002814D1FFE79DF8270040F20E012C
:101C1000C2F20001162200FB021041F2B011C2F222
:101C20000001096810F8022B0123FFF73BFD1AE0C1
:101C30009DF8270040F20E01C2F20001162200FBBF
:101C4000021350435A7841F2B013C2F200031B68EA
:101C5000085C01210790104606911946079A069BD9
:101C6000FFF7BCFEFFE741F2B010C2F200000168CE
:101C700080310160FFE79DF8270001308DF82700D3
:101C8000B0E741F2B010C2F2000040F6C021C2F24B
:101C90000001016000208DF82700FFE79DF8270074
:101CA00002284ADCFFE79DF8270040F25001C2F20B
:101CB0000001162200FB02104078002814D1FFE733
:101CC0009DF8270040F25001C2F20001162200FBED
:101CD000021041F2B011C2F20001096810F8022BA3
:101CE0000223FFF7DFFC1AE09DF8270040F25001C5
:101CF000C2F20001162200FB021350435A7841F24F
:101D0000B013C2F200031B68085C02210590104664
:101D100004911946059A049BFFF760FEFFE741F224
:101D2000B010C2F20000016880310160FFE79DF849
:101D3000270001308DF82700B0E741F2B010C2F261
:101D4000000040F6C021C2F20001016000208DF8C1
:101D50002700FFE79DF8270002284ADCFFE79DF8EF
:101D6000270040F29201C2F20001162200FB02108D
:101D70004078002814D1FFE79DF8270040F2920137
:101D8000C2F20001162200FB021041F2B011C2F2B1
:101D90000001096810F8022B0423FFF783FC1AE006
:101DA0009DF8270040F29201C2F20001162200FBCA
:101DB000021350435A7841F2B013C2F200031B6879
:101DC000085C04210390104602911946039A029B75
:101DD000FFF704FEFFE741F2B010C2F20000016815
:101DE00080310160FFE79DF8270001308DF8270062
:101DF000B0E741F2B010C2F2000040F6C021C2F2DA
:101E00000001016000208DF82700FFE79DF8270002
:101E100002284ADCFFE79DF8270040F2D401C2F215
:101E20000001162200FB02104078002814D1FFE7C1
:101E30009DF8270040F2D401C2F20001162200FBF7
:101E4000021041F2B011C2F20001096810F8022B31
:101E50000823FFF727FC1AE09DF8270040F2D40181
:101E6000C2F20001162200FB021350435A7841F2DD
:101E7000B013C2F200031B68085C082101901046F1
:101E800000911946019A009BFFF7A8FDFFE741F278
:101E9000B010C2F20000016880310160FFE79DF8D8
:101EA000270001308DF82700B0E741F2B010C2F2F0
:101EB000000040F6C021C2F2000101600AB080BDFE
:101EC00080B586B013468C46864605900491ADF8E1
:101ED0000E2005980499BDF80E200293CDF804C099
:101EE000CDF800E000F018F806B080BD80B586B0EF
:101EF00013468C46864605900491ADF80E20059851
:101F00000499BDF80E200293CDF804C0CDF800E08E
:101F1000FFF7D6FF06B080BD80B586B013468C466D
:101F2000864605900491ADF80E200020ADF80C0017
:101F30000293CDF804C0CDF800E0FFE7BDF80C0037
:101F4000BDF80E10884213DAFFE7059802F02AFC6C
:101F5000DDF810E0BDF80C102EF8110005980230E5
:101F60000590FFE7BDF80C000130ADF80C00E5E787
:101F700006B080BD80B584B00A46034603908DF854
:101F80000B1003989DF80B100192009300F01AF8C3
:101F900004B080BD80B500F0BDF880BD80B584B0D0
:101FA0000A46034603908DF80B1003989DF80B101A
:101FB00001920093FFF7DEFF04B080BD80B5FFF70C
:101FC000E9FF80BD80B584B00A46034603908DF8D2
:101FD0000B10039840F60001C4F2010188420192FF
:101FE00000930ED1FFE79DF80B00002804D0FFE717
:101FF000042002F05BFA03E0042002F027FAFFE776
:1020000085E0039840F60041C4F2010188420ED1F8
:10201000FFE79DF80B00002804D0FFE7082002F03E
:1020200045FA03E0082002F011FAFFE76FE0039899
:1020300041F20001C4F2010188420ED1FFE79DF890
:102040000B00002804D0FFE7102002F02FFA03E075
:10205000102002F0FBF9FFE759E0039841F200413C
:10206000C4F2010188420ED1FFE79DF80B00002861
:1020700004D0FFE7202002F019FA03E0202002F04C
:10208000E5F9FFE743E0039841F60001C4F20101DE
:1020900088420ED1FFE79DF80B00002804D0FFE72F
:1020A000402002F003FA03E0402002F0CFF9FFE7FE
:1020B0002DE0039841F60041C4F2010188420ED19F
:1020C000FFE79DF80B00002804D0FFE7802002F016
:1020D000EDF903E0802002F0B9F9FFE717E003987B
:1020E00042F20001C4F20101884210D1FFE79DF8DD
:1020F0000B00002805D0FFE74FF4807002F0D6F9FE
:1021000004E04FF4807002F0A1F9FFE7FFE704B0AC
:1021100080BD000080B582B040F60000C4F201002E
:1021200001210191FFF74EFF40F60040C4F201008B
:102130000199FFF747FF41F20000C4F20100019945
:10214000FFF740FF41F20040C4F201000199FFF7A0
:1021500039FF41F60000C4F201000199FFF732FF98
:1021600041F60040C4F201000199FFF72BFF42F253
:102170000000C4F201000199FFF724FF019802F06A
:1021800095F902F033FB02F03DFB02B080BD000088
:1021900040F24C10C2F20000007841F2C451C2F289
:1021A00000010A68104408607047000080B584B0E0
:1021B0000A46034603908DF80B1003989DF80B1008
:1021C0000192009300F0F0FF04B080BD80B501F0F3
:1021D0000DF880BD80B584B00A46034603908DF8A3
:1021E0000B1003989DF80B1001920093FFF7DEFF90
:1021F00004B080BD80B5FFF7E9FF80BD80B5EEB0CB
:1022000001466D9000208DF8B301ADF8B0016D98D6
:10221000826D4079105CA0286B9140F0E884FFE764
:102220006D9805F0DBFADDF8B4E1A0216A90704604
:1022300005F0C4FA6D99D1F858E089791EF80110BB
:1022400001398E4621296990CDF8A0E100F2C584BC
:102250006899DFE811F022004A0074009C00C60073
:10226000ED0016013D0166018D01A801CF01EA01D3
:1022700011022C0253026E029502B002D702F20242
:10228000190334035B0376039D03B803DF03FA03EA
:1022900021043C0463047E04A704012000F0AAFF8B
:1022A000ADF8B0016D98D0F858E081791EF80110B2
:1022B00005F084FA6D994FF0000E6790084671465C
:1022C00005F07CFA6D999DF8B1E16690084671467B
:1022D00005F074FA6D999DF8B0E165900846714675
:1022E00005F06CFA649000F07CBC6D98816DC0794B
:1022F00008448078ADF8B001BDF8B0016D998A6DE1
:10230000C9791144C97841EA0020ADF8B001BDF89F
:10231000B011012001F088FA8DF8B3016D98816D3C
:102320008279895C05F04AFA6D999DF8B321639032
:102330000846114605F042FA629000F052BC0220B5
:1023400000F058FFADF8B0016D98D0F858E08179F1
:102350001EF8011005F032FA6D994FF0000E6190F1
:102360000846714605F02AFA6D999DF8B1E1609032
:102370000846714605F022FA6D999DF8B0E15F902C
:102380000846714605F01AFA5E9000F02ABC6D9876
:10239000816DC07908448078ADF8B001BDF8B00116
:1023A0006D998A6DC9791144C97841EA0020ADF868
:1023B000B001BDF8B011022001F036FA8DF8B3017A
:1023C0006D98816D8279895C05F0F8F96D999DF8B9
:1023D000B3215D900846114605F0F0F95C9000F0DD
:1023E00000BC032000F006FFADF8B0016D98D0F8F6
:1023F00058E081791EF8011005F0E0F96D994FF071
:10240000000E5B900846714605F0D8F96D999DF86D
:10241000B1E15A900846714605F0D0F96D999DF8E2
:10242000B0E159900846714605F0C8F95890D8E3D4
:102430006D98816DC07908448078ADF8B001BDF821
:10244000B0016D998A6DC9791144C97841EA0020BB
:10245000ADF8B001BDF8B011032001F0E5F98DF839
:10246000B3016D98816D8279895C05F0A7F96D994A
:102470009DF8B32157900846114605F09FF95690F4
:10248000AFE3042000F0B6FEADF8B0016D98D0F8CF
:1024900058E081791EF8011005F090F96D994FF020
:1024A000000E55900846714605F088F96D999DF823
:1024B000B1E154900846714605F080F96D999DF898
:1024C000B0E153900846714605F078F9529088E3E0
:1024D0006D98816DC07908448078ADF8B001BDF881
:1024E000B0016D998A6DC9791144C97841EA00201B
:1024F000ADF8B001BDF8B011042001F095F98DF8E8
:10250000B3016D98816D8279895C05F057F96D99F9
:102510009DF8B32151900846114605F04FF95090AF
:102520005FE3012000F0A6FEADF8B0016D98D0F891
:1025300058E081791EF8011005F040F96D994FF0CF
:10254000000E4F900846714605F038F96D999DF8D8
:10255000B1E14E900846714605F030F96D999DF84D
:10256000B0E14D900846714605F028F94C9038E3EB
:102570006D98816DC079095C012001F099F98DF8A1
:10258000B3016D98816D90F806E011F80E1005F01A
:1025900015F96D999DF8B3E14B900846714605F029
:1025A0000DF94A901DE3022000F064FEADF8B00181
:1025B0006D98D0F858E081791EF8011005F0FEF80A
:1025C0006D994FF0000E49900846714605F0F6F8F7
:1025D0006D999DF8B1E148900846714605F0EEF816
:1025E0006D999DF8B0E147900846714605F0E6F810
:1025F0004690F6E26D98816DC079095C022001F089
:1026000057F98DF8B3016D98816D90F806E011F8D7
:102610000E1005F0D3F86D999DF8B3E1459008468A
:10262000714605F0CBF84490DBE2032000F022FE77
:10263000ADF8B0016D98D0F858E081791EF801101E
:1026400005F0BCF86D994FF0000E439008467146B6
:1026500005F0B4F86D999DF8B1E1429008467146D5
:1026600005F0ACF86D999DF8B0E1419008467146CF
:1026700005F0A4F84090B4E26D98816DC079095CD2
:10268000032001F015F98DF8B3016D98816D90F874
:1026900006E011F80E1005F091F86D999DF8B3E180
:1026A0003F900846714605F089F83E9099E2042073
:1026B00000F0E0FDADF8B0016D98D0F858E08179F8
:1026C0001EF8011005F07AF86D994FF0000E3D905C
:1026D0000846714605F072F86D999DF8B1E13C909D
:1026E0000846714605F06AF86D999DF8B0E13B9097
:1026F0000846714605F062F83A9072E26D98816D75
:10270000C079095C042001F0D3F88DF8B3016D980D
:10271000816D90F806E011F80E1005F04FF86D99F4
:102720009DF8B3E139900846714605F047F83890B6
:1027300057E2012000F0DEFDADF8B0016D98D0F851
:1027400058E081791EF8011005F038F86D994FF0C6
:10275000000E37900846714605F030F86D999DF8E7
:10276000B1E136900846714605F028F86D999DF85C
:10277000B0E135900846714605F020F8349030E21B
:102780006D98816DC079095C012001F05BF98DF8CD
:10279000B3016D98816D90F806E011F80E1005F008
:1027A0000DF86D999DF8B3E133900846714605F038
:1027B00005F8329015E2022000F09CFDADF8B00162
:1027C0006D98D0F858E081791EF8011004F0F6FFFA
:1027D0006D994FF0000E31900846714604F0EEFFFF
:1027E0006D999DF8B1E130900846714604F0E6FF1E
:1027F0006D999DF8B0E12F900846714604F0DEFF18
:102800002E90EEE16D98816DC079095C022001F097
:1028100019F98DF8B3016D98816D90F806E011F803
:102820000E1004F0CBFF6D999DF8B3E12D90084692
:10283000714604F0C3FF2C90D3E1032000F05AFD51
:10284000ADF8B0016D98D0F858E081791EF801100C
:1028500004F0B4FF6D994FF0000E2B9008467146BE
:1028600004F0ACFF6D999DF8B1E12A9008467146DD
:1028700004F0A4FF6D999DF8B0E1299008467146D7
:1028800004F09CFF2890ACE16D98816DC079095CE3
:10289000032001F0D7F88DF8B3016D98816D90F8A1
:1028A00006E011F80E1004F089FF6D999DF8B3E170
:1028B00027900846714604F081FF269091E104209C
:1028C00000F018FDADF8B0016D98D0F858E08179AE
:1028D0001EF8011004F072FF6D994FF0000E259064
:1028E0000846714604F06AFF6D999DF8B1E12490A5
:1028F0000846714604F062FF6D999DF8B0E123909F
:102900000846714604F05AFF22906AE16D98816D85
:10291000C079095C042001F095F88DF8B3016D9839
:10292000816D90F806E011F80E1004F047FF6D99E4
:102930009DF8B3E121900846714604F03FFF2090D6
:102940004FE1052000F0D6FCADF8B0016D98D0F84D
:1029500058E081791EF8011004F030FF6D994FF0B6
:10296000000E1F900846714604F028FF6D999DF8EF
:10297000B1E11E900846714604F020FF6D999DF864
:10298000B0E11D900846714604F018FF1C9028E144
:102990006D98816DC079095C052001F053F88DF8C0
:1029A000B3016D98816D90F806E011F80E1004F0F7
:1029B00005FF6D999DF8B3E11B900846714604F040
:1029C000FDFE1A900DE1062000F094FCADF8B00178
:1029D0006D98D0F858E081791EF8011004F0EEFEF1
:1029E0006D994FF0000E19900846714604F0E6FE0E
:1029F0006D999DF8B1E118900846714604F0DEFE2D
:102A00006D999DF8B0E117900846714604F0D6FE26
:102A10001690E6E06D98816DC079095C062001F0A2
:102A200011F88DF8B3016D98816D90F806E011F8FA
:102A30000E1004F0C3FE6D999DF8B3E115900846A1
:102A4000714604F0BBFE1490CBE0072000F052FC6E
:102A5000ADF8B0016D98D0F858E081791EF80110FA
:102A600004F0ACFE6D994FF0000E139008467146CD
:102A700004F0A4FE6D999DF8B1E1129008467146EC
:102A800004F09CFE6D999DF8B0E1119008467146E6
:102A900004F094FE1090A4E06D98816DC079095CFB
:102AA000072000F0CFFF8DF8B3016D98816D90F88D
:102AB00006E011F80E1004F081FE6D999DF8B3E167
:102AC0000F900846714604F079FE0E9089E00820C8
:102AD00000F010FCADF8B0016D98D0F858E08179A5
:102AE0001EF8011004F06AFE6D994FF0000E0D9073
:102AF0000846714604F062FE6D999DF8B1E10C90B4
:102B00000846714604F05AFE6D999DF8B0E10B90AD
:102B10000846714604F052FE0A9062E06D98816D9D
:102B2000C079095C082000F08DFF8DF8B3016D9825
:102B3000816D90F806E011F80E1004F03FFE6D99DB
:102B40009DF8B3E109900846714604F037FE0890FD
:102B500047E06D98816DC0790A18085C517800F0E3
:102B60002BFCADF8B0016D98816D8279895C04F021
:102B700025FE6D99002207900846114604F01EFEBE
:102B80006D999DF8B12106900846114604F016FE95
:102B90006D999DF8B02105900846114604F00EFE8F
:102BA00004901EE06D98816DC079095C072000F0EB
:102BB00049FF8DF8B3016D98816D90F806E011F82A
:102BC0000E1004F0FBFD6D999DF8B3E103900846EB
:102BD000714604F0F3FD029003E002208DF8B3018A
:102BE000FFE76D98012104F003FE019003E001204E
:102BF0008DF8B301FFE79DF8B3016EB080BD000012
:102C000080B584B00146039000208DF80B00039836
:102C1000002801912ED0FFE7039804F0F9FD012868
:102C200022D1FFE7039804F0B5FD00280CD1FFE79F
:102C3000039804F0B9FD002806D1FFE70398FFF7D9
:102C4000DDFA8DF80B0009E0039801784A1E4AF27C
:102C50008B71C0F6000105F0F1FDFFE7039804F069
:102C600055FE8DF80B000AE0039804F059FE8DF82C
:102C70000B0003E002208DF80B00FFE7FFE79DF853
:102C80000B0004B080BD000080B582B001468DF815
:102C900007009DF80700C007002800910DD0FFE74E
:102CA00041F20000C4F201001021C0F2104101F015
:102CB00081FE0520FEF718FB0CE041F20000C4F293
:102CC00001001021C0F2104101F02EFE0520FEF798
:102CD0000BFBFFE79DF80700800700280DD5FFE7F5
:102CE00041F20000C4F201000821C0F2084101F0E5
:102CF00061FE0520FEF7F8FA0CE041F20000C4F294
:102D000001000821C0F2084101F00EFE0520FEF787
:102D1000EBFAFFE79DF80700400700280DD5FFE715
:102D200041F20000C4F201000421C0F2044101F0AC
:102D300041FE0520FEF7D8FA0CE041F20000C4F293
:102D400001000421C0F2044101F0EEFD0520FEF770
:102D5000CBFAFFE79DF80700000700280DD5FFE735
:102D600041F20000C4F201000221C0F2024101F070
:102D700021FE0520FEF7B8FA0CE041F20000C4F293
:102D800001000221C0F2024101F0CEFD0520FEF754
:102D9000ABFAFFE79DF80700C00600280DD5FFE756
:102DA00041F20000C4F201000121C0F2014101F032
:102DB00001FE0520FEF798FA0CE041F20000C4F293
:102DC00001000121C0F2014101F0AEFD0520FEF736
:102DD0008BFAFFE79DF80700800600280CD5FFE777
:102DE00041F20000C4F2010048F2800101F0E2FD6E
:102DF0000520FEF779FA0BE041F20000C4F2010071
:102E000048F2800101F090FD0520FEF76DFAFFE722
:102E100002B080BD80B5AAB041F20000C4F201004A
:102E2000012124902391FFF7B9F824982399FFF703
:102E3000B5F824982399FFF7B1F824982399FFF760
:102E4000ADF824982399FFF7A9F824982399FFF760
:102E5000A5F840F60040C4F2010022902399FFF744
:102E60009DF822982399FFF799F824982399FFF762
:102E700095F840F60000C4F2010021902399FFF775
:102E80008DF822982399FFF789F822982399FFF764
:102E900085F821982399FFF781F821982399FFF766
:102EA0007DF821982399FFF779F821982399FFF766
:102EB00075F821982399FFF771F821982399FFF766
:102EC0006DF800202990289027902690259023992E
:102ED00026914FF0030ECDF89CE04FF0040ECDF894
:102EE000A0E0299148F2800ECDF894E025AA249B19
:102EF0002090184611461F92CDF878E001F08EFC24
:102F000024991D9008461E9901F054FD0120C0F23D
:102F10000140259024991C9008461F9901F07EFCE1
:102F200024991B9008461C9901F044FD0220C0F230
:102F30000240259024991A9008461F9901F06EFCD2
:102F40002499199008461A9901F034FD0420C0F222
:102F5000044025902499189008461F9901F05EFCC2
:102F6000249917900846189901F024FD0820C0F212
:102F7000084025902499169008461F9901F04EFCB0
:102F8000249915900846169901F014FD1020C0F2FE
:102F9000104025902499149008461F9901F03EFC9A
:102FA000249913900846149901F004FD2098289064
:102FB000299040F60801259122981F9A12911146F6
:102FC00001F02CFC229911900846129901F0F2FCB4
:102FD00041F2100025902299109008461F9901F0A7
:102FE0001DFC22990F900846109901F0E3FC1098FF
:102FF000259024981F9901F011FC24990E90084601
:10300000109901F0D7FC1098259021981F9901F094
:1030100005FC21990D900846109901F0CBFC1C98F5
:10302000259022981F9901F0F9FB22990C900846EF
:103030001C9901F0BFFC1A98259022981F9901F065
:10304000EDFB22990B9008461A9901F0B3FC802001
:10305000C0F28040259021990A9008461F9901F0FE
:10306000DDFB2199099008460A9901F0A3FC149808
:10307000259021981F9901F0D1FB219908900846CD
:10308000149901F097FC1698259021981F9901F04A
:10309000C5FB219907900846169901F08BFC1E98F4
:1030A000259021981F9901F0B9FB219906900846B7
:1030B0001E9901F07FFC44F2400025902199059073
:1030C00008461F9901F0AAFB21990490084605992A
:1030D00001F070FC42F220002590219903900846EF
:1030E0001F9901F09BFB219902900846039901F07A
:1030F00061FC0A20FEF70CF92298129901F014FCE9
:1031000005200190FEF7F0F82298109901F00CFCD0
:103110000198FEF7E9F82498109901F005FC019850
:10312000FEF7E2F82198109901F0FEFB0198FEF7F6
:10313000DBF822981C9901F0F7FB0198FEF7D4F810
:1031400022981A9901F0F0FB0198FEF7CDF821982A
:103150000A9901F0E9FB0198FEF7C6F82198149945
:1031600001F0E2FB0198FEF7BFF82198169901F0F3
:10317000DBFB0198FEF7B8F821981E9901F0D4FB0B
:103180000198FEF7B1F82198059901F0CDFB01985F
:10319000FEF7AAF82198039901F0C6FB0198FEF703
:1031A000A3F82AB080BD000080B586B00A46034669
:1031B00005908DF8131000208DF812009DF8130073
:1031C0000528039202930CD3FFE705984AF2857114
:1031D000C0F6000106F002FC05218DF812100190E6
:1031E000FFE79DF8120006B080BD000080B5FFF734
:1031F00011FE80BD83B001468DF80B000020ADF8B4
:1032000008009DF80B00024604280191009229D87D
:103210000099DFE801F003070F171F000020ADF849
:10322000080023E040F20600C2F200000088ADF87A
:1032300008001BE040F20800C2F200000088ADF870
:10324000080013E040F20A00C2F200000088ADF866
:1032500008000BE040F20C00C2F200000088ADF85C
:10326000080003E00020ADF80800FFE7BDF8080003
:1032700003B0704783B001468DF80B000020ADF815
:1032800008009DF80B00024604280191009229D8FD
:103290000099DFE801F003070F171F000020ADF8C9
:1032A000080023E040F64440C2F200000088ADF878
:1032B00008001BE040F64840C2F200000088ADF86C
:1032C000080013E040F64C40C2F200000088ADF860
:1032D00008000BE040F65040C2F200000088ADF854
:1032E000080003E00020ADF80800FFE7BDF8080083
:1032F00003B0704783B001468DF80B000020ADF895
:1033000008009DF80B0002460828019100924BD856
:103310000099DFE801F0050911192129313941002F
:103320000020ADF8080043E040F65440C2F200002F
:103330000088ADF808003BE040F65840C2F20000BB
:103340000088ADF8080033E040F65C40C2F20000AF
:103350000088ADF808002BE040F66040C2F20000A3
:103360000088ADF8080023E040F66440C2F2000097
:103370000088ADF808001BE040F66840C2F200008B
:103380000088ADF8080013E040F66C40C2F200007F
:103390000088ADF808000BE040F67040C2F2000073
:1033A0000088ADF8080003E00020ADF80800FFE752
:1033B000BDF8080003B0704785B00A4603468DF893
:1033C00013008DF812100020ADF810009DF81300C6
:1033D0000146042803920293019151D80199DFE834
:1033E00001F00307192B3D000020ADF810004BE061
:1033F00040F20600C2F200000088ADF8100040F66E
:103400004440C2F200000088BDF810100844ADF836
:10341000100039E040F20800C2F200000088ADF868
:10342000100040F64840C2F200000088BDF81010BD
:103430000844ADF8100027E040F20A00C2F2000094
:103440000088ADF8100040F64C40C2F20000008841
:10345000BDF810100844ADF8100015E040F20C0063
:10346000C2F200000088ADF8100040F65040C2F2F1
:1034700000000088BDF810100844ADF8100003E00B
:103480000020ADF81000FFE7BDF81000002800F0A4
:103490007080FFE79DF8120001460828009163D86C
:1034A0000099DFE801F00509141F2A35404B56004A
:1034B0000020ADF810005BE040F65440C2F200007E
:1034C0000088BDF810100844ADF8100050E040F638
:1034D0005840C2F200000088BDF810100844ADF852
:1034E000100045E040F65C40C2F200000088BDF8E4
:1034F00010100844ADF810003AE040F66040C2F207
:1035000000000088BDF810100844ADF810002FE04E
:1035100040F66440C2F200000088BDF81010084474
:10352000ADF8100024E040F66840C2F200000088C8
:10353000BDF810100844ADF8100019E040F66C40DA
:10354000C2F200000088BDF810100844ADF8100069
:103550000EE040F67040C2F200000088BDF8101086
:103560000844ADF8100003E00020ADF81000FFE7BC
:10357000FFE7BDF8100005B07047000080B584B0CB
:1035800001468DF80F009DF80F0002463F2802917A
:10359000019200F243810199DFE811F040004400FC
:1035A00048004C005000540058005C00600064006B
:1035B00068006C007000740078007C00800084005B
:1035C00088008C009000940098009C00A000A4004B
:1035D000A800AC00B000B400B800BC00C000C4003B
:1035E000C800CC00D000D400D800DC00E000E4002B
:1035F000E800EC00F000F400F800FC000001040119
:1036000008010C011001140118011C012001240102
:1036100028012C013001340138013C013F20FFF723
:1036200033FBFFE03E20FFF72FFBFBE03D20FFF7E1
:103630002BFBF7E03C20FFF727FBF3E03B20FFF7F5
:1036400023FBEFE03A20FFF71FFBEBE03920FFF709
:103650001BFBE7E03820FFF717FBE3E03720FFF71D
:1036600013FBDFE03620FFF70FFBDBE03520FFF731
:103670000BFBD7E03420FFF707FBD3E03320FFF745
:1036800003FBCFE03220FFF7FFFACBE03120FFF75A
:10369000FBFAC7E03020FFF7F7FAC3E02F20FFF76F
:1036A000F3FABFE02E20FFF7EFFABBE02D20FFF783
:1036B000EBFAB7E02C20FFF7E7FAB3E02B20FFF797
:1036C000E3FAAFE02A20FFF7DFFAABE02920FFF7AB
:1036D000DBFAA7E02820FFF7D7FAA3E02720FFF7BF
:1036E000D3FA9FE02620FFF7CFFA9BE02520FFF7D3
:1036F000CBFA97E02420FFF7C7FA93E02320FFF7E7
:10370000C3FA8FE02220FFF7BFFA8BE02120FFF7FA
:10371000BBFA87E02020FFF7B7FA83E01F20FFF70E
:10372000B3FA7FE01E20FFF7AFFA7BE01D20FFF722
:10373000ABFA77E01C20FFF7A7FA73E01B20FFF736
:10374000A3FA6FE01A20FFF79FFA6BE01920FFF74A
:103750009BFA67E01820FFF797FA63E01720FFF75E
:1037600093FA5FE01620FFF78FFA5BE01520FFF772
:103770008BFA57E01420FFF787FA53E01320FFF786
:1037800083FA4FE01220FFF77FFA4BE01120FFF79A
:103790007BFA47E01020FFF777FA43E00F20FFF7AE
:1037A00073FA3FE00E20FFF76FFA3BE00D20FFF7C2
:1037B0006BFA37E00C20FFF767FA33E00B20FFF7D6
:1037C00063FA2FE00A20FFF75FFA2BE00920FFF7EA
:1037D0005BFA27E00820FFF757FA23E00720FFF7FE
:1037E00053FA1FE00620FFF74FFA1BE00520FFF712
:1037F0004BFA17E00420FFF747FA13E00320FFF726
:1038000043FA0FE00220FFF73FFA0BE00120FFF739
:103810003BFA07E00020FFF737FA03E03F20FFF70D
:1038200033FAFFE704B080BD85B00A4603468DF841
:103830001300ADF8101000208DF80F009DF8130054
:103840000146042802920193009129D80099DFE8EB
:1038500001F003070F171F0001208DF80F0023E070
:10386000BDF8100040F20601C2F2000108801BE022
:10387000BDF8100040F20801C2F20001088013E018
:10388000BDF8100040F20A01C2F2000108800BE00E
:10389000BDF8100040F20C01C2F20001088003E004
:1038A00001208DF80F00FFE79DF80F0005B070476D
:1038B00080B588B00A4603468DF81F008DF81E10AB
:1038C00000208DF81D009DF81E00ADF81A00BDF80F
:1038D0001A0000EB8000ADF81A009DF81E0005925A
:1038E0000493FFF74BFE9DF81F0001460428039147
:1038F00071D80399DFE801F00307213B550001204F
:103900008DF81D006BE040F60040C4F2010040F667
:10391000080101F04FF80520FDF7E6FCBDF81A009C
:1039200040F64441C2F2000108809DF81E0040F6B6
:103930004241C2F20001087051E040F60040C4F27A
:10394000010041F2100101F035F80520FDF7CCFC33
:10395000BDF81A0040F64841C2F2000108809DF807
:103960001E0040F64641C2F20001087037E0BDF883
:103970001A0040F64C41C2F2000108809DF81E007A
:1039800040F64A41C2F20001087041F20000C4F260
:10399000010041F2100101F00DF80520FDF7A4FC33
:1039A0001DE040F60000C4F2010041F2100101F0F8
:1039B00001F80520FDF798FCBDF81A0040F65041CB
:1039C000C2F2000108809DF81E0040F64E41C2F28E
:1039D0000001087003E001208DF81D00FFE70A20B8
:1039E000FDF796FC40F60040C4F2010040F60801E5
:1039F000029000F099FF05200190FDF775FC41F25F
:103A00001000029900900846009900F08DFF01987F
:103A1000FDF76AFC41F20000C4F20100009900F0D9
:103A200083FF0198FDF760FC40F60000C4F201003E
:103A3000009900F079FF0198FDF756FC9DF81D00F4
:103A400008B080BD80B588B00A4603468DF81F00D7
:103A50008DF81E1000208DF81D009DF81E00ADF899
:103A60001A00BDF81A0000EB8000ADF81A009DF8AE
:103A70001E0005920493FFF781FD9DF81F0001468B
:103A80000828039100F2E1800399DFE801F00509BD
:103A9000243F5A7590AAC40001208DF81D00D8E07B
:103AA00040F60040C4F201000121C0F2014100F0E3
:103AB00081FF0520FDF718FCBDF81A0040F65441BF
:103AC000C2F2000108809DF81E0040F65241C2F289
:103AD00000010870BDE040F60040C4F20100022180
:103AE000C0F2024100F066FF0520FDF7FDFBBDF8C6
:103AF0001A0040F65841C2F2000108809DF81E00ED
:103B000040F65641C2F200010870A2E040F6000003
:103B1000C4F201008021C0F2804100F04BFF05207B
:103B2000FDF7E2FBBDF81A0040F65C41C2F200016D
:103B300008809DF81E0040F65A41C2F2000108704C
:103B400087E040F60000C4F201001021C0F21041ED
:103B500000F030FF0520FDF7C7FBBDF81A0040F666
:103B60006041C2F2000108809DF81E0040F65E41EF
:103B7000C2F2000108706CE040F60000C4F20100DF
:103B80000821C0F2084100F015FF0520FDF7ACFB4D
:103B9000BDF81A0040F66441C2F2000108809DF8A9
:103BA0001E0040F66241C2F20001087051E040F68A
:103BB0000000C4F2010048F2800100F0FBFE052085
:103BC000FDF792FBBDF81A0040F66841C2F2000111
:103BD00008809DF81E0040F66641C2F200010870A0
:103BE00037E040F60000C4F2010044F2400100F06A
:103BF000E1FE0520FDF778FBBDF81A0040F66C41A8
:103C0000C2F2000108809DF81E0040F66A41C2F22F
:103C1000000108701DE040F60000C4F2010042F20D
:103C2000200100F0C7FE0520FDF75EFBBDF81A007D
:103C300040F67041C2F2000108809DF81E0040F677
:103C40006E41C2F20001087003E001208DF81D00F2
:103C5000FFE70A20FDF75CFB40F60040C4F20100DC
:103C60000121C0F20141029000F05EFE05200190AA
:103C7000FDF73AFB0221C0F20241029800F054FE27
:103C80000198FDF731FB40F60000C4F201008021ED
:103C9000C0F28041009000F047FE0198FDF724FB40
:103CA0001021C0F21041009800F03EFE0198FDF78F
:103CB0001BFB0821C0F20841009800F035FE019876
:103CC000FDF712FB48F28001009800F02DFE0198EC
:103CD000FDF70AFB44F24001009800F025FE019830
:103CE000FDF702FB42F22001009800F01DFE019852
:103CF000FDF7FAFA9DF81D0008B080BD1EF0040F14
:103D00000CBFEFF30880EFF3098000F001B87047B3
:103D100082B00146019040F67440C2F200000022D9
:103D2000C261826142610261C2608260426002607F
:103D3000019A12680260019A52684260019A926880
:103D40008260019AD268C260019A12690261019A86
:103D500052694261019A92698261019AD269C26193
:103D600001BE009102B0704780B5FFF7C7FFFFE7C3
:103D7000FEE7000080B584B00A4603460390029136
:103D8000039802990192009300F09AF804B080BD64
:103D900080B582B0014601900198009100F0E6F8EC
:103DA00002B080BD80B586B00A46034605908DF806
:103DB000131005980392029300F016F99DF8131062
:103DC0000029019006D0FFE70598C18A01F0FE01A5
:103DD000C18205E00598C18A41F00101C182FFE777
:103DE0000598817D00F0EAF905990090084600F0F9
:103DF000BDF806B080BD000080B582B001460190DC
:103E00000198009100F042F902B080BD80B584B005
:103E10000A46034603908DF80B1003989DF80B108B
:103E20000192009300F0CAF904B080BD82B001464F
:103E300001900120009102B07047000080B584B06D
:103E40000A46034603900291039802990192009357
:103E5000FFF790FF04B080BD80B582B001460190AD
:103E600001980091FFF794FF02B080BD80B584B047
:103E70000A46034603908DF80B1003989DF80B102B
:103E800001920093FFF78EFF04B080BD80B582B031
:103E90000146019001980091FFF7AEFF02B080BD8E
:103EA00080B584B00A46034603908DF80B10039842
:103EB0009DF80B1001920093FFF7A8FF04B080BD9E
:103EC00080B590B00A4603460F900E910F98406857
:103ED0000121089107920693FEF760F80F98C068D9
:103EE0000899FEF75BF80F984168806805900846CE
:103EF000059900F06DFD0F98C168006904900846AF
:103F0000049900F065FD00200D900C900B900A9034
:103F100009900F988068099008980A9003210B91E6
:103F200004210C910D900F99486809A9039100F0A4
:103F300075FC0F99096909910F99C96802900846A3
:103F4000039900F06BFC0E990029019004D0FFE763
:103F50000E980F99C86106E00F9841F21131C0F632
:103F60000001C161FFE7002010B080BD80B588B0BE
:103F70000146079000208DF81B000798C268006971
:103F800005901046059A0491114600F021FD07980E
:103F90004168806803900846039900F019FD07986E
:103FA000407D012805DBFFE70798C169407D884710
:103FB000FFE70798C168006902900846029900F07F
:103FC00093FC002804D0FFE701208DF81B00FFE7D9
:103FD00007984168806801900846019900F0B2FC9A
:103FE0009DF81B0008B080BD80B588B001460690E2
:103FF0000698C268006905901046059A049111461A
:1040000000F0E6FC06984168806803900846039932
:1040100000F0DEFC0698407D012805DBFFE70698EE
:10402000C169407D8847FFE70698C1680069029032
:104030000846029900F086FC0698407D012805DBC1
:10404000FFE70698C169407D8847FFE70698416809
:10405000806801900846019900F074FC0698C168D8
:10406000006900900846009900F03EFC002804D04A
:10407000FFE701208DF81F0003E000208DF81F00EE
:10408000FFE79DF81F0008B080BD000080B588B034
:10409000014606900698C268006905901046059A88
:1040A0000491114600F04EFC069841688068039028
:1040B0000846039900F08CFC0698407D012805DB3A
:1040C000FFE70698C169407D8847FFE70698C16809
:1040D000006902900846029900F07AFC0698407D3B
:1040E000012805DBFFE70698C169407D8847FFE7A7
:1040F0000698C168006901900846019900F0F4FB38
:10410000002804D1FFE701208DF81F0003E0002004
:104110008DF81F00FFE79DF81F0008B080BD00006C
:1041200080B588B00A46034607908DF81B109DF8AD
:104130001B00000600280592049309D5FFE70798A5
:10414000C168006903900846039900F041FC08E04B
:104150000798C168006902900846029900F0F2FBD6
:10416000FFE707984168806801900846019900F0D0
:104170002FFC0798407D012805DBFFE70798C16900
:10418000407D884703E00120FDF7AEF8FFE7079880
:104190004168806800900846009900F0D3FB0798BA
:1041A000407D012806DBFFE70798C169407D0138A3
:1041B0008847FFE7002008B080BD000080B586B0CA
:1041C0000A46034605908DF8131000208DF8120062
:1041D0000599D1F804C08968039060460292019362
:1041E00000F0B0FB03988DF81200FFE79DF8120075
:1041F000072812DCFFE705989DF81310FFF790FFE2
:104200009DF8131049008DF813100090FFE79DF8FA
:10421000120001308DF81200E8E7002006B080BDE2
:1042200080B500F005F880BD80B5FFF7F9FF80BDCF
:1042300080B543F20000C4F2000000F0E7FC00206B
:1042400080BD000080B500F059F880BD80B5FFF753
:10425000F9FF80BD80B58CB040F60000C4F20100CB
:10426000012106900591FDF799FE00200B900A9020
:104270000990089007900121C0F201410791DDF8F3
:1042800014E0CDF820E0022209920A900B9007A8D2
:10429000069A04901046049B0391194600F0BEFA5A
:1042A000069902900846039900F05AFB44F2C12097
:1042B000C0F6000002F062FA01900CB080BD000070
:1042C00080B540F25010C2F2000001680131016077
:1042D0000068B0F5FA7F10D9FFE740F25010C2F243
:1042E00000000021016040F60000C4F2010001213D
:1042F000C0F2014100F07AFCFFE780BD80B5FFF716
:10430000A9FF80BD82B0014601900198826822F029
:1043100001028260009102B07047000084B0014643
:104320000390039841F21402C4F202021368184386
:1043300010601068039A104002900298019100905A
:1043400004B0704782B001460190019841F21C020E
:10435000C4F20202136823EA00001060009102B068
:104360007047000082B001460190019841F21C02A2
:10437000C4F20202136823EA00001060009102B048
:104380007047000084B001460390039841F21C027C
:10439000C4F202021368184310601068039A1040B8
:1043A000029002980191009004B0704784B00146D9
:1043B0000390039841F21C02C4F2020213681843EE
:1043C00010601068039A10400290029801910090CA
:1043D00004B0704782B001460190019841F210028A
:1043E000C4F20202136818431060009102B07047D3
:1043F00082B001460190019841F21002C4F202021B
:10440000136818431060009102B0704782B00146F3
:104410000190019841F21002C4F20202136823EAEB
:1044200000001060009102B07047000082B00146A9
:104430000190019841F21002C4F20202136823EACB
:1044400000001060009102B07047000082B0014689
:104450000190019841F21802C4F20202136823EAA3
:1044600000001060009102B07047000082B0014669
:104470000190019841F21802C4F20202136823EA83
:1044800000001060009102B07047000082B0014649
:104490000190019841F21802C4F20202136823EA63
:1044A00000001060009102B07047000084B0014627
:1044B0000390039841F21802C4F2020213681843F1
:1044C00010601068039A10400290029801910090C9
:1044D00004B0704784B001460390039841F218027B
:1044E000C4F202021368184310601068039A104067
:1044F000029002980191009004B0704784B0014688
:104500000390039841F21802C4F2020213681843A0
:1045100010601068039A1040029002980191009078
:1045200004B0704782B001460190019841F20C023C
:10453000C4F20202136818431060009102B0704781
:1045400082B001460190019841F20C02C4F20202CD
:10455000136818431060009102B0704782B00146A2
:104560000190019841F20C02C4F20202136823EA9E
:1045700000001060009102B07047000082B0014658
:104580000190019841F20C02C4F20202136823EA7E
:1045900000001060009102B07047000080B584B048
:1045A0000146039001208DF80B00039843F20002AE
:1045B000C4F202029042019108D1FFE7039800F093
:1045C00021F80398002100F031F803E000208DF875
:1045D0000B00FFE79DF80B0004B080BD84B00A46D5
:1045E0000346039002910298039908600192009398
:1045F00004B0704782B001460190019800680091B4
:1046000002B0704782B00146019001980122826099
:10461000009102B07047000082B0014601900198FD
:1046200001228260009102B07047000084B00A4607
:104630000346039002910298039908710192009336
:1046400004B0704782B00146019001980122426097
:10465000009102B07047000082B0014601900198BD
:104660004FF480324260009102B0704782B0014640
:104670000190019804224260009102B0704700004E
:1046800082B00146019001984FF48022426000916F
:1046900002B0704782B00146019001980222426048
:1046A000009102B07047000082B00146019001986D
:1046B0004FF400324260009102B0704784B00A4665
:1046C000034603900291039802994AF2413CC0F6D6
:1046D000000C614411F8011C50F801C02CF0010CD1
:1046E00040F801C00192009304B0704782B00146C7
:1046F000019001980068C0F34000009102B070473B
:1047000082B00146019001980068C0F340400091DA
:1047100002B0704784B00A460346039002910398A2
:1047200002994AF23A3CC0F6000C614411F8011CAF
:104730004058C0F340000192009304B0704700005D
:1047400082B001460190019840F21442C4F2010285
:104750001060009102B0704742F20000C4F2020003
:10476000016841F4806101607047000042F200007E
:10477000C4F20200016841F400710160704700005A
:1047800042F20000C4F20200016841F01001016031
:104790007047000042F20000C4F20200006800F01E
:1047A0000700704782B0014601900198008800918F
:1047B00002B0704782B00146019042F20000C4F29C
:1047C0000200026822F00702019B1A430260009176
:1047D00002B070470420C4F20100016821F4406176
:1047E0000160016841F40061016070470420C4F277
:1047F0000100016821F0E0610160016841F0007191
:10480000016070470420C4F20100016821F0E061FA
:104810000160016841F080710160704780B58AB025
:104820000A4603460790069106980068C0F30F20D9
:10483000059005980990099890FAA0F008900898BA
:10484000B0FA80F0049002920193FFE70598049972
:10485000C840002845D0FFE705980499012202FAD4
:1048600001F1084239D0FFE70498072807D8FFE78D
:10487000049840F2011101FA00F0039009E0049855
:1048800008384FF0011101FA00F040F08060039009
:10489000FFE707980399069A526800F0B5F8079861
:1048A0000399069A126900F04BF9069840680128AE
:1048B00005D0FFE70698406809280DD1FFE7079863
:1048C0000399069A926800F05DF907980399069A91
:1048D000D26800F001F9FFE7FFE704980130049087
:1048E000B4E701200AB080BD84B00A4603460390B5
:1048F000029103988068BDF809100840401AB0FA88
:1049000080F040090192009304B0704784B00A46D9
:10491000034603900291BDF8090003994861019292
:10492000009304B07047000084B00A460346039029
:104930000291BDF80900039948610192009304B007
:104940007047000084B00A46034603900291BDF808
:104950000900039948610192009304B07047000078
:1049600084B00A46034603900291BDF809000399FA
:1049700048610192009304B07047000084B00A4679
:10498000034603900291BDF8090003994861019222
:10499000009304B07047000084B00A4603460390B9
:1049A0000291BDF80900039908610192009304B0D7
:1049B0007047000084B00A46034603900291BDF898
:1049C0000900039908610192009304B07047000048
:1049D00084B00A46034603900291BDF8090003998A
:1049E00008610192009304B07047000084B00A4649
:1049F000034603900291BDF80900039908610192F2
:104A0000009304B07047000080B58BB013468C460D
:104A1000864606900591049206989DF81710084462
:104A200003900398006805990891089991FAA1F1FB
:104A300007910799B1FA81F189000F2202FA01F179
:104A400088430499059A0A920A9A92FAA2F2099264
:104A5000099AB2FA82F292009140084303990860E1
:104A60000293CDF804C0CDF800E00BB080BD00008B
:104A700080B58BB013468C4686460690059104920D
:104A800006989DF81710084403900398006805994C
:104A90000891089991FAA1F107910799B1FA81F16A
:104AA00089000F2202FA01F188430499059A0A92BB
:104AB0000A9A92FAA2F20992099AB2FA82F2920042
:104AC00091400843039908600293CDF804C0CDF8E3
:104AD00000E00BB080BD000080B58BB013468C4663
:104AE000864606900591049206989DF81710084492
:104AF00003900398006805990891089991FAA1F12B
:104B000007910799B1FA81F18900042202FA01F1B3
:104B100088430499059A0A920A9A92FAA2F2099293
:104B2000099AB2FA82F29200914008430399086010
:104B30000293CDF804C0CDF800E00BB080BD0000BA
:104B400080B588B013468C46864605900491039242
:104B50000598C06804990A0A20EA1120039907926F
:104B6000079A92FAA2F20692069AB2FA82F291405B
:104B700008430599C8600293CDF804C0CDF800E061
:104B800008B080BD80B58BB013468C468646069033
:104B90000591049206989DF8171008440390039815
:104BA000006805990891089991FAA1F10791079970
:104BB000B1FA81F18900032202FA01F188430499D4
:104BC000059A0A920A9A92FAA2F20992099AB2FAFC
:104BD00082F2920091400843039908600293CDF855
:104BE00004C0CDF800E00BB080BD000084B00A46E0
:104BF0000346039002910398C068BDF8091048402D
:104C00000399C8600192009304B0704782B00146D6
:104C1000019043F20000C4F200004AF6AA220260AA
:104C2000009102B07047000084B00A46034603902A
:104C3000029103980299B0FBF1F001384EF2140191
:104C4000CEF2000108604EF21800CEF20000002102
:104C500001604EF21000CEF20000052101600192C9
:104C6000009304B07047000047F20400C4F2000053
:104C70000068C0F38000704741F20800C4F20200EF
:104C8000016841F4000101607047000041F2080032
:104C9000C4F20200016841F4002101607047000085
:104CA00041F20800C4F20200016821F400610160D1
:104CB0007047000041F20800C4F20200016841F4AC
:104CC000006101607047000041F20400C4F202007C
:104CD000006800F0F000704741F20400C4F20200E6
:104CE000006800F4E060704741F20400C4F2020082
:104CF000006800F46050704741F20400C4F2020002
:104D0000006800F00C00704741F20400C4F2020099
:104D1000006800F00C00704780B582B00146019039
:104D2000009101F06BFA019908600198006801F0A8
:104D300027FA019948600198406801F037FA019913
:104D400088600198406801F045FA0199C86002B096
:104D500080BD000041F20000C4F20200016841F48D
:104D6000803101607047000041F20000C4F202008F
:104D7000016841F4803101607047000041F2000099
:104D8000C4F202000068C0F34040704741F20800DE
:104D9000C4F202000068C0B2C009704741F20800C6
:104DA000C4F202000068C0F3C000704741F2240062
:104DB000C4F20200016841F0010101607047000087
:104DC00041F22400C4F202000068C0F340007047C2
:104DD00080B584B00A4603460390029141F2040074
:104DE000C4F20200016821F47C11DDF80CC00CF45F
:104DF000403CDDF808E04CEA0E0C41EA0C01016091
:104E00000192009304B080BD41F20000C4F20200A0
:104E1000016841F0807101607047000041F20400B8
:104E2000C4F20200006800F48030704741F20400D0
:104E3000C4F20200006800F47010704741F20400F0
:104E4000C4F202000068C0F34040704741F2000025
:104E5000C4F202000068C0F34060704782B00146AF
:104E6000019041F20400C4F20200026822F0F00254
:104E7000019B1A430260009102B0704782B0014664
:104E8000019041F20400C4F20200026822F4E062E0
:104E9000019B1A430260009102B0704782B0014644
:104EA000019041F20400C4F20200026822F4605250
:104EB000019B1A430260009102B0704782B0014624
:104EC000019041F20400C4F20200026822F00302E1
:104ED000019B1A430260009102B0704782B0014604
:104EE000019001980428009109D1FFE74EF21000CB
:104EF000CEF20000016841F00401016008E04EF2CA
:104F00001000CEF20000016821F004010160FFE70B
:104F100002B0704782B001460190019840F2000251
:104F2000C2F200021060009102B0704784B00A46DD
:104F300003460390029102980399D1F820C02CEA0D
:104F4000000008620192009304B0704782B00146ED
:104F5000019001986FF040020261009102B0704729
:104F600082B00146019001986FF001020261009148
:104F700002B0704782B00146019001986FF00102C3
:104F80000261009102B0704780B58CB001460B9071
:104F900001208DF82B000B98B0F1804F099108D1BA
:104FA000FFE701200890FFF723FA0898FFF73EFA81
:104FB0007CE00B9842F60041C4F20101884209D11D
:104FC000FFE74FF400600790FFF7BAFA0798FFF782
:104FD000D5FA6AE00B9840F20041C4F20001884221
:104FE00008D1FFE702200690FFF702FA0698FFF7C4
:104FF0001DFA59E00B9840F60001C4F20001884206
:1050000008D1FFE704200590FFF7F2F90598FFF7B4
:105010000DFA48E00B9840F60041C4F200018842C6
:1050200008D1FFE708200490FFF7E2F90498FFF7A2
:10503000FDF937E00B9841F20001C4F2000188420B
:1050400008D1FFE710200390FFF7D2F90398FFF78C
:10505000EDF926E00B9841F20041C4F200018842CC
:1050600008D1FFE720200290FFF7C2F90298FFF76E
:10507000DDF915E00B9843F20041C4F201018842CA
:1050800009D1FFE74FF400500190FFF759FA01985A
:10509000FFF774FA03E000208DF82B00FFE7FFE72D
:1050A000FFE7FFE7FFE7FFE7FFE7FFE79DF82B00DC
:1050B0000CB080BD82B0014601900198026822F0D8
:1050C00080020260009102B07047000082B0014689
:1050D00001900198026822F001020260009102B082
:1050E0007047000082B0014601900198C26822F426
:1050F0008042C260009102B07047000082B0014659
:1051000001900198C26822F04002C260009102B092
:105110007047000082B0014601900198826822F039
:1051200080028260009102B07047000082B00146A8
:1051300001900198826822F080028260009102B0A2
:105140007047000082B0014601900198026842F069
:1051500080020260009102B07047000082B00146F8
:1051600001900198026842F001020260009102B0D1
:105170007047000082B0014601900198026842F039
:1051800001020260009102B07047000082B0014647
:1051900001900198C26842F00102C260009102B021
:1051A0007047000082B0014601900198426942F0C8
:1051B00001024261009102B07047000082B00146D6
:1051C00001900198406A009102B0704780B58DB09F
:1051D00013468C4686460C900B910A920B98012838
:1051E0000793CDF818C0CDF814E003D1FFE70020F5
:1051F000049030E00B98042803D1FFE701200390CE
:1052000026E00B98102803D1FFE7022002901CE053
:105210000B98402803D1FFE70320019012E00B9880
:10522000B0F5807F03D1FFE70420009007E00B98E2
:105230000621B0F5806F08BF05210091FFE70098B7
:105240000190FFE701980290FFE702980390FFE7C3
:1052500003980490FFE704988DF827000C989DF8B8
:1052600027104AF24832C0F60002515C0844183058
:105270000890089801689DF827204AF25633C0F636
:1052800000039A5C032393409943BDF82A3003FA44
:1052900002F2114301600DB080BD000080B58DB0F9
:1052A00013468C4686460C900B910A920B98012867
:1052B0000793CDF818C0CDF814E003D1FFE7002024
:1052C000049030E00B98042803D1FFE701200390FD
:1052D00026E00B98102803D1FFE7022002901CE083
:1052E0000B98402803D1FFE70320019012E00B98B0
:1052F000B0F5807F03D1FFE70420009007E00B9812
:105300000621B0F5806F08BF05210091FFE70098E6
:105310000190FFE701980290FFE702980390FFE7F2
:1053200003980490FFE704988DF827000C989DF8E7
:1053300027104AF24832C0F60002515C0844183087
:105340000890089801689DF827204AF25633C0F665
:1053500000039A5CF02393409943BDF82A3003FA86
:1053600002F2114301600DB080BD000080B58CB029
:1053700013468C4686460B900A9109920A9801289A
:105380000793CDF818C0CDF814E003D1FFE7002053
:10539000049030E00A98042803D1FFE7012003902D
:1053A00026E00A98102803D1FFE7022002901CE0B3
:1053B0000A98402803D1FFE70320019012E00A98E1
:1053C000B0F5807F03D1FFE70420009007E00A9842
:1053D0000621B0F5806F08BF05210091FFE7009816
:1053E0000190FFE701980290FFE702980390FFE722
:1053F00003980490FFE704988DF823000B98006A47
:105400009DF823104AF24F32C0F60002515C0A2286
:105410008A409043099A02FA01F108430B99086205
:105420000CB080BD80B586B00A4603460590049155
:1054300000200390059800680390059842F600410B
:10544000C4F2010188420292019325D0FFE705983A
:1054500043F20041C4F2010188421DD0FFE70598E4
:10546000B0F1804F18D0FFE7059840F20041C4F238
:105470000001884210D0FFE7059840F60001C4F211
:105480000001884208D0FFE7059840F60041C4F2C9
:105490000001884208D1FFE7039820F070000499CA
:1054A000496808430390FFE7059842F60041C4F2BB
:1054B0000101884225D0FFE7059843F20041C4F27C
:1054C000010188421DD0FFE70598B0F1804F18D048
:1054D000FFE7059840F20041C4F20001884210D075
:1054E000FFE7059840F60001C4F20001884208D0A9
:1054F000FFE7059840F60041C4F20001884208D158
:10550000FFE7039820F440700499C96808430390AA
:10551000FFE703980599086005980499896800F0E9
:105520003FF805980499098800F076F8059842F646
:105530000041C4F20101884208D0FFE7059843F218
:105540000041C4F20101884206D1FFE705980499A1
:10555000097C00F06DF8FFE70598FFF723FE0120B6
:1055600006B080BD82B00146019001980069C0F389
:105570008010009102B0704782B0014601900198FE
:10558000006900F00100009102B0704782B001464E
:1055900001900198006900F00100009102B070478D
:1055A00084B00A4603460390029102980399C862A8
:1055B0000192009304B0704784B00A4603460390FA
:1055C00002910398806844F20701884302990843D6
:1055D000039988600192009304B0704784B00A4632
:1055E0000346039002910398806844F207018843C0
:1055F00002990843039988600192009304B07047B0
:1056000084B00A46034603900291029803994862C7
:105610000192009304B0704784B00A460346039099
:1056200002910298039988620192009304B0704736
:1056300084B00A46034603900291029803990863D6
:105640000192009304B0704784B00A460346039069
:1056500002910398806820F0700002990843039932
:1056600088600192009304B07047000084B00A463D
:105670000346039002910398406820F0700002995D
:105680000843039948600192009304B070470000FA
:1056900084B00A460346039002910398406820F0C4
:1056A000700002990843039948600192009304B086
:1056B0007047000082B00146019001986FF020020F
:1056C0000260009102B0704782B0014601900198DB
:1056D0006FF040020260009102B0704782B0014654
:1056E000019001986FF040020260009102B0704793
:1056F00082B0014601900198026922F49042026151
:105700000198426922F02A024261009102B070477A
:1057100080B588B00146079001208DF81B000798DE
:1057200043F60002C4F201029042059109D1FFE75D
:105730004FF480400490FEF7F5FE0498FEF70EFF4C
:105740004BE0079844F20041C4F20001884209D1BD
:10575000FFE74FF400300390FEF73CFE0398FEF79E
:1057600055FE39E0079844F60001C4F20001884272
:1057700009D1FFE74FF480200290FEF72BFE02983C
:10578000FEF744FE27E0079844F60041C4F200010A
:10579000884209D1FFE74FF400200190FEF71AFE7E
:1057A0000198FEF733FE15E0079845F20001C4F2B8
:1057B0000001884209D1FFE74FF480100090FEF706
:1057C00009FE0098FEF722FE03E000208DF81B0082
:1057D000FFE7FFE7FFE7FFE7FFE79DF81B0008B0E3
:1057E00080BD000082B0014601900198C26822F09D
:1057F0004002C260009102B07047000082B00146D2
:1058000001900198C26822F08002C260009102B04B
:105810007047000082B0014601900198C26842F4CE
:105820000052C260009102B07047000082B0014691
:1058300001900198C26842F02002C260009102B05B
:105840007047000082B0014601900198C26842F0A2
:105850004002C260009102B07047000082B0014671
:1058600001900198C26842F08002C260009102B0CB
:105870007047000080B58AB00A4603460990089137
:1058800000208DF81F00069009980192009300F007
:10589000A5F800286BD1FFE70998C06841F20C61B8
:1058A000884308994A68CB6809691A431143084339
:1058B0000999C86009980899896800F019F9099848
:1058C0000899496900F002F902A8FFF725FA09983A
:1058D00043F60001C4F20101884203D1FFE70598B5
:1058E000069030E0099844F20041C4F20001884279
:1058F00003D1FFE70498069024E0099844F60001DC
:10590000C4F20001884203D1FFE70498069018E032
:10591000099844F60041C4F20001884203D1FFE730
:10592000049806900CE0099845F20001C4F20001C9
:10593000884203D1FFE70498069000E0FFE7FFE705
:10594000FFE7FFE7FFE7069800280FD0FFE708987A
:10595000006800280AD0FFE701208DF81F00099891
:105960000699089A126800F07FF8FFE7FFE79DF8B4
:105970001F000AB080BD000082B00146019001986E
:105980000068C0F34010009102B0704782B0014639
:10599000019001980068C0F38010009102B0704738
:1059A00082B00146019001980068C0F38010009118
:1059B00002B0704782B00146019001980068C0B201
:1059C000C009009102B0704782B001460190019871
:1059D0000068C0B2C009009102B0704782B00146B1
:1059E00001900198C068C0F34030009102B0704748
:1059F00082B0014601900198C068C0F34010009148
:105A000002B0704782B0014601900198C068C0F3AF
:105A10008010009102B0704782B001460190019859
:105A2000C068C0F38010009102B0704782B0014698
:105A300001900198C068C0B2C009009102B07047DF
:105A400082B0014601900198C068C0B2C0090091BF
:105A500002B0704782B00146019001984068C0B220
:105A6000009102B070470000B0B588B013468C4674
:105A70008646079006910592069819214843059994
:105A80008900B0FBF1F048F21F51C5F2EB11A0FB09
:105A900001246409642504FB1500322505EB001080
:105AA000A0FB0101F02505EA511505EB0414C1F333
:105AB0004311214489B2079CA1600493CDF80CC026
:105AC000CDF808E00190009208B0B0BD84B00A465D
:105AD0000346039002910398406920F440700299B4
