:020000040800F2
:10000000D825002045010008ED8A0008BD640008DD
:1000100019880008111A0008E5BC0008000000005B
:10002000000000000000000000000000F191000846
:10003000991E0008000000008990000849980008F7
:1000400025C90008699000085F0100085F010008E9
:100050005F010008659100085F0100085F0100086A
:100060005F0100085F0100085F0100081D1E000815
:100070005F0100085F0100085F0100085F010008E0
:100080005F0100085F0100085F0100085F010008D0
:100090005F0100085F0100085F0100085F010008C0
:1000A0005F0100085F0100085F0100085F010008B0
:1000B000E59C00085F0100085F0100085F0100087F
:1000C0005F0100085F0100085F0100085F01000890
:1000D0005F0100086DA200085F0100085F010008D1
:1000E0005F0100085F0100085F0100085F01000870
:1000F0005F0100085F0100085F0100085F01000860
:100100005F0100085F0100085F0100085F0100084F
:100110005F0100085F0100085F0100085F0100083F
:100120005F0100085F0100085F010008591E000818
:10013000DFF80CD000F0F6FB0048004751C900087A
:10014000D82500200648804706480047FEE7FEE71E
:10015000FEE7FEE7FEE7FEE7FEE7FEE7FEE7FEE777
:10016000859C000831010008F0B480EA0102D40F38
:100170004200B2EB410F02D20246084611464A0045
:1001800042D0C30DDDB2C1F3C752AD1A202D35DA0E
:10019000C1F3160141F4000204B15242C5F1200638
:1001A00002FA06F12A411044B3EBD05F23D0C4B168
:1001B000012DA0EBC35009DCF0BC4FF0004202EA75
:1001C000C352DBB200F5000000F07EBA400000F13F
:1001D000807000EBC350A0F1807040EAD1704900FC
:1001E00009E0490841EAC071A0EBC35000F50000E6
:1001F000400800EBC350F0BC00F05DBA6142012240
:1002000002EB4101001BF6E7F0BC704781F00041B2
:10021000AAE780F00040A7E780EA010210B502F0EB
:100220000043400022D04A001FD0010E01EB1261B2
:10023000C0F35600C2F3560240F4000042F400023C
:10024000A0FB022000047F39140400D0401C50EAB7
:10025000124001D44000491EC2B20C0604EBD0107B
:10026000401C4008802A02D003E0002010BD20F08E
:100270000100002900DA0020184310BD30B480EAE4
:10028000010202F0004530F0004221F0004013D09E
:1002900090B1C30DD40DC2F31601C0F31600E41AD9
:1002A00041F4000140F400027D34914201D3641C0A
:1002B00000E04900002C02DA30BC002070474FF407
:1002C00000000023914201D3891A034340084FEAFA
:1002D0004101F7D151B1914202D14FF0004105E007
:1002E00002D24FF0010101E06FF0010103EBC450B5
:1002F000284430BC00F0DFB92DE9FE4F804681EA8A
:100300000300C00F0C46009021F0004123F000458F
:10031000B8EB0200A94105D24046214690461C4652
:100320000B46024623F00040104347D0270DC7F389
:100330000A00C3F30A510290401A019040286BDA78
:10034000C3F3130040F4801B0098924620B10023B1
:10035000D2EB030A63EB0B0B01985946C0F1400244
:10036000504600F077F906460D4650465946019A28
:1003700000F08FF910EB08006141002487EA115268
:1003800084EAE7731A4340D0009A62B3019A012AC3
:100390004FEA075215DC001B61EB02014FF00042EF
:1003A00002EA0752CDE90042001C41F580113246B5
:1003B0002B4600F0C6F903B0BDE8F08F4046214659
:1003C000F9E7001B61EB0201001C41F580130018E6
:1003D0005B412018A2F5001747EB030140EAD570F6
:1003E000B6196D4111E06D084FEA360645EAC07551
:1003F0004FEA0752001B61EB0201001C41F580111E
:1004000049084FEA30000019514132462B4603B0EB
:10041000BDE8F04F00F086B90098012240000023AB
:10042000D0EB020263EBE073009821464FEAE074E0
:10043000B8EB000061EB0401E9E783F000435BE700
:1004400081F0004158E72DE9F04D81EA030404F002
:10045000004B21F0004514464FF0000A23F0004104
:1004600050EA050220D054EA01021DD0C5F30A5714
:100470000246C5F31303C1F31300C1F30A5640F457
:10048000801543F48013A7EB0608101BD64608F22C
:10049000FD3873EB050002D308F1010801E0921862
:1004A0005B41B8F1000F03DA00200146BDE8F08D92
:1004B00000204FF48011064684460EE0171B73EBB4
:1004C000050705D3121B63EB050306434CEA010C39
:1004D00049084FEA300092185B4150EA0107EDD11C
:1004E00052EA030012D082EA040083EA05010843BD
:1004F00005D0101BAB4106D20122002306E00022EA
:100500004FF0004302E06FF0010253101AEB0600B7
:100510004CEB085110EB0A0041EB0B01BDE8F04D2C
:1005200000F000B9C10F80EAE0700844CA079623C2
:10053000002100F0C9B896230022114600F0C4B88B
:1005400020F00040C10DC0F3160040F400007F29E8
:1005500001DA00207047962903DCC1F19601C840FA
:10056000704796398840704700F0004230F00040F4
:100570000AD0C10D01F56071C0F3160042EA0151C5
:10058000C20840071143704700200146704701F040
:10059000004330B421F0004150EA010206D00A0DB8
:1005A000A2F56072C1F31301002A02DC30BC002006
:1005B0007047440F44EAC104C100E01830BC00EBAE
:1005C000C25000F078B830B50B460146002020221A
:1005D000012409E021FA02F59D4205D303FA02F550
:1005E000491B04FA02F52844151EA2F10102F1DCB0
:1005F00030BD2DE9F05F0546002092469B468846B7
:100600000646814640241BE028464146474622468E
:1006100000F02FF853465A46C01A914110D31146A4
:100620001846224600F016F82D1A67EB01084F46CF
:1006300022460120002100F00DF817EB00094E4181
:10064000201EA4F10104DFDC484631462A46434619
:10065000BDE8F09F202A04DB203A00FA02F10020D6
:1006600070479140C2F1200320FA03F319439040F0
:100670007047202A04DB203A21FA02F0002170475B
:1006800021FA02F3D040C2F12002914008431946FA
:100690007047202A06DBCB17203A41FA02F043EAE2
:1006A000E07306E041FA02F3D040C2F1200291402B
:1006B0000843194670470029A8BF7047401C4900ED
:1006C00008BF20F00100704710B4B0FA80FC00FAB7
:1006D0000CF050EA010404BF10BC704749B1CCF1E2
:1006E000200421FA04F411FA0CF118BF012121436E
:1006F0000843A3EB0C01CB1D4FEA00614FEA102029
:1007000042BF002010BC704700EBC35010440029CA
:10071000A4BF10BC7047401C490008BF20F0010076
:1007200010BC704710B5141E73F1000408DA401CA9
:1007300041F1000192185B411A4301D120F0010000
:1007400010BD2DE9F04D92469B4611B1B1FA81F2F0
:1007500002E0B0FA80F220329046FFF77BFF0446B9
:100760000F4640EA0A0041EA0B0153465A46084345
:1007700013D0114653EA010019D0C8F14002504687
:10078000FFF777FF05460E46504659464246FFF7AB
:1007900061FF084305D0012004E020463946BDE84A
:1007A000F08D0020054346EAE0762C4337430A9853
:1007B0006305E40AA0EB08000022FD0A44EA47545E
:1007C0000A3002D500200146E9E701051019694108
:1007D000DDE9084500196941BDE8F04DA2E72DE9C2
:1007E000FE4F81EA030404F0004421F0004100942C
:1007F0004FF0000B23F0004350EA01045ED052EAB0
:1008000003045BD0C3F30A54C1F30A552C44A4F289
:10081000F3340194A0FB0254C1F3130141F480119D
:10082000C3F3130343F4801301FB024400FB034EA4
:10083000840A970A44EA815447EA8357A4FB07686D
:1008400002958D0A05FB07854FEA932C04FB0C5497
:100850002705029D4FEA065847EA1637B5EB08050B
:100860006EEB070C870E920E47EA811742EA83125D
:10087000A7FB0201B6EB0B0164EB00042B0D43EA6E
:100880000C335E1844EB1C50DA465146E7FB02017C
:10089000C5F313044FEA0B3343EA14534FEA04320F
:1008A000019C43EA0603A4F10C040294009CCDE9E8
:1008B00000B4FFF746FF03B0BDE8F08F002001460B
:1008C000F9E7C1F30A52C1F3130140F2FF3341F4D7
:1008D00080119A4202DA00200146704740F2334309
:1008E0009A42A2F2334202DC5242FFF7C2BEFFF745
:1008F000B1BE000030B5041E71F1000404DB4FF0FE
:100900000044404264EB0101141E73F1000405DB56
:100910001C464FF00043524263EB0403994208BF68
:10092000904230BD064C074D06E0E06840F0010300
:1009300094E8070098471034AC42F6D3FFF7FCFB6D
:10094000D4D70008F4D7000870B58C1810F8015BF4
:1009500015F0070301D110F8013B2A1106D110F858
:10096000012B03E010F8016B01F8016B5B1EF9D15C
:100970002B0705D40023521E0DD401F8013BFAE7E2
:1009800010F8013BCB1A921C03E013F8015B01F84D
:10099000015B521EF9D5A142D8D3002070BD0000E2
:1009A00080B582B0014601900198009100F044F8B2
:1009B00002B080BD80B582B00146019001980091DF
:1009C000FFF7EEFF02B080BD80B582B00020C4F218
:1009D00002000121019006F067FC019806F028FC56
:1009E000019806F039FC019806F04AFC42F20040FA
:1009F000C4F2010006F07CFA002002B080BD0000C5
:100A000080B582B040F20040C4F20200052101909E
:100A100006F04AFC019806F015FC019806F026FC49
:100A2000019806F037FC43F60040C4F2010006F0DE
:100A30005FFA002002B080BD80B584B0014602900C
:100A4000029842F20042C4F20102904201910DD19B
:100A5000FFE740F23810C2F200000068017801316F
:100A60000170FFF7B1FF8DF80F0024E0029842F605
:100A70000001C4F20101884204D1FFE700208DF893
:100A80000F0018E0029843F60041C4F201018842C9
:100A90000DD1FFE740F24010C2F20000006801787B
:100AA00001310170FFF7ACFF8DF80F0003E000206B
:100AB0008DF80F00FFE79DF80F0004B080BD000027
:100AC000B0B588B09C4696460C4605460790069100
:100AD00005928DF8133007980699059A9DF8133002
:100AE000CDF80CC0CDF808E00194009500F0C2F9F3
:100AF00008B0B0BDB0B588B09C4696460C460546D9
:100B00000790ADF81A100592ADF812300798BDF8AD
:100B10001A10059ABDF81230CDF80CC0CDF808E0D7
:100B20000194009500F022FA08B0B0BDB0B588B0CD
:100B30009C4696460C4605460790ADF81A1005925D
:100B4000ADF812300798BDF81A10059ABDF81230AA
:100B5000CDF80CC0CDF808E00194009500F038FA0B
:100B600008B0B0BDB0B588B09C4696460C46054668
:100B70000790069105928DF8133007980699059A0B
:100B80009DF81330CDF80CC0CDF808E00194009525
:100B9000FFF796FF08B0B0BDB0B588B09C4696464A
:100BA0000C4605460790ADF81A100592ADF81230C4
:100BB0000798BDF81A10059ABDF81230CDF80CC090
:100BC000CDF808E001940095FFF794FF08B0B0BDA0
:100BD000B0B588B09C4696460C4605460790ADF8E1
:100BE0001A100592ADF812300798BDF81A10059A40
:100BF000BDF81230CDF80CC0CDF808E00194009596
:100C0000FFF794FF08B0B0BDB0B588B09C469646DB
:100C10000C4605460790ADF81A100592ADF8123053
:100C20000120CDF80CC0CDF808E00194009508B083
:100C3000B0BD0000B0B588B09C4696460C4605464F
:100C40000790ADF81A100592ADF812300120CDF8DA
:100C50000CC0CDF808E00194009508B0B0BD0000CC
:100C600080B588B001460790079803220270079864
:100C700041F20042C4F201024260079840F204428D
:100C80008260079840680028019106D0FFE7079826
:100C90004068012102F044FBFFE700200690059028
:100CA0000490039002900121039104910590069114
:100CB0000798806802900798406800280ED0FFE7E8
:100CC0000798406802A906F09FFB0799D1F804E055
:100CD00089680090704606F075FCFFE707980021D0
:100CE000C160079840F60042C4F201020261079811
:100CF00044F24003436107988261079848F28002FA
:100D0000C261079880F82010079880F82110079892
:100D100081620798A022428407984162079800F0F8
:100D200013F808B080BD000082B001460190002099
:100D3000009102B07047000082B00146019000208F
:100D4000009102B07047000083B001460190019805
:100D500000780028009107D1FFE701981021418019
:100D60000198082141707CE001980078012807D1A2
:100D7000FFE70198202141800198082141706FE030
:100D800001980078022807D1FFE7019820214180CF
:100D900001981021417062E001980078032807D182
:100DA000FFE701984021418001981021417055E0F2
:100DB00001980078042807D1FFE70198802141803D
:100DC00001981021417048E001980078052807D16A
:100DD000FFE70198802141800198202141703BE08C
:100DE00001980078062808D1FFE701984FF4807138
:100DF00041800198202141702DE00198007807285A
:100E000008D1FFE701984FF480714180019840219B
:100E100041701FE001980078082808D1FFE7019889
:100E20004FF40071418001984021417011E0019818
:100E30000078092808D1FFE701984FF4007141803C
:100E400001988021417003E001208DF80B000CE037
:100E5000FFE7FFE7FFE7FFE7FFE7FFE7FFE7FFE762
:100E6000FFE700208DF80B00FFE79DF80B0003B0B3
:100E700070470000B0B58CB09C4696460C460546BF
:100E80000A90099108928DF81F3000208DF81E00FD
:100E90000A980028CDF818C0CDF814E00494039502
:100EA0000ED0FFE70A9840F23C11C2F20001096837
:100EB000884205D1FFE70A98FFF7D2FE02901FE0B3
:100EC0000A98002809D0FFE70A98002805D1FFE713
:100ED0000A98FFF729FF019011E00A98002809D02D
:100EE000FFE70A98002805D1FFE70A98FFF724FFDB
:100EF000009003E001208DF82F0032E0FFE7FFE7CC
:100F00009DF81F0000280CD0FFE70A980C3005F070
:100F100051FB8DF81E000A984FF0010E80F820E07A
:100F20000BE00A980C30099905F04CFB8DF81E0077
:100F30000A98002180F82010FFE70898002804D0C4
:100F4000FFE708980A99C86206E00A9841F64571D9
:100F5000C0F60001C162FFE79DF81E008DF82F006A
:100F6000FFE79DF82F000CB0B0BD0000B0B58AB00F
:100F70009C4696460C4605460890ADF81E10069213
:100F8000ADF81630089890F820000028CDF810C071
:100F9000CDF80CE0029401950BD1FFE70898BDF85D
:100FA0001E10069ABDF8163000F044F88DF82700A0
:100FB0000AE00898BDF81E10069ABDF81630FFF733
:100FC00023FE8DF82700FFE79DF827000AB0B0BD8B
:100FD000B0B58AB09C4696460C4605460890ADF8DA
:100FE0001E100692ADF81630089890F820000028E0
:100FF000CDF810C0CDF80CE0029401950BD1FFE7BD
:101000000898BDF81E10069ABDF8163000F0B6F923
:101010008DF827000AE00898BDF81E10069ABDF862
:101020001630FFF707FE8DF82700FFE79DF8270031
:101030000AB0B0BDB0B58EB09C4696460C4605468B
:101040000D90ADF832100B92ADF82A3000208DF8DB
:1010500029000D99498CADF82610ADF824000D98A3
:1010600000780528CDF820C0CDF81CE00694059541
:1010700028DBFFE70D980C30012105F0C5FA8DF84B
:1010800029009DF82900002804D0FFE702208DF8F0
:1010900029008BE00D980C309DF8331005F0DEFA36
:1010A0000D990C310490084605F09AFA8DF8290044
:1010B0009DF82900002804D0FFE703208DF82900BF
:1010C00074E019E0BDF83200C0F302200D994A8C9B
:1010D00002EB400048840D980C30012105F094FA91
:1010E0008DF829009DF82900002804D0FFE7022090
:1010F0008DF829005AE0FFE70D980C309DF832106A
:1011000005F0ACFA0D990C310390084605F068FA29
:101110008DF829009DF82900002804D0FFE703205E
:101120008DF8290042E00D980C30002105F06CFA92
:101130008DF829009DF82900002804D0FFE704203D
:101140008DF8290032E00020ADF82400FFE7BDF85B
:101150002400BDF82A10884224DAFFE70D980C30ED
:1011600005F048FADDF82CE0BDF824100EF8010077
:10117000BDF82400BDF82A100139884204D1FFE7E8
:1011800001208DF82900FFE70D980C309DF82910FB
:1011900005F054FA0290FFE7BDF824000130ADF8E5
:1011A0002400D4E700208DF82900FFE70D980C30CB
:1011B00005F03AFABDF826E00D99A1F822E09DF875
:1011C0002910019008460EB0B0BD0000B0B58EB039
:1011D0009C4696460C4605460D90ADF832100B9293
:1011E000ADF82A30BDF82A000D9949788842CDF82B
:1011F00020C0CDF81CE00694059505DDFFE70D98AD
:101200004078ADF82A00FFE700208DF829000D99FD
:10121000498CADF82610ADF824000D98007805280B
:1012200028DBFFE70D980C30012105F0EDF98DF872
:1012300029009DF82900002804D0FFE702208DF83E
:1012400029008BE00D980C309DF8331005F006FA5C
:101250000D990C310490084605F0C2F98DF829006B
:101260009DF82900002804D0FFE703208DF829000D
:1012700074E019E0BDF83200C0F302200D994A8CE9
:1012800002EB400048840D980C30012105F0BCF9B8
:101290008DF829009DF82900002804D0FFE70220DE
:1012A0008DF829005AE0FFE70D980C309DF83210B8
:1012B00005F0D4F90D990C310390084605F090F92A
:1012C0008DF829009DF82900002804D0FFE70320AD
:1012D0008DF8290042E00D980C30002105F094F9BA
:1012E0008DF829009DF82900002804D0FFE704208C
:1012F0008DF8290032E00020ADF82400FFE7BDF8AA
:101300002400BDF82A10884224DAFFE70D980C303B
:1013100005F070F9DDF82CE0BDF824100EF801009E
:10132000BDF82400BDF82A100139884204D1FFE736
:1013300001208DF82900FFE70D980C309DF8291049
:1013400005F07CF90290FFE7BDF824000130ADF80C
:101350002400D4E700208DF82900FFE70D980C3019
:1013600005F062F9BDF826E00D99A1F822E09DF89C
:101370002910019008460EB0B0BD0000B0B590B085
:101380009C4696460C4605460E90ADF836100C92DB
:10139000ADF82E300020ADF82C00ADF82A00BDF8D5
:1013A00036100E9A5278B1FBF2F1ADF82810BDF864
:1013B00036100E9A5278B1FBF2F303FB1211ADF81E
:1013C00026100E994978BDF82620891AADF8241008
:1013D000ADF822008DF82100BDF82E000028CDF8D0
:1013E00018C0CDF814E00494039504D0FFE70C98DE
:1013F000002804D1FFE706208DF83F0047E1BDF843
:101400002E0002282DDCFFE70020ADF82200FFE7C8
:10141000BDF82200BDF82E10884221DAFFE70E98B1
:10142000BDF836100C9A127800F036F98DF82100CC
:10143000BDF836000130ADF836000C9801300C9044
:101440009DF82100002804D0FFE707208DF83F0019
:101450001DE1FFE7BDF822000130ADF82200D7E71B
:1014600010E10E98407807F0F3F9079007980028EC
:1014700004D1FFE708208DF82100FFE0BDF824002B
:101480000E994978884257D0FFE70E98BDF828108A
:1014900042785143079B89B202921A46029BFFF79A
:1014A00095FE8DF821009DF82100002804D0FFE76B
:1014B00009208DF82100E1E00020ADF82200FFE7CF
:1014C000BDF82200BDF8241088421DDAFFE70C9811
:1014D00000780799BDF82220BDF826301A448854B8
:1014E000BDF836000130ADF836000C9801300C9094
:1014F000BDF82E000138ADF82E00FFE7BDF8220040
:101500000130ADF82200DBE70E98BDF828104278D4
:101510005143079B89B201921A46019B00F088F95A
:101520008DF821009DF82100002804D0FFE70A2053
:101530008DF82100A2E0FFE7BDF82E000E99497852
:10154000B0FBF1F0ADF82C00BDF82E000E994978F3
:10155000B0FBF1F202FB1100ADF82A00BDF82C003F
:10156000002838D0FFE70020ADF82200FFE7BDF8E3
:101570002200BDF82C1088422CDAFFE70E98BDF847
:1015800036100C9A437800F053F98DF821000E982C
:101590004078BDF836100844ADF836000E98407813
:1015A0000C9908440C900E984078BDF82E10081A3B
:1015B000ADF82E009DF82100002804D0FFE70B2095
:1015C0008DF821005AE0FFE7BDF822000130ADF8A8
:1015D0002200CCE7FFE7BDF82A0000284DD0FFE746
:1015E0000E98BDF83610079A4378FFF7EFFD8DF897
:1015F00021009DF82100002804D0FFE70C208DF881
:1016000021003BE00020ADF82200FFE7BDF82200FA
:10161000BDF8241088421DDAFFE70C98007807997E
:10162000BDF82220BDF826301A448854BDF8360093
:101630000130ADF836000C9801300C90BDF82E004A
:101640000138ADF82E00FFE7BDF822000130ADF8FB
:101650002200DBE70E98BDF83610079A437800F0B9
:10166000E7F88DF821009DF82100002804D0FFE75D
:101670000D208DF8210001E0FFE7FFE7079807F054
:10168000CDF8FFE79DF821008DF83F00FFE79DF8BA
:101690003F0010B0B0BD000080B58EB013468C4640
:1016A00086460D90ADF832108DF8312000208DF86F
:1016B00030000D98408CADF82E000D984068002841
:1016C0000A93CDF824C0CDF820E009D0FFE70D98AB
:1016D0004168806807900846079905F01FFFFFE7FB
:1016E0000D980078052828DBFFE70D980C300121C4
:1016F00004F08AFF8DF830009DF83000002804D0F7
:10170000FFE702208DF8300060E00D980C309DF866
:10171000331004F0A3FF0D990C310690084604F035
:101720005FFF8DF830009DF83000002804D0FFE7FF
:1017300003208DF8300049E019E0BDF83200C0F315
:1017400002200D994A8C02EB400048840D980C3021
:10175000012104F059FF8DF830009DF83000002879
:1017600004D0FFE702208DF830002FE0FFE70D984E
:101770000C309DF8321004F071FF0D990C3105907A
:10178000084604F02DFF8DF830009DF83000002849
:1017900004D0FFE703208DF8300017E00D980C30DF
:1017A0009DF8311004F05AFF0D990C310490084651
:1017B00004F016FF8DF830009DF83000002804D0AA
:1017C000FFE704208DF8300000E0FFE70D980C30B3
:1017D00004F02AFFDDF834E0DEF804E0BEF1000F8B
:1017E000039009D0FFE70D98416880680290084691
:1017F000029905F0E7FEFFE7BDF82E000D99488439
:101800009DF8300000280ED1FFE70D98C06A00282F
:1018100008D0FFE70D98C06A05210190084601999C
:101820008847FFE7FFE79DF830000EB080BD00005D
:10183000B0B590B09C4696460C4605460F90ADF864
:101840003A100D92ADF83230BDF832000F99497858
:101850008842CDF828C0CDF824E00894079505DD2E
:10186000FFE70F984078ADF83200FFE700208DF8D1
:1018700031000F99498CADF82E10ADF82C000F985F
:101880004068002809D0FFE70F98416880680690FB
:101890000846069905F042FEFFE70F9800780528F4
:1018A00028DBFFE70F980C30012104F0ADFE8DF826
:1018B00031009DF83100002804D0FFE702208DF8A8
:1018C000310074E00F980C309DF83B1004F0C6FE18
:1018D0000F990C310590084604F082FE8DF8310016
:1018E0009DF83100002804D0FFE703208DF8310077
:1018F0005DE019E0BDF83A00C0F302200F994A8C70
:1019000002EB400048840F980C30012104F07CFE6B
:101910008DF831009DF83100002804D0FFE7022047
:101920008DF8310043E0FFE70F980C309DF83A1036
:1019300004F094FE0F990C310490084604F050FE18
:101940008DF831009DF83100002804D0FFE7032016
:101950008DF831002BE00020ADF82C00FFE7BDF83A
:101960002C00BDF83210884220DAFFE70F980C30C7
:101970000D99BDF82C20895C04F070FE0F990C3194
:101980000390084604F02CFE8DF831009DF83100DC
:10199000002804D0FFE704208DF8310007E0FFE7BE
:1019A000BDF82C000130ADF82C00D8E7FFE70F9808
:1019B0000C3004F039FEDDF83CE0DEF804E0BEF166
:1019C000000F029009D0FFE70F98416880680190EE
:1019D0000846019905F0F6FDFFE7BDF82E000F99C6
:1019E00048849DF8310000280ED1FFE70F98C06AA7
:1019F000002808D0FFE70F98C06A0521009008462C
:101A000000998847FFE7FFE79DF8310010B0B0BDAF
:101A1000FFE7FEE780B584B00A46034603900291D3
:101A2000039802990192009300F084F804B080BDFD
:101A300080B584B00A460346039002910398029948
:101A40000192009300F0A6F804B080BD80B586B086
:101A500013468C4686468DF81700049103929DF834
:101A600017000499039A0293CDF804C0CDF800E062
:101A700000F0D4F806B080BD80B584B00A460346B5
:101A800003900291039802990192009300F010F9DB
:101A900004B080BD80B500F047F980BD80B500F08E
:101AA00049F980BD80B584B00A460346039002918F
:101AB0000398029901920093FFF7ACFF04B080BD38
:101AC00080B584B00A4603460390029103980299B8
:101AD00001920093FFF7ACFF04B080BD80B586B0E3
:101AE00013468C4686468DF81700049103929DF8A4
:101AF00017000499039A0293CDF804C0CDF800E0D2
:101B0000FFF7A4FF06B080BD80B584B00A46034647
:101B1000039002910398029901920093FFF7ACFFA2
:101B200004B080BD80B5FFF7B5FF80BD80B5FFF77D
:101B3000B5FF80BD86B00A4603460590049100209B
:101B4000ADF80C00029001920093FFE7029804990F
:101B500088421BD2FFE79DF80D000599029A895C27
:101B600048408DF80F00BDF80C009DF80F104DF2A5
:101B70001A32C0F6000232F8111081EA0020ADF8E6
:101B80000C00FFE7029801300290DFE7BDF80C007F
:101B900006B0704780B584B00A46034603900291B0
:101BA000039802990192009300F002F804B080BDFE
:101BB00080B588B00A46034607900691002005903C
:101BC000049003920293019000F020F80198059090
:101BD000FFE705980699884210D2FFE70798059914
:101BE000405C0490049943F20000C4F2020005F046
:101BF000EBFAFFE7059801300590EAE743F20000B1
:101C0000C4F2020005F0ECFA08B080BD80B543F2E2
:101C10000000C4F2020005F0F5FA80BD80B589B07D
:101C200013468C4686468DF82300079106920020C5
:101C30008DF8160004900393CDF808C0CDF804E0A9
:101C4000FFE70498069988422DD2FFE79DF8160019
:101C50000799049A895C48408DF817009DF8230085
:101C600001460728009104D0FFE7009831280AD0E8
:101C700013E09DF817004DF21A51C0F60001085C00
:101C80008DF816000AE09DF817004DF21A61C0F6B3
:101C90000001085C8DF8160000E0FFE7FFE70498FC
:101CA00001300490CDE79DF8160009B080BD00001A
:101CB00086B00A46034605900491002003908DF8F3
:101CC0000B00039001920093FFE703980499884268
:101CD0000DD2FFE705980399405C9DF80B1008446E
:101CE0008DF80B00FFE7039801300390EDE79DF8B6
:101CF0000B00C0F580708DF80B009DF80B0006B04E
:101D00007047000080B582B043F20000C4F20200C8
:101D100005F03AFA40F2080EC2F2000E01218EF8E8
:101D20000010019002B080BD40F20800C2F2000035
:101D30000078704780B5FFF7E5FF402005F0E4F834
:101D400040F20800C2F200004FF0000E80F800E000
:101D500080BD000080B500F00DF880BD80B500F0BA
:101D600017F880BD80B5FFF7F5FF80BD80B5FFF7A0
:101D7000F5FF80BD80B505F073FE002807D0FFE7B2
:101D800005F05CFE05F000FE05F0E0FDFFE780BD1C
:101D900080B505F06DFE002809D0FFE705F0EAFDEB
:101DA00005F0DEFD0AF0D0FD07F042F9FFE780BD47
:101DB00080B587B013468C46864605900491ADF8F1
:101DC0000E200020ADF80C000293CDF804C0CDF831
:101DD00000E0FFE7BDF80C00BDF80E10884214DAF1
:101DE000FFE70598BDF80C10405C049A515C8842EE
:101DF00004D0FFE701208DF81B000AE0FFE7BDF8E3
:101E00000C000130ADF80C00E4E700208DF81B0059
:101E1000FFE79DF81B0007B080BD000080B582B0D1
:101E20000020C4F2020005F057FA002811D0FFE7A5
:101E30000020C4F20200012105F062FA002808D057
:101E4000FFE742F20040C4F20100FEF7B3FD01904B
:101E5000FFE702B080BD000080B582B040F20040D4
:101E6000C4F2020005F042FA002812D0FFE740F267
:101E70000040C4F20200052105F042FA002808D013
:101E8000FFE743F60040C4F20100FEF793FD019026
:101E9000FFE702B080BD00007047000080B582B04F
:101EA000014601900198009100F060F802B080BDF9
:101EB00080B582B0014601900198009100F064F86D
:101EC00002B080BD80B582B00146019001980091BA
:101ED00000F01EF802B080BD80B584B001460390CA
:101EE00003980028029110D0FFE7FFE70398411EF6
:101EF0000391002808D0FFE74FF47A7000F008F84B
:101F000004F06AFE0190F1E7FFE704B080BD000035
:101F100080B584B00146039003980028029105D053
:101F2000FFE7039807F0C6FB0190FFE704B080BD10
:101F300080B582B00146019001980091FFF7AEFF95
:101F400002B080BD80B582B0014601900198009139
:101F5000FFF7AEFF02B080BD80B582B001460190B0
:101F600001980091FFF7AEFF02B080BD82B001463C
:101F700001900091FFE70198411E0191002801D0D6
:101F8000FFE7F8E702B0704780B584B001460390E0
:101F90000398002802910FD0FFE707F067FB0028A5
:101FA00005D1FFE7039807F065FB019003E0039874
:101FB000FFF792FFFFE7FFE704B080BD80B500F0B8
:101FC00005F880BD80B5FFF7F9FF80BD80B540F210
:101FD000D021C2F200014FF60000C0F607004FF416
:101FE000806201F045F980BD80B500F0BFFC80BD86
:101FF00080B584B013468C4686468DF80F008DF868
:102000000E108DF80D209DF80F009DF80E109DF814
:102010000D200293CDF804C0CDF800E000F0B6FC2E
:1020200004B080BD80B58EB00020ADF83600ADF8AC
:10203000340040F23C10C2F20000016870220DF141
:1020400036034FF0020C0C90084611461A460B93CB
:102050006346CDF828C0FEF79FFD0C990A687221EF
:102060000DAB099010461A46DDF828C00893634668
:10207000FEF792FD0B990790084608990A9AFFF718
:1020800097FE002828D0FFE740F23C10C2F2000083
:10209000016874220DF136034FF0020C06900846D9
:1020A00011461A4605936346CDF810C0FEF774FD3D
:1020B00006990A68702103901046059A049BFEF762
:1020C00087FD06990A68722102901046059A049BC2
:1020D000FEF77EFD0190FFE79DF83600FF280FD048
:1020E000FFE79DF8360040F21A11C2F200010870B5
:1020F0009DF8370040F65241C2F200010870FFE738
:1021000000200EB080BD000080B582B040F21A10F1
:10211000C2F2000000788DF8060040F65240C2F28C
:10212000000000788DF8070000208DF8050040F2CF
:102130003C10C2F20000006870210DF1060202237B
:10214000FEF746FD8DF805009DF80500002806D035
:10215000FFE79DF8050001308DF80500FFE740F22C
:102160003C10C2F20000006872210DF10602022349
:10217000FEF72EFD8DF805009DF80500002806D01D
:10218000FFE79DF8050001308DF80500FFE740F2FC
:102190003C10C2F20000006874210DF10602022317
:1021A000FEF716FD8DF805009DF80500002806D005
:1021B000FFE79DF8050001308DF80500FFE79DF869
:1021C000050002B080BD000080B5FFF70DFF80BDA7
:1021D00080B584B013468C4686468DF80F008DF886
:1021E0000E108DF80D209DF80F009DF80E109DF833
:1021F0000D200293CDF804C0CDF800E0FFF7F8FE03
:1022000004B080BD80B5B4B00146339000208DF895
:10221000CB003398826D4079105CA128319140F059
:102220006681FFE7339808F097FADDF8CCE0A1214A
:102230003090704608F080FA3399D1F858E08979E7
:102240001EF801108E460E292F90CDF8B8E000F24E
:102250003E812E99DFE811F03A010F00280041007D
:10226000590072008A00A300BB00D400D500D6003C
:10227000EF0008012101012000222D902D99FFF788
:10228000A7FF3398816D8279895C08F055FA3399FC
:102290009DF8CB202C900846114608F04DFA2B9063
:1022A000FFF732FF2A9016E1012000212991299A97
:1022B000FFF78EFF3398816D8279895C08F03CFAD4
:1022C00033999DF8CB2028900846114608F034FA3F
:1022D0002790FFF719FF2690FDE002200121002240
:1022E000FFF776FF3398816D8279895C08F024FAD4
:1022F00033999DF8CB2025900846114608F01CFA2A
:102300002490FFF701FF2390E5E0022000212291B5
:10231000229AFFF75DFF3398816D8279895C08F01E
:102320000BFA33999DF8CB2021900846114608F00E
:1023300003FA2090FFF7E8FE1F90CCE00320012174
:102340000022FFF745FF3398816D8279895C08F0A0
:10235000F3F933999DF8CB201E900846114608F0FA
:10236000EBF91D90FFF7D0FE1C90B4E00320002194
:102370001B911B9AFFF72CFF3398816D8279895C42
:1023800008F0DAF933999DF8CB201A9008461146E7
:1023900008F0D2F91990FFF7B7FE18909BE00420DF
:1023A00001210022FFF714FF3398816D8279895C47
:1023B00008F0C2F933999DF8CB20179008461146D2
:1023C00008F0BAF91690FFF79FFE159083E00420FD
:1023D00000211491149AFFF7FBFE3398816D8279E6
:1023E000895C08F0A9F933999DF8CB201390084631
:1023F000114608F0A1F91290FFF786FE11906AE0ED
:1024000069E068E0012010901099109AFFF7E0FE53
:102410003398816D8279895C08F08EF933999DF843
:10242000CB200F900846114608F086F90E90FFF772
:102430006BFE0D904FE0022001210C910C9AFFF7EA
:10244000C7FE3398816D8279895C08F075F93399FC
:102450009DF8CB200B900846114608F06DF90A90C4
:10246000FFF752FE099036E0032001210891089AF7
:10247000FFF7AEFE3398816D8279895C08F05CF9D4
:1024800033999DF8CB2007900846114608F054F97F
:102490000690FFF739FE05901DE00420012104910C
:1024A000049AFFF795FE3398816D8279895C08F074
:1024B00043F933999DF8CB2003900846114608F064
:1024C0003BF90290FFF720FE019004E0FFE70220B5
:1024D0008DF8CB00FFE79DF8CB00002806D1FFE781
:1024E0003398012108F042F90090FFE7FFE79DF8DB
:1024F000CB0034B080BD0000B0B588B09C46964695
:102500000C460546079006918DF817208DF8163079
:1025100007989DF81710405C01460328CDF810C0BD
:10252000CDF80CE002940195009100F25B810099D6
:10253000DFE811F004005B00AE0003019DF8160017
:1025400006999DF8172011F83230184301F832002F
:102550009DF8160006999DF8172001EBC2014A78F4
:1025600022EA000048709DF8160006999DF8172091
:1025700001EBC2018A7822EA000088709DF81600FB
:1025800006999DF8172001EBC201CA7822EA0000E3
:10259000C8709DF8160006999DF8172001EBC2013E
:1025A0000A79104308719DF8160006999DF81720C6
:1025B00001EBC2014A7922EA000048719DF8160039
:1025C00006999DF8172001EBC2018A7922EA0000E2
:1025D00088719DF8160006999DF8172001EBC2013D
:1025E000CA7922EA0000C871FDE09DF8160006993C
:1025F0009DF8172011F83230184301F832009DF889
:10260000160006999DF8172001EBC2014A78104385
:1026100048709DF8160006999DF8172001EBC2013D
:102620008A78104388709DF8160006999DF8172047
:1026300001EBC201CA7822EA0000C8709DF81600BA
:1026400006999DF8172001EBC2010A791043087121
:102650009DF8160006999DF8172001EBC2014A79F2
:10266000104348719DF8160006999DF8172001EB5C
:10267000C2018A79104388719DF8160006999DF869
:10268000172001EBC201CA7922EA0000C871AAE052
:102690009DF8160006999DF8172011F8323018435E
:1026A00001F832009DF8160006999DF8172001EBFD
:1026B000C2014A7822EA000048709DF81600069987
:1026C0009DF8172001EBC2018A7822EA0000887089
:1026D0009DF8160006999DF8172001EBC201CA78F3
:1026E00022EA0000C8709DF8160006999DF8172090
:1026F00001EBC2010A79104308719DF81600069992
:102700009DF8172001EBC2014A79104348719DF8EA
:10271000160006999DF8172001EBC2018A79104333
:1027200088719DF8160006999DF8172001EBC201EB
:10273000CA7922EA0000C87155E09DF81600069992
:102740009DF8172011F83230184301F832009DF837
:10275000160006999DF8172001EBC2014A78104334
:1027600048709DF8160006999DF8172001EBC201EC
:102770008A78104388709DF8160006999DF81720F6
:1027800001EBC201CA7822EA0000C8709DF8160069
:1027900006999DF8172001EBC2010A7910430871D0
:1027A0009DF8160006999DF8172001EBC2014A79A1
:1027B00022EA000048719DF8160006999DF817203E
:1027C00001EBC2018A7922EA000088719DF81600A7
:1027D00006999DF8172001EBC201CA7922EA000090
:1027E000C87100E0FFE708B0B0BD0000B0B588B028
:1027F0009C4696460C460546079006918DF8172094
:102800008DF8163000208DF81500CDF810C0CDF8E9
:102810000CE002940195FFE79DF815009DF8171054
:1028200088420FDAFFE7079806999DF815209DF872
:102830001630FFF761FEFFE79DF8150001308DF8B7
:102840001500E9E79DF8160006999DF8172011F884
:102850003230184301F832009DF81700C0008DF89F
:102860001500FFE79DF815007F2814DCFFE79DF8B1
:10287000160006999DF8172001EBC2019DF815205E
:102880008B5C23EA00008854FFE79DF815000130B7
:102890008DF81500E6E708B0B0BD000080B590B037
:1028A00040F60000C4F2010001210A90099100F0F5
:1028B00037FD0A98099900F033FD0A98099900F04C
:1028C0002FFD0A98099900F02BFD00200F900E9023
:1028D0000D900C900B9009990C914FF0020ECDF8D1
:1028E00034E00E900F9040F201100B900DF12C0E81
:1028F0000A9A089010467146CDF81CE004F084FD59
:102900000A9906900846089904F016FE40F2022043
:102910000B900A9905900846079904F075FD0A99ED
:1029200004900846059904F007FE40F204400B901D
:102930000A9903900846079904F066FD0A990290E7
:102940000846039904F0F8FD40F608000B900A9938
:1029500001900846079904F057FD0A99009008462F
:10296000019904F0E9FD10B080BD000080B54FF082
:10297000804005F06BFC002807D0FFE700F038FA34
:102980004FF0804005F056F9FFE780BD80B585B077
:1029900013468C4686468DF813008DF812108DF87C
:1029A00011209DF813000138014603280393CDF848
:1029B00008C0CDF804E0009100F2E1800099DFE862
:1029C00001F0023970A79DF81200012809D1FFE734
:1029D00040F21A10C2F20000017841F001010170CA
:1029E00008E040F21A10C2F20000017801F00E0176
:1029F0000170FFE79DF81100012811D1FFE740F2B7
:102A00001A10C2F20000017841F00101017040F695
:102A10005240C2F20000017841F00101017008E06B
:102A200040F65240C2F20000017801F00E01017040
:102A3000FFE7B1E09DF81200012809D1FFE740F25D
:102A40001A10C2F20000017841F00201017008E0A2
:102A500040F21A10C2F20000017801F00D0101707D
:102A6000FFE79DF81100012811D1FFE740F21A108D
:102A7000C2F20000017841F00201017040F65240BC
:102A8000C2F20000017841F00201017008E040F656
:102A90005240C2F20000017801F00D010170FFE721
:102AA0007AE09DF81200012809D1FFE740F21A10E0
:102AB000C2F20000017841F00401017008E040F228
:102AC0001A10C2F20000017801F00B010170FFE75B
:102AD0009DF81100012811D1FFE740F21A10C2F24F
:102AE0000000017841F00401017040F65240C2F24A
:102AF0000000017841F00401017008E040F6524006
:102B0000C2F20000017801F00B010170FFE743E021
:102B10009DF81200012809D1FFE740F21A10C2F215
:102B20000000017841F00801017008E040F21A103D
:102B3000C2F20000017801F007010170FFE79DF883
:102B40001100012811D1FFE740F21A10C2F2000073
:102B5000017841F00801017040F65240C2F20000D5
:102B6000017841F00801017008E040F65240C2F2DD
:102B70000000017801F007010170FFE70CE040F26E
:102B80001A10C2F200000F21017040F65240C2F24A
:102B9000000000210170FFE705B080BD10B585B0D1
:102BA00013468C46864604908DF80F108DF80E2043
:102BB0009DF80E0004999DF80F2011F8324024EA88
:102BC000000001F832009DF80E0004999DF80F20D6
:102BD00001EBC2014A78104348709DF80E00049939
:102BE0009DF80F2001EBC2018A7822EA000088706C
:102BF0009DF80E0004999DF80F2001EBC201CA78E0
:102C00001043C8709DF80E0004999DF80F2001EB49
:102C1000C2010A7922EA000008719DF80E000499A9
:102C20009DF80F2001EBC2014A79104348719DF8CD
:102C30000E0004999DF80F2001EBC2018A7922EA67
:102C4000000088719DF80E0004999DF80F2001EB9B
:102C5000C201CA791043C8710293CDF804C0CDF8FF
:102C600000E005B010BD000010B585B013468C46DD
:102C7000864604908DF80F108DF80E209DF80E00FA
:102C800004999DF80F2011F8324024EA000001F861
:102C900032009DF80E0004999DF80F2001EBC2014F
:102CA0004A7822EA000048709DF80E0004999DF8C9
:102CB0000F2001EBC2018A78104388709DF80E0046
:102CC00004999DF80F2001EBC201CA781043C87027
:102CD0009DF80E0004999DF80F2001EBC2010A79BE
:102CE00022EA000008719DF80E0004999DF80F205B
:102CF00001EBC2014A7922EA000048719DF80E00FA
:102D000004999DF80F2001EBC2018A791043887164
:102D10009DF80E0004999DF80F2001EBC201CA79BD
:102D20001043C8710293CDF804C0CDF800E005B09F
:102D300010BD0000B0B588B09C4696460C460546CE
:102D40008DF81F0006918DF817208DF816300020A1
:102D50008DF815008DF81500CDF810C0CDF80CE0F9
:102D600002940195FFE79DF815009DF81710884221
:102D70001CDAFFE79DF81F00012808D1FFE706983D
:102D80009DF815109DF81620FFF708FF07E006983C
:102D90009DF815109DF81620FFF766FFFFE7FFE787
:102DA0009DF8150001308DF81500DCE79DF817003F
:102DB000C0008DF81500FFE79DF815007F2814DC92
:102DC000FFE79DF8160006999DF8172001EBC20158
:102DD0009DF815208B5C23EA00008854FFE79DF8DE
:102DE000150001308DF81500E6E708B0B0BD000011
:102DF00040F60C00C4F2010001684FF6F072114079
:102E000040F65042C2F20002138803F1010CA2F80E
:102E100000C040F6D02CC2F2000C1CF8033040F287
:102E20001A1CC2F2000C9CF800C003EA0C0340F626
:102E3000524CC2F2000C9CF800C043EA0C0303F0B1
:102E40000F03194401601088B0F5C07F07DBFFE76E
:102E500040F65040C2F2000000210180FFE77047B9
:102E600080B58CB04FF080400121069006F05EFFE7
:102E700000200B900A900990089007900699059001
:102E8000084604F0EBFE40F2F311099140F2000114
:102E9000C2F2000109684DF6836EC4F21B3EA1FB2D
:102EA0000E1E4FF0FF3202EB9E42ADF81C20059A39
:102EB0000A9208928DF82C200DF11C0E069B0490AE
:102EC00018460391714605F017F9069902900846D5
:102ED00004F05AFF0698059905F0D8F90698059967
:102EE00005F02EFA069804F07FFF05F037FF0599EC
:102EF000059A05F06BFE1C2101900846019A00918D
:102F0000114605F0CFFF009805F0F4FD069804F097
:102F1000A7FF069804F08CFF0CB080BD80B500F0D0
:102F20000BF880BD80B582B0FFF7F8FFFFF77AF8A5
:102F3000019002B080BD000080B58AB000208DF8FD
:102F400027000890FFF7AAFCFFF78AFF41F2C010A4
:102F5000C2F2000040F6D02EC2F2000EC0F800E02F
:102F600008988DF82700FFE79DF8270002284ADC23
:102F7000FFE79DF8270040F21201C2F2000116227D
:102F800000FB02104078002814D1FFE79DF82700CD
:102F900040F21201C2F20001162200FB021041F2BF
:102FA000C011C2F20001096810F8022B0123FFF7DB
:102FB0001DFC1AE09DF8270040F21201C2F2000148
:102FC000162200FB021350435A7841F2C013C2F29A
:102FD00000031B68085C0121079010460691194602
:102FE000079A069BFFF7A6FEFFE741F2C010C2F268
:102FF0000000016880310160FFE79DF82700013083
:103000008DF82700B0E741F2C010C2F2000040F690
:10301000D021C2F20001016000208DF82700FFE7F7
:103020009DF8270002284ADCFFE79DF8270040F2C0
:103030005401C2F20001162200FB02104078002861
:1030400014D1FFE79DF8270040F25401C2F20001BD
:10305000162200FB021041F2C011C2F20001096801
:1030600010F8022B0223FFF7C1FB1AE09DF827009E
:1030700040F25401C2F20001162200FB0213504339
:103080005A7841F2C013C2F200031B68085C0221A7
:103090000590104604911946059A049BFFF74AFED5
:1030A000FFE741F2C010C2F2000001688031016008
:1030B000FFE79DF8270001308DF82700B0E741F2C7
:1030C000C010C2F2000040F6D021C2F2000101603F
:1030D00000208DF82700FFE79DF8270002284ADC32
:1030E000FFE79DF8270040F29601C2F20001162288
:1030F00000FB02104078002814D1FFE79DF827005C
:1031000040F29601C2F20001162200FB021041F2C9
:10311000C011C2F20001096810F8022B0423FFF766
:1031200065FB1AE09DF8270040F29601C2F200010B
:10313000162200FB021350435A7841F2C013C2F228
:1031400000031B68085C0421039010460291194695
:10315000039A029BFFF7EEFDFFE741F2C010C2F2B7
:103160000000016880310160FFE79DF82700013011
:103170008DF82700B0E741F2C010C2F2000040F61F
:10318000D021C2F20001016000208DF82700FFE786
:103190009DF8270002284ADCFFE79DF8270040F24F
:1031A000D801C2F20001162200FB0210407800286C
:1031B00014D1FFE79DF8270040F2D801C2F20001C8
:1031C000162200FB021041F2C011C2F20001096890
:1031D00010F8022B0823FFF709FB1AE09DF82700DF
:1031E00040F2D801C2F20001162200FB0213504344
:1031F0005A7841F2C013C2F200031B68085C082130
:103200000190104600911946019A009BFFF792FD2C
:10321000FFE741F2C010C2F2000001688031016096
:10322000FFE79DF8270001308DF82700B0E741F255
:10323000C010C2F2000040F6D021C2F200010160CD
:103240000AB080BD80B586B013468C468646059090
:103250000491ADF80E2005980499BDF80E20029354
:10326000CDF804C0CDF800E000F018F806B080BD3D
:1032700080B586B013468C46864605900491ADF81D
:103280000E2005980499BDF80E200293CDF804C0D5
:10329000CDF800E0FFF7D6FF06B080BD80B586B060
:1032A00013468C46864605900491ADF80E2000200A
:1032B000ADF80C000293CDF804C0CDF800E0FFE7B4
:1032C000BDF80C00BDF80E10884213DAFFE7059830
:1032D00004F05EF8DDF810E0BDF80C102EF81100D7
:1032E000059802300590FFE7BDF80C000130ADF8FD
:1032F0000C00E5E706B080BD80B584B00A46034601
:1033000003908DF80B1003989DF80B100192009319
:1033100000F01AF804B080BD80B500F0BDF880BDA3
:1033200080B584B00A46034603908DF80B100398CD
:103330009DF80B1001920093FFF7DEFF04B080BDF3
:1033400080B5FFF7E9FF80BD80B584B00A4603462B
:1033500003908DF80B10039840F60001C4F20101B0
:103360008842019200930ED1FFE79DF80B000028E0
:1033700004D0FFE7042003F08FFE03E0042003F0F5
:103380005BFEFFE785E0039840F60041C4F20101CF
:1033900088420ED1FFE79DF80B00002804D0FFE71C
:1033A000082003F079FE03E0082003F045FEFFE764
:1033B0006FE0039841F20001C4F2010188420ED18E
:1033C000FFE79DF80B00002804D0FFE7102003F072
:1033D00063FE03E0102003F02FFEFFE759E003989F
:1033E00041F20041C4F2010188420ED1FFE79DF88D
:1033F0000B00002804D0FFE7202003F04DFE03E07F
:10340000202003F019FEFFE743E0039841F6000196
:10341000C4F2010188420ED1FFE79DF80B0000289D
:1034200004D0FFE7402003F037FE03E0402003F024
:1034300003FEFFE72DE0039841F60041C4F20101CD
:1034400088420ED1FFE79DF80B00002804D0FFE76B
:10345000802003F021FE03E0802003F0EDFDFFE774
:1034600017E0039842F20001C4F20101884210D132
:10347000FFE79DF80B00002805D0FFE74FF48070B0
:1034800003F00AFE04E04FF4807003F0D5FDFFE77F
:10349000FFE704B080BD000080B582B040F60000B8
:1034A000C4F2010001210191FFF74EFF40F60040F8
:1034B000C4F201000199FFF747FF41F20000C4F296
:1034C00001000199FFF740FF41F20040C4F2010002
:1034D0000199FFF739FF41F60000C4F2010001999C
:1034E000FFF732FF41F60040C4F201000199FFF7F7
:1034F0002BFF42F20000C4F201000199FFF724FF04
:10350000019803F0C9FD03F067FF03F071FF02B0FB
:1035100080BD000040F25810C2F20000007841F275
:10352000C451C2F200010A681044086070470000EC
:1035300080B584B00A46034603908DF80B100398BB
:103540009DF80B100192009302F0D8F904B080BDF1
:1035500080B502F0F5F980BD80B582B001468DF8E6
:1035600007009DF80700009102F0EEF902B080BD5F
:1035700080B582B001468DF807009DF807000091E4
:1035800002F022FA02B080BD80B582B001468DF80B
:1035900007009DF80700009102F056FA02B080BDC6
:1035A00080B584B00A4603468DF80F008DF80E10E2
:1035B0009DF80F009DF80E100292019302F0A6FAFA
:1035C00004B080BD80B584B00A4603468DF80F0074
:1035D000ADF80C109DF80F00BDF80C10029201938D
:1035E00002F0CCFC04B080BD80B584B00A4603462E
:1035F0008DF80F008DF80E109DF80F009DF80E103D
:103600000292019302F0FEFC04B080BD80B584B04C
:103610000A4603468DF80F008DF80E109DF80F0036
:103620009DF80E100292019302F0B6FD04B080BD29
:1036300080B5ADF55E7D00208DF87703ADF874039D
:10364000ADF87203ADF8700340F23C10C2F2000016
:1036500001681022DDAB4FF0020CDB9008461146EA
:103660001A46DA936346CDF864C3FDF795FADB9901
:103670000A6830210DF27233D89010461A46DDF8F0
:1036800064C3D7936346FDF787FADA99D690084664
:10369000D799D99AFEF78CFB002827D0FFE740F294
:1036A0003C10C2F2000001685022DDAB4FF0020C6A
:1036B000D590084611461A46D4936346CDF84CC3BC
:1036C000FDF76AFAD5990A681021D2901046D49A6B
:1036D000D39BFDF77DFAD5990A683021D190104629
:1036E000D49AD39BFDF774FAD090FFE79DF874034A
:1036F000FF2813D0FFE79DF87403ADF87003BDF801
:1037000070039DF8751341EA0020ADF87003BDF811
:103710007013012001F01EF8CF90FFE740F23C103B
:10372000C2F2000001681222DDAB4FF0020CCE9015
:10373000084611461A46CD936346CDF830C3FDF7CF
:103740002BFACE990A6832210DF27233CB901046D3
:103750001A46DDF830C3CA936346FDF71DFACD99CA
:10376000C9900846CA99CC9AFEF722FB002827D0B8
:10377000FFE740F23C10C2F2000001685222DDABCC
:103780004FF0020CC890084611461A46C79363468C
:10379000CDF818C3FDF700FAC8990A681221C59040
:1037A0001046C79AC69BFDF713FAC8990A683221DA
:1037B000C4901046C79AC69BFDF70AFAC390FFE76C
:1037C0009DF87403FF2813D0FFE79DF87403ADF84C
:1037D0007003BDF870039DF8751341EA0020ADF841
:1037E0007003BDF87013022000F0B4FFC290FFE731
:1037F00040F23C10C2F2000001681422DDAB4FF031
:10380000020CC190084611461A46C0936346CDF893
:10381000FCC2FDF7C1F9C1990A6834210DF2723377
:10382000BE9010461A46DDF8FCC2BD936346FDF714
:10383000B3F9C099BC900846BD99BF9AFEF7B8FA93
:10384000002827D0FFE740F23C10C2F200000168D8
:103850005422DDAB4FF0020CBB90084611461A46CD
:10386000BA936346CDF8E4C2FDF796F9BB990A68AE
:103870001421B8901046BA9AB99BFDF7A9F9BB99E3
:103880000A683421B7901046BA9AB99BFDF7A0F99F
:10389000B690FFE79DF87403FF2813D0FFE79DF86B
:1038A0007403ADF87003BDF870039DF8751341EA19
:1038B0000020ADF87003BDF87013032000F04AFF3C
:1038C000B590FFE740F23C10C2F2000001681622FA
:1038D000DDAB4FF0020CB490084611461A46B39384
:1038E0006346CDF8C8C2FDF757F9B4990A68362186
:1038F0000DF27233B19010461A46DDF8C8C2B0938B
:103900006346FDF749F9B399AF900846B099B29A6A
:10391000FEF74EFA002827D0FFE740F23C10C2F233
:10392000000001685622DDAB4FF0020CAE90084655
:1039300011461A46AD936346CDF8B0C2FDF72CF997
:10394000AE990A681621AB901046AD9AAC9BFDF774
:103950003FF9AE990A683621AA901046AD9AAC9B01
:10396000FDF736F9A990FFE79DF87403FF2813D0FF
:10397000FFE79DF87403ADF87003BDF870039DF880
:10398000751341EA0020ADF87003BDF870130420F0
:1039900000F0E0FEA890FFE740F23C10C2F2000009
:1039A00001681822DDAB4FF0020CA79008461146C3
:1039B0001A46A6936346CDF894C2FDF7EDF8A79991
:1039C0000A6838210DF27233A49010461A46DDF8C9
:1039D00094C2A3936346FDF7DFF8A699A290084628
:1039E000A399A59AFEF7E4F9002827D0FFE740F253
:1039F0003C10C2F2000001685822DDAB4FF0020C0F
:103A0000A190084611461A46A0936346CDF87CC2A1
:103A1000FDF7C2F8A1990A6818219E901046A09A55
:103A20009F9BFDF7D5F8A1990A6838219D90104613
:103A3000A09A9F9BFDF7CCF89C90FFE79DF874033C
:103A4000FF2820D0FFE79DF87403ADF87003BDF8A0
:103A500070039DF8751341EA0020ADF87003BDF8BE
:103A600070034CF6CD41CCF6CC41A0FB0101890896
:103A7000ADF870139DF8701301229B90104600F072
:103A80007BFE9A90FFE740F23C10C2F20000016812
:103A90001A22DDAB4FF0020C9990084611461A46E7
:103AA00098936346CDF85CC2FDF776F899990A6859
:103AB0003A210DF27233969010461A46DDF85CC238
:103AC00095936346FDF768F8989994900846959900
:103AD000979AFEF76DF9002827D0FFE740F23C10D7
:103AE000C2F2000001685A22DDAB4FF0020C939045
:103AF000084611461A4692936346CDF844C2FDF734
:103B00004BF893990A681A2190901046929A919BCB
:103B1000FDF75EF893990A683A218F901046929AC1
:103B2000919BFDF755F88E90FFE79DF87403FF28F1
:103B300020D0FFE79DF87403ADF87003BDF8700363
:103B40009DF8751341EA0020ADF87003BDF87003CD
:103B50004CF6CD41CCF6CC41A0FB01018908ADF873
:103B600070139DF8701302228D90104600F004FE31
:103B70008C90FFE740F23C10C2F2000001681C226A
:103B8000DDAB4FF0020C8B90084611461A468A9323
:103B90006346CDF824C2FCF7FFFF8B990A683C21ED
:103BA0000DF27233889010461A46DDF824C28793CE
:103BB0006346FCF7F1FF8A99869008468799899AAF
:103BC000FEF7F6F8002827D0FFE740F23C10C2F2DB
:103BD000000001685C22DDAB4FF0020C85900846C6
:103BE00011461A4684936346CDF80CC2FCF7D4FF05
:103BF00085990A681C2182901046849A839BFCF761
:103C0000E7FF85990A683C2181901046849A839B3E
:103C1000FCF7DEFF8090FFE79DF87403FF2820D0BB
:103C2000FFE79DF87403ADF87003BDF870039DF8CD
:103C3000751341EA0020ADF87003BDF870034CF62F
:103C4000CD41CCF6CC41A0FB01018908ADF8701341
:103C50009DF8701303227F90104600F08DFD7E903A
:103C6000FFE740F23C10C2F2000001681E22DDAB0B
:103C70004FF0020C7D90084611461A467C9363462D
:103C8000CDF8ECC1FCF788FF7D990A683E210DF262
:103C900072337A9010461A46DDF8ECC17993634688
:103CA000FCF77AFF7C997890084679997B9AFEF721
:103CB0007FF8002827D0FFE740F23C10C2F2000056
:103CC00001685E22DDAB4FF0020C7790084611468A
:103CD0001A4676936346CDF8D4C1FCF75DFF779919
:103CE0000A681E2174901046769A759BFCF770FF47
:103CF00077990A683E2173901046769A759BFCF777
:103D000067FF7290FFE79DF87403FF2820D0FFE75C
:103D10009DF87403ADF87003BDF870039DF875133A
:103D200041EA0020ADF87003BDF870034CF6CD41B8
:103D3000CCF6CC41A0FB01018908ADF870139DF8C9
:103D4000701304227190104600F016FD7090FFE78A
:103D500040F23C10C2F2000001682022DDAB4FF0BF
:103D6000020C6F90084611461A466E936346CDF8D2
:103D7000B4C1FCF711FF6F990A6840210DF272334C
:103D80006C9010461A46DDF8B4C16B936346FCF79D
:103D900003FF6E996A9008466B996D9AFEF708F8D2
:103DA000002827D0FFE740F23C10C2F20000016873
:103DB0006022DDAB4FF0020C6990084611461A46AE
:103DC00068936346CDF89CC1FCF7E6FE69990A68E2
:103DD000202166901046689A679BFCF7F9FE699966
:103DE0000A68402165901046689A679BFCF7F0FED0
:103DF0006490FFE79DF87403FF2820D0FFE79DF84B
:103E00007403ADF87003BDF870039DF8751341EAB3
:103E10000020ADF87003BDF870034CF6CD41CCF630
:103E2000CC41A0FB01018908ADF870139DF8701317
:103E300001226390104600F0B1FC6290FFE740F26F
:103E40003C10C2F2000001682222DDAB4FF0020CF0
:103E50006190084611461A4660936346CDF87CC1CE
:103E6000FCF79AFE61990A6842210DF272335E9066
:103E700010461A46DDF87CC15D936346FCF78CFE64
:103E800060995C9008465D995F9AFDF791FF002864
:103E900027D0FFE740F23C10C2F200000168622226
:103EA000DDAB4FF0020C5B90084611461A465A9360
:103EB0006346CDF864C1FCF76FFE5B990A68222166
:103EC000589010465A9A599BFCF782FE5B990A68F3
:103ED0004221579010465A9A599BFCF779FE56900A
:103EE000FFE79DF87403FF2820D0FFE79DF87403D7
:103EF000ADF87003BDF870039DF8751341EA00201A
:103F0000ADF87003BDF870034CF6CD41CCF6CC4152
:103F1000A0FB01018908ADF870139DF8701302220F
:103F20005590104600F03AFC5490FFE740F23C10E8
:103F3000C2F2000001682422DDAB4FF0020C539066
:103F4000084611461A4652936346CDF844C1FCF721
:103F500023FE53990A6844210DF2723350901046A3
:103F60001A46DDF844C14F936346FCF715FE52999B
:103F70004E9008464F99519AFDF71AFF002827D016
:103F8000FFE740F23C10C2F2000001686422DDABA2
:103F90004FF0020C4D90084611461A464C9363466A
:103FA000CDF82CC1FCF7F8FD4D990A6824214A9000
:103FB00010464C9A4B9BFCF70BFE4D990A68442126
:103FC000499010464C9A4B9BFCF702FE4890FFE745
:103FD0009DF87403FF2820D0FFE79DF87403ADF827
:103FE0007003BDF870039DF8751341EA0020ADF829
:103FF0007003BDF870034CF6CD41CCF6CC41A0FB6C
:1040000001018908ADF870139DF8701303224790E1
:10401000104600F0C3FB4690FFE740F23C10C2F2AE
:10402000000001682622DDAB4FF0020C45900846E7
:1040300011461A4644936346CDF80CC1FCF7ACFD1B
:1040400045990A6846210DF27233429010461A468D
:10405000DDF80CC141936346FCF79EFD4499409006
:1040600008464199439AFDF7A3FE002827D0FFE7B1
:1040700040F23C10C2F2000001686622DDAB4FF056
:10408000020C3F90084611461A463E936346CDF80F
:10409000F4C0FCF781FD3F990A6826213C90104648
:1040A0003E9A3D9BFCF794FD3F990A6846213B9060
:1040B00010463E9A3D9BFCF78BFD3A90FFE79DF83A
:1040C0007403FF2820D0FFE79DF87403ADF8700358
:1040D000BDF870039DF8751341EA0020ADF8700338
:1040E000BDF870034CF6CD41CCF6CC41A0FB0101EC
:1040F0008908ADF870139DF87013042239901046AA
:1041000000F04CFB3890FFE740F23C10C2F2000098
:1041100001682822DDAB4FF0020C379008461146AB
:104120001A4636936346CDF8D4C0FCF735FD37996F
:104130000A6848210DF27233349010461A46DDF8B1
:10414000D4C033936346FCF727FD36993290084676
:104150003399359AFDF72CFE002827D0FFE740F26F
:104160003C10C2F2000001686822DDAB4FF0020C87
:104170003190084611461A4630936346CDF8BCC0CC
:10418000FCF70AFD31990A6828212E901046309AD2
:104190002F9BFCF71DFD31990A6848212D90104690
:1041A000309A2F9BFCF714FD2C90FFE79DF87403C9
:1041B000FF2820D0FFE79DF87403ADF87003BDF829
:1041C00070039DF8751341EA0020ADF87003BDF847
:1041D00070034CF6CD41CCF6CC41A0FB010189081F
:1041E000ADF870139DF8701305222B90104600F067
:1041F000D5FA2A90FFE740F23C10C2F200000168B5
:104200002A22DDAB4FF0020C2990084611461A46CF
:1042100028936346CDF89CC0FCF7BEFC29990A6838
:104220004A210DF27233269010461A46DDF89CC0E2
:1042300025936346FCF7B0FC2899249008462599FD
:10424000279AFDF7B5FD002827D0FFE740F23C1084
:10425000C2F2000001686A22DDAB4FF0020C23902D
:10426000084611461A4622936346CDF884C0FCF7EF
:1042700093FC23990A682A2120901046229A219BB8
:10428000FCF7A6FC23990A684A211F901046229A3F
:10429000219BFCF79DFC1E90FFE79DF87403FF280F
:1042A00020D0FFE79DF87403ADF87003BDF87003EC
:1042B0009DF8751341EA0020ADF87003BDF8700356
:1042C0004CF6CD41CCF6CC41A0FB01018908ADF8FC
:1042D00070139DF8701306221D90104600F05EFAD0
:1042E0001C90FFE740F23C10C2F2000001682C2253
:1042F000DDAB4FF0020C1B90084611461A461A938C
:104300006346CDF864C0FCF747FC1B990A684C2152
:104310000DF27233189010461A46DDF864C01793F8
:104320006346FCF739FC1A99169008461799199AB2
:10433000FDF73EFD002827D0FFE740F23C10C2F217
:10434000000001686C22DDAB4FF0020C15900846AE
:1043500011461A4614936346CDF84CC0FCF71CFC7A
:1043600015990A682C2112901046149A139BFCF799
:104370002FFC15990A684C2111901046149A139B32
:10438000FCF726FC1090FFE79DF87403FF2820D06F
:10439000FFE79DF87403ADF87003BDF870039DF856
:1043A000751341EA0020ADF87003BDF870034CF6B8
:1043B000CD41CCF6CC41A0FB01018908ADF87013CA
:1043C0009DF8701307220F90104600F0E7F90E9049
:1043D000FFE740F23C10C2F2000001682E22DDAB84
:1043E0004FF0020C0D90084611461A460C93634696
:1043F000CDF82CC0FCF7D0FB0D990A684E210DF2C8
:1044000072330A9010461A46DDF82CC009936346B1
:10441000FCF7C2FB0C990890084609990B9AFDF726
:10442000C7FC002827D0FFE740F23C10C2F2000092
:1044300001686E22DDAB4FF0020C07900846114672
:104440001A4606936346CDF814C0FCF7A5FB0799FE
:104450000A682E2104901046069A059BFCF7B8FBCB
:1044600007990A684E2103901046069A059BFCF7AF
:10447000AFFB0290FFE79DF87403FF2820D0FFE711
:104480009DF87403ADF87003BDF870039DF87513C3
:1044900041EA0020ADF87003BDF870034CF6CD4141
:1044A000CCF6CC41A0FB01018908ADF870139DF852
:1044B000701308220190104600F070F90090FFE799
:1044C0009DF877030DF55E7D80BD000080B584B05A
:1044D0000A460346ADF80E00ADF80C100020ADF80A
:1044E0000A008DF809009DF80D008DF80A00BDF84E
:1044F0000C008DF80B0040F23C10C2F20000006886
:10450000BDF80E100DF10A0C4FF0020E019262463A
:1045100000937346FCF75CFB8DF809009DF80900D9
:10452000002806D0FFE79DF8090001308DF809004A
:10453000FFE740F23C10C2F200000068BDF80E1028
:10454000203189B20DF10A020223FCF741FB8DF8FC
:1045500009009DF80900002806D0FFE79DF8090032
:1045600001308DF80900FFE740F23C10C2F2000074
:104570000068BDF80E10403189B20DF10A02022325
:10458000FCF726FB8DF809009DF80900002806D0ED
:10459000FFE79DF8090001308DF80900FFE79DF85D
:1045A000090004B080BD000080B584B00A4603460F
:1045B00003908DF80B1003989DF80B100192009357
:1045C000FEF7B6FF04B080BD80B582B0FEF7C0FF35
:1045D000FFF72EF8019002B080BD000080B58AB0D0
:1045E00000208DF827008DF8260002F03BFB8DF8A7
:1045F00026009DF8260086460328CDF820E024D822
:104600000899DFE801F0020A121A40F23710C2F2EC
:10461000000000788DF827001BE040F23610C2F24F
:10462000000000788DF8270013E040F23510C2F248
:10463000000000788DF827000BE040F23410C2F241
:10464000000000788DF8270003E004208DF8260094
:10465000FFE79DF82600042844D0FFE79DF82700D7
:1046600000283FD0FFE79DF82710012000F096F8C2
:104670009DF827104FF0020E0790704600F08EF85C
:104680009DF827104FF0030E0690704600F086F854
:104690009DF827104FF0040E0590704600F07EF84C
:1046A0009DF827104FF0050E0490704600F076F844
:1046B0009DF827104FF0060E0390704600F06EF83C
:1046C0009DF827104FF0070E0290704600F066F834
:1046D0009DF827104FF0080E0190704600F05EF82C
:1046E0000090FFE70AB080BD80B582B001468DF82A
:1046F00007009DF807000091FEF72EFF02B080BD75
:1047000080B582B001468DF807009DF80700009142
:10471000FEF72EFF02B080BD80B582B001468DF855
:1047200007009DF807000091FEF72EFF02B080BD44
:1047300080B584B00A4603468DF80F008DF80E1040
:104740009DF80F009DF80E1002920193FEF728FFCE
:1047500004B080BD80B584B00A4603468DF80F00D2
:10476000ADF80C109DF80F00BDF80C1002920193EB
:10477000FEF728FF04B080BD80B584B00A4603462A
:104780008DF80F008DF80E109DF80F009DF80E109B
:1047900002920193FEF728FF04B080BD80B584B07B
:1047A0000A4603468DF80F008DF80E109DF80F0095
:1047B0009DF80E1002920193FEF728FF04B080BD11
:1047C00080B5ADF51E7D01469D9000208DF87302E9
:1047D000ADF870029D98826D4079105CA0289B9185
:1047E00040F0AD85FFE79D9805F0B6FFDDF874E277
:1047F000A0219A90704605F09FFF9D99D1F858E04E
:1048000089791EF8011001398E4621299990CDF839
:1048100060E200F284859899DFE811F022004A00F6
:104820007F00A700DC000401390161019501BC0192
:10483000E3010A02310258027F02A602CD02F4020D
:104840001B03420369039003B703DE0305042C0432
:1048500053047A04A104C804EF0416053D05660557
:104860000120FFF741FFADF870029D98D0F858E0A5
:1048700081791EF8011005F05FFF9D994FF0000E41
:1048800097900846714605F057FF9D999DF871E293
:1048900096900846714605F04FFF9D999DF870E28D
:1048A00095900846714605F047FF949000F03BBD97
:1048B0009D98816DC079085CADF87002BDF87002FA
:1048C0009D998A6DC9791144497841EA0020ADF873
:1048D0007002BDF8701201209390FFF73BFF8DF836
:1048E00073029D98816D8279895C05F025FF9D9901
:1048F0009DF8732292900846114605F01DFF93998A
:1049000091900846FFF7F0FE10219090084690998C
:10491000FFF7DCFD8F9000F006BD0220FFF7E4FEFC
:10492000ADF870029D98D0F858E081791EF801101A
:1049300005F002FF9D994FF0000E8E9008467146DB
:1049400005F0FAFE9D999DF871E28D90084671463A
:1049500005F0F2FE9D999DF870E28C900846714634
:1049600005F0EAFE8B9000F0DEBC9D98816DC07969
:10497000085CADF87002BDF870029D998A6DC97926
:104980001144497841EA0020ADF87002BDF8701278
:1049900002208A90FFF7DEFE8DF873029D98816DEC
:1049A0008279895C05F0C8FE9D999DF873228990F3
:1049B0000846114605F0C0FE8A9988900846FFF720
:1049C00093FE1221879008468799FFF77FFD869016
:1049D00000F0A9BC0320FFF787FEADF870029D9898
:1049E000D0F858E081791EF8011005F0A5FE9D99D8
:1049F0004FF0000E85900846714605F09DFE9D998A
:104A00009DF871E284900846714605F095FE9D99E7
:104A10009DF870E283900846714605F08DFE829005
:104A200000F081BC9D98816DC079085CADF8700282
:104A3000BDF870029D998A6DC9791144497841EA9F
:104A40000020ADF87002BDF8701203208190FFF7CE
:104A500081FE8DF873029D98816D8279895C05F0E5
:104A60006BFE9D999DF8732280900846114605F0D3
:104A700063FE81997F900846FFF736FE14217E90F1
:104A800008467E99FFF722FD7D9000F04CBC042083
:104A9000FFF72AFEADF870029D98D0F858E08179B2
:104AA0001EF8011005F048FE9D994FF0000E7C9015
:104AB0000846714605F040FE9D999DF871E27B9095
:104AC0000846714605F038FE9D999DF870E27A908F
:104AD0000846714605F030FE799000F024BC9D98A0
:104AE000816DC079085CADF87002BDF870029D99C7
:104AF0008A6DC9791144497841EA0020ADF8700205
:104B0000BDF8701204207890FFF724FE8DF8730230
:104B10009D98816D8279895C05F00EFE9D999DF8C6
:104B2000732277900846114605F006FE7899769034
:104B30000846FFF7D9FD1621759008467599FFF7CD
:104B4000C5FC7490EFE30120FFF7DAFDADF87002C9
:104B50009D98D0F858E081791EF8011005F0ECFD21
:104B60009D994FF0000E73900846714605F0E4FDE4
:104B70009D999DF871E272900846714605F0DCFD42
:104B80009D999DF870E271900846714605F0D4FD3C
:104B90007090C8E39D98816DC079095C01206F9089
:104BA00001F030FA8DF873029D98816D90F806E05F
:104BB00011F80E1005F0C0FD9D999DF873E26E90FE
:104BC0000846714605F0B8FD6F996D900846FFF7ED
:104BD00097FD18216C9008466C99FFF777FC6B9055
:104BE000A1E30220FFF78CFDADF870029D98D0F88C
:104BF00058E081791EF8011005F09EFD9D994FF057
:104C0000000E6A900846714605F096FD9D999DF844
:104C100071E269900846714605F08EFD9D999DF8F8
:104C200070E268900846714605F086FD67907AE369
:104C30009D98816DC079095C02206690FFF79CFD0C
:104C40008DF873029D98816D90F806E011F80E10B2
:104C500005F072FD9D999DF873E2659008467146D6
:104C600005F06AFD669964900846FFF749FD1A2130
:104C7000639008466399FFF729FC629053E3032091
:104C8000FFF73EFDADF870029D98D0F858E08179AD
:104C90001EF8011005F050FD9D994FF0000E619037
:104CA0000846714605F048FD9D999DF871E26090B7
:104CB0000846714605F040FD9D999DF870E25F90B1
:104CC0000846714605F038FD5E902CE39D98816D95
:104CD000C079095C03205D90FFF74EFD8DF87302EB
:104CE0009D98816D90F806E011F80E1005F024FDF6
:104CF0009D999DF873E25C900846714605F01CFD95
:104D00005D995B900846FFF7FBFC1C215A90084612
:104D10005A99FFF7DBFB599005E30420FFF7F0FCFD
:104D2000ADF870029D98D0F858E081791EF8011016
:104D300005F002FD9D994FF0000E5890084671460F
:104D400005F0FAFC9D999DF871E25790084671466E
:104D500005F0F2FC9D999DF870E256900846714668
:104D600005F0EAFC5590DEE29D98816DC079095C02
:104D700004205490FFF700FD8DF873029D98816D1B
:104D800090F806E011F80E1005F0D6FC9D999DF8FC
:104D900073E253900846714605F0CEFC5499529048
:104DA0000846FFF7ADFC1E21519008465199FFF7C8
:104DB0008DFB5090B7E20120FFF7AEFCADF870021A
:104DC0009D98D0F858E081791EF8011005F0B4FCE8
:104DD0009D994FF0000E4F900846714605F0ACFCCF
:104DE0009D999DF871E24E900846714605F0A4FC2D
:104DF0009D999DF870E24D900846714605F09CFC27
:104E00004C9090E29D98816DC079095C01204B9097
:104E1000FFF7C4FC8DF873029D98816D90F806E051
:104E200011F80E1005F088FC9D999DF873E24A90E8
:104E30000846714605F080FC4B9949900846FFF7FB
:104E40006BFC2021489008464899FFF73FFB4790AC
:104E500069E20220FFF760FCADF870029D98D0F87F
:104E600058E081791EF8011005F066FC9D994FF01D
:104E7000000E46900846714605F05EFC9D999DF82F
:104E800071E245900846714605F056FC9D999DF8E3
:104E900070E244900846714605F04EFC439042E2B1
:104EA0009D98816DC079095C02204290FFF776FCE5
:104EB0008DF873029D98816D90F806E011F80E1040
:104EC00005F03AFC9D999DF873E2419008467146C1
:104ED00005F032FC429940900846FFF71DFC222164
:104EE0003F9008463F99FFF7F1FA3E901BE20320FE
:104EF000FFF712FCADF870029D98D0F858E0817968
:104F00001EF8011005F018FC9D994FF0000E3D9021
:104F10000846714605F010FC9D999DF871E23C90A1
:104F20000846714605F008FC9D999DF870E23B909B
:104F30000846714605F000FC3A90F4E19D98816DB9
:104F4000C079095C03203990FFF728FC8DF87302C3
:104F50009D98816D90F806E011F80E1005F0ECFBBD
:104F60009D999DF873E238900846714605F0E4FB80
:104F7000399937900846FFF7CFFB24213690084631
:104F80003699FFF7A3FA3590CDE10420FFF7C4FB73
:104F9000ADF870029D98D0F858E081791EF80110A4
:104FA00005F0CAFB9D994FF0000E349008467146FB
:104FB00005F0C2FB9D999DF871E233900846714659
:104FC00005F0BAFB9D999DF870E232900846714653
:104FD00005F0B2FB3190A6E19D98816DC079095C26
:104FE00004203090FFF7DAFB8DF873029D98816DF5
:104FF00090F806E011F80E1005F09EFB9D999DF8C3
:1050000073E22F900846714605F096FB30992E907A
:105010000846FFF781FB26212D9008462D99FFF7C2
:1050200055FA2C907FE10520FFF776FBADF8700272
:105030009D98D0F858E081791EF8011005F07CFBAE
:105040009D994FF0000E2B900846714605F074FBB9
:105050009D999DF871E22A900846714605F06CFB17
:105060009D999DF870E229900846714605F064FB11
:10507000289058E19D98816DC079095C05202790A2
:10508000FFF78CFB8DF873029D98816D90F806E018
:1050900011F80E1005F050FB9D999DF873E22690D3
:1050A0000846714605F048FB279925900846FFF70A
:1050B00033FB2821249008462499FFF707FA239010
:1050C00031E10620FFF728FBADF870029D98D0F87B
:1050D00058E081791EF8011005F02EFB9D994FF0E4
:1050E000000E22900846714605F026FB9D999DF81A
:1050F00071E221900846714605F01EFB9D999DF8CE
:1051000070E220900846714605F016FB1F900AE1F8
:105110009D98816DC079095C06201E90FFF73EFBCB
:105120008DF873029D98816D90F806E011F80E10CD
:1051300005F002FB9D999DF873E21D9008467146AB
:1051400005F0FAFA1E991C900846FFF7E5FA2A21A5
:105150001B9008461B99FFF7B9F91A90E3E0072066
:10516000FFF7DAFAADF870029D98D0F858E081792F
:105170001EF8011005F0E0FA9D994FF0000E19900D
:105180000846714605F0D8FA9D999DF871E218908D
:105190000846714605F0D0FA9D999DF870E2179087
:1051A0000846714605F0C8FA1690BCE09D98816DDE
:1051B000C079095C07201590FFF7F0FA8DF87302AB
:1051C0009D98816D90F806E011F80E1005F0B4FA84
:1051D0009D999DF873E214900846714605F0ACFA6B
:1051E000159913900846FFF797FA2C21129008465C
:1051F0001299FFF76BF9119095E00820FFF78CFAF0
:10520000ADF870029D98D0F858E081791EF8011031
:1052100005F092FA9D994FF0000E109008467146E5
:1052200005F08AFA9D999DF871E20F900846714643
:1052300005F082FA9D999DF870E20E90084671463D
:1052400005F07AFA0D906EE09D98816DC079095C49
:1052500008200C90FFF7A2FA8DF873029D98816DDB
:1052600090F806E011F80E1005F066FA9D999DF889
:1052700073E20B900846714605F05EFA0C990A90AD
:105280000846FFF749FA2E21099008460999FFF7C9
:105290001DF9089047E09D98816DC0790A18085C57
:1052A0005178FFF745FAADF870029D98816D8279CB
:1052B000895C05F041FA9D99002207900846114645
:1052C00005F03AFA9D999DF871220690084611461C
:1052D00005F032FA9D999DF8702205900846114616
:1052E00005F02AFA04901EE09D98816DC079095C52
:1052F0002220FFF753FA8DF873029D98816D90F884
:1053000006E011F80E1005F017FA9D999DF873E26A
:1053100003900846714605F00FFA029003E0022060
:105320008DF87302FFE79DF87302002806D1FFE7AE
:105330009D98012105F01AFA0190FFE705E09D987C
:10534000FCF760FF8DF87302FFE79DF873020DF51F
:105350001E7D80BD80B584B00146039000208DF88D
:105360000B000398002801912ED0FFE7039805F069
:105370000DFA012822D1FFE7039805F0C9F90028AA
:105380000CD1FFE7039805F0CDF9002806D1FFE71F
:105390000398FFF715FA8DF80B0009E003980178E0
:1053A0004A1E4DF24771C0F6000106F005FAFFE70C
:1053B000039805F069FA8DF80B000AE0039805F0F0
:1053C0006DFA8DF80B0003E002208DF80B00FFE76B
:1053D000FFE79DF80B0004B080BD000080B582B0EF
:1053E00001468DF807009DF80700C00700280091CE
:1053F0000DD0FFE741F20000C4F201001021C0F21D
:10540000104102F0EDF80520FCF792FD0CE041F2AE
:105410000000C4F201001021C0F2104102F09AF81D
:105420000520FCF785FDFFE79DF8070080070028B1
:105430000DD5FFE741F20000C4F201000821C0F2DF
:10544000084102F0CDF80520FCF772FD0CE041F2B6
:105450000000C4F201000821C0F2084102F07AF80D
:105460000520FCF765FDFFE79DF8070040070028D1
:105470000DD5FFE741F20000C4F201000421C0F2A3
:10548000044102F0ADF80520FCF752FD0CE041F2BA
:105490000000C4F201000421C0F2044102F05AF8F5
:1054A0000520FCF745FDFFE79DF8070000070028F1
:1054B0000DD5FFE741F20000C4F201000221C0F265
:1054C000024102F08DF80520FCF732FD0CE041F2BC
:1054D0000000C4F201000221C0F2024102F03AF8D9
:1054E0000520FCF725FDFFE79DF80700C006002812
:1054F0000DD5FFE741F20000C4F201000121C0F226
:10550000014102F06DF80520FCF712FD0CE041F2BC
:105510000000C4F201000121C0F2014102F01AF8BA
:105520000520FCF705FDFFE79DF807008006002831
:105530000CD5FFE741F20000C4F2010048F28001FF
:1055400002F04EF80520FCF7F3FC0BE041F20000FE
:10555000C4F2010048F2800101F0FCFF0520FCF7D5
:10556000E7FCFFE702B080BD80B5AAB041F20000C1
:10557000C4F20100012124902391FDF7D1FE24986B
:105580002399FDF7CDFE24982399FDF7C9FE2498B1
:105590002399FDF7C5FE24982399FDF7C1FE2498B1
:1055A0002399FDF7BDFE40F60040C4F201002290B1
:1055B0002399FDF7B5FE22982399FDF7B1FE2498B3
:1055C0002399FDF7ADFE40F60000C4F201002190E2
:1055D0002399FDF7A5FE22982399FDF7A1FE2298B5
:1055E0002399FDF79DFE21982399FDF799FE2198B7
:1055F0002399FDF795FE21982399FDF791FE2198B7
:105600002399FDF78DFE21982399FDF789FE2198B6
:105610002399FDF785FE0020299028902790269059
:105620002590239926914FF0030ECDF89CE04FF082
:10563000040ECDF8A0E0299148F2800ECDF894E058
:1056400025AA249B2090184611461F92CDF878E099
:1056500001F0DAFE24991D9008461E9901F0C0FF62
:105660000120C0F20140259024991C9008461F9902
:1056700001F0CAFE24991B9008461C9901F0B0FF66
:105680000220C0F20240259024991A9008461F99E2
:1056900001F0BAFE2499199008461A9901F0A0FF6A
:1056A0000420C0F2044025902499189008461F99C0
:1056B00001F0AAFE249917900846189901F090FF6E
:1056C0000820C0F2084025902499169008461F999A
:1056D00001F09AFE249915900846169901F080FF72
:1056E0001020C0F2104025902499149008461F996C
:1056F00001F08AFE249913900846149901F070FF76
:1057000020982890299040F60801259122981F9A08
:105710001291114601F078FE2299119008461299D3
:1057200001F05EFF41F2100025902299109008468A
:105730001F9901F069FE22990F900846109901F017
:105740004FFF1098259024981F9901F05DFE249931
:105750000E900846109901F043FF1098259021986B
:105760001F9901F051FE21990D900846109901F002
:1057700037FF1C98259022981F9901F045FE229929
:105780000C9008461C9901F02BFF1A98259022983E
:105790001F9901F039FE22990B9008461A9901F0E1
:1057A0001FFF8020C0F28040259021990A90084672
:1057B0001F9901F029FE2199099008460A9901F0E4
:1057C0000FFF1498259021981F9901F01DFE219933
:1057D00008900846149901F003FF16982590219827
:1057E0001F9901F011FE219907900846169901F0C2
:1057F000F7FE1E98259021981F9901F005FE21992A
:10580000069008461E9901F0EBFE44F240002590F8
:105810002199059008461F9901F0F6FD2199049001
:105820000846059901F0DCFE42F2200025902199FE
:10583000039008461F9901F0E7FD21990290084660
:10584000039901F0CDFE0A20FCF786FB22981299FD
:1058500001F080FE05200190FCF76AFB2298109968
:1058600001F078FE0198FCF763FB2498109901F091
:1058700071FE0198FCF75CFB2198109901F06AFE1B
:105880000198FCF755FB22981C9901F063FE0198E2
:10589000FCF74EFB22981A9901F05CFE0198FCF788
:1058A00047FB21980A9901F055FE0198FCF740FB4F
:1058B0002198149901F04EFE0198FCF739FB2198CC
:1058C000169901F047FE0198FCF732FB21981E99CA
:1058D00001F040FE0198FCF72BFB2198059901F09F
:1058E00039FE0198FCF724FB2198039901F032FE60
:1058F0000198FCF71DFB2AB080BD000080B586B082
:105900000A46034605908DF8131000208DF812000A
:105910009DF813000528039202930CD3FFE7059826
:105920004DF24171C0F6000107F036F805218DF8FF
:1059300012100190FFE79DF8120006B080BD000034
:1059400080B5FFF711FE80BD83B001468DF80B00D6
:105950000020ADF808009DF80B00024604280191D4
:10596000009229D80099DFE801F003070F171F0004
:105970000020ADF8080023E040F20A00C2F2000067
:105980000088ADF808001BE040F20C00C2F20000F5
:105990000088ADF8080013E040F20E00C2F20000EB
:1059A0000088ADF808000BE040F21000C2F20000E1
:1059B0000088ADF8080003E00020ADF80800FFE71C
:1059C000BDF8080003B0704783B001468DF80B00A6
:1059D0000020ADF808009DF80B0002460428019154
:1059E000009229D80099DFE801F003070F171F0084
:1059F0000020ADF8080023E040F65440C2F2000059
:105A00000088ADF808001BE040F65840C2F20000E4
:105A10000088ADF8080013E040F65C40C2F20000D8
:105A20000088ADF808000BE040F66040C2F20000CC
:105A30000088ADF8080003E00020ADF80800FFE79B
:105A4000BDF8080003B0704783B001468DF80B0025
:105A50000020ADF808009DF80B00024608280191CF
:105A600000924BD80099DFE801F0050911192129AE
:105A7000313941000020ADF8080043E040F66440B1
:105A8000C2F200000088ADF808003BE040F6684034
:105A9000C2F200000088ADF8080033E040F66C4028
:105AA000C2F200000088ADF808002BE040F670401C
:105AB000C2F200000088ADF8080023E040F6744010
:105AC000C2F200000088ADF808001BE040F6784004
:105AD000C2F200000088ADF8080013E040F67C40F8
