:020000040800F2
:100000006025002045010008513D0008311F00080F
:100010008D3C0008C10A00084D6200080000000085
:100020000000000000000000000000002D44000857
:100030000D0C000800000000C5420008054900083A
:10004000896D0008A54200085F0100085F010008F3
:100050005F010008A14300085F0100085F0100087C
:100060005F0100085F0100085F010008910B0008B4
:100070005F0100085F0100085F0100085F010008E0
:100080005F0100085F0100085F0100085F010008D0
:100090005F0100085F0100085F0100085F010008C0
:1000A0005F0100085F0100085F0100085F010008B0
:1000B0001D4D00085F0100085F0100085F01000896
:1000C0005F0100085F0100085F0100085F01000890
:1000D0005F010008595200085F0100085F01000835
:1000E0005F0100085F0100085F0100085F01000870
:1000F0005F0100085F0100085F0100085F01000860
:100100005F0100085F0100085F0100085F0100084F
:100110005F0100085F0100085F0100085F0100083F
:100120005F0100085F0100085F010008CD0B0008B7
:10013000DFF80CD000F0F6FB00480047B16D000876
:10014000602500200648804706480047FEE7FEE796
:10015000FEE7FEE7FEE7FEE7FEE7FEE7FEE7FEE777
:10016000BD4C000831010008F0B480EA0102D40F50
:100170004200B2EB410F02D20246084611464A0045
:1001800042D0C30DDDB2C1F3C752AD1A202D35DA0E
:10019000C1F3160141F4000204B15242C5F1200638
:1001A00002FA06F12A411044B3EBD05F23D0C4B168
:1001B000012DA0EBC35009DCF0BC4FF0004202EA75
:1001C000C352DBB200F5000000F07EBA400000F13F
:1001D000807000EBC350A0F1807040EAD1704900FC
:1001E00009E0490841EAC071A0EBC35000F50000E6
:1001F000400800EBC350F0BC00F05DBA6142012240
:1002000002EB4101001BF6E7F0BC704781F00041B2
:10021000AAE780F00040A7E780EA010210B502F0EB
:100220000043400022D04A001FD0010E01EB1261B2
:10023000C0F35600C2F3560240F4000042F400023C
:10024000A0FB022000047F39140400D0401C50EAB7
:10025000124001D44000491EC2B20C0604EBD0107B
:10026000401C4008802A02D003E0002010BD20F08E
:100270000100002900DA0020184310BD30B480EAE4
:10028000010202F0004530F0004221F0004013D09E
:1002900090B1C30DD40DC2F31601C0F31600E41AD9
:1002A00041F4000140F400027D34914201D3641C0A
:1002B00000E04900002C02DA30BC002070474FF407
:1002C00000000023914201D3891A034340084FEAFA
:1002D0004101F7D151B1914202D14FF0004105E007
:1002E00002D24FF0010101E06FF0010103EBC450B5
:1002F000284430BC00F0DFB92DE9FE4F804681EA8A
:100300000300C00F0C46009021F0004123F000458F
:10031000B8EB0200A94105D24046214690461C4652
:100320000B46024623F00040104347D0270DC7F389
:100330000A00C3F30A510290401A019040286BDA78
:10034000C3F3130040F4801B0098924620B10023B1
:10035000D2EB030A63EB0B0B01985946C0F1400244
:10036000504600F077F906460D4650465946019A28
:1003700000F08FF910EB08006141002487EA115268
:1003800084EAE7731A4340D0009A62B3019A012AC3
:100390004FEA075215DC001B61EB02014FF00042EF
:1003A00002EA0752CDE90042001C41F580113246B5
:1003B0002B4600F0C6F903B0BDE8F08F4046214659
:1003C000F9E7001B61EB0201001C41F580130018E6
:1003D0005B412018A2F5001747EB030140EAD570F6
:1003E000B6196D4111E06D084FEA360645EAC07551
:1003F0004FEA0752001B61EB0201001C41F580111E
:1004000049084FEA30000019514132462B4603B0EB
:10041000BDE8F04F00F086B90098012240000023AB
:10042000D0EB020263EBE073009821464FEAE074E0
:10043000B8EB000061EB0401E9E783F000435BE700
:1004400081F0004158E72DE9F04D81EA030404F002
:10045000004B21F0004514464FF0000A23F0004104
:1004600050EA050220D054EA01021DD0C5F30A5714
:100470000246C5F31303C1F31300C1F30A5640F457
:10048000801543F48013A7EB0608101BD64608F22C
:10049000FD3873EB050002D308F1010801E0921862
:1004A0005B41B8F1000F03DA00200146BDE8F08D92
:1004B00000204FF48011064684460EE0171B73EBB4
:1004C000050705D3121B63EB050306434CEA010C39
:1004D00049084FEA300092185B4150EA0107EDD11C
:1004E00052EA030012D082EA040083EA05010843BD
:1004F00005D0101BAB4106D20122002306E00022EA
:100500004FF0004302E06FF0010253101AEB0600B7
:100510004CEB085110EB0A0041EB0B01BDE8F04D2C
:1005200000F000B9C10F80EAE0700844CA079623C2
:10053000002100F0C9B896230022114600F0C4B88B
:1005400020F00040C10DC0F3160040F400007F29E8
:1005500001DA00207047962903DCC1F19601C840FA
:10056000704796398840704700F0004230F00040F4
:100570000AD0C10D01F56071C0F3160042EA0151C5
:10058000C20840071143704700200146704701F040
:10059000004330B421F0004150EA010206D00A0DB8
:1005A000A2F56072C1F31301002A02DC30BC002006
:1005B0007047440F44EAC104C100E01830BC00EBAE
:1005C000C25000F078B830B50B460146002020221A
:1005D000012409E021FA02F59D4205D303FA02F550
:1005E000491B04FA02F52844151EA2F10102F1DCB0
:1005F00030BD2DE9F05F0546002092469B468846B7
:100600000646814640241BE028464146474622468E
:1006100000F02FF853465A46C01A914110D31146A4
:100620001846224600F016F82D1A67EB01084F46CF
:1006300022460120002100F00DF817EB00094E4181
:10064000201EA4F10104DFDC484631462A46434619
:10065000BDE8F09F202A04DB203A00FA02F10020D6
:1006600070479140C2F1200320FA03F319439040F0
:100670007047202A04DB203A21FA02F0002170475B
:1006800021FA02F3D040C2F12002914008431946FA
:100690007047202A06DBCB17203A41FA02F043EAE2
:1006A000E07306E041FA02F3D040C2F1200291402B
:1006B0000843194670470029A8BF7047401C4900ED
:1006C00008BF20F00100704710B4B0FA80FC00FAB7
:1006D0000CF050EA010404BF10BC704749B1CCF1E2
:1006E000200421FA04F411FA0CF118BF012121436E
:1006F0000843A3EB0C01CB1D4FEA00614FEA102029
:1007000042BF002010BC704700EBC35010440029CA
:10071000A4BF10BC7047401C490008BF20F0010076
:1007200010BC704710B5141E73F1000408DA401CA9
:1007300041F1000192185B411A4301D120F0010000
:1007400010BD2DE9F04D92469B4611B1B1FA81F2F0
:1007500002E0B0FA80F220329046FFF77BFF0446B9
:100760000F4640EA0A0041EA0B0153465A46084345
:1007700013D0114653EA010019D0C8F14002504687
:10078000FFF777FF05460E46504659464246FFF7AB
:1007900061FF084305D0012004E020463946BDE84A
:1007A000F08D0020054346EAE0762C4337430A9853
:1007B0006305E40AA0EB08000022FD0A44EA47545E
:1007C0000A3002D500200146E9E701051019694108
:1007D000DDE9084500196941BDE8F04DA2E72DE9C2
:1007E000FE4F81EA030404F0004421F0004100942C
:1007F0004FF0000B23F0004350EA01045ED052EAB0
:1008000003045BD0C3F30A54C1F30A552C44A4F289
:10081000F3340194A0FB0254C1F3130141F480119D
:10082000C3F3130343F4801301FB024400FB034EA4
:10083000840A970A44EA815447EA8357A4FB07686D
:1008400002958D0A05FB07854FEA932C04FB0C5497
:100850002705029D4FEA065847EA1637B5EB08050B
:100860006EEB070C870E920E47EA811742EA83125D
:10087000A7FB0201B6EB0B0164EB00042B0D43EA6E
:100880000C335E1844EB1C50DA465146E7FB02017C
:10089000C5F313044FEA0B3343EA14534FEA04320F
:1008A000019C43EA0603A4F10C040294009CCDE9E8
:1008B00000B4FFF746FF03B0BDE8F08F002001460B
:1008C000F9E7C1F30A52C1F3130140F2FF3341F4D7
:1008D00080119A4202DA00200146704740F2334309
:1008E0009A42A2F2334202DC5242FFF7C2BEFFF745
:1008F000B1BE000030B5041E71F1000404DB4FF0FE
:100900000044404264EB0101141E73F1000405DB56
:100910001C464FF00043524263EB0403994208BF68
:10092000904230BD064C074D06E0E06840F0010300
:1009300094E8070098471034AC42F6D3FFF7FCFB6D
:10094000D0770008F077000870B58C1810F8015BBC
:1009500015F0070301D110F8013B2A1106D110F858
:10096000012B03E010F8016B01F8016B5B1EF9D15C
:100970002B0705D40023521E0DD401F8013BFAE7E2
:1009800010F8013BCB1A921C03E013F8015B01F84D
:10099000015B521EF9D5A142D8D3002070BD0000E2
:1009A00080B582B0014601900198009100F044F8B2
:1009B00002B080BD80B582B00146019001980091DF
:1009C000FFF7EEFF02B080BD80B582B00020C4F218
:1009D00002000121019001F02FFF019801F0F0FECB
:1009E000019801F001FF019801F012FF42F200406E
:1009F000C4F2010001F062FD002002B080BD0000E1
:100A000080B582B040F20040C4F20200052101909E
:100A100001F012FF019801F0DDFE019801F0EEFEF9
:100A2000019801F0FFFE43F60040C4F2010001F01E
:100A300045FD002002B080BD80B584B00146029023
:100A4000029842F20042C4F20102904201910DD19B
:100A5000FFE740F22410C2F2000000680178013183
:100A60000170FFF7B1FF8DF80F0024E0029842F605
:100A70000001C4F20101884204D1FFE700208DF893
:100A80000F0018E0029843F60041C4F201018842C9
:100A90000DD1FFE740F22810C2F200000068017893
:100AA00001310170FFF7ACFF8DF80F0003E000206B
:100AB0008DF80F00FFE79DF80F0004B080BD000027
:100AC000FFE7FEE780B500F01FF880BD80B500F0BD
:100AD00021F880BD80B5FFF7F5FF80BD80B5FFF739
:100AE000F5FF80BD80B582B043F20000C4F2020081
:100AF00001F030FE40F2040EC2F2000E01218EF829
:100B00000010019002B080BD40F20400C2F200006B
:100B10000078704780B5FFF7E5FF402001F0DAFC70
:100B200040F20400C2F200004FF0000E80F800E036
:100B300080BD000080B500F00DF880BD80B500F0EC
:100B400017F880BD80B5FFF7F5FF80BD80B5FFF7D2
:100B5000F5FF80BD80B502F0C9F9002807D0FFE796
:100B600002F0B2F902F056F902F036F9FFE780BD63
:100B700080B502F0C3F9002809D0FFE702F040F980
:100B800002F034F906F012F903F070FBFFE780BDC4
:100B900080B582B00020C4F2020001F065FE00289A
:100BA00011D0FFE70020C4F20200012101F070FE25
:100BB000002808D0FFE742F20040C4F20100FFF72E
:100BC000F9FE0190FFE702B080BD000080B582B061
:100BD00040F20040C4F2020001F050FE002812D0A2
:100BE000FFE740F20040C4F20200052101F050FE90
:100BF000002808D0FFE743F60040C4F20100FFF7E9
:100C0000D9FE0190FFE702B080BD000070470000F0
:100C100080B582B0014601900198009100F030F853
:100C200002B080BD80B582B001460190019800916C
:100C300000F002F802B080BD80B584B00146039098
:100C400003980028029105D0FFE7039803F034FED3
:100C50000190FFE704B080BD80B582B001460190ED
:100C600001980091FFF7D4FF02B080BD80B582B03B
:100C70000146019001980091FFF7D4FF02B080BDBA
:100C800082B0014601900091FFE70198411E019159
:100C9000002801D0FFE7F8E702B0704780B500F008
:100CA00005F880BD80B5FFF7F9FF80BD80B540F243
:100CB0008421C2F200014FF60000C0F607004FF495
:100CC000806200F0A7FD80BD80B500F03FFA80BDD6
:100CD00080B5FFF7F9FF80BDB0B588B09C46964659
:100CE0000C460546079006918DF817208DF81630B2
:100CF00007989DF81710405C01460328CDF810C0F6
:100D0000CDF80CE002940195009100F25B8100990E
:100D1000DFE811F004005B00AE0003019DF816004F
:100D200006999DF8172011F83230184301F8320067
:100D30009DF8160006999DF8172001EBC2014A782C
:100D400022EA000048709DF8160006999DF81720C9
:100D500001EBC2018A7822EA000088709DF8160033
:100D600006999DF8172001EBC201CA7822EA00001B
:100D7000C8709DF8160006999DF8172001EBC20176
:100D80000A79104308719DF8160006999DF81720FE
:100D900001EBC2014A7922EA000048719DF8160071
:100DA00006999DF8172001EBC2018A7922EA00001A
:100DB00088719DF8160006999DF8172001EBC20175
:100DC000CA7922EA0000C871FDE09DF81600069974
:100DD0009DF8172011F83230184301F832009DF8C1
:100DE000160006999DF8172001EBC2014A781043BE
:100DF00048709DF8160006999DF8172001EBC20176
:100E00008A78104388709DF8160006999DF817207F
:100E100001EBC201CA7822EA0000C8709DF81600F2
:100E200006999DF8172001EBC2010A791043087159
:100E30009DF8160006999DF8172001EBC2014A792A
:100E4000104348719DF8160006999DF8172001EB94
:100E5000C2018A79104388719DF8160006999DF8A1
:100E6000172001EBC201CA7922EA0000C871AAE08A
:100E70009DF8160006999DF8172011F83230184396
:100E800001F832009DF8160006999DF8172001EB35
:100E9000C2014A7822EA000048709DF816000699BF
:100EA0009DF8172001EBC2018A7822EA00008870C1
:100EB0009DF8160006999DF8172001EBC201CA782B
:100EC00022EA0000C8709DF8160006999DF81720C8
:100ED00001EBC2010A79104308719DF816000699CA
:100EE0009DF8172001EBC2014A79104348719DF823
:100EF000160006999DF8172001EBC2018A7910436C
:100F000088719DF8160006999DF8172001EBC20123
:100F1000CA7922EA0000C87155E09DF816000699CA
:100F20009DF8172011F83230184301F832009DF86F
:100F3000160006999DF8172001EBC2014A7810436C
:100F400048709DF8160006999DF8172001EBC20124
:100F50008A78104388709DF8160006999DF817202E
:100F600001EBC201CA7822EA0000C8709DF81600A1
:100F700006999DF8172001EBC2010A791043087108
:100F80009DF8160006999DF8172001EBC2014A79D9
:100F900022EA000048719DF8160006999DF8172076
:100FA00001EBC2018A7922EA000088719DF81600DF
:100FB00006999DF8172001EBC201CA7922EA0000C8
:100FC000C87100E0FFE708B0B0BD0000B0B588B060
:100FD0009C4696460C460546079006918DF81720CC
:100FE0008DF8163000208DF81500CDF810C0CDF822
:100FF0000CE002940195FFE79DF815009DF817108D
:1010000088420FDAFFE7079806999DF815209DF8AA
:101010001630FFF761FEFFE79DF8150001308DF8EF
:101020001500E9E79DF8160006999DF8172011F8BC
:101030003230184301F832009DF81700C0008DF8D7
:101040001500FFE79DF815007F2814DCFFE79DF8E9
:10105000160006999DF8172001EBC2019DF8152096
:101060008B5C23EA00008854FFE79DF815000130EF
:101070008DF81500E6E708B0B0BD000080B590B06F
:1010800040F60000C4F2010001210A90099100F02D
:1010900019FC0A98099900F015FC0A98099900F0C2
:1010A00011FC0A98099900F00DFC00200F900E9099
:1010B0000D900C900B9009990C914FF0020ECDF809
:1010C00034E00E900F9040F201100B900DF12C0EB9
:1010D0000A9A089010467146CDF81CE001F05CFCBD
:1010E0000A9906900846089901F0CEFC40F20220C9
:1010F0000B900A9905900846079901F04DFC0A9952
:1011000004900846059901F0BFFC40F204400B90A2
:101110000A9903900846079901F03EFC0A9902904B
:101120000846039901F0B0FC40F608000B900A99BC
:1011300001900846079901F02FFC0A990090084693
:10114000019901F0A1FC10B080BD000080B54FF006
:10115000804002F0C1FA002807D0FFE700F030F924
:101160004FF0804001F0ACFFFFE780BD10B585B0C7
:1011700013468C46864604908DF80F108DF80E208D
:101180009DF80E0004999DF80F2011F8324024EAD2
:10119000000001F832009DF80E0004999DF80F2020
:1011A00001EBC2014A78104348709DF80E00049983
:1011B0009DF80F2001EBC2018A7822EA00008870B6
:1011C0009DF80E0004999DF80F2001EBC201CA782A
:1011D0001043C8709DF80E0004999DF80F2001EB94
:1011E000C2010A7922EA000008719DF80E000499F4
:1011F0009DF80F2001EBC2014A79104348719DF818
:101200000E0004999DF80F2001EBC2018A7922EAB1
:10121000000088719DF80E0004999DF80F2001EBE5
:10122000C201CA791043C8710293CDF804C0CDF849
:1012300000E005B010BD000010B585B013468C4627
:10124000864604908DF80F108DF80E209DF80E0044
:1012500004999DF80F2011F8324024EA000001F8AB
:1012600032009DF80E0004999DF80F2001EBC20199
:101270004A7822EA000048709DF80E0004999DF813
:101280000F2001EBC2018A78104388709DF80E0090
:1012900004999DF80F2001EBC201CA781043C87071
:1012A0009DF80E0004999DF80F2001EBC2010A7908
:1012B00022EA000008719DF80E0004999DF80F20A5
:1012C00001EBC2014A7922EA000048719DF80E0044
:1012D00004999DF80F2001EBC2018A7910438871AF
:1012E0009DF80E0004999DF80F2001EBC201CA7908
:1012F0001043C8710293CDF804C0CDF800E005B0EA
:1013000010BD0000B0B588B09C4696460C46054618
:101310008DF81F0006918DF817208DF816300020EB
:101320008DF815008DF81500CDF810C0CDF80CE043
:1013300002940195FFE79DF815009DF8171088426B
:101340001CDAFFE79DF81F00012808D1FFE7069887
:101350009DF815109DF81620FFF708FF07E0069886
:101360009DF815109DF81620FFF766FFFFE7FFE7D1
:101370009DF8150001308DF81500DCE79DF8170089
:10138000C0008DF81500FFE79DF815007F2814DCDC
:10139000FFE79DF8160006999DF8172001EBC201A2
:1013A0009DF815208B5C23EA00008854FFE79DF828
:1013B000150001308DF81500E6E708B0B0BD00005B
:1013C00040F60C00C4F2010001684FF6F0721140C3
:1013D00040F60442C2F20002138803F1010CA2F8A5
:1013E00000C040F6842CC2F2000C1CF8033003F05D
:1013F0000F03194401601088B0F5C07F07DBFFE7D9
:1014000040F60440C2F2000000210180FFE770476F
:1014100080B58CB04FF080400121069003F0A2FC13
:1014200000200B900A90099008900790069905906B
:10143000084601F059FE40F2F311099140F2000113
:10144000C2F2000109684DF6836EC4F21B3EA1FB97
:101450000E1E4FF0FF3202EB9E42ADF81C20059AA3
:101460000A9208928DF82C200DF11C0E069B049018
:1014700018460391714602F085F8069902900846D5
:1014800001F0C8FE0698059902F046F906980599FC
:1014900002F09CF9069801F0EDFE02F091FD05992D
:1014A000059A02F0C5FC1C2101900846019A0091A2
:1014B000114602F029FE009802F04EFC069801F059
:1014C00015FF069801F0FAFE0CB080BD80B500F063
:1014D00005F880BD80B5FFF7F9FF80BD80B58AB003
:1014E00000208DF827000890FFF7C8FDFFF790FF58
:1014F00041F24410C2F2000040F6842EC2F2000E07
:10150000C0F800E008988DF82700FFE79DF8270055
:1015100002284ADCFFE79DF8270040F20501C2F2ED
:101520000001162200FB02104078002814D1FFE7CA
:101530009DF8270040F20501C2F20001162200FBCF
:10154000021041F24411C2F20001096810F8022BA6
:101550000123FFF73BFD1AE09DF8270040F205014B
:10156000C2F20001162200FB021350435A7841F2E6
:101570004413C2F200031B68085C01210790104667
:1015800006911946079A069BFFF7BCFEFFE741F25A
:101590004410C2F20000016880310160FFE79DF84D
:1015A000270001308DF82700B0E741F24410C2F265
:1015B000000040F68421C2F20001016000208DF895
:1015C0002700FFE79DF8270002284ADCFFE79DF887
:1015D000270040F24701C2F20001162200FB021070
:1015E0004078002814D1FFE79DF8270040F247011A
:1015F000C2F20001162200FB021041F24411C2F2B5
:101600000001096810F8022B0223FFF7DFFC1AE043
:101610009DF8270040F24701C2F20001162200FBAC
:10162000021350435A7841F24413C2F200031B687C
:10163000085C02210590104604911946059A049B06
:10164000FFF760FEFFE741F24410C2F200000168BC
:1016500080310160FFE79DF8270001308DF82700F9
:10166000B0E741F24410C2F2000040F68421C2F219
:101670000001016000208DF82700FFE79DF827009A
:1016800002284ADCFFE79DF8270040F28901C2F2F8
:101690000001162200FB02104078002814D1FFE759
:1016A0009DF8270040F28901C2F20001162200FBDA
:1016B000021041F24411C2F20001096810F8022B35
:1016C0000423FFF783FC1AE09DF8270040F289010C
:1016D000C2F20001162200FB021350435A7841F275
:1016E0004413C2F200031B68085C042103901046F7
:1016F00002911946039A029BFFF704FEFFE741F2AD
:101700004410C2F20000016880310160FFE79DF8DB
:10171000270001308DF82700B0E741F24410C2F2F3
:10172000000040F68421C2F20001016000208DF823
:101730002700FFE79DF8270002284ADCFFE79DF815
:10174000270040F2CB01C2F20001162200FB02107A
:101750004078002814D1FFE79DF8270040F2CB0124
:10176000C2F20001162200FB021041F24411C2F243
:101770000001096810F8022B0823FFF727FC1AE084
:101780009DF8270040F2CB01C2F20001162200FBB7
:10179000021350435A7841F24413C2F200031B680B
:1017A000085C08210190104600911946019A009B9F
:1017B000FFF7A8FDFFE741F24410C2F20000016804
:1017C00080310160FFE79DF8270001308DF8270088
:1017D000B0E741F24410C2F2000040F68421C2F2A8
:1017E000000101600AB080BD80B586B013468C460A
:1017F000864605900491ADF80E2005980499BDF831
:101800000E200293CDF804C0CDF800E000F018F8E7
:1018100006B080BD80B586B013468C4686460590DE
:101820000491ADF80E2005980499BDF80E2002939E
:10183000CDF804C0CDF800E0FFF7D6FF06B080BDBC
:1018400080B586B013468C46864605900491ADF867
:101850000E200020ADF80C000293CDF804C0CDF8A6
:1018600000E0FFE7BDF80C00BDF80E10884213DA67
:10187000FFE7059801F054F8DDF810E0BDF80C1012
:101880002EF81100059802300590FFE7BDF80C0016
:101890000130ADF80C00E5E706B080BD80B584B03E
:1018A0000A46034603908DF80B1003989DF80B1021
:1018B0000192009300F01AF804B080BD80B500F0EA
:1018C000BDF880BD80B584B00A46034603908DF80C
:1018D0000B1003989DF80B1001920093FFF7DEFFA9
:1018E00004B080BD80B5FFF7E9FF80BD80B584B04E
:1018F0000A46034603908DF80B10039840F600014A
:10190000C4F201018842019200930ED1FFE79DF8D5
:101910000B00002804D0FFE7042000F0A3FE03E042
:10192000042000F06FFEFFE785E0039840F60041D9
:10193000C4F2010188420ED1FFE79DF80B00002898
:1019400004D0FFE7082000F08DFE03E0082000F03F
:1019500059FEFFE76FE0039841F20001C4F2010174
:1019600088420ED1FFE79DF80B00002804D0FFE766
:10197000102000F077FE03E0102000F043FEFFE7A8
:1019800059E0039841F20041C4F2010188420ED1AE
:10199000FFE79DF80B00002804D0FFE7202000F0AF
:1019A00061FE03E0202000F02DFEFFE743E00398F6
:1019B00041F60001C4F2010188420ED1FFE79DF813
:1019C0000B00002804D0FFE7402000F04BFE03E0AE
:1019D000402000F017FEFFE72DE0039841F600419C
:1019E000C4F2010188420ED1FFE79DF80B000028E8
:1019F00004D0FFE7802000F035FE03E0802000F0F7
:101A000001FEFFE717E0039842F20001C4F2010172
:101A1000884210D1FFE79DF80B00002805D0FFE7B2
:101A20004FF4807000F01EFE04E04FF4807000F070
:101A3000E9FDFFE7FFE704B080BD000080B582B09C
:101A400040F60000C4F2010001210191FFF74EFFB2
:101A500040F60040C4F201000199FFF747FF41F250
:101A60000000C4F201000199FFF740FF41F200407D
:101A7000C4F201000199FFF739FF41F60000C4F2FA
:101A800001000199FFF732FF41F60040C4F2010066
:101A90000199FFF72BFF42F20000C4F20100019907
:101AA000FFF724FF019800F0DDFD00F05DFF00F07E
:101AB00067FF02B080BD000040F24010C2F200009B
:101AC000007841F25851C2F200010A6810440860DF
:101AD0007047000080B584B00A46034603908DF835
:101AE0000B1003989DF80B100192009300F0C4F9BD
:101AF00004B080BD80B500F0E1F980BD80B584B050
:101B00000A46034603908DF80B1003989DF80B10BE
:101B100001920093FFF7DEFF04B080BD80B5FFF7B0
:101B2000E9FF80BD82B001460190009102B070478C
:101B300080B5A8B041F20000C4F20100012122905A
:101B40002191FFF7BFFE22982199FFF7BBFE229853
:101B50002199FFF7B7FE22982199FFF7B3FE22984B
:101B60002199FFF7AFFE22982199FFF7ABFE40F6CF
:101B70000040C4F2010020902199FFF7A3FE2098B5
:101B80002199FFF79FFE22982199FFF79BFE40F6CF
:101B90000000C4F201001F902199FFF793FE2098E6
:101BA0002199FFF78FFE20982199FFF78BFE1F9850
:101BB0002199FFF787FE1F982199FFF783FE1F9851
:101BC0002199FFF77FFE1F982199FFF77BFE1F9851
:101BD0002199FFF777FE1F982199FFF773FE0020E8
:101BE00027902690259024902390219924914FF0BE
:101BF000030ECDF894E04FF0040ECDF898E0279155
:101C000048F2800ECDF88CE023AA229B1E90184645
:101C100011461D92CDF870E000F0BEFE22991B9097
:101C200008461C9900F076FF0120C0F20140239085
:101C300022991A9008461D9900F0AEFE229919903B
:101C400008461A9900F066FF0220C0F20240239075
:101C50002299189008461D9900F09EFE229917902F
:101C60000846189900F056FF0420C0F20440239063
:101C70002299169008461D9900F08EFE2299159023
:101C80000846169900F046FF0820C0F2084023904D
:101C90002299149008461D9900F07EFE2299139017
:101CA0000846149900F036FF1020C0F2104023902F
:101CB0002299129008461D9900F06EFE229911900B
:101CC0000846129900F026FF1E982690279040F6AD
:101CD0000801239120981D9A1091114600F05CFE96
:101CE00020990F900846109900F014FF41F210005F
:101CF000239020990E9008461D9900F04DFE2099E2
:101D00000D9008460E9900F005FF0E98239022983A
:101D10001D9900F041FE22990C9008460E9900F0A2
:101D2000F9FE0E9823901F981D9900F035FE1F991B
:101D30000B9008460E9900F0EDFE1A98239020981B
:101D40001D9900F029FE20990A9008461A9900F082
:101D5000E1FE1898239020981D9900F01DFE20990F
:101D600009900846189900F0D5FE8020C0F2804006
:101D700023901F99089008461D9900F00DFE1F99A9
:101D800007900846089900F0C5FE129823901F9806
:101D90001D9900F001FE1F9906900846129900F067
:101DA000B9FE149823901F981D9900F0F5FD1F9916
:101DB00005900846149900F0ADFE1C9823901F98DA
:101DC0001D9900F0E9FD1F99049008461C9900F048
:101DD000A1FE44F2400023901F99039008461D99EC
:101DE00000F0DAFD1F9902900846039900F092FE78
:101DF00042F2200023901F99019008461D9900F09F
:101E0000CBFD1F9900900846019900F083FE0A203F
:101E1000FEF72CFF2098109900F044FE20980E99B0
:101E200000F040FE22980E9900F03CFE1F980E999B
:101E300000F038FE20981A9900F034FE2098189986
:101E400000F030FE1F98089900F02CFE1F981299A0
:101E500000F028FE1F98149900F024FE1F981C998A
:101E600000F020FE1F98039900F01CFE1F980199B6
:101E700000F018FE28B080BD80B586B00A46034643
:101E800005908DF8131000208DF812009DF81300B6
:101E90000528039202930CD3FFE7059847F29C7143
:101EA000C0F6000104F0A6FF05218DF81210019084
:101EB000FFE79DF8120006B080BD000080B5FFF777
:101EC00037FE80BD1EF0040F0CBFEFF30880EFF368
:101ED000098000F001B8704782B00146019040F6D9
:101EE0000840C2F200000022C261826142610261C8
:101EF000C260826042600260019A12680260019AC8
:101F000052684260019A92688260019AD268C26007
:101F1000019A12690261019A52694261019A9269B9
:101F20008261019AD269C26101BE009102B070471C
:101F300080B5FFF7C7FFFFE7FEE7000080B584B07C
:101F40000A46034603900291039802990192009376
:101F500000F092F804B080BD80B582B001460190D7
:101F60000198009100F0DEF802B080BD80B586B027
:101F70000A46034605908DF81310059803920293C4
:101F800000F00EF99DF813100029019006D0FFE72C
:101F90000598C18A01F0FE01C18205E00598C18A59
:101FA00041F00101C182FFE70598817D00F0E2F96F
:101FB00005990090084600F0B5F806B080BD000015
:101FC00080B582B0014601900198009100F03AF985
:101FD00002B080BD80B584B00A46034603908DF8F8
:101FE0000B1003989DF80B100192009300F0C2F9BA
:101FF00004B080BD80B584B00A46034603900291C8
:102000000398029901920093FFF798FF04B080BDF6
:1020100080B582B00146019001980091FFF79CFFC6
:1020200002B080BD80B584B00A46034603908DF8A7
:102030000B1003989DF80B1001920093FFF796FF89
:1020400004B080BD80B582B0014601900198009136
:10205000FFF7B6FF02B080BD80B584B00A460346E4
:1020600003908DF80B1003989DF80B1001920093CC
:10207000FFF7B0FF04B080BD80B590B00A460346BC
:102080000F900E910F9840680121089107920693D6
:10209000FFF718FC0F98C0680899FFF713FC0F981A
:1020A0004168806805900846059900F041FD0F9849
:1020B000C168006904900846049900F039FD0020C9
:1020C0000D900C900B900A9009900F9880680990E1
:1020D00008980A9003210B9104210C910D900F99FF
:1020E000486809A9039100F057FC0F990969099103
:1020F0000F99C96802900846039900F04DFC0E99AB
:102100000029019004D0FFE70E980F99C86106E0FE
:102110000F9840F66D41C0F60001C161FFE7002055
:1021200010B080BD80B588B00146079000208DF8C2
:102130001B000798C268006905901046059A049133
:10214000114600F0F5FC0798416880680390084646
:10215000039900F0EDFC0798407D012805DBFFE7BF
:102160000798C169407D8847FFE70798C168006903
:1021700002900846029900F075FC002804D0FFE7A1
:1021800001208DF81B00FFE70798416880680190E7
:102190000846019900F094FC9DF81B0008B080BD32
:1021A00080B588B0014606900698C268006905901F
:1021B0001046059A0491114600F0BAFC0698416851
:1021C000806803900846039900F0B2FC0698407DB1
:1021D000012805DBFFE70698C169407D8847FFE7D6
:1021E0000698C168006902900846029900F068FCF0
:1021F0000698407D012805DBFFE70698C169407D10
:102200008847FFE706984168806801900846019971
:1022100000F056FC0698C1680069009008460099D5
:1022200000F020FC002804D0FFE701208DF81F00FB
:1022300003E000208DF81F00FFE79DF81F0008B0A5
:1022400080BD000080B588B0014606900698C2683F
:10225000006905901046059A0491114600F030FC83
:1022600006984168806803900846039900F060FC76
:102270000698407D012805DBFFE70698C169407D8F
:102280008847FFE70698C1680069029008460299EE
:1022900000F04EFC0698407D012805DBFFE706981C
:1022A000C169407D8847FFE70698C16800690190D1
:1022B0000846019900F0D6FB002804D1FFE7012071
:1022C0008DF81F0003E000208DF81F00FFE79DF848
:1022D0001F0008B080BD000080B588B00A460346E4
:1022E00007908DF81B109DF81B0000060028059232
:1022F000049309D5FFE70798C16800690390084671
:10230000039900F015FC08E00798C1680069029085
:102310000846029900F0D4FBFFE7079841688068FF
:1023200001900846019900F003FC0798407D0128C0
:1023300005DBFFE70798C169407D884703E001207E
:10234000FEF78AFCFFE7079841688068009008461E
:10235000009900F0B5FB0798407D012806DBFFE7F8
:102360000798C169407D01388847FFE7002008B021
:1023700080BD000080B586B00A46034605908DF802
:10238000131000208DF812000599D1F804C0896857
:10239000039060460292019300F092FB03988DF83F
:1023A0001200FFE79DF81200072812DCFFE70598EE
:1023B0009DF81310FFF790FF9DF8131049008DF85A
:1023C00013100090FFE79DF8120001308DF8120005
:1023D000E8E7002006B080BD80B500F005F880BDBC
:1023E00080B5FFF7F9FF80BD80B543F20000C4F26D
:1023F000000000F0BBFC002080BD000080B500F0B4
:1024000059F880BD80B5FFF7F9FF80BD80B58CB06D
:1024100040F60000C4F20100012106900591FFF78B
:1024200051FA00200B900A90099008900790012122
:10243000C0F201410791DDF814E0CDF820E002225E
:1024400009920A900B9007A8069A04901046049BE4
:102450000391194600F0A0FA0699029008460399E4
:1024600000F03CFB42F27940C0F6000002F00EFAA8
:1024700001900CB080BD000080B540F24810C2F25F
:1024800000000168013101600068B0F5FA7F10D9E1
:10249000FFE740F24810C2F200000021016040F660
:1024A0000000C4F201000121C0F2014100F04EFC25
:1024B000FFE780BD80B5FFF7A9FF80BD82B0014670
:1024C00001900198826822F001028260009102B0BE
:1024D0007047000084B001460390039841F2140253
:1024E000C4F202021368184310601068039A104087
:1024F000029002980191009004B0704782B00146AA
:102500000190019841F21C02C4F20202136823EA0E
:1025100000001060009102B07047000082B00146D8
:102520000190019841F21C02C4F20202136823EAEE
:1025300000001060009102B07047000084B00146B6
:102540000390039841F21C02C4F20202136818437C
:1025500010601068039A1040029002980191009058
:1025600004B0704784B001460390039841F21C0206
:10257000C4F202021368184310601068039A1040F6
:10258000029002980191009004B0704782B0014619
:102590000190019841F21002C4F20202136818433C
:1025A0001060009102B0704782B00146019001981E
:1025B00041F21002C4F20202136818431060009145
:1025C00002B0704782B001460190019841F21002BA
:1025D000C4F20202136823EA00001060009102B006
:1025E0007047000082B001460190019841F210024C
:1025F000C4F20202136823EA00001060009102B0E6
:102600007047000082B001460190019841F2180223
:10261000C4F20202136823EA00001060009102B0C5
:102620007047000082B001460190019841F2180203
:10263000C4F20202136823EA00001060009102B0A5
:102640007047000082B001460190019841F21802E3
:10265000C4F20202136823EA00001060009102B085
:102660007047000084B001460390039841F21802BD
:10267000C4F202021368184310601068039A1040F5
:10268000029002980191009004B0704784B0014616
:102690000390039841F21802C4F20202136818432F
:1026A00010601068039A1040029002980191009007
:1026B00004B0704784B001460390039841F21802B9
:1026C000C4F202021368184310601068039A1040A5
:1026D000029002980191009004B0704782B00146C8
:1026E0000190019841F20C02C4F2020213681843EF
:1026F0001060009102B0704782B0014601900198CD
:1027000041F20C02C4F202021368184310600091F7
:1027100002B0704782B001460190019841F20C026C
:10272000C4F20202136823EA00001060009102B0B4
:102730007047000082B001460190019841F20C02FE
:10274000C4F20202136823EA00001060009102B094
:102750007047000080B584B00146039001208DF8D9
:102760000B00039843F20002C4F20202904201916E
:1027700008D1FFE7039800F00DF80398002100F05E
:1027800013F803E000208DF80B00FFE79DF80B0025
:1027900004B080BD82B001460190019801228260A0
:1027A000009102B07047000084B00A4603460390CF
:1027B00002910298039908710192009304B0704746
:1027C00082B001460190019801224260009102B05E
:1027D0007047000082B00146019001984FF48032AA
:1027E0004260009102B0704782B0014601900198AA
:1027F00004224260009102B07047000082B001469E
:10280000019001984FF480224260009102B070471D
:1028100082B001460190019802224260009102B00C
:102820007047000082B00146019001984FF40032D9
:102830004260009102B0704784B00A46034603909C
:1028400002910398029947F2597CC0F6000C61444A
:1028500011F8011C50F801C02CF0010C40F801C027
:102860000192009304B0704782B001460190019834
:102870000068C0F34000009102B0704782B001468A
:10288000019001980068C0F34040009102B0704789
:1028900084B00A460346039002910398029947F2D6
:1028A000527CC0F6000C614411F8011C4058C0F382
:1028B00040000192009304B07047000082B00146CE
:1028C0000190019840F21442C4F20102106000919C
:1028D00002B0704742F20000C4F20200016841F405
:1028E000806101607047000042F20000C4F2020003
:1028F000016841F4007101607047000042F200007D
:10290000C4F20200016841F010010160704700004C
:1029100042F20000C4F20200006800F007007047B5
:1029200082B00146019001980088009102B0704782
:1029300082B00146019042F20000C4F20200026837
:1029400022F00702019B1A430260009102B0704717
:102950000420C4F20100016821F4406101600168B3
:1029600041F40061016070470420C4F20100016875
:1029700021F0E0610160016841F000710160704781
:102980000420C4F20100016821F0E06101600168E7
:1029900041F080710160704780B58AB00A460346F5
:1029A0000790069106980068C0F30F2005900598DF
:1029B0000990099890FAA0F008900898B0FA80F071
:1029C000049002920193FFE705980499C8400028FB
:1029D00045D0FFE705980499012202FA01F1084267
:1029E00039D0FFE70498072807D8FFE7049840F29A
:1029F000011101FA00F0039009E0049808384FF043
:102A0000011101FA00F040F080600390FFE70798A1
:102A10000399069A526800F0A7F807980399069A56
:102A2000126900F03DF906984068012805D0FFE7DB
:102A30000698406809280DD1FFE707980399069A80
:102A4000926800F04FF907980399069AD26800F04F
:102A5000F3F8FFE7FFE7049801300490B4E70120A2
:102A60000AB080BD84B00A460346039002910398E1
:102A70008068BDF809100840401AB0FA80F040099B
:102A80000192009304B0704784B00A460346039055
:102A90000291BDF80900039948610192009304B0C6
:102AA0007047000084B00A46034603900291BDF8C7
:102AB0000900039948610192009304B07047000037
:102AC00084B00A46034603900291BDF809000399B9
:102AD00048610192009304B07047000084B00A4638
:102AE000034603900291BDF80900039948610192E1
:102AF000009304B07047000084B00A460346039078
:102B00000291BDF80900039948610192009304B055
:102B10007047000084B00A46034603900291BDF856
:102B20000900039908610192009304B07047000006
:102B300084B00A46034603900291BDF80900039948
:102B400008610192009304B07047000084B00A4607
:102B5000034603900291BDF80900039908610192B0
:102B6000009304B07047000080B58BB013468C46CC
:102B7000864606900591049206989DF81710084421
:102B800003900398006805990891089991FAA1F1BA
:102B900007910799B1FA81F189000F2202FA01F138
:102BA00088430499059A0A920A9A92FAA2F2099223
:102BB000099AB2FA82F292009140084303990860A0
:102BC0000293CDF804C0CDF800E00BB080BD00004A
:102BD00080B58BB013468C468646069005910492CC
:102BE00006989DF81710084403900398006805990B
:102BF0000891089991FAA1F107910799B1FA81F129
:102C000089000F2202FA01F188430499059A0A9279
:102C10000A9A92FAA2F20992099AB2FA82F2920000
:102C200091400843039908600293CDF804C0CDF8A1
:102C300000E00BB080BD000080B58BB013468C4621
:102C4000864606900591049206989DF81710084450
:102C500003900398006805990891089991FAA1F1E9
:102C600007910799B1FA81F18900042202FA01F172
:102C700088430499059A0A920A9A92FAA2F2099252
:102C8000099AB2FA82F292009140084303990860CF
:102C90000293CDF804C0CDF800E00BB080BD000079
:102CA00080B588B013468C46864605900491039201
:102CB0000598C06804990A0A20EA1120039907922E
:102CC000079A92FAA2F20692069AB2FA82F291401A
:102CD00008430599C8600293CDF804C0CDF800E020
:102CE00008B080BD80B58BB013468C4686460690F2
:102CF0000591049206989DF81710084403900398D4
:102D0000006805990891089991FAA1F1079107992E
:102D1000B1FA81F18900032202FA01F18843049992
:102D2000059A0A920A9A92FAA2F20992099AB2FABA
:102D300082F2920091400843039908600293CDF813
:102D400004C0CDF800E00BB080BD000084B00A469E
:102D50000346039002910398C068BDF809104840EB
:102D60000399C8600192009304B0704782B0014695
:102D7000019043F20000C4F200004AF6AA22026069
:102D8000009102B07047000084B00A4603460390E9
:102D9000029103980299B0FBF1F001384EF2140150
:102DA000CEF2000108604EF21800CEF200000021C1
:102DB00001604EF21000CEF2000005210160019288
:102DC000009304B07047000047F20400C4F2000012
:102DD0000068C0F38000704741F20800C4F20200AE
:102DE000016841F4000101607047000041F20800F1
:102DF000C4F20200016841F4002101607047000044
:102E000041F20800C4F20200016821F4006101608F
:102E10007047000041F20800C4F20200016841F46A
:102E2000006101607047000041F20400C4F202003A
:102E3000006800F0F000704741F20400C4F20200A4
:102E4000006800F4E060704741F20400C4F2020040
:102E5000006800F46050704741F20400C4F20200C0
:102E6000006800F00C00704741F20400C4F2020058
:102E7000006800F00C00704780B582B001460190F8
:102E8000009101F05FFA019908600198006801F073
:102E90001BFA019948600198406801F02BFA0199EA
:102EA00088600198406801F039FA0199C86002B061
:102EB00080BD000041F20000C4F20200016841F44C
:102EC000803101607047000041F20000C4F202004E
:102ED000016841F4803101607047000041F2000058
:102EE000C4F202000068C0F34040704741F208009D
:102EF000C4F202000068C0B2C009704741F2080085
:102F0000C4F202000068C0F3C000704741F2240020
:102F1000C4F20200016841F0010101607047000045
:102F200041F22400C4F202000068C0F34000704780
:102F300080B584B00A4603460390029141F2040032
:102F4000C4F20200016821F47C11DDF80CC00CF41D
:102F5000403CDDF808E04CEA0E0C41EA0C0101604F
:102F60000192009304B080BD41F20000C4F202005F
:102F7000016841F0807101607047000041F2040077
:102F8000C4F20200006800F48030704741F204008F
:102F9000C4F20200006800F47010704741F20400AF
:102FA000C4F202000068C0F34040704741F20000E4
:102FB000C4F202000068C0F34060704782B001466E
:102FC000019041F20400C4F20200026822F0F00213
:102FD000019B1A430260009102B0704782B0014623
:102FE000019041F20400C4F20200026822F4E0629F
:102FF000019B1A430260009102B0704782B0014603
:10300000019041F20400C4F20200026822F460520E
:10301000019B1A430260009102B0704782B00146E2
:10302000019041F20400C4F20200026822F003029F
:10303000019B1A430260009102B0704782B00146C2
:10304000019001980428009109D1FFE74EF2100089
:10305000CEF20000016841F00401016008E04EF288
:103060001000CEF20000016821F004010160FFE7CA
:1030700002B0704782B001460190019840F2000210
:10308000C2F200021060009102B0704784B00A469C
:1030900003460390029102980399D1F820C02CEACC
:1030A000000008620192009304B0704782B00146AC
:1030B000019001986FF040020261009102B07047E8
:1030C00082B00146019001986FF001020261009107
:1030D00002B0704782B00146019001986FF0010282
:1030E0000261009102B0704780B58CB001460B9030
:1030F00001208DF82B000B98B0F1804F099108D179
:10310000FFE701200890FFF74FFA0898FFF76AFAE7
:103110007CE00B9842F60041C4F20101884209D1DB
:10312000FFE74FF400600790FFF7E6FA0798FFF714
:1031300001FB6AE00B9840F20041C4F200018842B2
:1031400008D1FFE702200690FFF72EFA0698FFF756
:1031500049FA59E00B9840F60001C4F20001884298
:1031600008D1FFE704200590FFF71EFA0598FFF746
:1031700039FA48E00B9840F60041C4F20001884259
:1031800008D1FFE708200490FFF70EFA0498FFF734
:1031900029FA37E00B9841F20001C4F2000188429D
:1031A00008D1FFE710200390FFF7FEF90398FFF71F
:1031B00019FA26E00B9841F20041C4F2000188425E
:1031C00008D1FFE720200290FFF7EEF90298FFF701
:1031D00009FA15E00B9843F20041C4F2010188425C
:1031E00009D1FFE74FF400500190FFF785FA0198ED
:1031F000FFF7A0FA03E000208DF82B00FFE7FFE7C0
:10320000FFE7FFE7FFE7FFE7FFE7FFE79DF82B009A
:103210000CB080BD82B0014601900198026822F096
:1032200080020260009102B07047000082B0014647
:1032300001900198026822F001020260009102B040
:103240007047000082B0014601900198C26822F4E4
:103250008042C260009102B07047000082B0014617
:1032600001900198C26822F04002C260009102B051
:103270007047000082B0014601900198826822F0F8
:1032800080028260009102B07047000082B0014667
:1032900001900198826822F080028260009102B061
:1032A0007047000082B0014601900198026842F028
:1032B00080020260009102B07047000082B00146B7
:1032C00001900198026842F001020260009102B090
:1032D0007047000082B0014601900198026842F0F8
:1032E00001020260009102B07047000082B0014606
:1032F00001900198C26842F00102C260009102B0E0
:103300007047000082B0014601900198426942F086
:1033100001024261009102B07047000082B0014694
:1033200001900198406A009102B0704780B58DB05D
:1033300013468C4686460C900B910A920B980128F6
:103340000793CDF818C0CDF814E003D1FFE70020B3
:10335000049030E00B98042803D1FFE7012003908C
:1033600026E00B98102803D1FFE7022002901CE012
:103370000B98402803D1FFE70320019012E00B983F
:10338000B0F5807F03D1FFE70420009007E00B98A1
:103390000621B0F5806F08BF05210091FFE7009876
:1033A0000190FFE701980290FFE702980390FFE782
:1033B00003980490FFE704988DF827000C989DF877
:1033C000271047F26072C0F60002515C08441830C2
:1033D0000890089801689DF8272047F26E73C0F6A0
:1033E00000039A5C032393409943BDF82A3003FA03
:1033F00002F2114301600DB080BD000080B58DB0B8
:1034000013468C4686460C900B910A920B98012825
:103410000793CDF818C0CDF814E003D1FFE70020E2
:10342000049030E00B98042803D1FFE701200390BB
:1034300026E00B98102803D1FFE7022002901CE041
:103440000B98402803D1FFE70320019012E00B986E
:10345000B0F5807F03D1FFE70420009007E00B98D0
:103460000621B0F5806F08BF05210091FFE70098A5
:103470000190FFE701980290FFE702980390FFE7B1
:1034800003980490FFE704988DF827000C989DF8A6
:10349000271047F26072C0F60002515C08441830F1
:1034A0000890089801689DF8272047F26E73C0F6CF
:1034B00000039A5CF02393409943BDF82A3003FA45
:1034C00002F2114301600DB080BD000080B58CB0E8
:1034D00013468C4686460B900A9109920A98012859
:1034E0000793CDF818C0CDF814E003D1FFE7002012
:1034F000049030E00A98042803D1FFE701200390EC
:1035000026E00A98102803D1FFE7022002901CE071
:103510000A98402803D1FFE70320019012E00A989F
:10352000B0F5807F03D1FFE70420009007E00A9800
:103530000621B0F5806F08BF05210091FFE70098D4
:103540000190FFE701980290FFE702980390FFE7E0
:1035500003980490FFE704988DF823000B98006A05
:103560009DF8231047F26772C0F60002515C0A22F0
:103570008A409043099A02FA01F108430B990862C4
:103580000CB080BD80B586B00A4603460590049114
:1035900000200390059800680390059842F60041CA
:1035A000C4F2010188420292019325D0FFE70598F9
:1035B00043F20041C4F2010188421DD0FFE70598A3
:1035C000B0F1804F18D0FFE7059840F20041C4F2F7
:1035D0000001884210D0FFE7059840F60001C4F2D0
:1035E0000001884208D0FFE7059840F60041C4F288
:1035F0000001884208D1FFE7039820F07000049989
:10360000496808430390FFE7059842F60041C4F279
:103610000101884225D0FFE7059843F20041C4F23A
:10362000010188421DD0FFE70598B0F1804F18D006
:10363000FFE7059840F20041C4F20001884210D033
:10364000FFE7059840F60001C4F20001884208D067
:10365000FFE7059840F60041C4F20001884208D116
:10366000FFE7039820F440700499C9680843039069
:10367000FFE703980599086005980499896800F0A8
:103680003FF805980499098800F076F8059842F605
:103690000041C4F20101884208D0FFE7059843F2D7
:1036A0000041C4F20101884206D1FFE70598049960
:1036B000097C00F06DF8FFE70598FFF723FE012075
:1036C00006B080BD82B00146019001980069C0F348
:1036D0008010009102B0704782B0014601900198BD
:1036E000006900F00100009102B0704782B001460D
:1036F00001900198006900F00100009102B070474C
:1037000084B00A4603460390029102980399C86266
:103710000192009304B0704784B00A4603460390B8
:1037200002910398806844F2070188430299084394
:10373000039988600192009304B0704784B00A46F0
:103740000346039002910398806844F2070188437E
:1037500002990843039988600192009304B070476E
:1037600084B00A4603460390029102980399486286
:103770000192009304B0704784B00A460346039058
:1037800002910298039988620192009304B07047F5
:1037900084B00A4603460390029102980399086395
:1037A0000192009304B0704784B00A460346039028
:1037B00002910398806820F07000029908430399F1
:1037C00088600192009304B07047000084B00A46FC
:1037D0000346039002910398406820F0700002991C
:1037E0000843039948600192009304B070470000B9
:1037F00084B00A460346039002910398406820F083
:10380000700002990843039948600192009304B044
:103810007047000082B00146019001986FF02002CD
:103820000260009102B0704782B001460190019899
:103830006FF040020260009102B0704782B0014612
:10384000019001986FF040020260009102B0704751
:1038500082B0014601900198026922F4904202610F
:103860000198426922F02A024261009102B0704739
:1038700080B588B00146079001208DF81B0007989D
:1038800043F60002C4F201029042059109D1FFE71C
:103890004FF480400490FEF721FF0498FEF73AFFB2
:1038A0004BE0079844F20041C4F20001884209D17C
:1038B000FFE74FF400300390FEF768FE0398FEF731
:1038C00081FE39E0079844F60001C4F20001884205
:1038D00009D1FFE74FF480200290FEF757FE0298CF
:1038E000FEF770FE27E0079844F60041C4F200019D
:1038F000884209D1FFE74FF400200190FEF746FE11
:103900000198FEF75FFE15E0079845F20001C4F24A
:103910000001884209D1FFE74FF480100090FEF7C4
:1039200035FE0098FEF74EFE03E000208DF81B00E8
:10393000FFE7FFE7FFE7FFE7FFE79DF81B0008B0A1
:1039400080BD000082B0014601900198C26822F05B
:103950004002C260009102B07047000082B0014690
:1039600001900198C26822F08002C260009102B00A
:103970007047000082B0014601900198C26842F48D
:103980000052C260009102B07047000082B0014650
:1039900001900198C26842F02002C260009102B01A
:1039A0007047000082B0014601900198C26842F061
:1039B0004002C260009102B07047000080B58AB03A
:1039C0000A4603460990089100208DF81F000690D2
:1039D00009980192009300F0A5F800286BD1FFE749
:1039E0000998C06841F20C61884308994A68CB681D
:1039F00009691A43114308430999C860099808994D
:103A0000896800F019F909980899496900F002F9E4
:103A100002A8FFF731FA099843F60001C4F2010148
:103A2000884203D1FFE70598069030E0099844F2F8
:103A30000041C4F20001884203D1FFE704980690D8
:103A400024E0099844F60001C4F20001884203D141
:103A5000FFE70498069018E0099844F60041C4F284
:103A60000001884203D1FFE7049806900CE0099812
:103A700045F20001C4F20001884203D1FFE7049837
:103A8000069000E0FFE7FFE7FFE7FFE7FFE70698A4
:103A900000280FD0FFE70898006800280AD0FFE749
:103AA00001208DF81F0009980699089A126800F005
:103AB0007FF8FFE7FFE79DF81F000AB080BD000018
:103AC00082B00146019001980068C0F34010009157
:103AD00002B0704782B00146019001980068C0F3BF
:103AE0008010009102B0704782B0014601900198A9
:103AF0000068C0F38010009102B0704782B00146A8
:103B0000019001980068C0B2C009009102B07047EE
:103B100082B00146019001980068C0B2C0090091CE
:103B200002B0704782B0014601900198C068C0F3AE
:103B30004030009102B0704782B001460190019878
:103B4000C068C0F34010009102B0704782B00146D7
:103B500001900198C068C0F38010009102B07047D6
:103B600082B0014601900198C068C0F380100091B6
:103B700002B0704782B0014601900198C068C0B29F
:103B8000C009009102B0704782B0014601900198CF
:103B9000C068C0B2C009009102B0704782B001464F
:103BA000019001984068C0B2009102B070470000D7
:103BB000B0B588B013468C468646079006910592AC
:103BC00006981921484305998900B0FBF1F048F2A5
:103BD0001F51C5F2EB11A0FB01246409642504FB0D
:103BE0001500322505EB0010A0FB0101F02505EAC8
:103BF000511505EB0414C1F34311214489B2079C0C
:103C0000A1600493CDF80CC0CDF808E001900092BB
:103C100008B0B0BD84B00A460346039002910398F1
:103C2000406920F440700299084303994861019269
:103C3000009304B07047000084B00A460346039026
:103C400002910398006920F44050029908430399B7
:103C500008610192009304B07047000084B00A46E6
:103C6000034603908DF80B109DF80B0003994860F4
:103C70000192009304B0704782B001460190019810
:103C80006FF001028260009102B07047FFE7FEE72B
:103C900080B582B040F21010C2F20000C16800226C
:103CA000402301900846114600921A4600F00CF895
:103CB000019880684FF48062009900F005F80120B7
:103CC0000199087402B080BD80B587B013468C4658
:103CD000864606908DF8171004920698039002937A
:103CE000CDF804C0CDF800E0FFE70498411E049130
:103CF000002807D0FFE79DF8170003994A1C03929C
:103D00000870F2E707B080BD82B0002001900090FB
:103D1000FFE700981F2814D8FFE740F21010C2F206
:103D20000000C068009930F81100002804D0FFE7B7
:103D3000019801300190FFE7FFE700980130009003
:103D4000E7E7019864214843C0F3471002B0704789
:103D500080B5FCF7F7FE80BD82B001468DF8070004
:103D60009DF9070000F01F02012303FA02F2400947
:103D70004EF20013CEF2000343F82020009102B06F
:103D80007047000082B001468DF807009DF90700DA
:103D900000F01F02012303FA02F240094EF2001361
:103DA000CEF2000343F82020009102B070470000DB
:103DB00080B58BB013468C4686460A9009910892CE
:103DC0000A9800F0070007900798C0F1070005283F
:103DD0000493CDF80CC0CDF808E003D3FFE704202E
:103DE000019004E00798C0F107000190FFE70198F7
:103DF000069007980430062803D8FFE700200090BB
:103E000003E0079803380090FFE7009805900998B1
:103E10000699012202FA01F101390840059988400A
:103E2000089B02FA01F10139194008430BB080BD2B
:103E300080B58BB013468C4686460A90099108924D
:103E40000A9800F0070007900798C0F107000528BE
:103E50000493CDF80CC0CDF808E003D3FFE70420AD
:103E6000019004E00798C0F107000190FFE7019876
:103E7000069007980430062803D8FFE7002000903A
:103E800003E0079803380090FFE700980590099831
:103E90000699012202FA01F101390840059988408A
:103EA000089B02FA01F10139194008430BB080BDAB
:103EB00080B58BB013468C4686460A9009910892CD
:103EC0000A9800F0070007900798C0F1070005283E
:103ED0000493CDF80CC0CDF808E003D3FFE704202D
:103EE000019004E00798C0F107000190FFE70198F6
:103EF000069007980430062803D8FFE700200090BA
:103F000003E0079803380090FFE7009805900998B0
:103F10000699012202FA01F1013908400599884009
:103F2000089B02FA01F10139194008430BB080BD2A
:103F300080B58BB013468C4686460A90099108924C
:103F40000A9800F0070007900798C0F107000528BD
:103F50000493CDF80CC0CDF808E003D3FFE70420AC
:103F6000019004E00798C0F107000190FFE7019875
:103F7000069007980430062803D8FFE70020009039
:103F800003E0079803380090FFE700980590099830
:103F90000699012202FA01F1013908400599884089
:103FA000089B02FA01F10139194008430BB080BDAA
:103FB0004EF60C50CEF200000068C0F302207047AD
:103FC0004EF60C50CEF200000068C0F3022070479D
:103FD0004EF60C50CEF200000068C0F3022070478D
:103FE0004EF60C50CEF200000068C0F3022070477D
:103FF00080B588B0032000F0F9F8FFF7D9FF4FF043
:10400000000E71467246CDF81CE0FFF7D1FE6FF04E
:104010000C0106900846069900F050F8FFF7C8FF1B
:104020000799079AFFF7C4FE6FF00B010590084649
:10403000059900F043F8FFF7BBFF0799079AFFF7D0
:10404000B7FE6FF00A0104900846049900F036F8B4
:10405000FFF7AEFF0799079AFFF7AAFE6FF0090175
:1040600003900846039900F029F8FFF7A1FF07998C
:10407000079AFFF79DFE6FF004010290084602992F
:1040800000F01CF8FFF794FF0799079AFFF790FEDE
:104090006FF0030101900846019900F00FF8FFF757
:1040A00087FF0799079AFFF783FE6FF001010090E1
:1040B0000846009900F002F808B080BD84B00A46B6
:1040C00003468DF80F0002919DF90F00B0F1FF3FFC
:1040D000019200930CDCFFE7029800019DF80F109D
:1040E00001F00F014EF61452CEF20002885409E09E
:1040F000029800019DF90F104EF20042CEF200022C
:104100008854FFE704B0704784B00A4603468DF830
:104110000F0002919DF90F00B0F1FF3F0192009353
:104120000CDCFFE7029800019DF80F1001F00F0171
:104130004EF61452CEF20002885409E002980001B3
:104140009DF90F104EF20042CEF200028854FFE7B4
:1041500004B0704784B00A4603468DF80F00029100
:104160009DF90F00B0F1FF3F019200930CDCFFE7D7
:10417000029800019DF80F1001F00F014EF6145245
:10418000CEF20002885409E0029800019DF90F1058
:104190004EF20042CEF200028854FFE704B07047AE
:1041A00084B00A4603468DF80F0002919DF90F0076
:1041B000B0F1FF3F019200930CDCFFE70298000191
:1041C0009DF80F1001F00F014EF61452CEF20002CE
:1041D000885409E0029800019DF90F104EF2004248
:1041E000CEF200028854FFE704B0704784B0014665
:1041F0000390039800F0070001904EF60C50CEF2A9
:10420000000002680292029A4FF6FF031A400292DF
:10421000029A019B42EA03220023C0F2FA531A4396
:104220000292029A0260009104B0704784B0014685
:104230000390039800F0070001904EF60C50CEF268
:10424000000002680292029A4FF6FF031A4002929F
:10425000029A019B42EA03220023C0F2FA531A4356
:104260000292029A0260009104B07047BFF34F8F30
:104270004EF60C50CEF20000016801F4E061042219
:10428000C0F2FA5211430160BFF34F8FFFE700BF46
:10429000FDE7000080B500F013F880BD80B5FFF7A2
:1042A000F9FF80BD80B54FF48030FEF707FBFEF7C5
:1042B0008BFD002803D0FFE7FFF7F0FFFFE780BD8D
:1042C000704700007047000080B584B0014603903D
:1042D000039802910190FEF7A7FDC0B2000947F2D2
:1042E0003A71C0F60001085C019921FA00F004B0AF
:1042F00080BD000080B584B0014603900398029110
:104300000190FEF799FD000A47F24A71C0F60001DC
:10431000085C019921FA00F004B080BD80B584B03A
:1043200001460390039802910190FEF78DFDC00AAB
:1043300047F24A71C0F60001085C019921FA00F0C9
:1043400004B080BD80B582B000200190FEF784FDEE
:1043500086460028CDF800E008D0FFE70098042842
:104360000AD0FFE7009808280CD00FE041F20020A7
:10437000C0F27A0001900FE041F20020C0F27A0012
:10438000019009E000F010F8019005E041F20020F2
:10439000C0F27A000190FFE7019802B080BD0000F2
:1043A00080B5FCF7D3FB80BD80B584B000200390BE
:1043B0000290FEF7E3FD029002980028019005D0DC
:1043C000FFE70198B0F5803F06D010E040F60010FE
:1043D000C0F23D00039010E0FEF7E0FD013041F235
:1043E000002EC0F27A0EBEFBF0F0039005E040F61E
:1043F0000010C0F23D000390FFE703980090FEF725
:10440000C5FD4FF0020E0EEB9040DDF800E00EFB14
:1044100000F004B080BD000080B500F005F880BD5C
:1044200080B5FFF7F9FF80BD7047000070470000BE
:1044300080B584B00A46034603900291039802991E
:104440000192009300F0B8F804B080BD80B582B04E
:10445000014601900198009100F0A2F902B080BDE0
:1044600080B584B00A4603460390029103980299EE
:1044700001920093FFF7DCFF04B080BD80B582B0ED
:104480000146019001980091FFF7E0FF02B080BD66
:1044900080B58BB001460A900A98407909900A9835
:1044A000C0790138089008980A9A9279642300FB31
:1044B000032008900A98C07807904FF0FF300690CC
:1044C00000208DF8170009980128049104D0FFE717
:1044D0000998022807D1FFE709980C30099008983D
:1044E00001380890FFE70798099900EB410001EBBC
:1044F0004101033146F26762C6F2666281FB021235
:10450000531003EBD2721044089A1044D31702EBF5
:10451000937300EBA300013048F21F53C5F2EB1375
:1045200082FB03234FEA631C0CEBD37CA0EB0C0053
:104530004FEAE31C0CEBD373184442F29343C9F2E5
:10454000492380FB033C84444FEAAC0E0EEBDC7C39
:10455000CCEBCC0CA0EB0C0006900698062803913F
:1045600002920193009022D80099DFE801F004083C
:104570000C1014181C0007208DF8170018E00120FB
:104580008DF8170014E002208DF8170010E00320CA
:104590008DF817000CE004208DF8170008E00520C6
:1045A0008DF8170004E006208DF8170000E0FFE703
:1045B0009DF817000BB080BD89B00A4603460890ED
:1045C00007910020069007980899C96888420492CC
:1045D000039307D2FFE70898C068C04307990844CF
:1045E000069005E007980899C968401A0690FFE709
:1045F0000898C0790138059005980899897964224E
:1046000000FB021005900698B0F57A7FC0F0C680D6
:10461000FFE707980899C860089801780131017090
:10462000089800783D28C0F2B880FFE708984178E4
:1046300001314170089800210170089840783D28A8
:10464000C0F2AA80FFE7089881780131817008984C
:1046500000214170089880781928C0F29C80FFE7FB
:104660000898C1780131C170089801790131017150
:1046700008980079082804DBFFE7089801210171F8
:10468000FFE708980021817008984079022853D1EB
:10469000FFE7059848F21F51C5F2EB1180FB0112AC
:1046A000531103EBD272642302FB13000028029122
:1046B0000CD0FFE70598C11700EB917121F00301C1
:1046C000401A01210028019114D0FFE7059848F213
:1046D0001F51C5F2EB1180FB0112D31103EBD27213
:1046E0004FF4C87302FB1300B0FA80F04009009148
:1046F0000190FFE70198C00700280ED0FFE7089857
:10470000C0781E2808DBFFE708980021C1700898D0
:10471000417901314171FFE70DE00898C0781D280B
:1047200008DBFFE708980021C17008984179013142
:104730004171FFE7FFE72DE00898C178407947F223
:104740007572C0F60002105C814222DDFFE7089816
:104750000021C17008984179013141710898407970
:104760000D2815DBFFE70898012141710898817930
:104770000131817108988079652808DBFFE7089886
:10478000C1790131C171089800218171FFE7FFE70C
:10479000FFE7FFE7FFE7FFE7FFE7FFE709B0704745
:1047A00080B582B00146019001980322427147F220
:1047B000AB70C0F60000427A837A02EB820203EB10
:1047C0004202A2F50472019B9A710279437902EBCD
:1047D000820203EB4202A2F50472019BDA70C279F5
:1047E000007A02EB820200EB4200A0F20F20019A55
:1047F000D07101980091FFF74BFE0199087147F2C3
:10480000A270C0F600000178427801EB810102EB52
:104810004101A1F50471019A9170C178027901EB0F
:10482000810102EB4101A1F50471019A5170817976
:10483000C07901EB810100EB4100A0F50470019902
:10484000087001980121017202B080BD80B582B06C
:10485000014601900198009100F038F802B080BD47
:1048600080B500F047F880BD80B500F053F880BDFA
:1048700080B500F09DF880BD80B582B00146019002
:104880000198009100F0FEF802B080BD80B582B0C2
:104890000146019001980091FFF7D8FF02B080BD5A
:1048A00080B5FFF7DDFF80BD80B5FFF7DDFF80BD80
:1048B00080B5FFF7DDFF80BD80B582B00146019075
:1048C00001980091FFF7D8FF02B080BD82B0014689
:1048D000019001980028009108D0FFE7019840F26C
:1048E0003411C2F2000109680861FFE7002002B03C
:1048F0007047000040F23410C2F200000068006807
:104900007047000080B582B0FFF7CEFF019002B083
:1049100080BD000080B540F23410C2F20000016892
:104920000A6801320A6000680068002809D1FFE7C0
:1049300040F23410C2F200000068816801318160E9
:10494000FFE740F23410C2F200000068006900285E
:1049500008D0FFE740F23410C2F20000006800699E
:104960008047FFE740F23410C2F200000068C068E0
:10497000002808D0FFE740F23410C2F200000068BF
:10498000C0688047FFE740F23410C2F200000068C0
:104990004068002809D0FFE740F23410C2F200005E
:1049A0000068416801394160FFE7002080BD0000D8
:1049B00080B586B040F23410C2F200000168059064
:1049C000084600F043F8049000F052F840F200016D
:1049D000C2F2000109684FF47A7E039008467146DE
:1049E000FEF7D2F90320FFF721FCFFF7F1FA0F21C0
:1049F0004FF0000E7246CDF808E0FFF759FA4FF07D
:104A0000FF31019008460199FFF7A4FB00F014F86C
:104A100040F24011C2F2000101220A7005990A68B1
:104A200041F6B92EC0F6000EC2F80CE0029A0090D2
:104A3000104606B080BD00004EF21000CEF200001D
:104A4000016841F0020101600020704782B0014618
:104A500001900198002202600198426001988260F2
:104A60000198C260019802611046009102B070473F
:104A70004EF21000CEF20000016821F00201016048
:104A80000020704788B001460790079840F2000266
:104A9000C2F2000212684DF68363C4F21B33A2FB1C
:104AA00003239B0C584306904EF21800CEF20000F0
:104AB000006805900020049003904EF21400CEF29E
:104AC00000000068029001910092FFE74EF218008A
:104AD000CEF20000006804900598049988421ED028
:104AE000FFE704980599884207D2FFE705980499E3
:104AF000401A03990844039008E002980499401A68
:104B000005990844039908440390FFE70498059029
:104B100003980699884201D3FFE701E0FFE7D5E754
:104B2000002008B07047000080B58CB000F06CF831
:104B3000FFF75EFAFFF7ACF8FCF7D4FEFFF7B8FE1C
:104B40000B90FFF76DFCFBF7C9FFFDF75BFCFCF773
:104B5000A9F800F01BF940F23C10C2F20000D0F8B6
:104B600000E040F66D41C0F6000100220A90704658
:104B7000099201F0A5FB0A990A680890104601F015
:104B800095FB40F23811C2F20001096844F6A10217
:104B9000C0F60002EE46CEF80C20099ACEF80820A6
:104BA00040F29213C2F20003CEF804304423CEF850
:104BB000003040F24E12C2F2000207900846194639
:104BC000099B00F059FD0690FCF784FCFCF7A6FF5A
:104BD00040F23010C2F200000068FFF74FFC0A9864
:104BE000006845F27611C0F2CE0101F07FFB41F280
:104BF0004851C2F200011022059008461146FCF708
:104C00007DFF04900CB080BD80B582B00220FDF71E
:104C10008FFEFDF77DFE022808D0FFE747F2827085
:104C2000C0F60000142102F0B7F8FFE7FEF742F9E2
:104C3000FFE7FEF753F9012801D0FFE7F9E7FEF798
:104C400065F9FFE7FEF76CF9012801D0FFE7F9E706
:104C50004FF480304FF4E011FEF76AF9FEF784F963
:104C6000FFE7FEF7A3F9012801D0FFE7F9E70020ED
:104C70000190FEF7A3F94FF48060FEF7AFF90198B9
:104C8000FEF7BCF90220FEF7C9F9FFE7FEF7ECF8E2
:104C9000082801D0FFE7F9E70420FEF7CFF94AF230
:104CA0000020C0F24A40FEF7E5F9FDF727FEFDF7C8
:104CB00011FEFDF719FE02B080BD000041F20000B8
:104CC000C4F20200016841F00101016041F20401F7
:104CD000C4F202010A680023CFF6FF031A400A60FB
:104CE00002684FF6FF73CFF6F6631A40026002685F
:104CF00022F480220260086820F4FE00086041F27D
:104D00000800C4F202004FF41F0101604EF6085083
:104D1000CEF200004FF000610160704780B5FBF7F4
:104D2000D7FF80BD80B500F053F980BD80B584B059
:104D30000A46034603908DF80B1003989DF80B105C
:104D40000192009300F0C2F904B080BD80B500F07C
:104D500077FA80BD80B500F07BFA80BD80B5FFF7A3
:104D6000E1FF80BD80B584B00A46034603908DF80C
:104D70000B1003989DF80B1001920093FFF7D6FFDC
:104D800004B080BD80B5FFF7E1FF80BD80B5FFF7BF
:104D9000E1FF80BD80B592B00020119010900F907F
:104DA0000E900D900C900B900A900990089040F294
:104DB0000041C4F200010122079008460691114605
:104DC000059200F083F940F60040C4F2010004901F
:104DD0000599FCF78BFD42F220000890FDF7B8FD25
:104DE0000820099008A90498FDF7D6FD0799ADF8A9
:104DF00034100E916FF07F420F9210910DA9069A18
:104E000003901046FEF7BEFB069902900846FEF797
:104E100049FA60210698FEF7C7FC10204FF4803253
:104E20000699019008460199FEF780FA0721069835
:104E3000FEF784FC06980199FEF728F90698019977
:104E4000079AFEF7DBFA06980199079AFEF73EFBF0
:104E50000698FEF703FA0698FEF7F4F90698079904
:104E6000FEF7C6FC0698FEF711FA12B080BD0000EE
:104E700080B584B00020039040F22C10C2F20000F4
:104E80000068007800281FD1FFE740F22C10C2F222
:104E90000000016800228A6001684A600068012100
:104EA000017040F20040C4F2000002900192FEF74F
:104EB000FDF80298FEF70EF902980199FEF750FCF2
:104EC0000298FEF707FA81E040F22C10C2F20000CF
:104ED0000068007801281CD1FFE740F20040C4F2CE
:104EE0000000FEF7EFFB002812D0FFE740F2004081
:104EF000C4F20000FEF712FA40F22C1EC2F2000EBD
:104F0000DEF800108860DEF8000002210170FFE783
:104F10005BE040F22C10C2F200000068007802282A
:104F200051D1FFE740F24C10C2F20000017801318C
:104F3000017040F20040C4F20000FEF7D7FB0028E9
:104F400011D0FFE740F20040C4F20000FEF7C2F8C3
:104F500040F24D10C2F2000090F800E00EF1010E98
:104F600080F800E0FFE740F24C10C2F20000007849
:104F70000A2827DBFFE740F20040C4F2000000905F
:104F8000FEF7CCF903900098FEF750F940F22C1090
:104F9000C2F20000D0F800E003218EF8001040F2C9
:104FA0004D11C2F200010978C1EB0141DDF80CE0BE
:104FB0007144D0F800E0DEF808E0A1EB0E010068D3
:104FC0008160FFE700E001E0FFE7FFE704B080BD9C
:104FD00080B58AB040F23410C2F200000068006967
:104FE00040F22C11C2F200010968C86044F67160F9
:104FF000C0F60000FFF74AFC0021099106900591D8
:10500000FFF74EFC089005980790FFE740F22C1040
:10501000C2F200000068007803281AD0FFE7FFF70B
:105020003FFC09900998DDF820E0704506D2FFE7C3
:105030000898C04309990844079004E00998089922
:10504000401A0790FFE70798652801D3FFE700E0C3
:10505000DCE740F22C10C2F200000168C96804903D
:105060000846FFF713FC0499D1F800E00022CEF8BF
:105070000C20079A652A039009D3FFE740F22C1011
:10508000C2F2000000684FF6FF718160FFE740F256
:105090002C10C2F20000016800220A7001688968C1
:1050A000029008460192FBF746FAFBF75DFA48F6D4
:1050B0000003C4F2C303019AFBF7C5F9FBF767FAD3
:1050C00002990A6850600AB080BD000080B584B0C3
:1050D0000A46034603908DF80B10039842F60041F0
:1050E000C4F201018842019200930ED1FFE79DF8BE
:1050F0000B00002804D0FFE70120FDF71FFA03E0B2
:105100000120FDF71BFAFFE798E00398B0F1804F0C
:105110000ED1FFE79DF80B00002804D0FFE7012027
:10512000FDF70CFA03E00120FDF7E8F9FFE785E061
:10513000039840F20041C4F2000188420ED1FFE71B
:105140009DF80B00002804D0FFE70220FDF7F6F9D8
:1051500003E00220FDF7F2F9FFE76FE0039840F665
:105160000001C4F2000188420ED1FFE79DF80B0058
:10517000002804D0FFE70420FDF7E0F903E0042055
:10518000FDF7DCF9FFE759E0039840F60041C4F26F
:10519000000188420ED1FFE79DF80B00002804D0E3
:1051A000FFE70820FDF7CAF903E00820FDF7C6F97C
:1051B000FFE743E0039841F20001C4F20001884296
:1051C0000ED1FFE79DF80B00002804D0FFE7102068
:1051D000FDF7B4F903E01020FDF7B0F9FFE72DE08B
:1051E000039841F20041C4F2000188420ED1FFE76A
:1051F0009DF80B00002804D0FFE72020FDF79EF962
:1052000003E02020FDF79AF9FFE717E0039843F247
:105210000041C4F20101884210D1FFE79DF80B0064
:10522000002805D0FFE74FF40050FDF72FFA04E007
:105230004FF40050FDF7F6F9FFE7FFE704B080BD3B
:1052400040F22C10C2F20000006880687047000035
:1052500080B5FFF79FFD80BD80B586B040F2381065
:10526000C2F2000000688069FEF72AFC002825D001
:10527000FFE740F23810C2F2000000688069FEF7D4
:105280005BFC00281AD0FFE740F23810C2F20000A1
:10529000006843F60001C4F201010590084604913C
:1052A000FEF77CFC059903900846039900F0C0F9CD
:1052B000049902900846FEF7ADFAFFE740F2381075
:1052C000C2F2000000688069FEF718FC002814D0C4
:1052D000FFE740F23810C2F2000000688069FEF774
:1052E00049FC002809D0FFE740F23810C2F2000064
:1052F000006800F0B7F90190FFE740F23810C2F201
:10530000000000688069FEF7E5FB00281BD0FFE77E
:1053100040F23810C2F2000000688069FEF716FC07
:10532000002810D0FFE740F23810C2F200000068F9
:1053300000F08EF943F6000EC4F2010E00907046A4
:10534000FEF772FAFFE706B080BD000080B59EB0A0
:1053500001461D9040F60000C4F2010001221190A8
:10536000109111460F92FCF7ADFA00201C901B9093
:105370001A90199018900921199103211A911B90E4
:105380000F991C910222C0F2024218920DF1600E98
:10539000119B0E9018467146CDF834E00C92FDF743
:1053A000FBFA0421C0F204411891082119911199C6
:1053B0000B9008460D99FDF7EFFA43F60001C4F291
:1053C00001010A9008460991FEF752FA09990890DE
:1053D00008460F9900F0E8F90E991791169115916A
:1053E0001491139112914FF4E1321292139114918E
:1053F00015910C221692179112A9099A079010463E
:10540000FEF7DCFA099906900846FEF721FAFEF746
:10541000E7FD022105910E9AFEF78AFD25210490F1
:105420000846049A03911146FEF7BAFE0398FEF768
:10543000A9FC0998FEF7AAFA0998FEF79BFA1D98AD
:105440001199C1601D980C9A82601D98099B836117
:105450001D98DDF814E080F800E01D98C06D00286C
:1054600006D0FFE71D98642141651D98416305E062
:105470001D98002141651D984163FFE71D9800219B
:1054800041771D98552242701D985A2282701D98AE
:10549000029100F04BF91D9901900846029900F025
:1054A0004BFA1D9947F2B772C0F600020090084609
:1054B000114600F071FD02981EB080BD82B0014619
:1054C00001900020009102B07047000082B00146B8
:1054D00001900020009102B0704700002DE9F041DA
:1054E0008AB0DDF844C0DDF840E01C4615460E46A3
:1054F000074609908DF823108DF822208DF8213071
:105500008DF820E08DF81FC009989DF823109DF8B4
:1055100022209DF821309DF820C09DF81FE0E8462C
:10552000C8F804E0C8F800C00694059504960397EF
:1055300000F0D2F90AB0BDE8F081000080B584B077
:105540000A46034603908DF80B1003989DF80B1044
:105550000192009300F0C4FB04B080BD80B582B01E
:10556000014601900198009100F0DEFB02B080BD81
:1055700080B582B0014601900198009100F010FCC6
:1055800002B080BD2DE9F04F91B0DDF874C0DDF8B8
:1055900070E01B9C1A9D1E46174688468146109057
:1055A000ADF83E100E928DF83730ADF834508DF8CE
:1055B00033E000208DF832001098BDF83E100E9AAE
:1055C0009DF83730BDF834E01B9D9DF833A0DDF821
:1055D00074B00B906846C0F80CB0C0F808A04560E5
:1055E000C0F800E00B980A960997CDF82080CDF816
:1055F0001C90CDF818C0059400F032FC8DF83200F4
:105600009DF8320000280DD1FFE7FBF763FA002870
:1056100007D0FFE71098002180F83D1010984177DF
:10562000FFE7FFE79DF8320011B0BDE8F08F000002
:1056300080B584B00A46034603908DF80B1003989A
:105640009DF80B1001920093FFF778FF04B080BD26
:1056500080B582B00146019001980091FFF77EFF6E
:1056600002B080BD80B582B00146019001980091E2
:10567000FFF77EFF02B080BD2DE9F04F95B0DDF859
:1056800084C0DDF880E01F9C1E9D1E46174688469C
:1056900081461490ADF84E1012928DF84730ADF857
:1056A00044508DF843E000208DF842001499BDF875
:1056B0004E20129B9DF847E0BDF84450DDF87CA0D9
:1056C0009DF843B00F9021980E9068460D900E986B
:1056D0000C910D99C860C1F808B0C1F804A00D6024
:1056E0000C9811461A4673460B960A97CDF82480FB
:1056F000CDF82090CDF81CC00694FFF743FF8DF83D
:1057000042001498694604224A6003220A6002217A
:105710000F9A05911146059A059BFFF7DFFE8DF85C
:1057200042009DF8420015B0BDE8F08F80B584B00E
:105730000A46034603908DF80B1003984069002831
:105740000192009312D0FFE79DF80B00012806D1CB
:10575000FFE7039801694069FDF7CEF905E003987A
:1057600001694069FDF7F2F9FFE7FFE7002004B0A7
:1057700080BD000084B00A46034603908DF80B10EC
:105780009DF80B0000280192009305D0FFE70398D5
:10579000002180F84A1004E00398002180F82A10C4
:1057A000FFE7002004B0704780B586B00A46034684
:1057B00004908DF80F10049843F60001C4F2010123
:1057C00088420292019313D1FFE79DF80F00002851
:1057D00005D0FFE74FF48040FCF76CFF04E04FF486
:1057E0008040FCF72FFFFFE700208DF817006FE0E7
:1057F000049844F20041C4F20001884213D1FFE74B
:105800009DF80F00002805D0FFE74FF40030FCF7AB
:10581000A9FE04E04FF40030FCF780FEFFE7002013
:105820008DF8170054E0049844F60001C4F200011A
:10583000884213D1FFE79DF80F00002805D0FFE74D
:105840004FF48020FCF78EFE04E04FF48020FCF73C
:1058500065FEFFE700208DF8170039E0049844F654
:105860000041C4F20001884213D1FFE79DF80F0008
:10587000002805D0FFE74FF40020FCF773FE04E09A
:105880004FF40020FCF74AFEFFE700208DF81700D8
:105890001EE0049845F20001C4F20001884213D1D1
:1058A000FFE79DF80F00002805D0FFE74FF48010B8
:1058B000FCF758FE04E04FF48010FCF72FFEFFE7E2
:1058C00000208DF8170003E001208DF81700FFE796
:1058D0009DF8170006B080BDF0B587B0DDF834C084
:1058E000DDF830E01C4615460E46074606908DF85A
:1058F00017108DF816208DF815308DF814E08DF8FE
:1059000013C09DF817000699C8709DF816000699F7
:1059100008719DF81500069948719DF814000699C4
:1059200088719DF813000699C871002003940295B0
:105930000196009707B0F0BD80B584B00A460346D3
:1059400003908DF80B100398C06800280192009313
:1059500014D0FFE79DF80B00012807D1FFE703985B
:105960008168C0680922FDF733F906E00398816871
:10597000C0680822FDF72CF9FFE7FFE7002004B01C
:1059800080BD000080B58CB00A4603460B908DF8B0
:105990002B109DF82B0040F2D611C2F200010870C6
:1059A0000B9890F83F00014604280992089307914C
:1059B00000F2CE800799DFE801F00330528CCA0074
:1059C0000B98B0F84400002826D1FFE70B984078E8
:1059D00040F2D611C2F20001097888421BD1FFE7DC
:1059E00040F2D610C2F2000000780B99896D087061
:1059F0000B98012180F83F100B98A0F846100B98E7
:105A0000069100F0CDFB0B99059008460699FFF72B
:105A1000B1FE0490FFE7FFE79BE040F2D610C2F230
:105A2000000001780B9A926D517000780B99A1F8E3
:105A300042000B98B0F842100902A0F842100B98EF
:105A4000022180F83F100B98B0F846100131A0F801
:105A500046100B98012100F0A3FB039079E040F27F
:105A6000D610C2F2000001780B9A926D9170007806
:105A70000B99B1F842201044A1F842000B98B0F8FD
:105A800046100131A0F846100B98B0F842000128EA
:105A900014DBFFE70B98B0F842000B99B1F84810FF
:105AA00088420BDAFFE70B98B0F842000B99A1F897
:105AB00046000B98032180F83F1004E00B9800216A
:105AC00080F83F10FFE70B98012100F069FB02907E
:105AD0003FE040F2D610C2F2000000780B998A6DC8
