:020000040800F2
:10000000C825002045010008457E00082D5B00083A
:10001000717B0008111A0008A9AF00080000000059
:100020000000000000000000000000002185000822
:10003000991E000800000000B9830008798B0008B1
:10004000ADBA0008998300085F0100085F0100084D
:100050005F010008958400085F0100085F01000847
:100060005F0100085F0100085F0100081D1E000815
:100070005F0100085F0100085F0100085F010008E0
:100080005F0100085F0100085F0100085F010008D0
:100090005F0100085F0100085F0100085F010008C0
:1000A0005F0100085F0100085F0100085F010008B0
:1000B000A98F00085F0100085F0100085F010008C8
:1000C0005F0100085F0100085F0100085F01000890
:1000D0005F010008319500085F0100085F0100081A
:1000E0005F0100085F0100085F0100085F01000870
:1000F0005F0100085F0100085F0100085F01000860
:100100005F0100085F0100085F0100085F0100084F
:100110005F0100085F0100085F0100085F0100083F
:100120005F0100085F0100085F010008591E000818
:10013000DFF80CD000F0F6FB00480047D5BA000805
:10014000C82500200648804706480047FEE7FEE72E
:10015000FEE7FEE7FEE7FEE7FEE7FEE7FEE7FEE777
:10016000498F000831010008F0B480EA0102D40F81
:100170004200B2EB410F02D20246084611464A0045
:1001800042D0C30DDDB2C1F3C752AD1A202D35DA0E
:10019000C1F3160141F4000204B15242C5F1200638
:1001A00002FA06F12A411044B3EBD05F23D0C4B168
:1001B000012DA0EBC35009DCF0BC4FF0004202EA75
:1001C000C352DBB200F5000000F07EBA400000F13F
:1001D000807000EBC350A0F1807040EAD1704900FC
:1001E00009E0490841EAC071A0EBC35000F50000E6
:1001F000400800EBC350F0BC00F05DBA6142012240
:1002000002EB4101001BF6E7F0BC704781F00041B2
:10021000AAE780F00040A7E780EA010210B502F0EB
:100220000043400022D04A001FD0010E01EB1261B2
:10023000C0F35600C2F3560240F4000042F400023C
:10024000A0FB022000047F39140400D0401C50EAB7
:10025000124001D44000491EC2B20C0604EBD0107B
:10026000401C4008802A02D003E0002010BD20F08E
:100270000100002900DA0020184310BD30B480EAE4
:10028000010202F0004530F0004221F0004013D09E
:1002900090B1C30DD40DC2F31601C0F31600E41AD9
:1002A00041F4000140F400027D34914201D3641C0A
:1002B00000E04900002C02DA30BC002070474FF407
:1002C00000000023914201D3891A034340084FEAFA
:1002D0004101F7D151B1914202D14FF0004105E007
:1002E00002D24FF0010101E06FF0010103EBC450B5
:1002F000284430BC00F0DFB92DE9FE4F804681EA8A
:100300000300C00F0C46009021F0004123F000458F
:10031000B8EB0200A94105D24046214690461C4652
:100320000B46024623F00040104347D0270DC7F389
:100330000A00C3F30A510290401A019040286BDA78
:10034000C3F3130040F4801B0098924620B10023B1
:10035000D2EB030A63EB0B0B01985946C0F1400244
:10036000504600F077F906460D4650465946019A28
:1003700000F08FF910EB08006141002487EA115268
:1003800084EAE7731A4340D0009A62B3019A012AC3
:100390004FEA075215DC001B61EB02014FF00042EF
:1003A00002EA0752CDE90042001C41F580113246B5
:1003B0002B4600F0C6F903B0BDE8F08F4046214659
:1003C000F9E7001B61EB0201001C41F580130018E6
:1003D0005B412018A2F5001747EB030140EAD570F6
:1003E000B6196D4111E06D084FEA360645EAC07551
:1003F0004FEA0752001B61EB0201001C41F580111E
:1004000049084FEA30000019514132462B4603B0EB
:10041000BDE8F04F00F086B90098012240000023AB
:10042000D0EB020263EBE073009821464FEAE074E0
:10043000B8EB000061EB0401E9E783F000435BE700
:1004400081F0004158E72DE9F04D81EA030404F002
:10045000004B21F0004514464FF0000A23F0004104
:1004600050EA050220D054EA01021DD0C5F30A5714
:100470000246C5F31303C1F31300C1F30A5640F457
:10048000801543F48013A7EB0608101BD64608F22C
:10049000FD3873EB050002D308F1010801E0921862
:1004A0005B41B8F1000F03DA00200146BDE8F08D92
:1004B00000204FF48011064684460EE0171B73EBB4
:1004C000050705D3121B63EB050306434CEA010C39
:1004D00049084FEA300092185B4150EA0107EDD11C
:1004E00052EA030012D082EA040083EA05010843BD
:1004F00005D0101BAB4106D20122002306E00022EA
:100500004FF0004302E06FF0010253101AEB0600B7
:100510004CEB085110EB0A0041EB0B01BDE8F04D2C
:1005200000F000B9C10F80EAE0700844CA079623C2
:10053000002100F0C9B896230022114600F0C4B88B
:1005400020F00040C10DC0F3160040F400007F29E8
:1005500001DA00207047962903DCC1F19601C840FA
:10056000704796398840704700F0004230F00040F4
:100570000AD0C10D01F56071C0F3160042EA0151C5
:10058000C20840071143704700200146704701F040
:10059000004330B421F0004150EA010206D00A0DB8
:1005A000A2F56072C1F31301002A02DC30BC002006
:1005B0007047440F44EAC104C100E01830BC00EBAE
:1005C000C25000F078B830B50B460146002020221A
:1005D000012409E021FA02F59D4205D303FA02F550
:1005E000491B04FA02F52844151EA2F10102F1DCB0
:1005F00030BD2DE9F05F0546002092469B468846B7
:100600000646814640241BE028464146474622468E
:1006100000F02FF853465A46C01A914110D31146A4
:100620001846224600F016F82D1A67EB01084F46CF
:1006300022460120002100F00DF817EB00094E4181
:10064000201EA4F10104DFDC484631462A46434619
:10065000BDE8F09F202A04DB203A00FA02F10020D6
:1006600070479140C2F1200320FA03F319439040F0
:100670007047202A04DB203A21FA02F0002170475B
:1006800021FA02F3D040C2F12002914008431946FA
:100690007047202A06DBCB17203A41FA02F043EAE2
:1006A000E07306E041FA02F3D040C2F1200291402B
:1006B0000843194670470029A8BF7047401C4900ED
:1006C00008BF20F00100704710B4B0FA80FC00FAB7
:1006D0000CF050EA010404BF10BC704749B1CCF1E2
:1006E000200421FA04F411FA0CF118BF012121436E
:1006F0000843A3EB0C01CB1D4FEA00614FEA102029
:1007000042BF002010BC704700EBC35010440029CA
:10071000A4BF10BC7047401C490008BF20F0010076
:1007200010BC704710B5141E73F1000408DA401CA9
:1007300041F1000192185B411A4301D120F0010000
:1007400010BD2DE9F04D92469B4611B1B1FA81F2F0
:1007500002E0B0FA80F220329046FFF77BFF0446B9
:100760000F4640EA0A0041EA0B0153465A46084345
:1007700013D0114653EA010019D0C8F14002504687
:10078000FFF777FF05460E46504659464246FFF7AB
:1007900061FF084305D0012004E020463946BDE84A
:1007A000F08D0020054346EAE0762C4337430A9853
:1007B0006305E40AA0EB08000022FD0A44EA47545E
:1007C0000A3002D500200146E9E701051019694108
:1007D000DDE9084500196941BDE8F04DA2E72DE9C2
:1007E000FE4F81EA030404F0004421F0004100942C
:1007F0004FF0000B23F0004350EA01045ED052EAB0
:1008000003045BD0C3F30A54C1F30A552C44A4F289
:10081000F3340194A0FB0254C1F3130141F480119D
:10082000C3F3130343F4801301FB024400FB034EA4
:10083000840A970A44EA815447EA8357A4FB07686D
:1008400002958D0A05FB07854FEA932C04FB0C5497
:100850002705029D4FEA065847EA1637B5EB08050B
:100860006EEB070C870E920E47EA811742EA83125D
:10087000A7FB0201B6EB0B0164EB00042B0D43EA6E
:100880000C335E1844EB1C50DA465146E7FB02017C
:10089000C5F313044FEA0B3343EA14534FEA04320F
:1008A000019C43EA0603A4F10C040294009CCDE9E8
:1008B00000B4FFF746FF03B0BDE8F08F002001460B
:1008C000F9E7C1F30A52C1F3130140F2FF3341F4D7
:1008D00080119A4202DA00200146704740F2334309
:1008E0009A42A2F2334202DC5242FFF7C2BEFFF745
:1008F000B1BE000030B5041E71F1000404DB4FF0FE
:100900000044404264EB0101141E73F1000405DB56
:100910001C464FF00043524263EB0403994208BF68
:10092000904230BD064C074D06E0E06840F0010300
:1009300094E8070098471034AC42F6D3FFF7FCFB6D
:1009400058C9000878C9000870B58C1810F8015B08
:1009500015F0070301D110F8013B2A1106D110F858
:10096000012B03E010F8016B01F8016B5B1EF9D15C
:100970002B0705D40023521E0DD401F8013BFAE7E2
:1009800010F8013BCB1A921C03E013F8015B01F84D
:10099000015B521EF9D5A142D8D3002070BD0000E2
:1009A00080B582B0014601900198009100F044F8B2
:1009B00002B080BD80B582B00146019001980091DF
:1009C000FFF7EEFF02B080BD80B582B00020C4F218
:1009D00002000121019005F079FE019805F03AFE30
:1009E000019805F04BFE019805F05CFE42F20040D4
:1009F000C4F2010005F08EFC002002B080BD0000B2
:100A000080B582B040F20040C4F20200052101909E
:100A100005F05CFE019805F027FE019805F038FE10
:100A2000019805F049FE43F60040C4F2010005F0CC
:100A300071FC002002B080BD80B584B001460290F8
:100A4000029842F20042C4F20102904201910DD19B
:100A5000FFE740F22C10C2F200000068017801317B
:100A60000170FFF7B1FF8DF80F0024E0029842F605
:100A70000001C4F20101884204D1FFE700208DF893
:100A80000F0018E0029843F60041C4F201018842C9
:100A90000DD1FFE740F23410C2F200000068017887
:100AA00001310170FFF7ACFF8DF80F0003E000206B
:100AB0008DF80F00FFE79DF80F0004B080BD000027
:100AC000B0B588B09C4696460C4605460790069100
:100AD00005928DF8133007980699059A9DF8133002
:100AE000CDF80CC0CDF808E00194009500F0C2F9F3
:100AF00008B0B0BDB0B588B09C4696460C460546D9
:100B00000790ADF81A100592ADF812300798BDF8AD
:100B10001A10059ABDF81230CDF80CC0CDF808E0D7
:100B20000194009500F022FA08B0B0BDB0B588B0CD
:100B30009C4696460C4605460790ADF81A1005925D
:100B4000ADF812300798BDF81A10059ABDF81230AA
:100B5000CDF80CC0CDF808E00194009500F038FA0B
:100B600008B0B0BDB0B588B09C4696460C46054668
:100B70000790069105928DF8133007980699059A0B
:100B80009DF81330CDF80CC0CDF808E00194009525
:100B9000FFF796FF08B0B0BDB0B588B09C4696464A
:100BA0000C4605460790ADF81A100592ADF81230C4
:100BB0000798BDF81A10059ABDF81230CDF80CC090
:100BC000CDF808E001940095FFF794FF08B0B0BDA0
:100BD000B0B588B09C4696460C4605460790ADF8E1
:100BE0001A100592ADF812300798BDF81A10059A40
:100BF000BDF81230CDF80CC0CDF808E00194009596
:100C0000FFF794FF08B0B0BDB0B588B09C469646DB
:100C10000C4605460790ADF81A100592ADF8123053
:100C20000120CDF80CC0CDF808E00194009508B083
:100C3000B0BD0000B0B588B09C4696460C4605464F
:100C40000790ADF81A100592ADF812300120CDF8DA
:100C50000CC0CDF808E00194009508B0B0BD0000CC
:100C600080B588B001460790079803220270079864
:100C700041F20042C4F201024260079840F204428D
:100C80008260079840680028019106D0FFE7079826
:100C90004068012101F0A6FFFFE7002006900590C3
:100CA0000490039002900121039104910590069114
:100CB0000798806802900798406800280ED0FFE7E8
:100CC0000798406802A905F0B1FD0799D1F804E042
:100CD00089680090704605F075FEFFE707980021CF
:100CE000C160079840F60042C4F201020261079811
:100CF00044F24003436107988261079848F28002FA
:100D0000C261079880F82010079880F82110079892
:100D100081620798A022428407984162079800F0F8
:100D200013F808B080BD000082B001460190002099
:100D3000009102B07047000082B00146019000208F
:100D4000009102B07047000083B001460190019805
:100D500000780028009107D1FFE701981021418019
:100D60000198082141707CE001980078012807D1A2
:100D7000FFE70198202141800198082141706FE030
:100D800001980078022807D1FFE7019820214180CF
:100D900001981021417062E001980078032807D182
:100DA000FFE701984021418001981021417055E0F2
:100DB00001980078042807D1FFE70198802141803D
:100DC00001981021417048E001980078052807D16A
:100DD000FFE70198802141800198202141703BE08C
:100DE00001980078062808D1FFE701984FF4807138
:100DF00041800198202141702DE00198007807285A
:100E000008D1FFE701984FF480714180019840219B
:100E100041701FE001980078082808D1FFE7019889
:100E20004FF40071418001984021417011E0019818
:100E30000078092808D1FFE701984FF4007141803C
:100E400001988021417003E001208DF80B000CE037
:100E5000FFE7FFE7FFE7FFE7FFE7FFE7FFE7FFE762
:100E6000FFE700208DF80B00FFE79DF80B0003B0B3
:100E700070470000B0B58CB09C4696460C460546BF
:100E80000A90099108928DF81F3000208DF81E00FD
:100E90000A980028CDF818C0CDF814E00494039502
:100EA0000ED0FFE70A9840F23011C2F20001096843
:100EB000884205D1FFE70A98FFF7D2FE02901FE0B3
:100EC0000A98002809D0FFE70A98002805D1FFE713
:100ED0000A98FFF729FF019011E00A98002809D02D
:100EE000FFE70A98002805D1FFE70A98FFF724FFDB
:100EF000009003E001208DF82F0032E0FFE7FFE7CC
:100F00009DF81F0000280CD0FFE70A980C3004F071
:100F100089FE8DF81E000A984FF0010E80F820E03F
:100F20000BE00A980C30099904F084FE8DF81E003D
:100F30000A98002180F82010FFE70898002804D0C4
:100F4000FFE708980A99C86206E00A9841F64571D9
:100F5000C0F60001C162FFE79DF81E008DF82F006A
:100F6000FFE79DF82F000CB0B0BD0000B0B58AB00F
:100F70009C4696460C4605460890ADF81E10069213
:100F8000ADF81630089890F820000028CDF810C071
:100F9000CDF80CE0029401950BD1FFE70898BDF85D
:100FA0001E10069ABDF8163000F044F88DF82700A0
:100FB0000AE00898BDF81E10069ABDF81630FFF733
:100FC00023FE8DF82700FFE79DF827000AB0B0BD8B
:100FD000B0B58AB09C4696460C4605460890ADF8DA
:100FE0001E100692ADF81630089890F820000028E0
:100FF000CDF810C0CDF80CE0029401950BD1FFE7BD
:101000000898BDF81E10069ABDF8163000F0B6F923
:101010008DF827000AE00898BDF81E10069ABDF862
:101020001630FFF707FE8DF82700FFE79DF8270031
:101030000AB0B0BDB0B58EB09C4696460C4605468B
:101040000D90ADF832100B92ADF82A3000208DF8DB
:1010500029000D99498CADF82610ADF824000D98A3
:1010600000780528CDF820C0CDF81CE00694059541
:1010700028DBFFE70D980C30012104F0FDFD8DF811
:1010800029009DF82900002804D0FFE702208DF8F0
:1010900029008BE00D980C309DF8331004F016FEFB
:1010A0000D990C310490084604F0D2FD8DF829000A
:1010B0009DF82900002804D0FFE703208DF82900BF
:1010C00074E019E0BDF83200C0F302200D994A8C9B
:1010D00002EB400048840D980C30012104F0CCFD57
:1010E0008DF829009DF82900002804D0FFE7022090
:1010F0008DF829005AE0FFE70D980C309DF832106A
:1011000004F0E4FD0D990C310390084604F0A0FDB5
:101110008DF829009DF82900002804D0FFE703205E
:101120008DF8290042E00D980C30002104F0A4FD58
:101130008DF829009DF82900002804D0FFE704203D
:101140008DF8290032E00020ADF82400FFE7BDF85B
:101150002400BDF82A10884224DAFFE70D980C30ED
:1011600004F080FDDDF82CE0BDF824100EF801003D
:10117000BDF82400BDF82A100139884204D1FFE7E8
:1011800001208DF82900FFE70D980C309DF82910FB
:1011900004F08CFD0290FFE7BDF824000130ADF8AB
:1011A0002400D4E700208DF82900FFE70D980C30CB
:1011B00004F072FDBDF826E00D99A1F822E09DF83B
:1011C0002910019008460EB0B0BD0000B0B58EB039
:1011D0009C4696460C4605460D90ADF832100B9293
:1011E000ADF82A30BDF82A000D9949788842CDF82B
:1011F00020C0CDF81CE00694059505DDFFE70D98AD
:101200004078ADF82A00FFE700208DF829000D99FD
:10121000498CADF82610ADF824000D98007805280B
:1012200028DBFFE70D980C30012104F025FD8DF837
:1012300029009DF82900002804D0FFE702208DF83E
:1012400029008BE00D980C309DF8331004F03EFD22
:101250000D990C310490084604F0FAFC8DF8290031
:101260009DF82900002804D0FFE703208DF829000D
:1012700074E019E0BDF83200C0F302200D994A8CE9
:1012800002EB400048840D980C30012104F0F4FC7E
:101290008DF829009DF82900002804D0FFE70220DE
:1012A0008DF829005AE0FFE70D980C309DF83210B8
:1012B00004F00CFD0D990C310390084604F0C8FCB5
:1012C0008DF829009DF82900002804D0FFE70320AD
:1012D0008DF8290042E00D980C30002104F0CCFC80
:1012E0008DF829009DF82900002804D0FFE704208C
:1012F0008DF8290032E00020ADF82400FFE7BDF8AA
:101300002400BDF82A10884224DAFFE70D980C303B
:1013100004F0A8FCDDF82CE0BDF824100EF8010064
:10132000BDF82400BDF82A100139884204D1FFE736
:1013300001208DF82900FFE70D980C309DF8291049
:1013400004F0B4FC0290FFE7BDF824000130ADF8D2
:101350002400D4E700208DF82900FFE70D980C3019
:1013600004F09AFCBDF826E00D99A1F822E09DF862
:101370002910019008460EB0B0BD0000B0B590B085
:101380009C4696460C4605460E90ADF836100C92DB
:10139000ADF82E300020ADF82C00ADF82A00BDF8D5
:1013A00036100E9A5278B1FBF2F1ADF82810BDF864
:1013B00036100E9A5278B1FBF2F303FB1211ADF81E
:1013C00026100E994978BDF82620891AADF8241008
:1013D000ADF822008DF82100BDF82E000028CDF8D0
:1013E00018C0CDF814E00494039504D0FFE70C98DE
:1013F000002804D1FFE706208DF83F0047E1BDF843
:101400002E0002282DDCFFE70020ADF82200FFE7C8
:10141000BDF82200BDF82E10884221DAFFE70E98B1
:10142000BDF836100C9A127800F036F98DF82100CC
:10143000BDF836000130ADF836000C9801300C9044
:101440009DF82100002804D0FFE707208DF83F0019
:101450001DE1FFE7BDF822000130ADF82200D7E71B
:1014600010E10E98407806F09FFB0790079800283F
:1014700004D1FFE708208DF82100FFE0BDF824002B
:101480000E994978884257D0FFE70E98BDF828108A
:1014900042785143079B89B202921A46029BFFF79A
:1014A00095FE8DF821009DF82100002804D0FFE76B
:1014B00009208DF82100E1E00020ADF82200FFE7CF
:1014C000BDF82200BDF8241088421DDAFFE70C9811
:1014D00000780799BDF82220BDF826301A448854B8
:1014E000BDF836000130ADF836000C9801300C9094
:1014F000BDF82E000138ADF82E00FFE7BDF8220040
:101500000130ADF82200DBE70E98BDF828104278D4
:101510005143079B89B201921A46019B00F088F95A
:101520008DF821009DF82100002804D0FFE70A2053
:101530008DF82100A2E0FFE7BDF82E000E99497852
:10154000B0FBF1F0ADF82C00BDF82E000E994978F3
:10155000B0FBF1F202FB1100ADF82A00BDF82C003F
:10156000002838D0FFE70020ADF82200FFE7BDF8E3
:101570002200BDF82C1088422CDAFFE70E98BDF847
:1015800036100C9A437800F053F98DF821000E982C
:101590004078BDF836100844ADF836000E98407813
:1015A0000C9908440C900E984078BDF82E10081A3B
:1015B000ADF82E009DF82100002804D0FFE70B2095
:1015C0008DF821005AE0FFE7BDF822000130ADF8A8
:1015D0002200CCE7FFE7BDF82A0000284DD0FFE746
:1015E0000E98BDF83610079A4378FFF7EFFD8DF897
:1015F00021009DF82100002804D0FFE70C208DF881
:1016000021003BE00020ADF82200FFE7BDF82200FA
:10161000BDF8241088421DDAFFE70C98007807997E
:10162000BDF82220BDF826301A448854BDF8360093
:101630000130ADF836000C9801300C90BDF82E004A
:101640000138ADF82E00FFE7BDF822000130ADF8FB
:101650002200DBE70E98BDF83610079A437800F0B9
:10166000E7F88DF821009DF82100002804D0FFE75D
:101670000D208DF8210001E0FFE7FFE7079806F055
:1016800079FAFFE79DF821008DF83F00FFE79DF80C
:101690003F0010B0B0BD000080B58EB013468C4640
:1016A00086460D90ADF832108DF8312000208DF86F
:1016B00030000D98408CADF82E000D984068002841
:1016C0000A93CDF824C0CDF820E009D0FFE70D98AB
:1016D0004168806807900846079905F01FF9FFE701
:1016E0000D980078052828DBFFE70D980C300121C4
:1016F00004F0C2FA8DF830009DF83000002804D0C4
:10170000FFE702208DF8300060E00D980C309DF866
:10171000331004F0DBFA0D990C310690084604F002
:1017200097FA8DF830009DF83000002804D0FFE7CC
:1017300003208DF8300049E019E0BDF83200C0F315
:1017400002200D994A8C02EB400048840D980C3021
:10175000012104F091FA8DF830009DF83000002846
:1017600004D0FFE702208DF830002FE0FFE70D984E
:101770000C309DF8321004F0A9FA0D990C31059047
:10178000084604F065FA8DF830009DF83000002816
:1017900004D0FFE703208DF8300017E00D980C30DF
:1017A0009DF8311004F092FA0D990C31049008461E
:1017B00004F04EFA8DF830009DF83000002804D077
:1017C000FFE704208DF8300000E0FFE70D980C30B3
:1017D00004F062FADDF834E0DEF804E0BEF1000F58
:1017E000039009D0FFE70D98416880680290084691
:1017F000029905F0E7F8FFE7BDF82E000D9948843F
:101800009DF8300000280ED1FFE70D98C06A00282F
:1018100008D0FFE70D98C06A05210190084601999C
:101820008847FFE7FFE79DF830000EB080BD00005D
:10183000B0B590B09C4696460C4605460F90ADF864
:101840003A100D92ADF83230BDF832000F99497858
:101850008842CDF828C0CDF824E00894079505DD2E
:10186000FFE70F984078ADF83200FFE700208DF8D1
:1018700031000F99498CADF82E10ADF82C000F985F
:101880004068002809D0FFE70F98416880680690FB
:101890000846069905F042F8FFE70F9800780528FA
:1018A00028DBFFE70F980C30012104F0E5F98DF8F3
:1018B00031009DF83100002804D0FFE702208DF8A8
:1018C000310074E00F980C309DF83B1004F0FEF9E5
:1018D0000F990C310590084604F0BAF98DF83100E3
:1018E0009DF83100002804D0FFE703208DF8310077
:1018F0005DE019E0BDF83A00C0F302200F994A8C70
:1019000002EB400048840F980C30012104F0B4F938
:101910008DF831009DF83100002804D0FFE7022047
:101920008DF8310043E0FFE70F980C309DF83A1036
:1019300004F0CCF90F990C310490084604F088F9B2
:101940008DF831009DF83100002804D0FFE7032016
:101950008DF831002BE00020ADF82C00FFE7BDF83A
:101960002C00BDF83210884220DAFFE70F980C30C7
:101970000D99BDF82C20895C04F0A8F90F990C3161
:101980000390084604F064F98DF831009DF83100A9
:10199000002804D0FFE704208DF8310007E0FFE7BE
:1019A000BDF82C000130ADF82C00D8E7FFE70F9808
:1019B0000C3004F071F9DDF83CE0DEF804E0BEF133
:1019C000000F029009D0FFE70F98416880680190EE
:1019D0000846019904F0F6FFFFE7BDF82E000F99C5
:1019E00048849DF8310000280ED1FFE70F98C06AA7
:1019F000002808D0FFE70F98C06A0521009008462C
:101A000000998847FFE7FFE79DF8310010B0B0BDAF
:101A1000FFE7FEE780B584B00A46034603900291D3
:101A2000039802990192009300F084F804B080BDFD
:101A300080B584B00A460346039002910398029948
:101A40000192009300F0A6F804B080BD80B586B086
:101A500013468C4686468DF81700049103929DF834
:101A600017000499039A0293CDF804C0CDF800E062
:101A700000F0D4F806B080BD80B584B00A460346B5
:101A800003900291039802990192009300F010F9DB
:101A900004B080BD80B500F047F980BD80B500F08E
:101AA00049F980BD80B584B00A460346039002918F
:101AB0000398029901920093FFF7ACFF04B080BD38
:101AC00080B584B00A4603460390029103980299B8
:101AD00001920093FFF7ACFF04B080BD80B586B0E3
:101AE00013468C4686468DF81700049103929DF8A4
:101AF00017000499039A0293CDF804C0CDF800E0D2
:101B0000FFF7A4FF06B080BD80B584B00A46034647
:101B1000039002910398029901920093FFF7ACFFA2
:101B200004B080BD80B5FFF7B5FF80BD80B5FFF77D
:101B3000B5FF80BD86B00A4603460590049100209B
:101B4000ADF80C00029001920093FFE7029804990F
:101B500088421BD2FFE79DF80D000599029A895C27
:101B600048408DF80F00BDF80C009DF80F104CF2A6
:101B70009E42C0F6000232F8111081EA0020ADF852
:101B80000C00FFE7029801300290DFE7BDF80C007F
:101B900006B0704780B584B00A46034603900291B0
:101BA000039802990192009300F002F804B080BDFE
:101BB00080B588B00A46034607900691002005903C
:101BC000049003920293019000F020F80198059090
:101BD000FFE705980699884210D2FFE70798059914
:101BE000405C0490049943F20000C4F2020004F047
:101BF000FDFCFFE7059801300590EAE743F200009D
:101C0000C4F2020004F0FEFC08B080BD80B543F2CF
:101C10000000C4F2020004F007FD80BD80B589B069
:101C200013468C4686468DF82300079106920020C5
:101C30008DF8160004900393CDF808C0CDF804E0A9
:101C4000FFE70498069988422DD2FFE79DF8160019
:101C50000799049A895C48408DF817009DF8230085
:101C600001460728009104D0FFE7009831280AD0E8
:101C700013E09DF817004CF29E61C0F60001085C6D
:101C80008DF816000AE09DF817004CF29E71C0F620
:101C90000001085C8DF8160000E0FFE7FFE70498FC
:101CA00001300490CDE79DF8160009B080BD00001A
:101CB00086B00A46034605900491002003908DF8F3
:101CC0000B00039001920093FFE703980499884268
:101CD0000DD2FFE705980399405C9DF80B1008446E
:101CE0008DF80B00FFE7039801300390EDE79DF8B6
:101CF0000B00C0F580708DF80B009DF80B0006B04E
:101D00007047000080B582B043F20000C4F20200C8
:101D100004F04CFC40F2040EC2F2000E01218EF8D9
:101D20000010019002B080BD40F20400C2F2000039
:101D30000078704780B5FFF7E5FF402004F0F6FA21
:101D400040F20400C2F200004FF0000E80F800E004
:101D500080BD000080B500F00DF880BD80B500F0BA
:101D600017F880BD80B5FFF7F5FF80BD80B5FFF7A0
:101D7000F5FF80BD80B505F01FF8002807D0FFE70C
:101D800005F008F804F0ACFF04F08CFFFFE780BD1D
:101D900080B505F019F8002809D0FFE704F096FF98
:101DA00004F08AFF09F094FE06F0DAFAFFE780BD3E
:101DB00080B587B013468C46864605900491ADF8F1
:101DC0000E200020ADF80C000293CDF804C0CDF831
:101DD00000E0FFE7BDF80C00BDF80E10884214DAF1
:101DE000FFE70598BDF80C10405C049A515C8842EE
:101DF00004D0FFE701208DF81B000AE0FFE7BDF8E3
:101E00000C000130ADF80C00E4E700208DF81B0059
:101E1000FFE79DF81B0007B080BD000080B582B0D1
:101E20000020C4F2020004F069FC002811D0FFE792
:101E30000020C4F20200012104F074FC002808D044
:101E4000FFE742F20040C4F20100FEF7B3FD01904B
:101E5000FFE702B080BD000080B582B040F20040D4
:101E6000C4F2020004F054FC002812D0FFE740F254
:101E70000040C4F20200052104F054FC002808D000
:101E8000FFE743F60040C4F20100FEF793FD019026
:101E9000FFE702B080BD00007047000080B582B04F
:101EA000014601900198009100F060F802B080BDF9
:101EB00080B582B0014601900198009100F064F86D
:101EC00002B080BD80B582B00146019001980091BA
:101ED00000F01EF802B080BD80B584B001460390CA
:101EE00003980028029110D0FFE7FFE70398411EF6
:101EF0000391002808D0FFE74FF47A7000F008F84B
:101F000004F09AF90190F1E7FFE704B080BD00000A
:101F100080B584B00146039003980028029105D053
:101F2000FFE7039806F05EFD0190FFE704B080BD77
:101F300080B582B00146019001980091FFF7AEFF95
:101F400002B080BD80B582B0014601900198009139
:101F5000FFF7AEFF02B080BD80B582B001460190B0
:101F600001980091FFF7AEFF02B080BD82B001463C
:101F700001900091FFE70198411E0191002801D0D6
:101F8000FFE7F8E702B0704780B584B001460390E0
:101F90000398002802910FD0FFE706F0FFFC00280D
:101FA00005D1FFE7039806F0FDFC019003E00398DC
:101FB000FFF792FFFFE7FFE704B080BD80B500F0B8
:101FC00005F880BD80B5FFF7F9FF80BD80B540F210
:101FD000C021C2F200014FF60000C0F607004FF426
:101FE000806200F0A7FD80BD80B500F03FFA80BDA3
:101FF00080B5FFF7F9FF80BDB0B588B09C46964626
:102000000C460546079006918DF817208DF816307E
:1020100007989DF81710405C01460328CDF810C0C2
:10202000CDF80CE002940195009100F25B810099DB
:10203000DFE811F004005B00AE0003019DF816001C
:1020400006999DF8172011F83230184301F8320034
:102050009DF8160006999DF8172001EBC2014A78F9
:1020600022EA000048709DF8160006999DF8172096
:1020700001EBC2018A7822EA000088709DF8160000
:1020800006999DF8172001EBC201CA7822EA0000E8
:10209000C8709DF8160006999DF8172001EBC20143
:1020A0000A79104308719DF8160006999DF81720CB
:1020B00001EBC2014A7922EA000048719DF816003E
:1020C00006999DF8172001EBC2018A7922EA0000E7
:1020D00088719DF8160006999DF8172001EBC20142
:1020E000CA7922EA0000C871FDE09DF81600069941
:1020F0009DF8172011F83230184301F832009DF88E
:10210000160006999DF8172001EBC2014A7810438A
:1021100048709DF8160006999DF8172001EBC20142
:102120008A78104388709DF8160006999DF817204C
:1021300001EBC201CA7822EA0000C8709DF81600BF
:1021400006999DF8172001EBC2010A791043087126
:102150009DF8160006999DF8172001EBC2014A79F7
:10216000104348719DF8160006999DF8172001EB61
:10217000C2018A79104388719DF8160006999DF86E
:10218000172001EBC201CA7922EA0000C871AAE057
:102190009DF8160006999DF8172011F83230184363
:1021A00001F832009DF8160006999DF8172001EB02
:1021B000C2014A7822EA000048709DF8160006998C
:1021C0009DF8172001EBC2018A7822EA000088708E
:1021D0009DF8160006999DF8172001EBC201CA78F8
:1021E00022EA0000C8709DF8160006999DF8172095
:1021F00001EBC2010A79104308719DF81600069997
:102200009DF8172001EBC2014A79104348719DF8EF
:10221000160006999DF8172001EBC2018A79104338
:1022200088719DF8160006999DF8172001EBC201F0
:10223000CA7922EA0000C87155E09DF81600069997
:102240009DF8172011F83230184301F832009DF83C
:10225000160006999DF8172001EBC2014A78104339
:1022600048709DF8160006999DF8172001EBC201F1
:102270008A78104388709DF8160006999DF81720FB
:1022800001EBC201CA7822EA0000C8709DF816006E
:1022900006999DF8172001EBC2010A7910430871D5
:1022A0009DF8160006999DF8172001EBC2014A79A6
:1022B00022EA000048719DF8160006999DF8172043
:1022C00001EBC2018A7922EA000088719DF81600AC
:1022D00006999DF8172001EBC201CA7922EA000095
:1022E000C87100E0FFE708B0B0BD0000B0B588B02D
:1022F0009C4696460C460546079006918DF8172099
:102300008DF8163000208DF81500CDF810C0CDF8EE
:102310000CE002940195FFE79DF815009DF8171059
:1023200088420FDAFFE7079806999DF815209DF877
:102330001630FFF761FEFFE79DF8150001308DF8BC
:102340001500E9E79DF8160006999DF8172011F889
:102350003230184301F832009DF81700C0008DF8A4
:102360001500FFE79DF815007F2814DCFFE79DF8B6
:10237000160006999DF8172001EBC2019DF8152063
:102380008B5C23EA00008854FFE79DF815000130BC
:102390008DF81500E6E708B0B0BD000080B590B03C
:1023A00040F60000C4F2010001210A90099100F0FA
:1023B00019FC0A98099900F015FC0A98099900F08F
:1023C00011FC0A98099900F00DFC00200F900E9066
:1023D0000D900C900B9009990C914FF0020ECDF8D6
:1023E00034E00E900F9040F201100B900DF12C0E86
:1023F0000A9A089010467146CDF81CE004F016FACF
:102400000A9906900846089904F096FA40F20220CC
:102410000B900A9905900846079904F007FA0A9963
:1024200004900846059904F087FA40F204400B90A6
:102430000A9903900846079904F0F8F90A9902905E
:102440000846039904F078FA40F608000B900A99C0
:1024500001900846079904F0E9F90A9900900846A6
:10246000019904F069FA10B080BD000080B54FF00A
:10247000804005F097F8002807D0FFE700F030F91A
:102480004FF0804004F082FDFFE780BD10B585B0BD
:1024900013468C46864604908DF80F108DF80E205A
:1024A0009DF80E0004999DF80F2011F8324024EA9F
:1024B000000001F832009DF80E0004999DF80F20ED
:1024C00001EBC2014A78104348709DF80E00049950
:1024D0009DF80F2001EBC2018A7822EA0000887083
:1024E0009DF80E0004999DF80F2001EBC201CA78F7
:1024F0001043C8709DF80E0004999DF80F2001EB61
:10250000C2010A7922EA000008719DF80E000499C0
:102510009DF80F2001EBC2014A79104348719DF8E4
:102520000E0004999DF80F2001EBC2018A7922EA7E
:10253000000088719DF80E0004999DF80F2001EBB2
:10254000C201CA791043C8710293CDF804C0CDF816
:1025500000E005B010BD000010B585B013468C46F4
:10256000864604908DF80F108DF80E209DF80E0011
:1025700004999DF80F2011F8324024EA000001F878
:1025800032009DF80E0004999DF80F2001EBC20166
:102590004A7822EA000048709DF80E0004999DF8E0
:1025A0000F2001EBC2018A78104388709DF80E005D
:1025B00004999DF80F2001EBC201CA781043C8703E
:1025C0009DF80E0004999DF80F2001EBC2010A79D5
:1025D00022EA000008719DF80E0004999DF80F2072
:1025E00001EBC2014A7922EA000048719DF80E0011
:1025F00004999DF80F2001EBC2018A79104388717C
:102600009DF80E0004999DF80F2001EBC201CA79D4
:102610001043C8710293CDF804C0CDF800E005B0B6
:1026200010BD0000B0B588B09C4696460C460546E5
:102630008DF81F0006918DF817208DF816300020B8
:102640008DF815008DF81500CDF810C0CDF80CE010
:1026500002940195FFE79DF815009DF81710884238
:102660001CDAFFE79DF81F00012808D1FFE7069854
:102670009DF815109DF81620FFF708FF07E0069853
:102680009DF815109DF81620FFF766FFFFE7FFE79E
:102690009DF8150001308DF81500DCE79DF8170056
:1026A000C0008DF81500FFE79DF815007F2814DCA9
:1026B000FFE79DF8160006999DF8172001EBC2016F
:1026C0009DF815208B5C23EA00008854FFE79DF8F5
:1026D000150001308DF81500E6E708B0B0BD000028
:1026E00040F60C00C4F2010001684FF6F072114090
:1026F00040F64042C2F20002138803F1010CA2F836
:1027000000C040F6C02CC2F2000C1CF8033003F0ED
:102710000F03194401601088B0F5C07F07DBFFE7A5
:1027200040F64040C2F2000000210180FFE7704700
:1027300080B58CB04FF080400121069006F058FC27
:1027400000200B900A900990089007900699059038
:10275000084604F02FFC40F2F311099140F2000109
:10276000C2F2000109684DF6836EC4F21B3EA1FB64
:102770000E1E4FF0FF3202EB9E42ADF81C20059A70
:102780000A9208928DF82C200DF11C0E069B0490E5
:1027900018460391714604F05BFE069902900846C4
:1027A00004F09EFC0698059904F01CFF0698059914
:1027B00004F072FF069804F0C3FC05F07BFC059959
:1027C000059A05F0AFFB1C2101900846019A009183
:1027D000114605F013FD009805F038FB069804F04B
:1027E000EBFC069804F0D0FC0CB080BD80B500F086
:1027F00005F880BD80B5FFF7F9FF80BD80B58AB0D0
:1028000000208DF827000890FFF7C8FDFFF790FF24
:1028100041F2B010C2F2000040F6C02EC2F2000E2B
:10282000C0F800E008988DF82700FFE79DF8270022
:1028300002284ADCFFE79DF8270040F20E01C2F2B1
:102840000001162200FB02104078002814D1FFE797
:102850009DF8270040F20E01C2F20001162200FB93
:10286000021041F2B011C2F20001096810F8022B07
:102870000123FFF73BFD1AE09DF8270040F20E010F
:10288000C2F20001162200FB021350435A7841F2B3
:10289000B013C2F200031B68085C012107901046C8
:1028A00006911946079A069BFFF7BCFEFFE741F227
:1028B000B010C2F20000016880310160FFE79DF8AE
:1028C000270001308DF82700B0E741F2B010C2F2C6
:1028D000000040F6C021C2F20001016000208DF826
:1028E0002700FFE79DF8270002284ADCFFE79DF854
:1028F000270040F25001C2F20001162200FB021034
:102900004078002814D1FFE79DF8270040F25001DD
:10291000C2F20001162200FB021041F2B011C2F215
:102920000001096810F8022B0223FFF7DFFC1AE010
:102930009DF8270040F25001C2F20001162200FB70
:10294000021350435A7841F2B013C2F200031B68DD
:10295000085C02210590104604911946059A049BD3
:10296000FFF760FEFFE741F2B010C2F2000001681D
:1029700080310160FFE79DF8270001308DF82700C6
:10298000B0E741F2B010C2F2000040F6C021C2F23E
:102990000001016000208DF82700FFE79DF8270067
:1029A00002284ADCFFE79DF8270040F29201C2F2BC
:1029B0000001162200FB02104078002814D1FFE726
:1029C0009DF8270040F29201C2F20001162200FB9E
:1029D000021041F2B011C2F20001096810F8022B96
:1029E0000423FFF783FC1AE09DF8270040F29201D0
:1029F000C2F20001162200FB021350435A7841F242
:102A0000B013C2F200031B68085C04210390104657
:102A100002911946039A029BFFF704FEFFE741F279
:102A2000B010C2F20000016880310160FFE79DF83C
:102A3000270001308DF82700B0E741F2B010C2F254
:102A4000000040F6C021C2F20001016000208DF8B4
:102A50002700FFE79DF8270002284ADCFFE79DF8E2
:102A6000270040F2D401C2F20001162200FB02103E
:102A70004078002814D1FFE79DF8270040F2D401E8
:102A8000C2F20001162200FB021041F2B011C2F2A4
:102A90000001096810F8022B0823FFF727FC1AE051
:102AA0009DF8270040F2D401C2F20001162200FB7B
:102AB000021350435A7841F2B013C2F200031B686C
:102AC000085C08210190104600911946019A009B6C
:102AD000FFF7A8FDFFE741F2B010C2F20000016865
:102AE00080310160FFE79DF8270001308DF8270055
:102AF000B0E741F2B010C2F2000040F6C021C2F2CD
:102B0000000101600AB080BD80B586B013468C46D6
:102B1000864605900491ADF80E2005980499BDF8FD
:102B20000E200293CDF804C0CDF800E000F018F8B4
:102B300006B080BD80B586B013468C4686460590AB
:102B40000491ADF80E2005980499BDF80E2002936B
:102B5000CDF804C0CDF800E0FFF7D6FF06B080BD89
:102B600080B586B013468C46864605900491ADF834
:102B70000E200020ADF80C000293CDF804C0CDF873
:102B800000E0FFE7BDF80C00BDF80E10884213DA34
:102B9000FFE7059803F00EFEDDF810E0BDF80C101D
:102BA0002EF81100059802300590FFE7BDF80C00E3
:102BB0000130ADF80C00E5E706B080BD80B584B00B
:102BC0000A46034603908DF80B1003989DF80B10EE
:102BD0000192009300F01AF804B080BD80B500F0B7
:102BE000BDF880BD80B584B00A46034603908DF8D9
:102BF0000B1003989DF80B1001920093FFF7DEFF76
:102C000004B080BD80B5FFF7E9FF80BD80B584B01A
:102C10000A46034603908DF80B10039840F6000116
:102C2000C4F201018842019200930ED1FFE79DF8A2
:102C30000B00002804D0FFE7042003F03FFC03E072
:102C4000042003F00BFCFFE785E0039840F6004109
:102C5000C4F2010188420ED1FFE79DF80B00002865
:102C600004D0FFE7082003F029FC03E0082003F06C
:102C7000F5FBFFE76FE0039841F20001C4F20101A8
:102C800088420ED1FFE79DF80B00002804D0FFE733
:102C9000102003F013FC03E0102003F0DFFBFFE73C
:102CA00059E0039841F20041C4F2010188420ED17B
:102CB000FFE79DF80B00002804D0FFE7202003F079
:102CC000FDFB03E0202003F0C9FBFFE743E003988E
:102CD00041F60001C4F2010188420ED1FFE79DF8E0
:102CE0000B00002804D0FFE7402003F0E7FB03E0DF
:102CF000402003F0B3FBFFE72DE0039841F60041CD
:102D0000C4F2010188420ED1FFE79DF80B000028B4
:102D100004D0FFE7802003F0D1FB03E0802003F024
:102D20009DFBFFE717E0039842F20001C4F20101A6
:102D3000884210D1FFE79DF80B00002805D0FFE77F
:102D40004FF4807003F0BAFB04E04FF4807003F09E
:102D500085FBFFE7FFE704B080BD000080B582B0CF
:102D600040F60000C4F2010001210191FFF74EFF7F
:102D700040F60040C4F201000199FFF747FF41F21D
:102D80000000C4F201000199FFF740FF41F200404A
:102D9000C4F201000199FFF739FF41F60000C4F2C7
:102DA00001000199FFF732FF41F60040C4F2010033
:102DB0000199FFF72BFF42F20000C4F201000199D4
:102DC000FFF724FF019803F079FB03F017FD03F0F0
:102DD00021FD02B080BD000040F24C10C2F20000A4
:102DE000007841F2B451C2F200010A681044086050
:102DF0007047000080B584B00A46034603908DF802
:102E00000B1003989DF80B100192009302F0AEF89E
:102E100004B080BD80B502F0CBF880BD80B582B033
:102E200001468DF807009DF80700009102F0C4F8F4
:102E300002B080BD80B582B001468DF807009DF8D4
:102E40000700009102F0F8F802B080BD80B582B0B2
:102E500001468DF807009DF80700009102F02CF95B
:102E600002B080BD80B584B00A4603468DF80F00DD
:102E70008DF80E109DF80F009DF80E100292019330
:102E800002F07CF904B080BD80B584B00A460346E8
:102E90008DF80F00ADF80C109DF80F00BDF80C1068
:102EA0000292019302F0A2FB04B080BD80B584B011
:102EB0000A4603468DF80F008DF80E109DF80F009E
:102EC0009DF80E100292019302F0D4FB04B080BD75
:102ED00080B584B00A4603468DF80F008DF80E10B9
:102EE0009DF80F009DF80E100292019302F08CFCE9
:102EF00004B080BD80B5ADF5527D00208DF847034C
:102F0000ADF84403ADF84203ADF8400340F2301091
:102F1000C2F2000001681022D1AB4FF0020CCF903A
:102F2000084611461A46CE936346CDF834C3FDF7E2
:102F300033FECF990A6830210DF24233CC9010460F
:102F40001A46DDF834C3CB936346FDF725FECE99D0
:102F5000CA900846CB99CD9AFEF72AFF002827D0C1
:102F6000FFE740F23010C2F2000001685022D1ABFE
:102F70004FF0020CC990084611461A46C8936346A2
:102F8000CDF81CC3FDF708FEC9990A681021C69048
:102F90001046C89AC79BFDF71BFEC9990A683021E5
:102FA000C5901046C89AC79BFDF712FEC490FFE774
:102FB0009DF84403FF2813D0FFE79DF84403ADF8C4
:102FC0004003BDF840039DF8451341EA0020ADF8E9
:102FD0004003BDF84013012000F0FCFEC390FFE762
:102FE00040F23010C2F2000001681222D1AB4FF063
:102FF000020CC290084611461A46C1936346CDF8AA
:1030000000C3FDF7C9FDC2990A6832210DF24233AF
:10301000BF9010461A46DDF800C3BE936346FDF725
:10302000BBFDC199BD900846BE99C09AFEF7C0FE8F
:10303000002827D0FFE740F23010C2F200000168FC
:103040005222D1AB4FF0020CBC90084611461A46F2
:10305000BB936346CDF8E8C2FDF79EFDBC990A68B4
:103060001221B9901046BB9ABA9BFDF7B1FDBC99ED
:103070000A683221B8901046BB9ABA9BFDF7A8FDAA
:10308000B790FFE79DF84403FF2813D0FFE79DF8B2
:103090004403ADF84003BDF840039DF8451341EAF1
:1030A0000020ADF84003BDF84013022000F092FE6E
:1030B000B690FFE740F23010C2F20000016814221F
:1030C000D1AB4FF0020CB590084611461A46B493A6
:1030D0006346CDF8CCC2FDF75FFDB5990A6834218F
:1030E0000DF24233B29010461A46DDF8CCC2B193CD
:1030F0006346FDF751FDB499B0900846B199B39A73
:10310000FEF756FE002827D0FFE740F23010C2F24B
:10311000000001685422D1AB4FF0020CAF9008467A
:1031200011461A46AE936346CDF8B4C2FDF734FD9E
:10313000AF990A681421AC901046AE9AAD9BFDF78A
:1031400047FDAF990A683421AB901046AE9AAD9B0B
:10315000FDF73EFDAA90FFE79DF84403FF2813D03A
:10316000FFE79DF84403ADF84003BDF840039DF828
:10317000451341EA0020ADF84003BDF84013032099
:1031800000F028FEA990FFE740F23010C2F20000E4
:1031900001681622D1AB4FF0020CA89008461146E8
:1031A0001A46A7936346CDF898C2FDF7F5FCA89997
:1031B0000A6836210DF24233A59010461A46DDF812
:1031C00098C2A4936346FDF7E7FCA799A39008462D
:1031D000A499A69AFEF7ECFD002827D0FFE740F25D
:1031E0003010C2F2000001685622D1AB4FF0020C41
:1031F000A290084611461A46A1936346CDF880C2B4
:10320000FDF7CAFCA2990A6816219F901046A19A60
:10321000A09BFDF7DDFCA2990A6836219E9010461E
:10322000A19AA09BFDF7D4FC9D90FFE79DF8440375
:10323000FF2813D0FFE79DF84403ADF84003BDF825
:1032400040039DF8451341EA0020ADF84003BDF866
:103250004013042000F0BEFD9C90FFE740F23010C8
:10326000C2F2000001681822D1AB4FF0020C9B9013
:10327000084611461A469A936346CDF864C2FDF794
:103280008BFC9B990A6838210DF2423398901046C6
:103290001A46DDF864C297936346FDF77DFC9A9960
:1032A000969008469799999AFEF782FD002827D0B4
:1032B000FFE740F23010C2F2000001685822D1ABA3
:1032C0004FF0020C9590084611461A4694936346B7
:1032D000CDF84CC2FDF760FC95990A6818219290D0
:1032E0001046949A939BFDF773FC95990A683821D0
:1032F00091901046949A939BFDF76AFC9090FFE79B
:103300009DF84403FF2813D0FFE79DF84403ADF870
:103310004003BDF840039DF8451341EA0020ADF895
:1033200040039DF84013012000F066FD8F90FFE7F9
:1033300040F23010C2F2000001681A22D1AB4FF007
:10334000020C8E90084611461A468D936346CDF8BE
:1033500030C2FDF721FC8E990A683A210DF2423302
:103360008B9010461A46DDF830C28A936346FDF70B
:1033700013FC8D99899008468A998C9AFEF718FD5E
:10338000002827D0FFE740F23010C2F200000168A9
:103390005A22D1AB4FF0020C8890084611461A46CB
:1033A00087936346CDF818C2FDF7F6FB88990A6843
:1033B0001A2185901046879A869BFDF709FC88990B
:1033C0000A683A2184901046879A869BFDF700FC94
:1033D0008390FFE79DF84403FF2813D0FFE79DF893
:1033E0004403ADF84003BDF840039DF8451341EA9E
:1033F0000020ADF840039DF84013022000F0FCFCD3
:103400008290FFE740F23010C2F2000001681C22F7
:10341000D1AB4FF0020C8190084611461A468093BA
:103420006346CDF8FCC1FDF7B7FB81990A683C21E2
:103430000DF242337E9010461A46DDF8FCC17D93B2
:103440006346FDF7A9FB80997C9008467D997F9A99
:10345000FEF7AEFC002827D0FFE740F23010C2F2A2
:10346000000001685C22D1AB4FF0020C7B90084653
:1034700011461A467A936346CDF8E4C1FDF78CFBFA
:103480007B990A681C21789010467A9A799BFDF7FF
:103490009FFB7B990A683C21779010467A9A799B2A
:1034A000FDF796FB7690FFE79DF84403FF2813D0C5
:1034B000FFE79DF84403ADF84003BDF840039DF8D5
:1034C000451341EA0020ADF840039DF84013032066
:1034D00000F092FC7590FFE740F23010C2F200005D
:1034E00001681E22D1AB4FF0020C749008461146C1
:1034F0001A4673936346CDF8C8C1FDF74DFB749926
:103500000A683E210DF24233719010461A46DDF8EA
:10351000C8C170936346FDF73FFB73996F900846EF
:103520007099729AFEF744FC002827D0FFE740F21A
:103530003010C2F2000001685E22D1AB4FF0020CE5
:103540006E90084611461A466D936346CDF8B0C199
:10355000FDF722FB6E990A681E216B9010466D9A4A
:103560006C9BFDF735FB6E990A683E216A90104608
:103570006D9A6C9BFDF72CFB6990FFE79DF8440367
:10358000FF2813D0FFE79DF84403ADF84003BDF8D2
:1035900040039DF8451341EA0020ADF840039DF833
:1035A0004013042000F028FC6890FFE740F2301040
:1035B000C2F2000001682022D1AB4FF0020C6790EC
:1035C000084611461A4666936346CDF894C1FDF746
:1035D000E3FA67990A6840210DF24233649010467D
:1035E0001A46DDF894C163936346FDF7D5FA6699F0
:1035F000629008466399659AFEF7DAFB002827D0A7
:10360000FFE740F23010C2F2000001686022D1AB47
:103610004FF0020C6190084611461A4660936346CB
:10362000CDF87CC1FDF7B8FA61990A6820215E9057
:103630001046609A5F9BFDF7CBFA61990A684021BA
:103640005D901046609A5F9BFDF7C2FA5C90FFE7C1
:103650009DF84403FF2813D0FFE79DF84403ADF81D
:103660004003BDF840039DF8451341EA0020ADF842
:1036700040039DF84013012000F0D0FB5B90FFE772
:1036800040F23010C2F2000001682222D1AB4FF0AC
:10369000020C5A90084611461A4659936346CDF8D3
:1036A00060C1FDF779FA5A990A6842210DF2423356
:1036B000579010461A46DDF860C156936346FDF7F1
:1036C0006BFA5999559008465699589AFEF770FB2F
:1036D000002827D0FFE740F23010C2F20000016856
:1036E0006222D1AB4FF0020C5490084611461A46A4
:1036F00053936346CDF848C1FDF74EFA54990A68D2
:10370000222151901046539A529BFDF761FA549929
:103710000A68422150901046539A529BFDF758FA7E
:103720004F90FFE79DF84403FF2813D0FFE79DF873
:103730004403ADF84003BDF840039DF8451341EA4A
:103740000020ADF840039DF84013022000F066FB16
:103750004E90FFE740F23010C2F2000001682422D0
:10376000D1AB4FF0020C4D90084611461A464C93CF
:103770006346CDF82CC1FDF70FFA4D990A68442134
:103780000DF242334A9010461A46DDF82CC1499397
:103790006346FDF701FA4C994890084649994B9ABF
:1037A000FEF706FB002827D0FFE740F23010C2F2F8
:1037B000000001686422D1AB4FF0020C479008462C
:1037C00011461A4646936346CDF814C1FDF7E4F955
:1037D00047990A68242144901046469A459BFDF774
:1037E000F7F947990A68442143901046469A459B49
:1037F000FDF7EEF94290FFE79DF84403FF2813D050
:10380000FFE79DF84403ADF84003BDF840039DF881
:10381000451341EA0020ADF840039DF84013032012
:1038200000F0FCFA4190FFE740F23010C2F20000D5
:1038300001682622D1AB4FF0020C40900846114699
:103840001A463F936346CDF8F8C0FDF7A5F94099B5
:103850000A6846210DF242333D9010461A46DDF8C3
:10386000F8C03C936346FDF797F93F993B900846B3
:103870003C993E9AFEF79CFA002827D0FFE740F2D9
:103880003010C2F2000001686622D1AB4FF0020C8A
:103890003A90084611461A4639936346CDF8E0C07F
:1038A000FDF77AF93A990A68262137901046399A35
:1038B000389BFDF78DF93A990A68462136901046F3
:1038C000399A389BFDF784F93590FFE79DF844035A
:1038D000FF2813D0FFE79DF84403ADF84003BDF87F
:1038E00040039DF8451341EA0020ADF840039DF8E0
:1038F0004013042000F092FA3490FFE740F23010B9
:10390000C2F2000001682822D1AB4FF0020C3390C4
:10391000084611461A4632936346CDF8C4C0FDF7F7
:103920003BF933990A6848210DF242333090104632
:103930001A46DDF8C4C02F936346FDF72DF932997E
:103940002E9008462F99319AFEF732FA002827D098
:10395000FFE740F23010C2F2000001686822D1ABEC
:103960004FF0020C2D90084611461A462C936346E0
:10397000CDF8ACC0FDF710F92D990A6828212A90DE
:1039800010462C9A2B9BFDF723F92D990A684821A4
:10399000299010462C9A2B9BFDF71AF92890FFE7E7
:1039A0009DF84403FF2813D0FFE79DF84403ADF8CA
:1039B0004003BDF840039DF8451341EA0020ADF8EF
:1039C00040039DF84013052000F028FA2790FFE7F8
:1039D00040F23010C2F2000001682A22D1AB4FF051
:1039E000020C2690084611461A4625936346CDF8E8
:1039F00090C0FDF7D1F826990A684A210DF24233AA
:103A0000239010461A46DDF890C022936346FDF7D6
:103A1000C3F82599219008462299249AFEF7C8F9FF
:103A2000002827D0FFE740F23010C2F20000016802
:103A30006A22D1AB4FF0020C2090084611461A467C
:103A40001F936346CDF878C0FDF7A6F820990A6861
:103A50002A211D9010461F9A1E9BFDF7B9F8209948
:103A60000A684A211C9010461F9A1E9BFDF7B0F869
:103A70001B90FFE79DF84403FF2813D0FFE79DF854
:103A80004403ADF84003BDF840039DF8451341EAF7
:103A90000020ADF840039DF84013062000F0BEF969
:103AA0001A90FFE740F23010C2F2000001682C22A9
:103AB000D1AB4FF0020C1990084611461A461893E4
:103AC0006346CDF85CC0FDF767F819990A684C2188
:103AD0000DF24233169010461A46DDF85CC015937D
:103AE0006346FDF759F81899149008461599179AE6
:103AF000FEF75EF9002827D0FFE740F23010C2F24F
:103B0000000001686C22D1AB4FF0020C1390084604
:103B100011461A4612936346CDF844C0FDF73CF8AF
:103B200013990A682C2110901046129A119BFDF7E8
:103B30004FF813990A684C210F901046129A119B66
:103B4000FDF746F80E90FFE79DF84403FF2813D0D9
:103B5000FFE79DF84403ADF84003BDF840039DF82E
:103B6000451341EA0020ADF840039DF840130720BB
:103B700000F054F90D90FFE740F23010C2F200005F
:103B800001682E22D1AB4FF0020C0C900846114672
:103B90001A460B936346CDF828C0FCF7FDFF0C993D
:103BA0000A684E210DF24233099010461A46DDF89C
:103BB00028C008936346FCF7EFFF0B99079008466F
:103BC00008990A9AFEF7F4F8002827D0FFE740F298
:103BD0003010C2F2000001686E22D1AB4FF0020C2F
:103BE0000690084611461A4605936346CDF810C064
:103BF000FCF7D2FF06990A682E2103901046059A19
:103C0000049BFCF7E5FF06990A684E2102901046D6
:103C1000059A049BFCF7DCFF0190FFE79DF8440345
:103C2000FF2813D0FFE79DF84403ADF84003BDF82B
:103C300040039DF8451341EA0020ADF840039DF88C
:103C40004013082000F0EAF80090FFE79DF84703D2
:103C50000DF5527D80BD000080B584B00A46034654
:103C6000ADF80E00ADF80C100020ADF80A008DF88C
:103C700009009DF80D008DF80A00BDF80C008DF8C4
:103C80000B0040F23010C2F200000068BDF80E10C8
:103C90000DF10A0C4FF0020E01926246009373463A
:103CA000FCF796FF8DF809009DF80900002806D062
:103CB000FFE79DF8090001308DF80900FFE740F2A9
:103CC0003010C2F200000068BDF80E10203189B239
:103CD0000DF10A020223FCF77BFF8DF809009DF825
:103CE0000900002806D0FFE79DF8090001308DF893
:103CF0000900FFE740F23010C2F200000068BDF892
:103D00000E10403189B20DF10A020223FCF760FF68
:103D10008DF809009DF80900002806D0FFE79DF8FE
:103D2000090001308DF80900FFE79DF8090004B093
:103D300080BD000080B584B00A46034603908DF82C
:103D40000B1003989DF80B1001920093FFF752F8A7
:103D500004B080BD80B582B0FFF75CF8FFF7CAF809
:103D6000019002B080BD000080B582B001468DF8A0
:103D700007009DF807000091FFF750F802B080BDE2
:103D800080B582B001468DF807009DF807000091CC
:103D9000FFF750F802B080BD80B582B001468DF8C3
:103DA00007009DF807000091FFF750F802B080BDB2
:103DB00080B584B00A4603468DF80F008DF80E10CA
:103DC0009DF80F009DF80E1002920193FFF74AF83C
:103DD00004B080BD80B584B00A4603468DF80F005C
:103DE000ADF80C109DF80F00BDF80C100292019375
:103DF000FFF74AF804B080BD80B584B00A46034698
:103E00008DF80F008DF80E109DF80F009DF80E1024
:103E100002920193FFF74AF804B080BD80B584B0E8
:103E20000A4603468DF80F008DF80E109DF80F001E
:103E30009DF80E1002920193FFF74AF804B080BD7E
:103E400080B5ADF51E7D01469D9000208DF8730272
:103E5000ADF870029D98826D4079105CA0289B910E
:103E600040F0A785FFE79D9805F0D8FDDDF874E2E6
:103E7000A0219A90704605F0C1FD9D99D1F858E0B7
:103E800089791EF8011001398E4621299990CDF8C3
:103E900060E200F284859899DFE811F022004A0080
:103EA0007F00A700DC000401390161019501BC011C
:103EB000E3010A02310258027F02A602CD02F40297
:103EC0001B03420369039003B703DE0305042C04BC
:103ED00053047A04A104C804EF0416053D056605E1
:103EE0000120FFF741FFADF870029D98D0F858E02F
:103EF00081791EF8011005F081FD9D994FF0000EAB
:103F000097900846714605F079FD9D999DF871E2FC
:103F100096900846714605F071FD9D999DF870E2F6
:103F200095900846714605F069FD949000F03BBD00
:103F30009D98816DC079085CADF87002BDF8700283
:103F40009D998A6DC9791144497841EA0020ADF8FC
:103F50007002BDF8701201209390FFF73BFF8DF8BF
:103F600073029D98816D8279895C05F047FD9D996A
:103F70009DF8732292900846114605F03FFD9399F3
:103F800091900846FFF7F0FE102190900846909916
:103F9000FFF762FE8F9000F006BD0220FFF7E4FEFF
:103FA000ADF870029D98D0F858E081791EF80110A4
:103FB00005F024FD9D994FF0000E8E900846714645
:103FC00005F01CFD9D999DF871E28D9008467146A3
:103FD00005F014FD9D999DF870E28C90084671469D
:103FE00005F00CFD8B9000F0DEBC9D98816DC079D2
:103FF000085CADF87002BDF870029D998A6DC979B0
:104000001144497841EA0020ADF87002BDF8701201
:1040100002208A90FFF7DEFE8DF873029D98816D75
:104020008279895C05F0EAFC9D999DF8732289905C
:104030000846114605F0E2FC8A9988900846FFF789
:1040400093FE1221879008468799FFF705FE869018
:1040500000F0A9BC0320FFF787FEADF870029D9821
:10406000D0F858E081791EF8011005F0C7FC9D9941
:104070004FF0000E85900846714605F0BFFC9D99F3
:104080009DF871E284900846714605F0B7FC9D9951
:104090009DF870E283900846714605F0AFFC82906F
:1040A00000F081BC9D98816DC079085CADF870020C
:1040B000BDF870029D998A6DC9791144497841EA29
:1040C0000020ADF87002BDF8701203208190FFF758
:1040D00081FE8DF873029D98816D8279895C05F06F
:1040E0008DFC9D999DF8732280900846114605F03D
:1040F00085FC81997F900846FFF736FE14217E905B
:1041000008467E99FFF7A8FD7D9000F04CBC042086
:10411000FFF72AFEADF870029D98D0F858E081793B
:104120001EF8011005F06AFC9D994FF0000E7C907E
:104130000846714605F062FC9D999DF871E27B90FE
:104140000846714605F05AFC9D999DF870E27A90F8
:104150000846714605F052FC799000F024BC9D9809
:10416000816DC079085CADF87002BDF870029D9950
:104170008A6DC9791144497841EA0020ADF870028E
:10418000BDF8701204207890FFF724FE8DF87302BA
:104190009D98816D8279895C05F030FC9D999DF830
:1041A000732277900846114605F028FC789976909E
:1041B0000846FFF7D9FD1621759008467599FFF757
:1041C0004BFD7490EFE30120FFF7DAFDADF87002CC
:1041D0009D98D0F858E081791EF8011005F00EFC8A
:1041E0009D994FF0000E73900846714605F006FC4D
:1041F0009D999DF871E272900846714605F0FEFBAC
:104200009D999DF870E271900846714605F0F6FBA5
:104210007090C8E39D98816DC079095C01206F9012
:1042200001F028FA8DF873029D98816D90F806E0F0
:1042300011F80E1005F0E2FB9D999DF873E26E9067
:104240000846714605F0DAFB6F996D900846FFF756
:1042500097FD18216C9008466C99FFF7FDFC6B9058
:10426000A1E30220FFF78CFDADF870029D98D0F815
:1042700058E081791EF8011005F0C0FB9D994FF0C0
:10428000000E6A900846714605F0B8FB9D999DF8AE
:1042900071E269900846714605F0B0FB9D999DF862
:1042A00070E268900846714605F0A8FB67907AE3D3
:1042B0009D98816DC079095C02206690FFF79CFD96
:1042C0008DF873029D98816D90F806E011F80E103C
:1042D00005F094FB9D999DF873E265900846714640
:1042E00005F08CFB669964900846FFF749FD1A219A
:1042F000639008466399FFF7AFFC629053E3032095
:10430000FFF73EFDADF870029D98D0F858E0817936
:104310001EF8011005F072FB9D994FF0000E6190A0
:104320000846714605F06AFB9D999DF871E2609020
:104330000846714605F062FB9D999DF870E25F901A
:104340000846714605F05AFB5E902CE39D98816DFE
:10435000C079095C03205D90FFF74EFD8DF8730274
:104360009D98816D90F806E011F80E1005F046FB5F
:104370009D999DF873E25C900846714605F03EFBFE
:104380005D995B900846FFF7FBFC1C215A9008469C
:104390005A99FFF761FC599005E30420FFF7F0FC00
:1043A000ADF870029D98D0F858E081791EF80110A0
:1043B00005F024FB9D994FF0000E58900846714679
:1043C00005F01CFB9D999DF871E2579008467146D7
:1043D00005F014FB9D999DF870E2569008467146D1
:1043E00005F00CFB5590DEE29D98816DC079095C6B
:1043F00004205490FFF700FD8DF873029D98816DA5
:1044000090F806E011F80E1005F0F8FA9D999DF865
:1044100073E253900846714605F0F0FA54995290B1
:104420000846FFF7ADFC1E21519008465199FFF751
:1044300013FC5090B7E20120FFF7AEFCADF870021C
:104440009D98D0F858E081791EF8011005F0D6FA51
:104450009D994FF0000E4F900846714605F0CEFA38
:104460009D999DF871E24E900846714605F0C6FA96
:104470009D999DF870E24D900846714605F0BEFA90
:104480004C9090E29D98816DC079095C01204B9021
:10449000FFF7C4FC8DF873029D98816D90F806E0DB
:1044A00011F80E1005F0AAFA9D999DF873E24A9052
:1044B0000846714605F0A2FA4B9949900846FFF765
:1044C0006BFC2021489008464899FFF7C5FB4790B0
:1044D00069E20220FFF760FCADF870029D98D0F809
:1044E00058E081791EF8011005F088FA9D994FF087
:1044F000000E46900846714605F080FA9D999DF899
:1045000071E245900846714605F078FA9D999DF84C
:1045100070E244900846714605F070FA439042E21A
:104520009D98816DC079095C02204290FFF776FC6E
:104530008DF873029D98816D90F806E011F80E10C9
:1045400005F05CFA9D999DF873E24190084671462A
:1045500005F054FA429940900846FFF71DFC2221CD
:104560003F9008463F99FFF777FB3E901BE2032000
:10457000FFF712FCADF870029D98D0F858E08179F1
:104580001EF8011005F03AFA9D994FF0000E3D908B
:104590000846714605F032FA9D999DF871E23C900B
:1045A0000846714605F02AFA9D999DF870E23B9005
:1045B0000846714605F022FA3A90F4E19D98816D23
:1045C000C079095C03203990FFF728FC8DF873024D
:1045D0009D98816D90F806E011F80E1005F00EFA26
:1045E0009D999DF873E238900846714605F006FAE9
:1045F000399937900846FFF7CFFB242136900846BB
:104600003699FFF729FB3590CDE10420FFF7C4FB75
:10461000ADF870029D98D0F858E081791EF801102D
:1046200005F0ECF99D994FF0000E34900846714664
:1046300005F0E4F99D999DF871E2339008467146C2
:1046400005F0DCF99D999DF870E2329008467146BC
:1046500005F0D4F93190A6E19D98816DC079095C8F
:1046600004203090FFF7DAFB8DF873029D98816D7E
:1046700090F806E011F80E1005F0C0F99D999DF82C
:1046800073E22F900846714605F0B8F930992E90E4
:104690000846FFF781FB26212D9008462D99FFF74C
:1046A000DBFA2C907FE10520FFF776FBADF8700276
:1046B0009D98D0F858E081791EF8011005F09EF918
:1046C0009D994FF0000E2B900846714605F096F923
:1046D0009D999DF871E22A900846714605F08EF981
:1046E0009D999DF870E229900846714605F086F97B
:1046F000289058E19D98816DC079095C052027902C
:10470000FFF78CFB8DF873029D98816D90F806E0A1
:1047100011F80E1005F072F99D999DF873E226903C
:104720000846714605F06AF9279925900846FFF773
:1047300033FB2821249008462499FFF78DFA239013
:1047400031E10620FFF728FBADF870029D98D0F804
:1047500058E081791EF8011005F050F99D994FF04D
:10476000000E22900846714605F048F99D999DF883
:1047700071E221900846714605F040F99D999DF837
:1047800070E220900846714605F038F91F900AE162
:104790009D98816DC079095C06201E90FFF73EFB55
:1047A0008DF873029D98816D90F806E011F80E1057
:1047B00005F024F99D999DF873E21D900846714615
:1047C00005F01CF91E991C900846FFF7E5FA2A210E
:1047D0001B9008461B99FFF73FFA1A90E3E0072069
:1047E000FFF7DAFAADF870029D98D0F858E08179B9
:1047F0001EF8011005F002F99D994FF0000E199076
:104800000846714605F0FAF89D999DF871E21890F6
:104810000846714605F0F2F89D999DF870E21790F0
:104820000846714605F0EAF81690BCE09D98816D47
:10483000C079095C07201590FFF7F0FA8DF8730234
:104840009D98816D90F806E011F80E1005F0D6F8ED
:104850009D999DF873E214900846714605F0CEF8D4
:10486000159913900846FFF797FA2C2112900846E5
:104870001299FFF7F1F9119095E00820FFF78CFAF3
:10488000ADF870029D98D0F858E081791EF80110BB
:1048900005F0B4F89D994FF0000E1090084671464F
:1048A00005F0ACF89D999DF871E20F9008467146AD
:1048B00005F0A4F89D999DF870E20E9008467146A7
:1048C00005F09CF80D906EE09D98816DC079095CB3
:1048D00008200C90FFF7A2FA8DF873029D98816D65
:1048E00090F806E011F80E1005F088F89D999DF8F3
:1048F00073E20B900846714605F080F80C990A9017
:104900000846FFF749FA2E21099008460999FFF752
:10491000A3F9089047E09D98816DC0790A18085C5A
:104920005178FFF745FAADF870029D98816D827954
:10493000895C05F063F89D990022079008461146AE
:1049400005F05CF89D999DF8712206900846114685
:1049500005F054F89D999DF870220590084611467F
:1049600005F04CF804901EE09D98816DC079095CBB
:104970002220FFF753FA8DF873029D98816D90F80D
:1049800006E011F80E1005F039F89D999DF873E2D4
:1049900003900846714605F031F8029003E00220CA
:1049A0008DF87302FFE79D98012105F041F8019011
:1049B00003E001208DF87302FFE79DF873020DF507
:1049C0001E7D80BD80B584B00146039000208DF827
:1049D0000B000398002801912ED0FFE7039805F003
:1049E00037F8012822D1FFE7039804F0F3FF0028ED
:1049F0000CD1FFE7039804F0F7FF002806D1FFE78A
:104A00000398FFF71DFA8DF80B0009E00398017871
:104A10004A1E4CF6CB01C0F6000106F02FF8FFE766
:104A2000039805F093F88DF80B000AE0039805F061
:104A300097F88DF80B0003E002208DF80B00FFE7DC
:104A4000FFE79DF80B0004B080BD000080B582B088
:104A500001468DF807009DF80700C0070028009167
:104A60000DD0FFE741F20000C4F201001021C0F2B6
:104A7000104101F0B5FF0520FDF75AFA0CE041F2B4
:104A80000000C4F201001021C0F2104101F062FFE9
:104A90000520FDF74DFAFFE79DF807008007002885
:104AA0000DD5FFE741F20000C4F201000821C0F279
:104AB000084101F095FF0520FDF73AFA0CE041F2BC
:104AC0000000C4F201000821C0F2084101F042FFD9
:104AD0000520FDF72DFAFFE79DF8070040070028A5
:104AE0000DD5FFE741F20000C4F201000421C0F23D
:104AF000044101F075FF0520FDF71AFA0CE041F2C0
:104B00000000C4F201000421C0F2044101F022FFC0
:104B10000520FDF70DFAFFE79DF8070000070028C4
:104B20000DD5FFE741F20000C4F201000221C0F2FE
:104B3000024101F055FF0520FDF7FAF90CE041F2C2
:104B40000000C4F201000221C0F2024101F002FFA4
:104B50000520FDF7EDF9FFE79DF80700C0060028E6
:104B60000DD5FFE741F20000C4F201000121C0F2BF
:104B7000014101F035FF0520FDF7DAF90CE041F2C3
:104B80000000C4F201000121C0F2014101F0E2FE87
:104B90000520FDF7CDF9FFE79DF807008006002806
:104BA0000CD5FFE741F20000C4F2010048F2800199
:104BB00001F016FF0520FDF7BBF90BE041F2000004
:104BC000C4F2010048F2800101F0C4FE0520FDF7A7
:104BD000AFF9FFE702B080BD80B5AAB041F2000096
:104BE000C4F20100012124902391FDF7FBFF2498DA
:104BF0002399FDF7F7FF24982399FDF7F3FF2498F5
:104C00002399FDF7EFFF24982399FDF7EBFF2498F4
:104C10002399FDF7E7FF40F60040C4F2010022901F
:104C20002399FDF7DFFF22982399FDF7DBFF2498F6
:104C30002399FDF7D7FF40F60000C4F20100219050
:104C40002399FDF7CFFF22982399FDF7CBFF2298F8
:104C50002399FDF7C7FF21982399FDF7C3FF2198FA
:104C60002399FDF7BFFF21982399FDF7BBFF2198FA
:104C70002399FDF7B7FF21982399FDF7B3FF2198FA
:104C80002399FDF7AFFF00202990289027902690C8
:104C90002590239926914FF0030ECDF89CE04FF01C
:104CA000040ECDF8A0E0299148F2800ECDF894E0F2
:104CB00025AA249B2090184611461F92CDF878E033
:104CC00001F0B4FD24991D9008461E9901F088FE5C
:104CD0000120C0F20140259024991C9008461F999C
:104CE00001F0A4FD24991B9008461C9901F078FE60
:104CF0000220C0F20240259024991A9008461F997C
:104D000001F094FD2499199008461A9901F068FE63
:104D10000420C0F2044025902499189008461F9959
:104D200001F084FD249917900846189901F058FE67
:104D30000820C0F2084025902499169008461F9933
:104D400001F074FD249915900846169901F048FE6B
:104D50001020C0F2104025902499149008461F9905
:104D600001F064FD249913900846149901F038FE6F
:104D700020982890299040F60801259122981F9AA2
:104D80001291114601F052FD229911900846129994
:104D900001F026FE41F2100025902299109008465D
:104DA0001F9901F043FD22990F900846109901F0D8
:104DB00017FE1098259024981F9901F037FD24992B
:104DC0000E900846109901F00BFE1098259021983E
:104DD0001F9901F02BFD21990D900846109901F0C3
:104DE000FFFD1C98259022981F9901F01FFD229924
:104DF0000C9008461C9901F0F3FD1A982590229812
:104E00001F9901F013FD22990B9008461A9901F0A1
:104E1000E7FD8020C0F28040259021990A90084645
:104E20001F9901F003FD2199099008460A9901F0A4
:104E3000D7FD1498259021981F9901F0F7FC21992E
:104E400008900846149901F0CBFD169825902198FA
:104E50001F9901F0EBFC219907900846169901F083
:104E6000BFFD1E98259021981F9901F0DFFC219924
:104E7000069008461E9901F0B3FD44F240002590CB
:104E80002199059008461F9901F0D0FC21990490C2
:104E90000846059901F0A4FD42F2200025902199D1
:104EA000039008461F9901F0C1FC21990290084621
:104EB000039901F095FD0A20FDF74EF8229812990A
:104EC00001F048FD05200190FDF732F82298109975
:104ED00001F040FD0198FDF72BF82498109901F09E
:104EE00039FD0198FDF724F82198109901F032FD61
:104EF0000198FDF71DF822981C9901F02BFD0198EF
:104F0000FDF716F822981A9901F024FD0198FDF793
:104F10000FF821980A9901F01DFD0198FDF708F896
:104F20002198149901F016FD0198FDF701F82198D8
:104F3000169901F00FFD0198FCF7FAFF21981E99D0
:104F400001F008FD0198FCF7F3FF2198059901F0A5
:104F500001FD0198FCF7ECFF2198039901F0FAFCA0
:104F60000198FCF7E5FF2AB080BD000080B586B04F
:104F70000A46034605908DF8131000208DF81200A4
:104F80009DF813000528039202930CD3FFE70598C0
:104F90004CF6C501C0F6000106F0C0FD05218DF8F4
:104FA00012100190FFE79DF8120006B080BD0000CE
:104FB00080B5FFF711FE80BD83B001468DF80B0070
:104FC0000020ADF808009DF80B000246042801916E
:104FD000009229D80099DFE801F003070F171F009E
:104FE0000020ADF8080023E040F20600C2F2000005
:104FF0000088ADF808001BE040F20800C2F2000093
:105000000088ADF8080013E040F20A00C2F2000088
:105010000088ADF808000BE040F20C00C2F200007E
:105020000088ADF8080003E00020ADF80800FFE7B5
:10503000BDF8080003B0704783B001468DF80B003F
:105040000020ADF808009DF80B00024604280191ED
:10505000009229D80099DFE801F003070F171F001D
:105060000020ADF8080023E040F64440C2F2000002
:105070000088ADF808001BE040F64840C2F200008E
:105080000088ADF8080013E040F64C40C2F2000082
:105090000088ADF808000BE040F65040C2F2000076
:1050A0000088ADF8080003E00020ADF80800FFE735
:1050B000BDF8080003B0704783B001468DF80B00BF
:1050C0000020ADF808009DF80B0002460828019169
:1050D00000924BD80099DFE801F005091119212948
:1050E000313941000020ADF8080043E040F654405B
:1050F000C2F200000088ADF808003BE040F65840DE
:10510000C2F200000088ADF8080033E040F65C40D1
:10511000C2F200000088ADF808002BE040F66040C5
:10512000C2F200000088ADF8080023E040F66440B9
:10513000C2F200000088ADF808001BE040F66840AD
:10514000C2F200000088ADF8080013E040F66C40A1
:10515000C2F200000088ADF808000BE040F6704095
:10516000C2F200000088ADF8080003E00020ADF8AE
:105170000800FFE7BDF8080003B0704785B00A4695
:1051800003468DF813008DF812100020ADF81000C2
:105190009DF813000146042803920293019151D80F
:1051A0000199DFE801F00307192B3D000020ADF85D
:1051B00010004BE040F20600C2F200000088ADF89B
:1051C000100040F64440C2F200000088BDF8101004
:1051D0000844ADF8100039E040F20800C2F20000C7
:1051E0000088ADF8100040F64840C2F20000008888
:1051F000BDF810100844ADF8100027E040F20A0096
:10520000C2F200000088ADF8100040F64C40C2F237
:1052100000000088BDF810100844ADF8100015E03B
:1052200040F20C00C2F200000088ADF8100040F619
:105230005040C2F200000088BDF810100844ADF8DC
:10524000100003E00020ADF81000FFE7BDF81000EB
:10525000002800F07080FFE79DF812000146082842
:10526000009163D80099DFE801F00509141F2A3581
:10527000404B56000020ADF810005BE040F6544073
:10528000C2F200000088BDF810100844ADF810000C
:1052900050E040F65840C2F200000088BDF81010FF
:1052A0000844ADF8100045E040F65C40C2F2000052
:1052B0000088BDF810100844ADF810003AE040F640
:1052C0006040C2F200000088BDF810100844ADF83C
:1052D00010002FE040F66440C2F200000088BDF8E4
:1052E00010100844ADF8100024E040F66840C2F207
:1052F00000000088BDF810100844ADF8100019E057
:1053000040F66C40C2F200000088BDF8101008445E
:10531000ADF810000EE040F67040C2F200000088C8
:10532000BDF810100844ADF8100003E00020ADF8FF
:105330001000FFE7FFE7BDF8100005B07047000060
:1053400080B584B001468DF80F009DF80F0002462D
:105350003F280291019200F243810199DFE811F0A8
:105360004000440048004C005000540058005C00CD
:105370006000640068006C007000740078007C00BD
:105380008000840088008C009000940098009C00AD
:10539000A000A400A800AC00B000B400B800BC009D
:1053A000C000C400C800CC00D000D400D800DC008D
:1053B000E000E400E800EC00F000F400F800FC007D
:1053C0000001040108010C011001140118011C0165
:1053D0002001240128012C013001340138013C0155
:1053E0003F20FFF733FBFFE03E20FFF72FFBFBE002
:1053F0003D20FFF72BFBF7E03C20FFF727FBF3E016
:105400003B20FFF723FBEFE03A20FFF71FFBEBE029
:105410003920FFF71BFBE7E03820FFF717FBE3E03D
:105420003720FFF713FBDFE03620FFF70FFBDBE051
:105430003520FFF70BFBD7E03420FFF707FBD3E065
:105440003320FFF703FBCFE03220FFF7FFFACBE07A
:105450003120FFF7FBFAC7E03020FFF7F7FAC3E08F
:105460002F20FFF7F3FABFE02E20FFF7EFFABBE0A3
:105470002D20FFF7EBFAB7E02C20FFF7E7FAB3E0B7
:105480002B20FFF7E3FAAFE02A20FFF7DFFAABE0CB
:105490002920FFF7DBFAA7E02820FFF7D7FAA3E0DF
:1054A0002720FFF7D3FA9FE02620FFF7CFFA9BE0F3
:1054B0002520FFF7CBFA97E02420FFF7C7FA93E007
:1054C0002320FFF7C3FA8FE02220FFF7BFFA8BE01B
:1054D0002120FFF7BBFA87E02020FFF7B7FA83E02F
:1054E0001F20FFF7B3FA7FE01E20FFF7AFFA7BE043
:1054F0001D20FFF7ABFA77E01C20FFF7A7FA73E057
:105500001B20FFF7A3FA6FE01A20FFF79FFA6BE06A
:105510001920FFF79BFA67E01820FFF797FA63E07E
:105520001720FFF793FA5FE01620FFF78FFA5BE092
:105530001520FFF78BFA57E01420FFF787FA53E0A6
:105540001320FFF783FA4FE01220FFF77FFA4BE0BA
:105550001120FFF77BFA47E01020FFF777FA43E0CE
:105560000F20FFF773FA3FE00E20FFF76FFA3BE0E2
:105570000D20FFF76BFA37E00C20FFF767FA33E0F6
:105580000B20FFF763FA2FE00A20FFF75FFA2BE00A
:105590000920FFF75BFA27E00820FFF757FA23E01E
:1055A0000720FFF753FA1FE00620FFF74FFA1BE032
:1055B0000520FFF74BFA17E00420FFF747FA13E046
:1055C0000320FFF743FA0FE00220FFF73FFA0BE05A
:1055D0000120FFF73BFA07E00020FFF737FA03E06E
:1055E0003F20FFF733FAFFE704B080BD85B00A46DD
:1055F00003468DF81300ADF8101000208DF80F0051
:105600009DF813000146042802920193009129D8C5
:105610000099DFE801F003070F171F0001208DF844
:105620000F0023E0BDF8100040F20601C2F20001B5
:1056300008801BE0BDF8100040F20801C2F2000132
:10564000088013E0BDF8100040F20A01C2F2000128
:1056500008800BE0BDF8100040F20C01C2F200011E
:10566000088003E001208DF80F00FFE79DF80F0090
:1056700005B0704780B588B00A4603468DF81F0014
:105680008DF81E1000208DF81D009DF81E00ADF84D
:105690001A00BDF81A0000EB8000ADF81A009DF862
:1056A0001E0005920493FFF74BFE9DF81F00014674
:1056B0000428039171D80399DFE801F00307213B27
:1056C000550001208DF81D006BE040F60040C4F24B
:1056D000010040F6080101F083F90520FCF728FCE1
:1056E000BDF81A0040F64441C2F2000108809DF85E
:1056F0001E0040F64241C2F20001087051E040F63F
:105700000040C4F2010041F2100101F069F90520E6
:10571000FCF70EFCBDF81A0040F64841C2F2000149
:1057200008809DF81E0040F64641C2F20001087054
:1057300037E0BDF81A0040F64C41C2F20001088083
:105740009DF81E0040F64A41C2F20001087041F285
:105750000000C4F2010041F2100101F041F90520FE
:10576000FCF7E6FB1DE040F60000C4F2010041F248
:10577000100101F035F90520FCF7DAFBBDF81A003D
:1057800040F65041C2F2000108809DF81E0040F62C
:105790004E41C2F20001087003E001208DF81D00A7
:1057A000FFE70A20FCF7D8FB40F60040C4F20100F6
:1057B00040F60801029001F0CDF805200190FCF7B9
:1057C000B7FB41F21000029900900846009901F0E1
:1057D000C1F80198FCF7ACFB41F20000C4F20100F3
:1057E000009901F0B7F80198FCF7A2FB40F6000021
:1057F000C4F20100009901F0ADF80198FCF798FBA4
:105800009DF81D0008B080BD80B588B00A460346EB
:105810008DF81F008DF81E1000208DF81D009DF8DA
:105820001E00ADF81A00BDF81A0000EB8000ADF8BC
:105830001A009DF81E0005920493FFF781FD9DF864
:105840001F0001460828039100F2E1800399DFE878
:1058500001F00509243F5A7590AAC40001208DF873
:105860001D00D8E040F60040C4F201000121C0F262
:10587000014101F0B5F80520FCF75AFBBDF81A000C
:1058800040F65441C2F2000108809DF81E0040F627
:105890005241C2F200010870BDE040F60040C4F27F
:1058A00001000221C0F2024101F09AF80520FCF744
:1058B0003FFBBDF81A0040F65841C2F200010880D3
:1058C0009DF81E0040F65641C2F200010870A2E0A9
:1058D00040F60000C4F201008021C0F2804101F0D6
:1058E0007FF80520FCF724FBBDF81A0040F65C4168
:1058F000C2F2000108809DF81E0040F65A41C2F233
:105900000001087087E040F60000C4F20100102199
:10591000C0F2104101F064F80520FCF709FBBDF866
:105920001A0040F66041C2F2000108809DF81E0096
:1059300040F65E41C2F2000108706CE040F60000E3
:10594000C4F201000821C0F2084101F049F8052025
:10595000FCF7EEFABDF81A0040F66441C2F200010D
:1059600008809DF81E0040F66241C2F200010870F6
:1059700051E040F60000C4F2010048F2800101F05D
:105980002FF80520FCF7D4FABDF81A0040F668415C
:10599000C2F2000108809DF81E0040F66641C2F286
:1059A0000001087037E040F60000C4F2010044F244
:1059B000400101F015F80520FCF7BAFABDF81A000D
:1059C00040F66C41C2F2000108809DF81E0040F6CE
:1059D0006A41C2F2000108701DE040F60000C4F206
:1059E000010042F2200100F0FBFF0520FCF7A0FAC5
:1059F000BDF81A0040F67041C2F2000108809DF81F
:105A00001E0040F66E41C2F20001087003E0012062
:105A10008DF81D00FFE70A20FCF79EFA40F60040D3
:105A2000C4F201000121C0F20141029000F092FF96
:105A300005200190FCF77CFA0221C0F20241029895
:105A400000F088FF0198FCF773FA40F60000C4F2FA
:105A500001008021C0F28041009000F07BFF01989E
:105A6000FCF766FA1021C0F21041009800F072FFB6
:105A70000198FCF75DFA0821C0F20841009800F097
:105A800069FF0198FCF754FA48F28001009800F091
:105A900061FF0198FCF74CFA44F24001009800F0D5
:105AA00059FF0198FCF744FA42F22001009800F0F7
:105AB00051FF0198FCF73CFA9DF81D0008B080BD2D
:105AC0001EF0040F0CBFEFF30880EFF3098000F025
:105AD00001B8704782B00146019040F67440C2F2AE
