:020000040800F2
:100000009825002045010008395A0008C53B000822
:1000100075590008C10A0008A989000800000000FD
:100020000000000000000000000000001561000852
:10003000DD0E000800000000AD5F0008ED6500085F
:10004000E59400088D5F00085F0100085F0100086B
:100050005F010008896000085F0100085F01000877
:100060005F0100085F0100085F010008610E0008E1
:100070005F0100085F0100085F0100085F010008E0
:100080005F0100085F0100085F0100085F010008D0
:100090005F0100085F0100085F0100085F010008C0
:1000A0005F0100085F0100085F0100085F010008B0
:1000B000056A00085F0100085F0100085F01000891
:1000C0005F0100085F0100085F0100085F01000890
:1000D0005F010008416F00085F0100085F01000830
:1000E0005F0100085F0100085F0100085F01000870
:1000F0005F0100085F0100085F0100085F01000860
:100100005F0100085F0100085F0100085F0100084F
:100110005F0100085F0100085F0100085F0100083F
:100120005F0100085F0100085F0100089D0E0008E4
:10013000DFF80CD000F0F6FB004800470D950008F2
:10014000982500200648804706480047FEE7FEE75E
:10015000FEE7FEE7FEE7FEE7FEE7FEE7FEE7FEE777
:10016000A569000831010008F0B480EA0102D40F4B
:100170004200B2EB410F02D20246084611464A0045
:1001800042D0C30DDDB2C1F3C752AD1A202D35DA0E
:10019000C1F3160141F4000204B15242C5F1200638
:1001A00002FA06F12A411044B3EBD05F23D0C4B168
:1001B000012DA0EBC35009DCF0BC4FF0004202EA75
:1001C000C352DBB200F5000000F07EBA400000F13F
:1001D000807000EBC350A0F1807040EAD1704900FC
:1001E00009E0490841EAC071A0EBC35000F50000E6
:1001F000400800EBC350F0BC00F05DBA6142012240
:1002000002EB4101001BF6E7F0BC704781F00041B2
:10021000AAE780F00040A7E780EA010210B502F0EB
:100220000043400022D04A001FD0010E01EB1261B2
:10023000C0F35600C2F3560240F4000042F400023C
:10024000A0FB022000047F39140400D0401C50EAB7
:10025000124001D44000491EC2B20C0604EBD0107B
:10026000401C4008802A02D003E0002010BD20F08E
:100270000100002900DA0020184310BD30B480EAE4
:10028000010202F0004530F0004221F0004013D09E
:1002900090B1C30DD40DC2F31601C0F31600E41AD9
:1002A00041F4000140F400027D34914201D3641C0A
:1002B00000E04900002C02DA30BC002070474FF407
:1002C00000000023914201D3891A034340084FEAFA
:1002D0004101F7D151B1914202D14FF0004105E007
:1002E00002D24FF0010101E06FF0010103EBC450B5
:1002F000284430BC00F0DFB92DE9FE4F804681EA8A
:100300000300C00F0C46009021F0004123F000458F
:10031000B8EB0200A94105D24046214690461C4652
:100320000B46024623F00040104347D0270DC7F389
:100330000A00C3F30A510290401A019040286BDA78
:10034000C3F3130040F4801B0098924620B10023B1
:10035000D2EB030A63EB0B0B01985946C0F1400244
:10036000504600F077F906460D4650465946019A28
:1003700000F08FF910EB08006141002487EA115268
:1003800084EAE7731A4340D0009A62B3019A012AC3
:100390004FEA075215DC001B61EB02014FF00042EF
:1003A00002EA0752CDE90042001C41F580113246B5
:1003B0002B4600F0C6F903B0BDE8F08F4046214659
:1003C000F9E7001B61EB0201001C41F580130018E6
:1003D0005B412018A2F5001747EB030140EAD570F6
:1003E000B6196D4111E06D084FEA360645EAC07551
:1003F0004FEA0752001B61EB0201001C41F580111E
:1004000049084FEA30000019514132462B4603B0EB
:10041000BDE8F04F00F086B90098012240000023AB
:10042000D0EB020263EBE073009821464FEAE074E0
:10043000B8EB000061EB0401E9E783F000435BE700
:1004400081F0004158E72DE9F04D81EA030404F002
:10045000004B21F0004514464FF0000A23F0004104
:1004600050EA050220D054EA01021DD0C5F30A5714
:100470000246C5F31303C1F31300C1F30A5640F457
:10048000801543F48013A7EB0608101BD64608F22C
:10049000FD3873EB050002D308F1010801E0921862
:1004A0005B41B8F1000F03DA00200146BDE8F08D92
:1004B00000204FF48011064684460EE0171B73EBB4
:1004C000050705D3121B63EB050306434CEA010C39
:1004D00049084FEA300092185B4150EA0107EDD11C
:1004E00052EA030012D082EA040083EA05010843BD
:1004F00005D0101BAB4106D20122002306E00022EA
:100500004FF0004302E06FF0010253101AEB0600B7
:100510004CEB085110EB0A0041EB0B01BDE8F04D2C
:1005200000F000B9C10F80EAE0700844CA079623C2
:10053000002100F0C9B896230022114600F0C4B88B
:1005400020F00040C10DC0F3160040F400007F29E8
:1005500001DA00207047962903DCC1F19601C840FA
:10056000704796398840704700F0004230F00040F4
:100570000AD0C10D01F56071C0F3160042EA0151C5
:10058000C20840071143704700200146704701F040
:10059000004330B421F0004150EA010206D00A0DB8
:1005A000A2F56072C1F31301002A02DC30BC002006
:1005B0007047440F44EAC104C100E01830BC00EBAE
:1005C000C25000F078B830B50B460146002020221A
:1005D000012409E021FA02F59D4205D303FA02F550
:1005E000491B04FA02F52844151EA2F10102F1DCB0
:1005F00030BD2DE9F05F0546002092469B468846B7
:100600000646814640241BE028464146474622468E
:1006100000F02FF853465A46C01A914110D31146A4
:100620001846224600F016F82D1A67EB01084F46CF
:1006300022460120002100F00DF817EB00094E4181
:10064000201EA4F10104DFDC484631462A46434619
:10065000BDE8F09F202A04DB203A00FA02F10020D6
:1006600070479140C2F1200320FA03F319439040F0
:100670007047202A04DB203A21FA02F0002170475B
:1006800021FA02F3D040C2F12002914008431946FA
:100690007047202A06DBCB17203A41FA02F043EAE2
:1006A000E07306E041FA02F3D040C2F1200291402B
:1006B0000843194670470029A8BF7047401C4900ED
:1006C00008BF20F00100704710B4B0FA80FC00FAB7
:1006D0000CF050EA010404BF10BC704749B1CCF1E2
:1006E000200421FA04F411FA0CF118BF012121436E
:1006F0000843A3EB0C01CB1D4FEA00614FEA102029
:1007000042BF002010BC704700EBC35010440029CA
:10071000A4BF10BC7047401C490008BF20F0010076
:1007200010BC704710B5141E73F1000408DA401CA9
:1007300041F1000192185B411A4301D120F0010000
:1007400010BD2DE9F04D92469B4611B1B1FA81F2F0
:1007500002E0B0FA80F220329046FFF77BFF0446B9
:100760000F4640EA0A0041EA0B0153465A46084345
:1007700013D0114653EA010019D0C8F14002504687
:10078000FFF777FF05460E46504659464246FFF7AB
:1007900061FF084305D0012004E020463946BDE84A
:1007A000F08D0020054346EAE0762C4337430A9853
:1007B0006305E40AA0EB08000022FD0A44EA47545E
:1007C0000A3002D500200146E9E701051019694108
:1007D000DDE9084500196941BDE8F04DA2E72DE9C2
:1007E000FE4F81EA030404F0004421F0004100942C
:1007F0004FF0000B23F0004350EA01045ED052EAB0
:1008000003045BD0C3F30A54C1F30A552C44A4F289
:10081000F3340194A0FB0254C1F3130141F480119D
:10082000C3F3130343F4801301FB024400FB034EA4
:10083000840A970A44EA815447EA8357A4FB07686D
:1008400002958D0A05FB07854FEA932C04FB0C5497
:100850002705029D4FEA065847EA1637B5EB08050B
:100860006EEB070C870E920E47EA811742EA83125D
:10087000A7FB0201B6EB0B0164EB00042B0D43EA6E
:100880000C335E1844EB1C50DA465146E7FB02017C
:10089000C5F313044FEA0B3343EA14534FEA04320F
:1008A000019C43EA0603A4F10C040294009CCDE9E8
:1008B00000B4FFF746FF03B0BDE8F08F002001460B
:1008C000F9E7C1F30A52C1F3130140F2FF3341F4D7
:1008D00080119A4202DA00200146704740F2334309
:1008E0009A42A2F2334202DC5242FFF7C2BEFFF745
:1008F000B1BE000030B5041E71F1000404DB4FF0FE
:100900000044404264EB0101141E73F1000405DB56
:100910001C464FF00043524263EB0403994208BF68
:10092000904230BD064C074D06E0E06840F0010300
:1009300094E8070098471034AC42F6D3FFF7FCFB6D
:1009400090A30008B0A3000870B58C1810F8015BE4
:1009500015F0070301D110F8013B2A1106D110F858
:10096000012B03E010F8016B01F8016B5B1EF9D15C
:100970002B0705D40023521E0DD401F8013BFAE7E2
:1009800010F8013BCB1A921C03E013F8015B01F84D
:10099000015B521EF9D5A142D8D3002070BD0000E2
:1009A00080B582B0014601900198009100F044F8B2
:1009B00002B080BD80B582B00146019001980091DF
:1009C000FFF7EEFF02B080BD80B582B00020C4F218
:1009D00002000121019003F097FD019803F058FDFA
:1009E000019803F069FD019803F07AFD42F200409E
:1009F000C4F2010003F0ACFB002002B080BD000097
:100A000080B582B040F20040C4F20200052101909E
:100A100003F07AFD019803F045FD019803F056FDBF
:100A2000019803F067FD43F60040C4F2010003F0B3
:100A30008FFB002002B080BD80B584B001460290DB
:100A4000029842F20042C4F20102904201910DD19B
:100A5000FFE740F22C10C2F200000068017801317B
:100A60000170FFF7B1FF8DF80F0024E0029842F605
:100A70000001C4F20101884204D1FFE700208DF893
:100A80000F0018E0029843F60041C4F201018842C9
:100A90000DD1FFE740F23010C2F20000006801788B
:100AA00001310170FFF7ACFF8DF80F0003E000206B
:100AB0008DF80F00FFE79DF80F0004B080BD000027
:100AC000FFE7FEE780B584B00A4603460390029133
:100AD000039802990192009300F084F804B080BD5D
:100AE00080B584B00A4603460390029103980299A8
:100AF0000192009300F0A6F804B080BD80B586B0E6
:100B000013468C4686468DF81700049103929DF893
:100B100017000499039A0293CDF804C0CDF800E0C1
:100B200000F0D4F806B080BD80B584B00A46034614
:100B300003900291039802990192009300F010F93A
:100B400004B080BD80B500F047F980BD80B500F0ED
:100B500049F980BD80B584B00A46034603900291EE
:100B60000398029901920093FFF7ACFF04B080BD97
:100B700080B584B00A460346039002910398029917
:100B800001920093FFF7ACFF04B080BD80B586B042
:100B900013468C4686468DF81700049103929DF803
:100BA00017000499039A0293CDF804C0CDF800E031
:100BB000FFF7A4FF06B080BD80B584B00A460346A7
:100BC000039002910398029901920093FFF7ACFF02
:100BD00004B080BD80B5FFF7B5FF80BD80B5FFF7DD
:100BE000B5FF80BD86B00A460346059004910020FB
:100BF000ADF80C00029001920093FFE7029804996F
:100C000088421BD2FFE79DF80D000599029A895C86
:100C100048408DF80F00BDF80C009DF80F1049F604
:100C2000D662C0F6000232F8111081EA0020ADF859
:100C30000C00FFE7029801300290DFE7BDF80C00DE
:100C400006B0704780B584B00A460346039002910F
:100C5000039802990192009300F002F804B080BD5D
:100C600080B588B00A46034607900691002005909B
:100C7000049003920293019000F020F801980590EF
:100C8000FFE705980699884210D2FFE70798059973
:100C9000405C0490049943F20000C4F2020003F0A7
:100CA000C3FBFFE7059801300590EAE743F2000037
:100CB000C4F2020003F0C4FB08B080BD80B543F26B
:100CC0000000C4F2020003F0CDFB80BD80B589B006
:100CD00013468C4686468DF8230007910692002025
:100CE0008DF8160004900393CDF808C0CDF804E009
:100CF000FFE70498069988422DD2FFE79DF8160079
:100D00000799049A895C48408DF817009DF82300E4
:100D100001460728009104D0FFE7009831280AD047
:100D200013E09DF817004AF2D601C0F60001085CF6
:100D30008DF816000AE09DF817004AF2D611C0F6A9
:100D40000001085C8DF8160000E0FFE7FFE704985B
:100D500001300490CDE79DF8160009B080BD000079
:100D600086B00A46034605900491002003908DF852
:100D70000B00039001920093FFE7039804998842C7
:100D80000DD2FFE705980399405C9DF80B100844CD
:100D90008DF80B00FFE7039801300390EDE79DF815
:100DA0000B00C0F580708DF80B009DF80B0006B0AD
:100DB0007047000080B582B043F20000C4F2020028
:100DC00003F012FB40F2040EC2F2000E01218EF875
:100DD0000010019002B080BD40F20400C2F2000099
:100DE0000078704780B5FFF7E5FF402003F0BCF9BD
:100DF00040F20400C2F200004FF0000E80F800E064
:100E000080BD000080B500F00DF880BD80B500F019
:100E100017F880BD80B5FFF7F5FF80BD80B5FFF7FF
:100E2000F5FF80BD80B503F0C9FE002807D0FFE7BD
:100E300003F0B2FE03F056FE03F036FEFFE780BD7E
:100E400080B503F0C3FE002809D0FFE703F040FEA1
:100E500003F034FE08F058FB05F07CF8FFE780BD96
:100E600080B582B00020C4F2020003F065FB0028C8
:100E700011D0FFE70020C4F20200012103F070FB53
:100E8000002808D0FFE742F20040C4F20100FFF75B
:100E900091FD0190FFE702B080BD000080B582B0F7
:100EA00040F20040C4F2020003F050FB002812D0D0
:100EB000FFE740F20040C4F20200052103F050FBBE
:100EC000002808D0FFE743F60040C4F20100FFF716
:100ED00071FD0190FFE702B080BD00007047000087
:100EE00080B582B0014601900198009100F030F881
:100EF00002B080BD80B582B001460190019800919A
:100F000000F002F802B080BD80B584B001460390C5
:100F100003980028029105D0FFE7039805F040FBF5
:100F20000190FFE704B080BD80B582B0014601901A
:100F300001980091FFF7D4FF02B080BD80B582B068
:100F40000146019001980091FFF7D4FF02B080BDE7
:100F500082B0014601900091FFE70198411E019186
:100F6000002801D0FFE7F8E702B0704780B500F035
:100F700005F880BD80B5FFF7F9FF80BD80B540F270
:100F80008C21C2F200014FF60000C0F607004FF4BA
:100F9000806200F0A7FD80BD80B500F03FFA80BD03
:100FA00080B5FFF7F9FF80BDB0B588B09C46964686
:100FB0000C460546079006918DF817208DF81630DF
:100FC00007989DF81710405C01460328CDF810C023
:100FD000CDF80CE002940195009100F25B8100993C
:100FE000DFE811F004005B00AE0003019DF816007D
:100FF00006999DF8172011F83230184301F8320095
:101000009DF8160006999DF8172001EBC2014A7859
:1010100022EA000048709DF8160006999DF81720F6
:1010200001EBC2018A7822EA000088709DF8160060
:1010300006999DF8172001EBC201CA7822EA000048
:10104000C8709DF8160006999DF8172001EBC201A3
:101050000A79104308719DF8160006999DF817202B
:1010600001EBC2014A7922EA000048719DF816009E
:1010700006999DF8172001EBC2018A7922EA000047
:1010800088719DF8160006999DF8172001EBC201A2
:10109000CA7922EA0000C871FDE09DF816000699A1
:1010A0009DF8172011F83230184301F832009DF8EE
:1010B000160006999DF8172001EBC2014A781043EB
:1010C00048709DF8160006999DF8172001EBC201A3
:1010D0008A78104388709DF8160006999DF81720AD
:1010E00001EBC201CA7822EA0000C8709DF8160020
:1010F00006999DF8172001EBC2010A791043087187
:101100009DF8160006999DF8172001EBC2014A7957
:10111000104348719DF8160006999DF8172001EBC1
:10112000C2018A79104388719DF8160006999DF8CE
:10113000172001EBC201CA7922EA0000C871AAE0B7
:101140009DF8160006999DF8172011F832301843C3
:1011500001F832009DF8160006999DF8172001EB62
:10116000C2014A7822EA000048709DF816000699EC
:101170009DF8172001EBC2018A7822EA00008870EE
:101180009DF8160006999DF8172001EBC201CA7858
:1011900022EA0000C8709DF8160006999DF81720F5
:1011A00001EBC2010A79104308719DF816000699F7
:1011B0009DF8172001EBC2014A79104348719DF850
:1011C000160006999DF8172001EBC2018A79104399
:1011D00088719DF8160006999DF8172001EBC20151
:1011E000CA7922EA0000C87155E09DF816000699F8
:1011F0009DF8172011F83230184301F832009DF89D
:10120000160006999DF8172001EBC2014A78104399
:1012100048709DF8160006999DF8172001EBC20151
:101220008A78104388709DF8160006999DF817205B
:1012300001EBC201CA7822EA0000C8709DF81600CE
:1012400006999DF8172001EBC2010A791043087135
:101250009DF8160006999DF8172001EBC2014A7906
:1012600022EA000048719DF8160006999DF81720A3
:1012700001EBC2018A7922EA000088719DF816000C
:1012800006999DF8172001EBC201CA7922EA0000F5
:10129000C87100E0FFE708B0B0BD0000B0B588B08D
:1012A0009C4696460C460546079006918DF81720F9
:1012B0008DF8163000208DF81500CDF810C0CDF84F
:1012C0000CE002940195FFE79DF815009DF81710BA
:1012D00088420FDAFFE7079806999DF815209DF8D8
:1012E0001630FFF761FEFFE79DF8150001308DF81D
:1012F0001500E9E79DF8160006999DF8172011F8EA
:101300003230184301F832009DF81700C0008DF804
:101310001500FFE79DF815007F2814DCFFE79DF816
:10132000160006999DF8172001EBC2019DF81520C3
:101330008B5C23EA00008854FFE79DF8150001301C
:101340008DF81500E6E708B0B0BD000080B590B09C
:1013500040F60000C4F2010001210A90099100F05A
:1013600019FC0A98099900F015FC0A98099900F0EF
:1013700011FC0A98099900F00DFC00200F900E90C6
:101380000D900C900B9009990C914FF0020ECDF836
:1013900034E00E900F9040F201100B900DF12C0EE6
:1013A0000A9A089010467146CDF81CE003F05CF9EB
:1013B0000A9906900846089903F0CEF940F20220F7
:1013C0000B900A9905900846079903F04DF90A9980
:1013D00004900846059903F0BFF940F204400B90D1
:1013E0000A9903900846079903F03EF90A9902907A
:1013F0000846039903F0B0F940F608000B900A99EB
:1014000001900846079903F02FF90A9900900846C1
:10141000019903F0A1F910B080BD000080B54FF034
:10142000804003F0C1FF002807D0FFE700F030F94B
:101430004FF0804003F0ACFCFFE780BD10B585B0F5
:1014400013468C46864604908DF80F108DF80E20BA
:101450009DF80E0004999DF80F2011F8324024EAFF
:10146000000001F832009DF80E0004999DF80F204D
:1014700001EBC2014A78104348709DF80E000499B0
:101480009DF80F2001EBC2018A7822EA00008870E3
:101490009DF80E0004999DF80F2001EBC201CA7857
:1014A0001043C8709DF80E0004999DF80F2001EBC1
:1014B000C2010A7922EA000008719DF80E00049921
:1014C0009DF80F2001EBC2014A79104348719DF845
:1014D0000E0004999DF80F2001EBC2018A7922EADF
:1014E000000088719DF80E0004999DF80F2001EB13
:1014F000C201CA791043C8710293CDF804C0CDF877
:1015000000E005B010BD000010B585B013468C4654
:10151000864604908DF80F108DF80E209DF80E0071
:1015200004999DF80F2011F8324024EA000001F8D8
:1015300032009DF80E0004999DF80F2001EBC201C6
:101540004A7822EA000048709DF80E0004999DF840
:101550000F2001EBC2018A78104388709DF80E00BD
:1015600004999DF80F2001EBC201CA781043C8709E
:101570009DF80E0004999DF80F2001EBC2010A7935
:1015800022EA000008719DF80E0004999DF80F20D2
:1015900001EBC2014A7922EA000048719DF80E0071
:1015A00004999DF80F2001EBC2018A7910438871DC
:1015B0009DF80E0004999DF80F2001EBC201CA7935
:1015C0001043C8710293CDF804C0CDF800E005B017
:1015D00010BD0000B0B588B09C4696460C46054646
:1015E0008DF81F0006918DF817208DF81630002019
:1015F0008DF815008DF81500CDF810C0CDF80CE071
:1016000002940195FFE79DF815009DF81710884298
:101610001CDAFFE79DF81F00012808D1FFE70698B4
:101620009DF815109DF81620FFF708FF07E00698B3
:101630009DF815109DF81620FFF766FFFFE7FFE7FE
:101640009DF8150001308DF81500DCE79DF81700B6
:10165000C0008DF81500FFE79DF815007F2814DC09
:10166000FFE79DF8160006999DF8172001EBC201CF
:101670009DF815208B5C23EA00008854FFE79DF855
:10168000150001308DF81500E6E708B0B0BD000088
:1016900040F60C00C4F2010001684FF6F0721140F0
:1016A00040F60C42C2F20002138803F1010CA2F8CA
:1016B00000C040F68C2CC2F2000C1CF8033003F082
:1016C0000F03194401601088B0F5C07F07DBFFE706
:1016D00040F60C40C2F2000000210180FFE7704795
:1016E00080B58CB04FF080400121069005F0AEF936
:1016F00000200B900A900990089007900699059099
:10170000084603F059FB40F2F311099140F2000141
:10171000C2F2000109684DF6836EC4F21B3EA1FBC4
:101720000E1E4FF0FF3202EB9E42ADF81C20059AD0
:101730000A9208928DF82C200DF11C0E069B049045
:1017400018460391714603F085FD069902900846FC
:1017500003F0C8FB0698059903F046FE0698059924
:1017600003F09CFE069803F0EDFB04F09DFA05994A
:10177000059A04F0D1F91C2101900846019A0091C4
:10178000114604F035FB009804F05AF9069803F06E
:1017900015FC069803F0FAFB0CB080BD80B500F094
:1017A00005F880BD80B5FFF7F9FF80BD80B58AB030
:1017B00000208DF827000890FFF7C8FDFFF790FF85
:1017C00041F27C10C2F2000040F68C2EC2F2000EF4
:1017D000C0F800E008988DF82700FFE79DF8270083
:1017E00002284ADCFFE79DF8270040F20E01C2F212
:1017F0000001162200FB02104078002814D1FFE7F8
:101800009DF8270040F20E01C2F20001162200FBF3
:10181000021041F27C11C2F20001096810F8022B9B
:101820000123FFF73BFD1AE09DF8270040F20E016F
:10183000C2F20001162200FB021350435A7841F213
:101840007C13C2F200031B68085C0121079010465C
:1018500006911946079A069BFFF7BCFEFFE741F287
:101860007C10C2F20000016880310160FFE79DF842
:10187000270001308DF82700B0E741F27C10C2F25A
:10188000000040F68C21C2F20001016000208DF8BA
:101890002700FFE79DF8270002284ADCFFE79DF8B4
:1018A000270040F25001C2F20001162200FB021094
:1018B0004078002814D1FFE79DF8270040F250013E
:1018C000C2F20001162200FB021041F27C11C2F2AA
:1018D0000001096810F8022B0223FFF7DFFC1AE071
:1018E0009DF8270040F25001C2F20001162200FBD1
:1018F000021350435A7841F27C13C2F200031B6872
:10190000085C02210590104604911946059A049B33
:10191000FFF760FEFFE741F27C10C2F200000168B1
:1019200080310160FFE79DF8270001308DF8270026
:10193000B0E741F27C10C2F2000040F68C21C2F206
:101940000001016000208DF82700FFE79DF82700C7
:1019500002284ADCFFE79DF8270040F29201C2F21C
:101960000001162200FB02104078002814D1FFE786
:101970009DF8270040F29201C2F20001162200FBFE
:10198000021041F27C11C2F20001096810F8022B2A
:101990000423FFF783FC1AE09DF8270040F2920130
:1019A000C2F20001162200FB021350435A7841F2A2
:1019B0007C13C2F200031B68085C042103901046EC
:1019C00002911946039A029BFFF704FEFFE741F2DA
:1019D0007C10C2F20000016880310160FFE79DF8D1
:1019E000270001308DF82700B0E741F27C10C2F2E9
:1019F000000040F68C21C2F20001016000208DF849
:101A00002700FFE79DF8270002284ADCFFE79DF842
:101A1000270040F2D401C2F20001162200FB02109E
:101A20004078002814D1FFE79DF8270040F2D40148
:101A3000C2F20001162200FB021041F27C11C2F238
:101A40000001096810F8022B0823FFF727FC1AE0B1
:101A50009DF8270040F2D401C2F20001162200FBDB
:101A6000021350435A7841F27C13C2F200031B6800
:101A7000085C08210190104600911946019A009BCC
:101A8000FFF7A8FDFFE741F27C10C2F200000168F9
:101A900080310160FFE79DF8270001308DF82700B5
:101AA000B0E741F27C10C2F2000040F68C21C2F295
:101AB000000101600AB080BD80B586B013468C4637
:101AC000864605900491ADF80E2005980499BDF85E
:101AD0000E200293CDF804C0CDF800E000F018F815
:101AE00006B080BD80B586B013468C46864605900C
:101AF0000491ADF80E2005980499BDF80E200293CC
:101B0000CDF804C0CDF800E0FFF7D6FF06B080BDE9
:101B100080B586B013468C46864605900491ADF894
:101B20000E200020ADF80C000293CDF804C0CDF8D3
:101B300000E0FFE7BDF80C00BDF80E10884213DA94
:101B4000FFE7059802F054FDDDF810E0BDF80C1039
:101B50002EF81100059802300590FFE7BDF80C0043
:101B60000130ADF80C00E5E706B080BD80B584B06B
:101B70000A46034603908DF80B1003989DF80B104E
:101B80000192009300F01AF804B080BD80B500F017
:101B9000BDF880BD80B584B00A46034603908DF839
:101BA0000B1003989DF80B1001920093FFF7DEFFD6
:101BB00004B080BD80B5FFF7E9FF80BD80B584B07B
:101BC0000A46034603908DF80B10039840F6000177
:101BD000C4F201018842019200930ED1FFE79DF803
:101BE0000B00002804D0FFE7042002F085FB03E08F
:101BF000042002F051FBFFE785E0039840F6004126
:101C0000C4F2010188420ED1FFE79DF80B000028C5
:101C100004D0FFE7082002F06FFB03E0082002F089
:101C20003BFBFFE76FE0039841F20001C4F20101C2
:101C300088420ED1FFE79DF80B00002804D0FFE793
:101C4000102002F059FB03E0102002F025FBFFE713
:101C500059E0039841F20041C4F2010188420ED1DB
:101C6000FFE79DF80B00002804D0FFE7202002F0DA
:101C700043FB03E0202002F00FFBFFE743E0039863
:101C800041F60001C4F2010188420ED1FFE79DF840
:101C90000B00002804D0FFE7402002F02DFB03E0FA
:101CA000402002F0F9FAFFE72DE0039841F60041E9
:101CB000C4F2010188420ED1FFE79DF80B00002815
:101CC00004D0FFE7802002F017FB03E0802002F041
:101CD000E3FAFFE717E0039842F20001C4F20101C2
:101CE000884210D1FFE79DF80B00002805D0FFE7E0
:101CF0004FF4807002F000FB04E04FF4807002F0BB
:101D0000CBFAFFE7FFE704B080BD000080B582B0EA
:101D100040F60000C4F2010001210191FFF74EFFDF
:101D200040F60040C4F201000199FFF747FF41F27D
:101D30000000C4F201000199FFF740FF41F20040AA
:101D4000C4F201000199FFF739FF41F60000C4F227
:101D500001000199FFF732FF41F60040C4F2010093
:101D60000199FFF72BFF42F20000C4F20100019934
:101D7000FFF724FF019802F0BFFA02F05DFC02F0C9
:101D800067FC02B080BD000040F24810C2F20000C3
:101D9000007841F29051C2F200010A6810440860D4
:101DA0007047000080B584B00A46034603908DF862
:101DB0000B1003989DF80B100192009300F01EFF8A
:101DC00004B080BD80B500F03BFF80BD80B584B01D
:101DD0000A46034603908DF80B1003989DF80B10EC
:101DE00001920093FFF7DEFF04B080BD80B5FFF7DE
:101DF000E9FF80BD80B5EEB001466D9000208DF802
:101E0000B301ADF8B0016D98826D4079105CA028E7
:101E10006B9140F00385FFE76D9805F005FBDDF859
:101E2000B4E1A0216A90704605F0EEFA6D99D1F800
:101E300058E089791EF8011001398E4621296990F0
:101E4000CDF8A0E100F2E0846899DFE811F022000B
:101E5000490075009C00C800EE0019013F016A01AD
:101E60009001AC01D201EE0114023002560272025E
:101E70009802B402DA02F6021C0338035E037A0306
:101E8000A003BC03E203FE032404400466048204AE
:101E9000AD04012000F0D8FEADF8B0016D9800212E
:101EA00005F0B2FA6D99D1F858E08A791EF802204F
:101EB00067900846114605F0A7FA6D999DF8B12183
:101EC00066900846114605F09FFA6D999DF8B0217D
:101ED00065900846114605F097FA649000F098BCAA
:101EE0006D98816DC07908448078ADF8B001BDF877
:101EF000B0016D998A6DC9791144C97841EA002011
:101F0000ADF8B001BDF8B011012001F05DFB8DF816
:101F1000B3016D989DF8B31105F076FA6D998A6D4D
:101F200091F806E012F80E2063900846114605F07D
:101F30006BFA629000F06CBC022000F085FEADF8F8
:101F4000B0016D98002105F05FFA6D99D1F858E065
:101F50008A791EF8022061900846114605F054FA6D
:101F60006D999DF8B12160900846114605F04CFA34
:101F70006D999DF8B0215F900846114605F044FA2E
:101F80005E9000F045BC6D98816DC0790844807802
:101F9000ADF8B001BDF8B0016D998A6DC9791144F1
:101FA000C97841EA0020ADF8B001BDF8B0110220B7
:101FB00001F00AFB8DF8B3016D989DF8B31105F09F
:101FC00023FA6D998A6D91F806E012F80E205D9063
:101FD0000846114605F018FA5C9000F019BC032081
:101FE00000F032FEADF8B0016D98002105F00CFA5A
:101FF0006D99D1F858E08A791EF802205B90084666
:10200000114605F001FA6D999DF8B1215A900846E4
:10201000114605F0F9F96D999DF8B02159900846DF
:10202000114605F0F1F95890F2E36D98816DC07991
:1020300008448078ADF8B001BDF8B0016D998A6DA3
:10204000C9791144C97841EA0020ADF8B001BDF862
:10205000B011032001F0B8FA8DF8B3016D989DF826
:10206000B31105F0D1F96D998A6D91F806E012F877
:102070000E2057900846114605F0C6F95690C7E362
:10208000042000F0E1FDADF8B0016D98002105F0ED
:10209000BBF96D99D1F858E08A791EF80220559065
:1020A0000846114605F0B0F96D999DF8B12154909C
:1020B0000846114605F0A8F96D999DF8B021539096
:1020C0000846114605F0A0F95290A1E36D98816D84
:1020D000C07908448078ADF8B001BDF8B0016D99C1
:1020E0008A6DC9791144C97841EA0020ADF8B00180
:1020F000BDF8B011042001F067FA8DF8B3016D98B6
:102100009DF8B31105F080F96D998A6D91F806E09C
:1021100012F80E2051900846114605F075F95090BE
:1021200076E3012000F0D0FDADF8B0016D980021FC
:1021300005F06AF96D99D1F858E08A791EF8022005
:102140004F900846114605F05FF96D999DF8B12151
:102150004E900846114605F057F96D999DF8B0214B
:102160004D900846114605F04FF94C9050E36D989C
:10217000816DC07908444178012001F069FA8DF839
:10218000B3016D989DF8B31105F03EF96D99D1F842
:1021900058E08A791EF802204B900846114605F057
:1021A00033F94A9034E3022000F08EFDADF8B0011F
:1021B0006D98002105F028F96D99D1F858E08A79D9
:1021C0001EF8022049900846114605F01DF96D9948
:1021D0009DF8B12148900846114605F015F96D9912
:1021E0009DF8B02147900846114605F00DF946903C
:1021F0000EE36D98816DC07908444178022001F0AA
:1022000027FA8DF8B3016D989DF8B31105F0FCF82D
:102210006D99D1F858E08A791EF802204590084659
:10222000114605F0F1F84490F2E2032000F04CFD75
:10223000ADF8B0016D98002105F0E6F86D99D1F880
:1022400058E08A791EF8022043900846114605F0AE
:10225000DBF86D999DF8B12142900846114605F0D2
:10226000D3F86D999DF8B02141900846114605F0CC
:10227000CBF84090CCE26D98816DC07908444178EC
:10228000032001F0E5F98DF8B3016D989DF8B311C5
:1022900005F0BAF86D99D1F858E08A791EF8022055
:1022A0003F900846114605F0AFF83E90B0E204209A
:1022B00000F00AFDADF8B0016D98002105F0A4F81A
:1022C0006D99D1F858E08A791EF802203D900846B1
:1022D000114605F099F86D999DF8B1213C9008469A
:1022E000114605F091F86D999DF8B0213B90084694
:1022F000114605F089F83A908AE26D98816DC079AF
:1023000008444178042001F0A3F98DF8B3016D98D9
:102310009DF8B31105F078F86D99D1F858E08A79F5
:102320001EF8022039900846114605F06DF83890E5
:102330006EE2012000F008FDADF8B0016D980021BB
:1023400005F062F86D99D1F858E08A791EF80220FC
:1023500037900846114605F057F86D999DF8B12160
:1023600036900846114605F04FF86D999DF8B0215A
:1023700035900846114605F047F8349048E26D98CC
:10238000816DC07908444178012001F013FA8DF87D
:10239000B3016D989DF8B31105F036F86D99D1F839
:1023A00058E08A791EF8022033900846114605F05D
:1023B0002BF832902CE2022000F0C6FCADF8B00100
:1023C0006D98002105F020F86D99D1F858E08A79D0
:1023D0001EF8022031900846114605F015F86D9957
:1023E0009DF8B12130900846114605F00DF86D9921
:1023F0009DF8B0212F900846114605F005F82E9063
:1024000006E26D98816DC07908444178022001F0A0
:10241000D1F98DF8B3016D989DF8B31104F0F4FF74
:102420006D99D1F858E08A791EF802202D9008465F
:10243000114604F0E9FF2C90EAE1032000F084FC4F
:10244000ADF8B0016D98002104F0DEFF6D99D1F870
:1024500058E08A791EF802202B900846114604F0B5
:10246000D3FF6D999DF8B1212A900846114604F0DA
:10247000CBFF6D999DF8B02129900846114604F0D4
:10248000C3FF2890C4E16D98816DC07908444178FC
:10249000032001F08FF98DF8B3016D989DF8B31109
:1024A00004F0B2FF6D99D1F858E08A791EF8022045
:1024B00027900846114604F0A7FF2690A8E10420C3
:1024C00000F042FCADF8B0016D98002104F09CFFD3
:1024D0006D99D1F858E08A791EF8022025900846B7
:1024E000114604F091FF6D999DF8B12124900846A2
:1024F000114604F089FF6D999DF8B021239008469C
:10250000114604F081FF229082E16D98816DC079BF
:1025100008444178042001F04DF98DF8B3016D981D
:102520009DF8B31104F070FF6D99D1F858E08A79E5
:102530001EF8022021900846114604F065FF209005
:1025400066E1052000F000FCADF8B0016D980021B7
:1025500004F05AFF6D99D1F858E08A791EF80220EC
:102560001F900846114604F04FFF6D999DF8B12168
:102570001E900846114604F047FF6D999DF8B02162
:102580001D900846114604F03FFF1C9040E16D98F5
:10259000816DC07908444178052001F00BF98DF870
:1025A000B3016D989DF8B31104F02EFF6D99D1F829
:1025B00058E08A791EF802201B900846114604F064
:1025C00023FF1A9024E1062000F0BEFBADF8B00115
:1025D0006D98002104F018FF6D99D1F858E08A79C0
:1025E0001EF8022019900846114604F00DFF6D995F
:1025F0009DF8B12118900846114604F005FF6D9929
:102600009DF8B02117900846114604F0FDFE169083
:10261000FEE06D98816DC07908444178062001F094
:10262000C9F88DF8B3016D989DF8B31104F0ECFE74
:102630006D99D1F858E08A791EF802201590084665
:10264000114604F0E1FE1490E2E0072000F07CFB6C
:10265000ADF8B0016D98002104F0D6FE6D99D1F867
:1026600058E08A791EF8022013900846114604F0BB
:10267000CBFE6D999DF8B12112900846114604F0E9
:10268000C3FE6D999DF8B02111900846114604F0E3
:10269000BBFE1090BCE06D98816DC0790844417814
:1026A000072001F087F88DF8B3016D989DF8B311FC
:1026B00004F0AAFE6D99D1F858E08A791EF802203C
:1026C0000F900846114604F09FFE0E90A0E00820EF
:1026D00000F03AFBADF8B0016D98002104F094FED3
:1026E0006D99D1F858E08A791EF802200D900846BD
:1026F000114604F089FE6D999DF8B1210C900846B1
:10270000114604F081FE6D999DF8B0210B900846AA
:10271000114604F079FE0A907AE06D98816DC079D7
:1027200008444178082001F045F88DF8B3016D9810
:102730009DF8B31104F068FE6D99D1F858E08A79DC
:102740001EF8022009900846114604F05DFE08902C
:102750005EE06D98816DC0790A18085C517800F0D0
:1027600055FBADF8B0016D98002104F04DFE6D9958
:102770008A6D91F806E012F80E200790084611467F
:1027800004F042FE6D999DF8B1210690084611466D
:1027900004F03AFE6D999DF8B02105900846114667
:1027A00004F032FE049033E06D98816DC0790844E6
:1027B0008078ADF8B001BDF8B0016D998A6DC97926
:1027C0001144C97841EA0020ADF8B0016D98816DDF
:1027D000C0790A18085C5178BDF8B02101F016F9EB
:1027E0008DF8B3016D989DF8B31104F00DFE6D994D
:1027F0008A6D91F806E012F80E2003900846114603
:1028000004F002FE029003E002208DF8B301FFE71E
:102810006D98012104F012FE019003E001208DF873
:10282000B301FFE79DF8B3016EB080BD80B584B001
:102830000146039000208DF80B00039800280191B9
:102840002ED0FFE7039804F009FE012822D1FFE70C
:10285000039804F0C5FD00280CD1FFE7039804F0AD
:10286000C9FD002806D1FFE70398FFF7C3FA8DF8EA
:102870000B0009E0039801784A1E4AF20331C0F6C2
:10288000000105F0FBFDFFE7039804F06FFE8DF8F3
:102890000B000AE0039804F073FE8DF80B0003E0D0
:1028A00002208DF80B00FFE7FFE79DF80B0004B056
:1028B00080BD000080B5A8B041F20000C4F2010064
:1028C000012122902191FFF765F922982199FFF7C4
:1028D00061F922982199FFF75DF922982199FFF774
:1028E00059F922982199FFF755F922982199FFF774
:1028F00051F940F60040C4F2010020902199FFF701
:1029000049F920982199FFF745F922982199FFF775
:1029100041F940F60000C4F201001F902199FFF731
:1029200039F920982199FFF735F920982199FFF777
:1029300031F91F982199FFF72DF91F982199FFF779
:1029400029F91F982199FFF725F91F982199FFF779
:1029500021F91F982199FFF71DF91F982199FFF779
:1029600019F90020279026902590249023902199F2
:1029700024914FF0030ECDF894E04FF0040ECDF803
:1029800098E0279148F2800ECDF88CE023AA229B94
:102990001E90184611461D92CDF870E001F064FEBD
:1029A00022991B9008461C9901F01CFF0120C0F2DF
:1029B0000140239022991A9008461D9901F054FE77
:1029C0002299199008461A9901F00CFF0220C0F2D2
:1029D000024023902299189008461D9901F044FE68
:1029E000229917900846189901F0FCFE0420C0F2C5
:1029F000044023902299169008461D9901F034FE58
:102A0000229915900846169901F0ECFE0820C0F2B4
:102A1000084023902299149008461D9901F024FE45
:102A2000229913900846149901F0DCFE1020C0F2A0
:102A3000104023902299129008461D9901F014FE2F
:102A4000229911900846129901F0CCFE1E9826900A
:102A5000279040F60801239120981D9A1091114665
:102A600001F002FE20990F900846109901F0BAFE7D
:102A700041F21000239020990E9008461D9901F014
:102A8000F3FD20990D9008460E9901F0ABFE0E98CB
:102A9000239022981D9901F0E7FD22990C90084699
:102AA0000E9901F09FFE0E9823901F981D9901F03A
:102AB000DBFD1F990B9008460E9901F093FE1A98C2
:102AC000239020981D9901F0CFFD20990A90084687
:102AD0001A9901F087FE1898239020981D9901F00B
:102AE000C3FD209909900846189901F07BFE8020CB
:102AF000C0F2804023901F99089008461D9901F06C
:102B0000B3FD1F9907900846089901F06BFE1298D3
:102B100023901F981D9901F0A7FD1F990690084664
:102B2000129901F05FFE149823901F981D9901F0EF
:102B30009BFD1F9905900846149901F053FE1C98BF
:102B400023901F981D9901F08FFD1F99049008464E
:102B50001C9901F047FE44F2400023901F99039016
:102B600008461D9901F080FD1F99029008460399BF
:102B700001F038FE42F2200023901F990190084690
:102B80001D9901F071FD1F9900900846019901F00F
:102B900029FE0A20FEF7D2F92098109901F0EAFDEB
:102BA00020980E9901F0E6FD22980E9901F0E2FDC1
:102BB0001F980E9901F0DEFD20981A9901F0DAFDB8
:102BC0002098189901F0D6FD1F98089901F0D2FDC0
:102BD0001F98129901F0CEFD1F98149901F0CAFDBB
:102BE0001F981C9901F0C6FD1F98039901F0C2FDC2
:102BF0001F98019901F0BEFD28B080BD80B586B058
:102C00000A46034605908DF8131000208DF8120037
:102C10009DF813000528039202930CD3FFE7059853
:102C20004AF2FD21C0F6000106F094FC05218DF862
:102C300012100190FFE79DF8120006B080BD000061
:102C400080B5FFF737FE80BD83B001468DF80B00DD
:102C50000020ADF808009DF80B0002460428019101
:102C6000009229D80099DFE801F003070F171F0031
:102C70000020ADF8080023E040F20600C2F2000098
:102C80000088ADF808001BE040F20800C2F2000026
:102C90000088ADF8080013E040F20A00C2F200001C
:102CA0000088ADF808000BE040F20C00C2F2000012
:102CB0000088ADF8080003E00020ADF80800FFE749
:102CC000BDF8080003B0704783B001468DF80B00D3
:102CD0000020ADF808009DF80B0002460428019181
:102CE000009229D80099DFE801F003070F171F00B1
:102CF0000020ADF8080023E040F61040C2F20000CA
:102D00000088ADF808001BE040F61440C2F2000055
:102D10000088ADF8080013E040F61840C2F2000049
:102D20000088ADF808000BE040F61C40C2F200003D
:102D30000088ADF8080003E00020ADF80800FFE7C8
:102D4000BDF8080003B0704783B001468DF80B0052
:102D50000020ADF808009DF80B00024608280191FC
:102D600000924BD80099DFE801F0050911192129DB
:102D7000313941000020ADF8080043E040F6204022
:102D8000C2F200000088ADF808003BE040F62440A5
:102D9000C2F200000088ADF8080033E040F6284099
:102DA000C2F200000088ADF808002BE040F62C408D
:102DB000C2F200000088ADF8080023E040F6304081
:102DC000C2F200000088ADF808001BE040F6344075
:102DD000C2F200000088ADF8080013E040F6384069
:102DE000C2F200000088ADF808000BE040F63C405D
:102DF000C2F200000088ADF8080003E00020ADF842
:102E00000800FFE7BDF8080003B0704785B00A4628
:102E100003468DF813008DF812100020ADF8100055
:102E20009DF813000146042803920293019151D8A2
:102E30000199DFE801F00307192B3D000020ADF8F0
:102E400010004BE040F20600C2F200000088ADF82E
:102E5000100040F61040C2F200000088BDF81010CB
:102E60000844ADF8100039E040F20800C2F200005A
:102E70000088ADF8100040F61440C2F2000000884F
:102E8000BDF810100844ADF8100027E040F20A0029
:102E9000C2F200000088ADF8100040F61840C2F2FF
:102EA00000000088BDF810100844ADF8100015E0CF
:102EB00040F20C00C2F200000088ADF8100040F6AD
:102EC0001C40C2F200000088BDF810100844ADF8A4
:102ED000100003E00020ADF81000FFE7BDF810007F
:102EE000002800F07080FFE79DF8120001460828D6
:102EF000009163D80099DFE801F00509141F2A3515
:102F0000404B56000020ADF810005BE040F620403A
:102F1000C2F200000088BDF810100844ADF810009F
:102F200050E040F62440C2F200000088BDF81010C6
:102F30000844ADF8100045E040F62840C2F2000019
:102F40000088BDF810100844ADF810003AE040F6D3
:102F50002C40C2F200000088BDF810100844ADF803
:102F600010002FE040F63040C2F200000088BDF8AB
:102F700010100844ADF8100024E040F63440C2F2CE
:102F800000000088BDF810100844ADF8100019E0EA
:102F900040F63840C2F200000088BDF81010084426
:102FA000ADF810000EE040F63C40C2F20000008890
:102FB000BDF810100844ADF8100003E00020ADF893
:102FC0001000FFE7FFE7BDF8100005B070470000F4
:102FD00083B001468DF80B009DF80B0002463F2898
:102FE0000191009200F2E3820099DFE811F04000C5
:102FF0004B00550060006A0075007F008A00940055
:103000009F00A900B400BE00C900D300DE00E800A4
:10301000F300FD00080112011D01270132013C01EE
:10302000470151015C01660171017B01860190013C
:103030009B01A501B001BA01C501CF01DA01E4018C
:10304000EF01F90104020E02190223022E023802D6
:1030500043024D02580262026D02770282028C0224
:103060009702A102AC02B602C102CB02D60241F223
:103070000C00C4F2010001684EF27F021140803161
:1030800001609FE241F20C00C4F2010001684EF2BF
:103090007F021140016095E241F20C00C4F2010090
:1030A00001684EF27F021140803101608AE241F2F4
:1030B0000C00C4F2010001684EF27F021140016071
:1030C00080E241F20C00C4F2010001684EF27F027E
:1030D00011408031016075E241F20C00C4F2010040
:1030E00001684EF27F02114001606BE241F20C0078
:1030F000C4F2010001684EF27F021140803101608C
:1031000060E241F20C00C4F2010001684EF27F025D
:103110001140016056E241F20C00C4F20100016866
:103120004EF27F021140803101604BE241F20C000F
:10313000C4F2010001684EF27F021140016041E2D9
:1031400041F20C00C4F2010001684EF27F0211400E
:103150008031016036E241F20C00C4F201000168E6
:103160004EF27F02114001602CE241F20C00C4F2E9
:10317000010001684EF27F0211408031016021E2BE
:1031800041F20C00C4F2010001684EF27F021140CE
:10319000016017E241F20C00C4F2010001684EF236
:1031A0007F021140803101600CE241F20C00C4F258
:1031B000010001684EF27F021140016002E241F21B
:1031C0000C00C4F2010001684EF27F021140803110
:1031D0000160F7E141F20C00C4F2010001684EF217
:1031E0007F0211400160EDE141F20C00C4F20100E8
:1031F00001684EF27F02114080310160E2E141F24C
:103200000C00C4F2010001684EF27F02114001601F
:10321000D8E141F20C00C4F2010001684EF27F02D5
:10322000114080310160CDE141F20C00C4F2010097
:1032300001684EF27F0211400160C3E141F20C00CF
:10324000C4F2010001684EF27F021140803101603A
:10325000B8E141F20C00C4F2010001684EF27F02B5
:1032600011400160AEE141F20C00C4F201000168BE
:103270004EF27F02114080310160A3E141F20C0067
:10328000C4F2010001684EF27F021140016099E131
:1032900041F20C00C4F2010001684EF27F021140BD
:1032A000803101608EE141F20C00C4F2010001683E
:1032B0004EF27F021140016084E141F20C00C4F241
:1032C000010001684EF27F0211408031016079E116
:1032D00041F20C00C4F2010001684EF27F0211407D
:1032E00001606FE141F20C00C4F2010001684EF28E
:1032F0007F0211408031016064E141F20C00C4F2B0
:10330000010001684EF27F02114001605AE141F272
:103310000C00C4F2010001684EF27F0211408031BE
:1033200001604FE141F20C00C4F2010001684EF26D
:103330007F021140016045E141F20C00C4F201003E
:1033400001684EF27F021140803101603AE141F2A2
:103350000C00C4F2010001684EF27F0211400160CE
:1033600030E141F20C00C4F2010001684EF27F022C
:1033700011408031016025E141F20C00C4F20100EE
:1033800001684EF27F02114001601BE141F20C0026
:10339000C4F2010001684EF27F02114080310160E9
:1033A00010E141F20C00C4F2010001684EF27F020C
:1033B0001140016006E141F20C00C4F20100016815
:1033C0004EF27F02114080310160FBE041F20C00BF
:1033D000C4F2010001684EF27F0211400160F1E089
:1033E00041F20C00C4F2010001684EF27F0211406C
:1033F00080310160E6E041F20C00C4F20100016896
:103400004EF27F0211400160DCE041F20C00C4F298
:10341000010001684EF27F02114080310160D1E06D
:1034200041F20C00C4F2010001684EF27F0211402B
:103430000160C7E041F20C00C4F2010001684EF2E5
:103440007F02114080310160BCE041F20C00C4F207
:10345000010001684EF27F0211400160B2E041F2CA
:103460000C00C4F2010001684EF27F02114080316D
:103470000160A7E041F20C00C4F2010001684EF2C5
:103480007F02114001609DE041F20C00C4F2010096
:1034900001684EF27F0211408031016092E041F2FA
:1034A0000C00C4F2010001684EF27F02114001607D
:1034B00088E041F20C00C4F2010001684EF27F0284
:1034C0001140803101607DE041F20C00C4F2010046
:1034D00001684EF27F021140016073E041F20C007E
:1034E000C4F2010001684EF27F0211408031016098
:1034F00068E041F20C00C4F2010001684EF27F0264
:10350000114001605EE041F20C00C4F2010001686C
:103510004EF27F0211408031016053E041F20C0015
:10352000C4F2010001684EF27F021140016049E0DF
:1035300041F20C00C4F2010001684EF27F0211401A
:10354000803101603EE041F20C00C4F201000168EC
:103550004EF27F021140016034E041F20C00C4F2EF
:10356000010001684EF27F0211408031016029E0C4
:1035700041F20C00C4F2010001684EF27F021140DA
:1035800001601FE041F20C00C4F2010001684EF23C
:103590007F0211408031016014E041F20C00C4F25E
:1035A000010001684EF27F02114001600AE041F221
:1035B0000C00C4F2010001684EF27F02114080311C
:1035C0000160FFE703B0704785B00A4603468DF8F7
:1035D0001300ADF8101000208DF80F009DF81300B7
:1035E0000146042802920193009129D80099DFE84E
:1035F00001F003070F171F0001208DF80F0023E0D3
:10360000BDF8100040F20601C2F2000108801BE084
:10361000BDF8100040F20801C2F20001088013E07A
:10362000BDF8100040F20A01C2F2000108800BE070
:10363000BDF8100040F20C01C2F20001088003E066
:1036400001208DF80F00FFE79DF80F0005B07047CF
:1036500080B588B00A4603468DF81F008DF81E100D
:1036600000208DF81D009DF81E00ADF81A00BDF871
:103670001A0000EB8000ADF81A009DF81E000592BC
:103680000493FFF7A5FC9DF81F0001460428039151
:1036900065D80399DFE801F003071E354C000120CF
:1036A0008DF81D005FE040F60040C4F2010040F6D6
:1036B000080101F097F8BDF81A0040F61041C2F277
:1036C000000108809DF81E0040F60E41C2F2000184
:1036D000087048E040F60040C4F2010041F21001D9
:1036E00001F080F8BDF81A0040F61441C2F2000162
:1036F00008809DF81E0040F61241C2F200010870D9
:1037000031E0BDF81A0040F61841C2F2000108800D
:103710009DF81E0040F61641C2F20001087041F209
:103720000000C4F2010041F2100101F05BF81AE060
:1037300040F60000C4F2010041F2100101F052F81D
:10374000BDF81A0040F61C41C2F2000108809DF845
:103750001E0040F61A41C2F20001087003E0012089
:103760008DF81D00FFE70420FDF7DEFB40F600406A
:10377000C4F2010040F60801029000F0FBFF41F2A4
:103780001000029901900846019900F0F3FF41F200
:103790000000C4F20100019900F0ECFF40F60000C7
:1037A000C4F20100019900F0E5FF9DF81D0008B08A
:1037B00080BD000080B588B00A4603468DF81F0022
:1037C0008DF81E1000208DF81D009DF81E00ADF82C
:1037D0001A00BDF81A0000EB8000ADF81A009DF841
:1037E0001E0005920493FFF7F3FB9DF81F000146AE
:1037F0000828039100F2C9800399DFE801F0050968
:10380000213951698198AF0001208DF81D00C0E079
:1038100040F60040C4F201000121C0F2014100F075
:10382000E1FFBDF81A0040F62041C2F20001088015
:103830009DF81E0040F61E41C2F200010870A8E08B
:1038400040F60040C4F201000221C0F2024100F043
:10385000C9FFBDF81A0040F62441C2F200010880F9
:103860009DF81E0040F62241C2F20001087090E06F
:1038700040F60000C4F201008021C0F2804100F057
:10388000B1FFBDF81A0040F62841C2F200010880DD
:103890009DF81E0040F62641C2F20001087078E053
:1038A00040F60000C4F201001021C0F2104100F007
:1038B00099FFBDF81A0040F62C41C2F200010880C1
:1038C0009DF81E0040F62A41C2F20001087060E037
:1038D00040F60000C4F201000821C0F2084100F0E7
:1038E00081FFBDF81A0040F63041C2F200010880A5
:1038F0009DF81E0040F62E41C2F20001087048E01B
:1039000040F60000C4F2010048F2800100F06AFFB6
:10391000BDF81A0040F63441C2F2000108809DF85B
:103920001E0040F63241C2F20001087031E040F65C
:103930000000C4F2010044F2400100F053FFBDF862
:103940001A0040F63841C2F2000108809DF81E00BE
:1039500040F63641C2F2000108701AE040F600005D
:10396000C4F2010042F2200100F03CFFBDF81A0051
:1039700040F63C41C2F2000108809DF81E0040F66E
:103980003A41C2F20001087003E001208DF81D00E9
:10399000FFE70420FDF7C8FA40F60040C4F201003A
:1039A0000121C0F20141029000F0E4FE0221C0F2C8
:1039B0000241029800F0DEFE40F60000C4F2010071
:1039C0008021C0F28041019000F0D4FE1021C0F2AD
:1039D0001041019800F0CEFE0821C0F20841019884
:1039E00000F0C8FE48F28001019800F0C3FE44F2E6
:1039F0004001019800F0BEFE42F22001019800F063
:103A0000B9FE9DF81D0008B080BD000080B588B0EB
:103A100013468C4686468DF81F008DF81E10ADF8B3
:103A20001C2000208DF81B008DF81A00ADF818003E
:103A30009DF81F00014604280593CDF810C0CDF86D
:103A40000CE0029151D80299DFE801F00307192B2D
:103A50003D000020ADF818004BE040F20600C2F235
:103A600000000088ADF8180040F61040C2F20000D7
:103A70000088BDF818100844ADF8180039E040F28D
:103A80000800C2F200000088ADF8180040F61440AB
:103A9000C2F200000088BDF818100844ADF8180004
:103AA00027E040F20A00C2F200000088ADF81800DA
:103AB00040F61840C2F200000088BDF81810084413
:103AC000ADF8180015E040F20C00C2F200000088CA
:103AD000ADF8180040F61C40C2F200000088BDF8A6
:103AE00018100844ADF8180003E00020ADF81800E5
:103AF000FFE7BDF81800002825D0FFE7BDF81C003F
:103B0000BDF81810884212DDFFE7BDF81C00BDF8B3
:103B10001810401A46F26761C6F2666180FB010127
:103B20004A0802EBD1718DF81A10019003E00020D1
:103B30008DF81A00FFE79DF81E009DF81A10FFF798
:103B400039FE009003E002208DF81B00FFE79DF88E
:103B50001B0008B080BD00001EF0040F0CBFEFF387
:103B60000880EFF3098000F001B8704782B0014689
:103B7000019040F64040C2F200000022C261826122
:103B800042610261C260826042600260019A126812
:103B90000260019A52684260019A92688260019ABA
:103BA000D268C260019A12690261019A5269426147
:103BB000019A92698261019AD269C26101BE009143
:103BC00002B0704780B5FFF7C7FFFFE7FEE70000D0
:103BD00080B584B00A460346039002910398029987
:103BE0000192009300F092F804B080BD80B582B0DD
:103BF000014601900198009100F0DEF802B080BD0E
:103C000080B586B00A46034605908DF813100598D6
:103C10000392029300F00EF99DF813100029019011
:103C200006D0FFE70598C18A01F0FE01C18205E0D8
:103C30000598C18A41F00101C182FFE70598817DA5
:103C400000F0E2F905990090084600F0B5F806B0DA
:103C500080BD000080B582B00146019001980091BE
:103C600000F03AF902B080BD80B584B00A46034640
:103C700003908DF80B1003989DF80B1001920093A0
:103C800000F0C2F904B080BD80B584B00A46034696
:103C9000039002910398029901920093FFF798FF15
:103CA00004B080BD80B582B00146019001980091BA
:103CB000FFF79CFF02B080BD80B584B00A46034682
:103CC00003908DF80B1003989DF80B100192009350
:103CD000FFF796FF04B080BD80B582B00146019029
:103CE00001980091FFF7B6FF02B080BD80B584B0A7
:103CF0000A46034603908DF80B1003989DF80B10AD
:103D000001920093FFF7B0FF04B080BD80B590B082
:103D10000A4603460F900E910F98406801210891C2
:103D200007920693FDF736FF0F98C0680899FDF7D4
:103D300031FF0F984168806805900846059900F0AA
:103D40005FFD0F98C168006904900846049900F06F
:103D500057FD00200D900C900B900A9009900F9841
:103D60008068099008980A9003210B9104210C9116
:103D70000D900F99486809A9039100F075FC0F99FF
:103D8000096909910F99C96802900846039900F0E2
:103D90006BFC0E990029019004D0FFE70E980F9953
:103DA000C86106E00F9840F63D71C0F60001C161A0
:103DB000FFE7002010B080BD80B588B001460790B5
:103DC00000208DF81B000798C26800690590104616
:103DD000059A0491114600F013FD07984168806828
:103DE00003900846039900F00BFD0798407D0128D9
:103DF00005DBFFE70798C169407D8847FFE7079823
:103E0000C168006902900846029900F093FC0028FE
:103E100004D0FFE701208DF81B00FFE707984168F9
:103E2000806801900846019900F0B2FC9DF81B00E3
:103E300008B080BD80B588B0014606900698C2687B
:103E4000006905901046059A0491114600F0D8FCCF
:103E500006984168806803900846039900F0D0FCFA
:103E60000698407D012805DBFFE70698C169407D83
:103E70008847FFE70698C1680069029008460299E2
:103E800000F086FC0698407D012805DBFFE70698D8
:103E9000C169407D8847FFE70698416880680190C6
:103EA0000846019900F074FC0698C168006900900A
:103EB0000846009900F03EFC002804D0FFE70120EE
:103EC0008DF81F0003E000208DF81F00FFE79DF82C
:103ED0001F0008B080BD000080B588B00146069084
:103EE0000698C268006905901046059A049111462B
:103EF00000F04EFC069841688068039008460399DC
:103F000000F07EFC0698407D012805DBFFE706985F
:103F1000C169407D8847FFE70698C1680069029043
:103F20000846029900F06CFC0698407D012805DBEC
:103F3000FFE70698C169407D8847FFE70698C1689A
:103F4000006901900846019900F0F4FB002804D1B3
:103F5000FFE701208DF81F0003E000208DF81F000F
:103F6000FFE79DF81F0008B080BD000080B588B055
:103F70000A46034607908DF81B109DF81B000006AB
:103F800000280592049309D5FFE70798C1680069E6
:103F900003900846039900F033FC08E00798C168D5
:103FA000006902900846029900F0F2FBFFE70798CB
:103FB0004168806801900846019900F021FC07984B
:103FC000407D012805DBFFE70798C169407D8847F0
:103FD00003E00120FCF7A8FFFFE70798416880682D
:103FE00000900846009900F0D3FB0798407D012817
:103FF00006DBFFE70798C169407D01388847FFE786
:10400000002008B080BD000080B586B00A46034697
:1040100005908DF8131000208DF812000599D1F845
:1040200004C08968039060460292019300F0B0FBDF
:1040300003988DF81200FFE79DF81200072812DCA4
:10404000FFE705989DF81310FFF790FF9DF81310F8
:1040500049008DF813100090FFE79DF81200013021
:104060008DF81200E8E7002006B080BD80B500F0B2
:1040700005F880BD80B5FFF7F9FF80BD80B543F23C
:104080000000C4F2000000F0D9FC002080BD000058
:1040900080B500F059F880BD80B5FFF7F9FF80BD0D
:1040A00080B58CB040F60000C4F2010001210690FA
:1040B0000591FDF76FFD00200B900A900990089084
:1040C00007900121C0F201410791DDF814E0CDF81D
:1040D00020E0022209920A900B9007A8069A049009
:1040E0001046049B0391194600F0BEFA069902900F
:1040F0000846039900F05AFB44F20D10C0F6000088
:1041000002F038FA01900CB080BD000080B540F29A
:104110005010C2F200000168013101600068B0F582
:10412000FA7F10D9FFE740F25010C2F200000021E0
:10413000016040F60000C4F201000121C0F201411B
:1041400000F06CFCFFE780BD80B5FFF7A9FF80BDE4
:1041500082B0014601900198826822F001028260DB
:10416000009102B07047000084B0014603900398AC
:1041700041F21402C4F2020213681843106010687E
:10418000039A1040029002980191009004B0704789
:1041900082B001460190019841F21C02C4F2020271
:1041A000136823EA00001060009102B0704700001D
:1041B00082B001460190019841F21C02C4F2020251
:1041C000136823EA00001060009102B070470000FD
:1041D00084B001460390039841F21C02C4F202022B
:1041E0001368184310601068039A104002900298F8
:1041F0000191009004B0704784B001460390039889
:1042000041F21C02C4F202021368184310601068E5
:10421000039A1040029002980191009004B07047F8
:1042200082B001460190019841F21002C4F20202EC
:10423000136818431060009102B0704782B00146C5
:104240000190019841F21002C4F20202136818436F
:104250001060009102B0704782B001460190019851
:1042600041F21002C4F20202136823EA0000106057
:10427000009102B07047000082B0014601900198A1
:1042800041F21002C4F20202136823EA0000106037
:10429000009102B07047000082B001460190019881
:1042A00041F21802C4F20202136823EA000010600F
:1042B000009102B07047000082B001460190019861
:1042C00041F21802C4F20202136823EA00001060EF
:1042D000009102B07047000082B001460190019841
:1042E00041F21802C4F20202136823EA00001060CF
:1042F000009102B07047000084B00146039003981B
:1043000041F21802C4F202021368184310601068E8
:10431000039A1040029002980191009004B07047F7
:1043200084B001460390039841F21802C4F20202DD
:104330001368184310601068039A104002900298A6
:104340000191009004B0704784B001460390039837
:1043500041F21802C4F20202136818431060106898
:10436000039A1040029002980191009004B07047A7
:1043700082B001460190019841F20C02C4F202029F
:10438000136818431060009102B0704782B0014674
:104390000190019841F20C02C4F202021368184322
:1043A0001060009102B0704782B001460190019800
:1043B00041F20C02C4F20202136823EA000010600A
:1043C000009102B07047000082B001460190019850
:1043D00041F20C02C4F20202136823EA00001060EA
:1043E000009102B07047000080B584B00146039090
:1043F00001208DF80B00039843F20002C4F2020280
:104400009042019108D1FFE7039800F021F803984A
:10441000002100F031F803E000208DF80B00FFE7E9
:104420009DF80B0004B080BD84B00A46034603909B
:1044300002910298039908600192009304B07047BA
:1044400082B00146019001980068009102B0704767
:1044500082B001460190019801228260009102B071
:104460007047000082B001460190019801228260ED
:10447000009102B07047000084B00A4603460390E2
:1044800002910298039908710192009304B0704759
:1044900082B001460190019801224260009102B071
:1044A0007047000082B00146019001984FF48032BD
:1044B0004260009102B0704782B0014601900198BD
:1044C00004224260009102B07047000082B00146B1
:1044D000019001984FF480224260009102B0704731
:1044E00082B001460190019802224260009102B020
:1044F0007047000082B00146019001984FF40032ED
:104500004260009102B0704784B00A4603460390AF
:1045100002910398029949F6B96CC0F6000C614407
:1045200011F8011C50F801C02CF0010C40F801C03A
:104530000192009304B0704782B001460190019847
:104540000068C0F34000009102B0704782B001469D
:10455000019001980068C0F34040009102B070479C
:1045600084B00A460346039002910398029949F6E3
:10457000B26CC0F6000C614411F8011C4058C0F345
:1045800040000192009304B07047000082B00146E1
:104590000190019840F21442C4F2010210600091AF
:1045A00002B0704742F20000C4F20200016841F418
:1045B000806101607047000042F20000C4F2020016
:1045C000016841F4007101607047000042F2000090
:1045D000C4F20200016841F0100101607047000060
:1045E00042F20000C4F20200006800F007007047C9
:1045F00082B00146019001980088009102B0704796
:1046000082B00146019042F20000C4F2020002684A
:1046100022F00702019B1A430260009102B070472A
:104620000420C4F20100016821F4406101600168C6
:1046300041F40061016070470420C4F20100016888
:1046400021F0E0610160016841F000710160704794
:104650000420C4F20100016821F0E06101600168FA
:1046600041F080710160704780B58AB00A46034608
:104670000790069106980068C0F30F2005900598F2
:104680000990099890FAA0F008900898B0FA80F084
:10469000049002920193FFE705980499C84000280E
:1046A00045D0FFE705980499012202FA01F108427A
:1046B00039D0FFE70498072807D8FFE7049840F2AD
:1046C000011101FA00F0039009E0049808384FF056
:1046D000011101FA00F040F080600390FFE70798B5
:1046E0000399069A526800F0A7F807980399069A6A
:1046F000126900F03DF906984068012805D0FFE7EF
:104700000698406809280DD1FFE707980399069A93
:10471000926800F04FF907980399069AD26800F062
:10472000F3F8FFE7FFE7049801300490B4E70120B5
:104730000AB080BD84B00A460346039002910398F4
:104740008068BDF809100840401AB0FA80F04009AE
:104750000192009304B0704784B00A460346039068
:104760000291BDF80900039948610192009304B0D9
:104770007047000084B00A46034603900291BDF8DA
:104780000900039948610192009304B0704700004A
:1047900084B00A46034603900291BDF809000399CC
:1047A00048610192009304B07047000084B00A464B
:1047B000034603900291BDF80900039948610192F4
:1047C000009304B07047000084B00A46034603908B
:1047D0000291BDF80900039948610192009304B069
:1047E0007047000084B00A46034603900291BDF86A
:1047F0000900039908610192009304B0704700001A
:1048000084B00A46034603900291BDF8090003995B
:1048100008610192009304B07047000084B00A461A
:10482000034603900291BDF80900039908610192C3
:10483000009304B07047000080B58BB013468C46DF
:10484000864606900591049206989DF81710084434
:1048500003900398006805990891089991FAA1F1CD
:1048600007910799B1FA81F189000F2202FA01F14B
:1048700088430499059A0A920A9A92FAA2F2099236
:10488000099AB2FA82F292009140084303990860B3
:104890000293CDF804C0CDF800E00BB080BD00005D
:1048A00080B58BB013468C468646069005910492DF
:1048B00006989DF81710084403900398006805991E
:1048C0000891089991FAA1F107910799B1FA81F13C
:1048D00089000F2202FA01F188430499059A0A928D
:1048E0000A9A92FAA2F20992099AB2FA82F2920014
:1048F00091400843039908600293CDF804C0CDF8B5
:1049000000E00BB080BD000080B58BB013468C4634
:10491000864606900591049206989DF81710084463
:1049200003900398006805990891089991FAA1F1FC
:1049300007910799B1FA81F18900042202FA01F185
:1049400088430499059A0A920A9A92FAA2F2099265
:10495000099AB2FA82F292009140084303990860E2
:104960000293CDF804C0CDF800E00BB080BD00008C
:1049700080B588B013468C46864605900491039214
:104980000598C06804990A0A20EA11200399079241
:10499000079A92FAA2F20692069AB2FA82F291402D
:1049A00008430599C8600293CDF804C0CDF800E033
:1049B00008B080BD80B58BB013468C468646069005
:1049C0000591049206989DF81710084403900398E7
:1049D000006805990891089991FAA1F10791079942
:1049E000B1FA81F18900032202FA01F188430499A6
:1049F000059A0A920A9A92FAA2F20992099AB2FACE
:104A000082F2920091400843039908600293CDF826
:104A100004C0CDF800E00BB080BD000084B00A46B1
:104A20000346039002910398C068BDF809104840FE
:104A30000399C8600192009304B0704782B00146A8
:104A4000019043F20000C4F200004AF6AA2202607C
:104A5000009102B07047000084B00A4603460390FC
:104A6000029103980299B0FBF1F001384EF2140163
:104A7000CEF2000108604EF21800CEF200000021D4
:104A800001604EF21000CEF200000521016001929B
:104A9000009304B07047000047F20400C4F2000025
:104AA0000068C0F38000704741F20800C4F20200C1
:104AB000016841F4000101607047000041F2080004
:104AC000C4F20200016841F4002101607047000057
:104AD00041F20800C4F20200016821F400610160A3
:104AE0007047000041F20800C4F20200016841F47E
:104AF000006101607047000041F20400C4F202004E
:104B0000006800F0F000704741F20400C4F20200B7
:104B1000006800F4E060704741F20400C4F2020053
:104B2000006800F46050704741F20400C4F20200D3
:104B3000006800F00C00704741F20400C4F202006B
:104B4000006800F00C00704780B582B0014601900B
:104B5000009101F06BFA019908600198006801F07A
:104B600027FA019948600198406801F037FA0199E5
:104B700088600198406801F045FA0199C86002B068
:104B800080BD000041F20000C4F20200016841F45F
:104B9000803101607047000041F20000C4F2020061
:104BA000016841F4803101607047000041F200006B
:104BB000C4F202000068C0F34040704741F20800B0
:104BC000C4F202000068C0B2C009704741F2080098
:104BD000C4F202000068C0F3C000704741F2240034
:104BE000C4F20200016841F0010101607047000059
:104BF00041F22400C4F202000068C0F34000704794
:104C000080B584B00A4603460390029141F2040045
:104C1000C4F20200016821F47C11DDF80CC00CF430
:104C2000403CDDF808E04CEA0E0C41EA0C01016062
:104C30000192009304B080BD41F20000C4F2020072
:104C4000016841F0807101607047000041F204008A
:104C5000C4F20200006800F48030704741F20400A2
:104C6000C4F20200006800F47010704741F20400C2
:104C7000C4F202000068C0F34040704741F20000F7
:104C8000C4F202000068C0F34060704782B0014681
:104C9000019041F20400C4F20200026822F0F00226
:104CA000019B1A430260009102B0704782B0014636
:104CB000019041F20400C4F20200026822F4E062B2
:104CC000019B1A430260009102B0704782B0014616
:104CD000019041F20400C4F20200026822F4605222
:104CE000019B1A430260009102B0704782B00146F6
:104CF000019041F20400C4F20200026822F00302B3
:104D0000019B1A430260009102B0704782B00146D5
:104D1000019001980428009109D1FFE74EF210009C
:104D2000CEF20000016841F00401016008E04EF29B
:104D30001000CEF20000016821F004010160FFE7DD
:104D400002B0704782B001460190019840F2000223
:104D5000C2F200021060009102B0704784B00A46AF
:104D600003460390029102980399D1F820C02CEADF
:104D7000000008620192009304B0704782B00146BF
:104D8000019001986FF040020261009102B07047FB
:104D900082B00146019001986FF00102026100911A
:104DA00002B0704782B00146019001986FF0010295
:104DB0000261009102B0704780B58CB001460B9043
:104DC00001208DF82B000B98B0F1804F099108D18C
:104DD000FFE701200890FFF731FA0898FFF74CFA37
:104DE0007CE00B9842F60041C4F20101884209D1EF
:104DF000FFE74FF400600790FFF7C8FA0798FFF746
:104E0000E3FA6AE00B9840F20041C4F200018842E4
:104E100008D1FFE702200690FFF710FA0698FFF787
:104E20002BFA59E00B9840F60001C4F200018842C9
:104E300008D1FFE704200590FFF700FA0598FFF777
:104E40001BFA48E00B9840F60041C4F2000188428A
:104E500008D1FFE708200490FFF7F0F90498FFF766
:104E60000BFA37E00B9841F20001C4F200018842CE
:104E700008D1FFE710200390FFF7E0F90398FFF750
:104E8000FBF926E00B9841F20041C4F20001884290
:104E900008D1FFE720200290FFF7D0F90298FFF732
:104EA000EBF915E00B9843F20041C4F2010188428E
:104EB00009D1FFE74FF400500190FFF767FA01981E
:104EC000FFF782FA03E000208DF82B00FFE7FFE7F1
:104ED000FFE7FFE7FFE7FFE7FFE7FFE79DF82B00AE
:104EE0000CB080BD82B0014601900198026822F0AA
:104EF00080020260009102B07047000082B001465B
:104F000001900198026822F001020260009102B053
:104F10007047000082B0014601900198C26822F4F7
:104F20008042C260009102B07047000082B001462A
:104F300001900198C26822F04002C260009102B064
:104F40007047000082B0014601900198826822F00B
:104F500080028260009102B07047000082B001467A
:104F600001900198826822F080028260009102B074
:104F70007047000082B0014601900198026842F03B
:104F800080020260009102B07047000082B00146CA
:104F900001900198026842F001020260009102B0A3
:104FA0007047000082B0014601900198026842F00B
:104FB00001020260009102B07047000082B0014619
:104FC00001900198C26842F00102C260009102B0F3
:104FD0007047000082B0014601900198426942F09A
:104FE00001024261009102B07047000082B00146A8
:104FF00001900198406A009102B0704780B58DB071
:1050000013468C4686460C900B910A920B98012809
:105010000793CDF818C0CDF814E003D1FFE70020C6
:10502000049030E00B98042803D1FFE7012003909F
:1050300026E00B98102803D1FFE7022002901CE025
:105040000B98402803D1FFE70320019012E00B9852
:10505000B0F5807F03D1FFE70420009007E00B98B4
:105060000621B0F5806F08BF05210091FFE7009889
:105070000190FFE701980290FFE702980390FFE795
:1050800003980490FFE704988DF827000C989DF88A
:10509000271049F6C062C0F60002515C084418307F
:1050A0000890089801689DF8272049F6CE63C0F65D
:1050B00000039A5C032393409943BDF82A3003FA16
:1050C00002F2114301600DB080BD000080B58DB0CB
:1050D00013468C4686460C900B910A920B98012839
:1050E0000793CDF818C0CDF814E003D1FFE70020F6
:1050F000049030E00B98042803D1FFE701200390CF
:1051000026E00B98102803D1FFE7022002901CE054
:105110000B98402803D1FFE70320019012E00B9881
:10512000B0F5807F03D1FFE70420009007E00B98E3
:105130000621B0F5806F08BF05210091FFE70098B8
:105140000190FFE701980290FFE702980390FFE7C4
:1051500003980490FFE704988DF827000C989DF8B9
:10516000271049F6C062C0F60002515C08441830AE
:105170000890089801689DF8272049F6CE63C0F68C
:1051800000039A5CF02393409943BDF82A3003FA58
:1051900002F2114301600DB080BD000080B58CB0FB
:1051A00013468C4686460B900A9109920A9801286C
:1051B0000793CDF818C0CDF814E003D1FFE7002025
:1051C000049030E00A98042803D1FFE701200390FF
:1051D00026E00A98102803D1FFE7022002901CE085
:1051E0000A98402803D1FFE70320019012E00A98B3
:1051F000B0F5807F03D1FFE70420009007E00A9814
:105200000621B0F5806F08BF05210091FFE70098E7
:105210000190FFE701980290FFE702980390FFE7F3
:1052200003980490FFE704988DF823000B98006A18
:105230009DF8231049F6C762C0F60002515C0A22AD
:105240008A409043099A02FA01F108430B990862D7
:105250000CB080BD80B586B00A4603460590049127
:1052600000200390059800680390059842F60041DD
:10527000C4F2010188420292019325D0FFE705980C
:1052800043F20041C4F2010188421DD0FFE70598B6
:10529000B0F1804F18D0FFE7059840F20041C4F20A
:1052A0000001884210D0FFE7059840F60001C4F2E3
:1052B0000001884208D0FFE7059840F60041C4F29B
:1052C0000001884208D1FFE7039820F0700004999C
:1052D000496808430390FFE7059842F60041C4F28D
:1052E0000101884225D0FFE7059843F20041C4F24E
:1052F000010188421DD0FFE70598B0F1804F18D01A
:10530000FFE7059840F20041C4F20001884210D046
:10531000FFE7059840F60001C4F20001884208D07A
:10532000FFE7059840F60041C4F20001884208D129
:10533000FFE7039820F440700499C968084303907C
:10534000FFE703980599086005980499896800F0BB
:105350003FF805980499098800F076F8059842F618
:105360000041C4F20101884208D0FFE7059843F2EA
:105370000041C4F20101884206D1FFE70598049973
:10538000097C00F06DF8FFE70598FFF723FE012088
:1053900006B080BD82B00146019001980069C0F35B
:1053A0008010009102B0704782B0014601900198D0
:1053B000006900F00100009102B0704782B0014620
:1053C00001900198006900F00100009102B070475F
:1053D00084B00A4603460390029102980399C8627A
:1053E0000192009304B0704784B00A4603460390CC
:1053F00002910398806844F20701884302990843A8
:10540000039988600192009304B0704784B00A4603
:105410000346039002910398806844F20701884391
:1054200002990843039988600192009304B0704781
:1054300084B00A4603460390029102980399486299
:105440000192009304B0704784B00A46034603906B
:1054500002910298039988620192009304B0704708
:1054600084B00A46034603900291029803990863A8
:105470000192009304B0704784B00A46034603903B
:1054800002910398806820F0700002990843039904
:1054900088600192009304B07047000084B00A460F
:1054A0000346039002910398406820F0700002992F
:1054B0000843039948600192009304B070470000CC
:1054C00084B00A460346039002910398406820F096
:1054D000700002990843039948600192009304B058
:1054E0007047000082B00146019001986FF02002E1
:1054F0000260009102B0704782B0014601900198AD
:105500006FF040020260009102B0704782B0014625
:10551000019001986FF040020260009102B0704764
:1055200082B0014601900198026922F49042026122
:105530000198426922F02A024261009102B070474C
:1055400080B588B00146079001208DF81B000798B0
:1055500043F60002C4F201029042059109D1FFE72F
:105560004FF480400490FEF703FF0498FEF71CFF01
:105570004BE0079844F20041C4F20001884209D18F
:10558000FFE74FF400300390FEF74AFE0398FEF762
:1055900063FE39E0079844F60001C4F20001884236
:1055A00009D1FFE74FF480200290FEF739FE029800
:1055B000FEF752FE27E0079844F60041C4F20001CE
:1055C000884209D1FFE74FF400200190FEF728FE42
:1055D0000198FEF741FE15E0079845F20001C4F27C
:1055E0000001884209D1FFE74FF480100090FEF7D8
:1055F00017FE0098FEF730FE03E000208DF81B0038
:10560000FFE7FFE7FFE7FFE7FFE79DF81B0008B0B4
:1056100080BD000082B0014601900198C26822F06E
:105620004002C260009102B07047000082B00146A3
:1056300001900198C26822F08002C260009102B01D
:105640007047000082B0014601900198C26842F4A0
:105650000052C260009102B07047000082B0014663
:1056600001900198C26842F02002C260009102B02D
:105670007047000082B0014601900198C26842F074
:105680004002C260009102B07047000082B0014643
:1056900001900198C26842F08002C260009102B09D
:1056A0007047000080B58AB00A4603460990089109
:1056B00000208DF81F00069009980192009300F0D9
:1056C000A5F800286BD1FFE70998C06841F20C618A
:1056D000884308994A68CB6809691A43114308430B
:1056E0000999C86009980899896800F019F909981A
:1056F0000899496900F002F902A8FFF725FA09980C
:1057000043F60001C4F20101884203D1FFE7059886
:10571000069030E0099844F20041C4F2000188424A
:1057200003D1FFE70498069024E0099844F60001AD
:10573000C4F20001884203D1FFE70498069018E004
:10574000099844F60041C4F20001884203D1FFE702
:10575000049806900CE0099845F20001C4F200019B
:10576000884203D1FFE70498069000E0FFE7FFE7D7
:10577000FFE7FFE7FFE7069800280FD0FFE708984C
:10578000006800280AD0FFE701208DF81F00099863
:105790000699089A126800F07FF8FFE7FFE79DF886
:1057A0001F000AB080BD000082B001460190019840
:1057B0000068C0F34010009102B0704782B001460B
:1057C000019001980068C0F38010009102B070470A
:1057D00082B00146019001980068C0F380100091EA
:1057E00002B0704782B00146019001980068C0B2D3
:1057F000C009009102B0704782B001460190019843
:105800000068C0B2C009009102B0704782B0014682
:1058100001900198C068C0F34030009102B0704719
:1058200082B0014601900198C068C0F34010009119
:1058300002B0704782B0014601900198C068C0F381
:105840008010009102B0704782B00146019001982B
:10585000C068C0F38010009102B0704782B001466A
:1058600001900198C068C0B2C009009102B07047B1
:1058700082B0014601900198C068C0B2C009009191
:1058800002B0704782B00146019001984068C0B2F2
:10589000009102B070470000B0B588B013468C4646
:1058A0008646079006910592069819214843059966
:1058B0008900B0FBF1F048F21F51C5F2EB11A0FBDB
:1058C00001246409642504FB1500322505EB001052
:1058D000A0FB0101F02505EA511505EB0414C1F305
:1058E0004311214489B2079CA1600493CDF80CC0F8
:1058F000CDF808E00190009208B0B0BD84B00A462F
:105900000346039002910398406920F44070029985
:105910000843039948610192009304B07047000066
:1059200084B00A460346039002910398006920F46C
:10593000405002990843039908610192009304B012
:105940007047000084B00A46034603908DF80B10A0
:105950009DF80B00039948600192009304B07047D2
:1059600082B00146019001986FF0010282600091BF
:1059700002B07047FFE7FEE780B582B040F2181032
:10598000C2F20000C168002240230190084611467F
:1059900000921A4600F00CF8019880684FF480627B
:1059A000009900F005F801200199087402B080BD4B
:1059B00080B587B013468C46864606908DF8171042
:1059C0000492069803900293CDF804C0CDF800E04D
:1059D000FFE70498411E0491002807D0FFE79DF8D7
:1059E000170003994A1C03920870F2E707B080BDC4
:1059F00082B0002001900090FFE700981F2814D883
:105A0000FFE740F21810C2F20000C068009930F8B9
:105A10001100002804D0FFE7019801300190FFE752
:105A2000FFE7009801300090E7E7019864214843C0
:105A3000C0F3471002B0704780B5FBF7EBF980BDAB
:105A400082B001468DF807009DF9070000F01F02A3
:105A5000012303FA02F240094EF20013CEF20003D2
:105A600043F82020009102B07047000082B0014648
:105A70008DF807009DF9070000F01F02012303FACB
:105A800002F240094EF20013CEF2000343F8202048
:105A9000009102B07047000080B58BB013468C4671
:105AA00086460A90099108920A9800F0070007902C
:105AB0000798C0F1070005280493CDF80CC0CDF875
:105AC00008E003D3FFE70420019004E00798C0F149
:105AD00007000190FFE70198069007980430062818
